{"abi":[{"type":"constructor","inputs":[],"stateMutability":"nonpayable"},{"type":"function","name":"NO_ERROR","inputs":[],"outputs":[{"name":"","type":"uint256","internalType":"uint256"}],"stateMutability":"view"},{"type":"function","name":"_acceptAdmin","inputs":[],"outputs":[{"name":"","type":"uint256","internalType":"uint256"}],"stateMutability":"nonpayable"},{"type":"function","name":"_addReserves","inputs":[{"name":"addAmount","type":"uint256","internalType":"uint256"}],"outputs":[{"name":"","type":"uint256","internalType":"uint256"}],"stateMutability":"nonpayable"},{"type":"function","name":"_becomeImplementation","inputs":[{"name":"data","type":"bytes","internalType":"bytes"}],"outputs":[],"stateMutability":"nonpayable"},{"type":"function","name":"_delegatePeridotLikeTo","inputs":[{"name":"peridotLikeDelegatee","type":"address","internalType":"address"}],"outputs":[],"stateMutability":"nonpayable"},{"type":"function","name":"_reduceReserves","inputs":[{"name":"reduceAmount","type":"uint256","internalType":"uint256"}],"outputs":[{"name":"","type":"uint256","internalType":"uint256"}],"stateMutability":"nonpayable"},{"type":"function","name":"_resignImplementation","inputs":[],"outputs":[],"stateMutability":"nonpayable"},{"type":"function","name":"_setInterestRateModel","inputs":[{"name":"newInterestRateModel","type":"address","internalType":"contract InterestRateModel"}],"outputs":[{"name":"","type":"uint256","internalType":"uint256"}],"stateMutability":"nonpayable"},{"type":"function","name":"_setPendingAdmin","inputs":[{"name":"newPendingAdmin","type":"address","internalType":"address payable"}],"outputs":[{"name":"","type":"uint256","internalType":"uint256"}],"stateMutability":"nonpayable"},{"type":"function","name":"_setPeridottroller","inputs":[{"name":"newPeridottroller","type":"address","internalType":"contract PeridottrollerInterface"}],"outputs":[{"name":"","type":"uint256","internalType":"uint256"}],"stateMutability":"nonpayable"},{"type":"function","name":"_setReserveFactor","inputs":[{"name":"newReserveFactorMantissa","type":"uint256","internalType":"uint256"}],"outputs":[{"name":"","type":"uint256","internalType":"uint256"}],"stateMutability":"nonpayable"},{"type":"function","name":"accrualBlockNumber","inputs":[],"outputs":[{"name":"","type":"uint256","internalType":"uint256"}],"stateMutability":"view"},{"type":"function","name":"accrueInterest","inputs":[],"outputs":[{"name":"","type":"uint256","internalType":"uint256"}],"stateMutability":"nonpayable"},{"type":"function","name":"admin","inputs":[],"outputs":[{"name":"","type":"address","internalType":"address payable"}],"stateMutability":"view"},{"type":"function","name":"allowance","inputs":[{"name":"owner","type":"address","internalType":"address"},{"name":"spender","type":"address","internalType":"address"}],"outputs":[{"name":"","type":"uint256","internalType":"uint256"}],"stateMutability":"view"},{"type":"function","name":"approve","inputs":[{"name":"spender","type":"address","internalType":"address"},{"name":"amount","type":"uint256","internalType":"uint256"}],"outputs":[{"name":"","type":"bool","internalType":"bool"}],"stateMutability":"nonpayable"},{"type":"function","name":"balanceOf","inputs":[{"name":"owner","type":"address","internalType":"address"}],"outputs":[{"name":"","type":"uint256","internalType":"uint256"}],"stateMutability":"view"},{"type":"function","name":"balanceOfUnderlying","inputs":[{"name":"owner","type":"address","internalType":"address"}],"outputs":[{"name":"","type":"uint256","internalType":"uint256"}],"stateMutability":"nonpayable"},{"type":"function","name":"borrow","inputs":[{"name":"borrowAmount","type":"uint256","internalType":"uint256"}],"outputs":[{"name":"","type":"uint256","internalType":"uint256"}],"stateMutability":"nonpayable"},{"type":"function","name":"borrowBalanceCurrent","inputs":[{"name":"account","type":"address","internalType":"address"}],"outputs":[{"name":"","type":"uint256","internalType":"uint256"}],"stateMutability":"nonpayable"},{"type":"function","name":"borrowBalanceStored","inputs":[{"name":"account","type":"address","internalType":"address"}],"outputs":[{"name":"","type":"uint256","internalType":"uint256"}],"stateMutability":"view"},{"type":"function","name":"borrowIndex","inputs":[],"outputs":[{"name":"","type":"uint256","internalType":"uint256"}],"stateMutability":"view"},{"type":"function","name":"borrowRatePerBlock","inputs":[],"outputs":[{"name":"","type":"uint256","internalType":"uint256"}],"stateMutability":"view"},{"type":"function","name":"decimals","inputs":[],"outputs":[{"name":"","type":"uint8","internalType":"uint8"}],"stateMutability":"view"},{"type":"function","name":"exchangeRateCurrent","inputs":[],"outputs":[{"name":"","type":"uint256","internalType":"uint256"}],"stateMutability":"nonpayable"},{"type":"function","name":"exchangeRateStored","inputs":[],"outputs":[{"name":"","type":"uint256","internalType":"uint256"}],"stateMutability":"view"},{"type":"function","name":"getAccountSnapshot","inputs":[{"name":"account","type":"address","internalType":"address"}],"outputs":[{"name":"","type":"uint256","internalType":"uint256"},{"name":"","type":"uint256","internalType":"uint256"},{"name":"","type":"uint256","internalType":"uint256"},{"name":"","type":"uint256","internalType":"uint256"}],"stateMutability":"view"},{"type":"function","name":"getCash","inputs":[],"outputs":[{"name":"","type":"uint256","internalType":"uint256"}],"stateMutability":"view"},{"type":"function","name":"implementation","inputs":[],"outputs":[{"name":"","type":"address","internalType":"address"}],"stateMutability":"view"},{"type":"function","name":"initialize","inputs":[{"name":"underlying_","type":"address","internalType":"address"},{"name":"peridottroller_","type":"address","internalType":"contract PeridottrollerInterface"},{"name":"interestRateModel_","type":"address","internalType":"contract InterestRateModel"},{"name":"initialExchangeRateMantissa_","type":"uint256","internalType":"uint256"},{"name":"name_","type":"string","internalType":"string"},{"name":"symbol_","type":"string","internalType":"string"},{"name":"decimals_","type":"uint8","internalType":"uint8"}],"outputs":[],"stateMutability":"nonpayable"},{"type":"function","name":"initialize","inputs":[{"name":"peridottroller_","type":"address","internalType":"contract PeridottrollerInterface"},{"name":"interestRateModel_","type":"address","internalType":"contract InterestRateModel"},{"name":"initialExchangeRateMantissa_","type":"uint256","internalType":"uint256"},{"name":"name_","type":"string","internalType":"string"},{"name":"symbol_","type":"string","internalType":"string"},{"name":"decimals_","type":"uint8","internalType":"uint8"}],"outputs":[],"stateMutability":"nonpayable"},{"type":"function","name":"interestRateModel","inputs":[],"outputs":[{"name":"","type":"address","internalType":"contract InterestRateModel"}],"stateMutability":"view"},{"type":"function","name":"isPToken","inputs":[],"outputs":[{"name":"","type":"bool","internalType":"bool"}],"stateMutability":"view"},{"type":"function","name":"liquidateBorrow","inputs":[{"name":"borrower","type":"address","internalType":"address"},{"name":"repayAmount","type":"uint256","internalType":"uint256"},{"name":"pTokenCollateral","type":"address","internalType":"contract PTokenInterface"}],"outputs":[{"name":"","type":"uint256","internalType":"uint256"}],"stateMutability":"nonpayable"},{"type":"function","name":"mint","inputs":[{"name":"mintAmount","type":"uint256","internalType":"uint256"}],"outputs":[{"name":"","type":"uint256","internalType":"uint256"}],"stateMutability":"nonpayable"},{"type":"function","name":"name","inputs":[],"outputs":[{"name":"","type":"string","internalType":"string"}],"stateMutability":"view"},{"type":"function","name":"pendingAdmin","inputs":[],"outputs":[{"name":"","type":"address","internalType":"address payable"}],"stateMutability":"view"},{"type":"function","name":"peridottroller","inputs":[],"outputs":[{"name":"","type":"address","internalType":"contract PeridottrollerInterface"}],"stateMutability":"view"},{"type":"function","name":"protocolSeizeShareMantissa","inputs":[],"outputs":[{"name":"","type":"uint256","internalType":"uint256"}],"stateMutability":"view"},{"type":"function","name":"redeem","inputs":[{"name":"redeemTokens","type":"uint256","internalType":"uint256"}],"outputs":[{"name":"","type":"uint256","internalType":"uint256"}],"stateMutability":"nonpayable"},{"type":"function","name":"redeemUnderlying","inputs":[{"name":"redeemAmount","type":"uint256","internalType":"uint256"}],"outputs":[{"name":"","type":"uint256","internalType":"uint256"}],"stateMutability":"nonpayable"},{"type":"function","name":"repayBorrow","inputs":[{"name":"repayAmount","type":"uint256","internalType":"uint256"}],"outputs":[{"name":"","type":"uint256","internalType":"uint256"}],"stateMutability":"nonpayable"},{"type":"function","name":"repayBorrowBehalf","inputs":[{"name":"borrower","type":"address","internalType":"address"},{"name":"repayAmount","type":"uint256","internalType":"uint256"}],"outputs":[{"name":"","type":"uint256","internalType":"uint256"}],"stateMutability":"nonpayable"},{"type":"function","name":"reserveFactorMantissa","inputs":[],"outputs":[{"name":"","type":"uint256","internalType":"uint256"}],"stateMutability":"view"},{"type":"function","name":"seize","inputs":[{"name":"liquidator","type":"address","internalType":"address"},{"name":"borrower","type":"address","internalType":"address"},{"name":"seizeTokens","type":"uint256","internalType":"uint256"}],"outputs":[{"name":"","type":"uint256","internalType":"uint256"}],"stateMutability":"nonpayable"},{"type":"function","name":"supplyRatePerBlock","inputs":[],"outputs":[{"name":"","type":"uint256","internalType":"uint256"}],"stateMutability":"view"},{"type":"function","name":"sweepToken","inputs":[{"name":"token","type":"address","internalType":"contract EIP20NonStandardInterface"}],"outputs":[],"stateMutability":"nonpayable"},{"type":"function","name":"symbol","inputs":[],"outputs":[{"name":"","type":"string","internalType":"string"}],"stateMutability":"view"},{"type":"function","name":"totalBorrows","inputs":[],"outputs":[{"name":"","type":"uint256","internalType":"uint256"}],"stateMutability":"view"},{"type":"function","name":"totalBorrowsCurrent","inputs":[],"outputs":[{"name":"","type":"uint256","internalType":"uint256"}],"stateMutability":"nonpayable"},{"type":"function","name":"totalReserves","inputs":[],"outputs":[{"name":"","type":"uint256","internalType":"uint256"}],"stateMutability":"view"},{"type":"function","name":"totalSupply","inputs":[],"outputs":[{"name":"","type":"uint256","internalType":"uint256"}],"stateMutability":"view"},{"type":"function","name":"transfer","inputs":[{"name":"dst","type":"address","internalType":"address"},{"name":"amount","type":"uint256","internalType":"uint256"}],"outputs":[{"name":"","type":"bool","internalType":"bool"}],"stateMutability":"nonpayable"},{"type":"function","name":"transferFrom","inputs":[{"name":"src","type":"address","internalType":"address"},{"name":"dst","type":"address","internalType":"address"},{"name":"amount","type":"uint256","internalType":"uint256"}],"outputs":[{"name":"","type":"bool","internalType":"bool"}],"stateMutability":"nonpayable"},{"type":"function","name":"underlying","inputs":[],"outputs":[{"name":"","type":"address","internalType":"address"}],"stateMutability":"view"},{"type":"event","name":"AccrueInterest","inputs":[{"name":"cashPrior","type":"uint256","indexed":false,"internalType":"uint256"},{"name":"interestAccumulated","type":"uint256","indexed":false,"internalType":"uint256"},{"name":"borrowIndex","type":"uint256","indexed":false,"internalType":"uint256"},{"name":"totalBorrows","type":"uint256","indexed":false,"internalType":"uint256"}],"anonymous":false},{"type":"event","name":"Approval","inputs":[{"name":"owner","type":"address","indexed":true,"internalType":"address"},{"name":"spender","type":"address","indexed":true,"internalType":"address"},{"name":"amount","type":"uint256","indexed":false,"internalType":"uint256"}],"anonymous":false},{"type":"event","name":"Borrow","inputs":[{"name":"borrower","type":"address","indexed":false,"internalType":"address"},{"name":"borrowAmount","type":"uint256","indexed":false,"internalType":"uint256"},{"name":"accountBorrows","type":"uint256","indexed":false,"internalType":"uint256"},{"name":"totalBorrows","type":"uint256","indexed":false,"internalType":"uint256"}],"anonymous":false},{"type":"event","name":"LiquidateBorrow","inputs":[{"name":"liquidator","type":"address","indexed":false,"internalType":"address"},{"name":"borrower","type":"address","indexed":false,"internalType":"address"},{"name":"repayAmount","type":"uint256","indexed":false,"internalType":"uint256"},{"name":"pTokenCollateral","type":"address","indexed":false,"internalType":"address"},{"name":"seizeTokens","type":"uint256","indexed":false,"internalType":"uint256"}],"anonymous":false},{"type":"event","name":"Mint","inputs":[{"name":"minter","type":"address","indexed":false,"internalType":"address"},{"name":"mintAmount","type":"uint256","indexed":false,"internalType":"uint256"},{"name":"mintTokens","type":"uint256","indexed":false,"internalType":"uint256"}],"anonymous":false},{"type":"event","name":"NewAdmin","inputs":[{"name":"oldAdmin","type":"address","indexed":false,"internalType":"address"},{"name":"newAdmin","type":"address","indexed":false,"internalType":"address"}],"anonymous":false},{"type":"event","name":"NewMarketInterestRateModel","inputs":[{"name":"oldInterestRateModel","type":"address","indexed":false,"internalType":"contract InterestRateModel"},{"name":"newInterestRateModel","type":"address","indexed":false,"internalType":"contract InterestRateModel"}],"anonymous":false},{"type":"event","name":"NewPendingAdmin","inputs":[{"name":"oldPendingAdmin","type":"address","indexed":false,"internalType":"address"},{"name":"newPendingAdmin","type":"address","indexed":false,"internalType":"address"}],"anonymous":false},{"type":"event","name":"NewPeridottroller","inputs":[{"name":"oldPeridottroller","type":"address","indexed":false,"internalType":"contract PeridottrollerInterface"},{"name":"newPeridottroller","type":"address","indexed":false,"internalType":"contract PeridottrollerInterface"}],"anonymous":false},{"type":"event","name":"NewReserveFactor","inputs":[{"name":"oldReserveFactorMantissa","type":"uint256","indexed":false,"internalType":"uint256"},{"name":"newReserveFactorMantissa","type":"uint256","indexed":false,"internalType":"uint256"}],"anonymous":false},{"type":"event","name":"Redeem","inputs":[{"name":"redeemer","type":"address","indexed":false,"internalType":"address"},{"name":"redeemAmount","type":"uint256","indexed":false,"internalType":"uint256"},{"name":"redeemTokens","type":"uint256","indexed":false,"internalType":"uint256"}],"anonymous":false},{"type":"event","name":"RepayBorrow","inputs":[{"name":"payer","type":"address","indexed":false,"internalType":"address"},{"name":"borrower","type":"address","indexed":false,"internalType":"address"},{"name":"repayAmount","type":"uint256","indexed":false,"internalType":"uint256"},{"name":"accountBorrows","type":"uint256","indexed":false,"internalType":"uint256"},{"name":"totalBorrows","type":"uint256","indexed":false,"internalType":"uint256"}],"anonymous":false},{"type":"event","name":"ReservesAdded","inputs":[{"name":"benefactor","type":"address","indexed":false,"internalType":"address"},{"name":"addAmount","type":"uint256","indexed":false,"internalType":"uint256"},{"name":"newTotalReserves","type":"uint256","indexed":false,"internalType":"uint256"}],"anonymous":false},{"type":"event","name":"ReservesReduced","inputs":[{"name":"admin","type":"address","indexed":false,"internalType":"address"},{"name":"reduceAmount","type":"uint256","indexed":false,"internalType":"uint256"},{"name":"newTotalReserves","type":"uint256","indexed":false,"internalType":"uint256"}],"anonymous":false},{"type":"event","name":"Transfer","inputs":[{"name":"from","type":"address","indexed":true,"internalType":"address"},{"name":"to","type":"address","indexed":true,"internalType":"address"},{"name":"amount","type":"uint256","indexed":false,"internalType":"uint256"}],"anonymous":false},{"type":"error","name":"AcceptAdminPendingAdminCheck","inputs":[]},{"type":"error","name":"AddReservesFactorFreshCheck","inputs":[{"name":"actualAddAmount","type":"uint256","internalType":"uint256"}]},{"type":"error","name":"BorrowCashNotAvailable","inputs":[]},{"type":"error","name":"BorrowFreshnessCheck","inputs":[]},{"type":"error","name":"BorrowPeridottrollerRejection","inputs":[{"name":"errorCode","type":"uint256","internalType":"uint256"}]},{"type":"error","name":"LiquidateAccrueBorrowInterestFailed","inputs":[{"name":"errorCode","type":"uint256","internalType":"uint256"}]},{"type":"error","name":"LiquidateAccrueCollateralInterestFailed","inputs":[{"name":"errorCode","type":"uint256","internalType":"uint256"}]},{"type":"error","name":"LiquidateCloseAmountIsUintMax","inputs":[]},{"type":"error","name":"LiquidateCloseAmountIsZero","inputs":[]},{"type":"error","name":"LiquidateCollateralFreshnessCheck","inputs":[]},{"type":"error","name":"LiquidateFreshnessCheck","inputs":[]},{"type":"error","name":"LiquidateLiquidatorIsBorrower","inputs":[]},{"type":"error","name":"LiquidatePeridottrollerRejection","inputs":[{"name":"errorCode","type":"uint256","internalType":"uint256"}]},{"type":"error","name":"LiquidateRepayBorrowFreshFailed","inputs":[{"name":"errorCode","type":"uint256","internalType":"uint256"}]},{"type":"error","name":"LiquidateSeizeLiquidatorIsBorrower","inputs":[]},{"type":"error","name":"LiquidateSeizePeridottrollerRejection","inputs":[{"name":"errorCode","type":"uint256","internalType":"uint256"}]},{"type":"error","name":"MintFreshnessCheck","inputs":[]},{"type":"error","name":"MintPeridottrollerRejection","inputs":[{"name":"errorCode","type":"uint256","internalType":"uint256"}]},{"type":"error","name":"RedeemFreshnessCheck","inputs":[]},{"type":"error","name":"RedeemPeridottrollerRejection","inputs":[{"name":"errorCode","type":"uint256","internalType":"uint256"}]},{"type":"error","name":"RedeemTransferOutNotPossible","inputs":[]},{"type":"error","name":"ReduceReservesAdminCheck","inputs":[]},{"type":"error","name":"ReduceReservesCashNotAvailable","inputs":[]},{"type":"error","name":"ReduceReservesCashValidation","inputs":[]},{"type":"error","name":"ReduceReservesFreshCheck","inputs":[]},{"type":"error","name":"RepayBorrowFreshnessCheck","inputs":[]},{"type":"error","name":"RepayBorrowPeridottrollerRejection","inputs":[{"name":"errorCode","type":"uint256","internalType":"uint256"}]},{"type":"error","name":"SetInterestRateModelFreshCheck","inputs":[]},{"type":"error","name":"SetInterestRateModelOwnerCheck","inputs":[]},{"type":"error","name":"SetPendingAdminOwnerCheck","inputs":[]},{"type":"error","name":"SetPeridottrollerOwnerCheck","inputs":[]},{"type":"error","name":"SetReserveFactorAdminCheck","inputs":[]},{"type":"error","name":"SetReserveFactorBoundsCheck","inputs":[]},{"type":"error","name":"SetReserveFactorFreshCheck","inputs":[]},{"type":"error","name":"TransferNotAllowed","inputs":[]},{"type":"error","name":"TransferNotEnough","inputs":[]},{"type":"error","name":"TransferPeridottrollerRejection","inputs":[{"name":"errorCode","type":"uint256","internalType":"uint256"}]},{"type":"error","name":"TransferTooMuch","inputs":[]}],"bytecode":{"object":"0x6080604052348015600e575f5ffd5b50613a628061001c5f395ff3fe608060405234801561000f575f5ffd5b506004361061034d575f3560e01c806373acee98116101c9578063bd6d894d116100fe578063e9c714f21161009e578063f5e3c46211610079578063f5e3c46214610708578063f851a4401461071b578063f8f9da2814610733578063fca7820b1461073b575f5ffd5b8063e9c714f2146106da578063f2b3abbd146106e2578063f3fdb15a146106f5575f5ffd5b8063c5ebeaec116100d9578063c5ebeaec14610669578063d5c6d3bd1461067c578063db006a751461068f578063dd62ed3e146106a2575f5ffd5b8063bd6d894d1461061b578063c37f68e214610623578063c423fe2914610656575f5ffd5b8063a252d8be11610169578063aa5af0fd11610144578063aa5af0fd146105e4578063ae9d70b0146105ed578063b2a02ff1146105f5578063b71d1a0c14610608575f5ffd5b8063a252d8be146105b6578063a6afed95146105c9578063a9059cbb146105d1575f5ffd5b806395d89b41116101a457806395d89b411461057557806395dd91931461057d57806399d8c1b414610590578063a0712d68146105a3575f5ffd5b806373acee9814610551578063852a12e3146105595780638f840ddd1461056c575f5ffd5b8063313ce5671161029f5780635c60da1b1161023f57806369ab32501161021a57806369ab3250146105065780636c540baf1461050d5780636f307dc31461051657806370a0823114610529575f5ffd5b80635c60da1b146104d2578063601a0bf1146104e55780636752e702146104f8575f5ffd5b80633e9410101161027a5780633e9410101461049b57806347bd3718146104ae57806356e67728146104b75780635a890c0e146104ca575f5ffd5b8063313ce567146104615780633af9e669146104805780633b1d21a214610493575f5ffd5b806318160ddd1161030a5780631be19560116102e55780631be19560146103fd57806323b872dd146104105780632608f818146104235780632678224714610436575f5ffd5b806318160ddd146103d9578063182df0f5146103e25780631a31d465146103ea575f5ffd5b806306fdde0314610351578063095ea7b31461036f5780630e75270214610392578063153ab505146103b3578063173b9904146103bd57806317bfdfbc146103c6575b5f5ffd5b61035961074e565b60405161036691906133ee565b60405180910390f35b61038261037d366004613437565b6107da565b6040519015158152602001610366565b6103a56103a0366004613461565b610849565b604051908152602001610366565b6103bb61085a565b005b6103a560085481565b6103a56103d4366004613478565b6108d6565b6103a5600d5481565b6103a5610926565b6103bb6103f8366004613551565b610934565b6103bb61040b366004613478565b6109c7565b61038261041e366004613605565b610b8b565b6103a5610431366004613437565b610bd8565b600454610449906001600160a01b031681565b6040516001600160a01b039091168152602001610366565b60035461046e9060ff1681565b60405160ff9091168152602001610366565b6103a561048e366004613478565b610beb565b6103a5610c2f565b6103a56104a9366004613461565b610c38565b6103a5600b5481565b6103bb6104c5366004613643565b610c42565b610382600181565b601254610449906001600160a01b031681565b6103a56104f3366004613461565b610cba565b6103a5666379da05b6000081565b6103a55f81565b6103a560095481565b601154610449906001600160a01b031681565b6103a5610537366004613478565b6001600160a01b03165f908152600e602052604090205490565b6103a5610cf7565b6103a5610567366004613461565b610d3e565b6103a5600c5481565b610359610d48565b6103a561058b366004613478565b610d55565b6103bb61059e366004613688565b610d5f565b6103a56105b1366004613461565b610faa565b6103bb6105c4366004613478565b610fb4565b6103a5611089565b6103826105df366004613437565b611269565b6103a5600a5481565b6103a56112b5565b6103a5610603366004613605565b61134a565b6103a5610616366004613478565b611396565b6103a561142e565b610636610631366004613478565b61147b565b604080519485526020850193909352918301526060820152608001610366565b600554610449906001600160a01b031681565b6103a5610677366004613461565b6114bb565b6103a561068a366004613478565b6114c5565b6103a561069d366004613461565b611609565b6103a56106b0366004613729565b6001600160a01b039182165f908152600f6020908152604080832093909416825291909152205490565b6103a5611613565b6103a56106f0366004613478565b611718565b600654610449906001600160a01b031681565b6103a5610716366004613760565b61172b565b6003546104499061010090046001600160a01b031681565b6103a5611740565b6103a5610749366004613461565b611792565b6001805461075b9061379f565b80601f01602080910402602001604051908101604052809291908181526020018280546107879061379f565b80156107d25780601f106107a9576101008083540402835291602001916107d2565b820191905f5260205f20905b8154815290600101906020018083116107b557829003601f168201915b505050505081565b335f818152600f602090815260408083206001600160a01b03871680855292528083208590555191929182907f8c5be1e5ebec7d5bd14f71427d1e84f3dd0314c0f7b2291e5b200ac8c7c3b925906108359087815260200190565b60405180910390a360019150505b92915050565b5f610853826117cf565b505f919050565b60035461010090046001600160a01b031633146108d45760405162461bcd60e51b815260206004820152602d60248201527f6f6e6c79207468652061646d696e206d61792063616c6c205f72657369676e4960448201526c36b83632b6b2b73a30ba34b7b760991b60648201526084015b60405180910390fd5b565b5f805460ff166108f85760405162461bcd60e51b81526004016108cb906137d7565b5f805460ff19169055610909611089565b5061091382610d55565b90505f805460ff19166001179055919050565b5f61092f61181d565b905090565b610942868686868686610d5f565b601180546001600160a01b0319166001600160a01b038916908117909155604080516318160ddd60e01b815290516318160ddd916004808201926020929091908290030181865afa158015610999573d5f5f3e3d5ffd5b505050506040513d601f19601f820116820180604052508101906109bd91906137fb565b5050505050505050565b60035461010090046001600160a01b03163314610a3e5760405162461bcd60e51b815260206004820152602f60248201527f5045726332303a3a7377656570546f6b656e3a206f6e6c792061646d696e206360448201526e616e20737765657020746f6b656e7360881b60648201526084016108cb565b6011546001600160a01b0390811690821603610ab75760405162461bcd60e51b815260206004820152603260248201527f5045726332303a3a7377656570546f6b656e3a2063616e206e6f74207377656560448201527138103ab73232b9363cb4b733903a37b5b2b760711b60648201526084016108cb565b6040516370a0823160e01b81523060048201525f906001600160a01b038316906370a0823190602401602060405180830381865afa158015610afb573d5f5f3e3d5ffd5b505050506040513d601f19601f82011682018060405250810190610b1f91906137fb565b60035460405163a9059cbb60e01b81526001600160a01b03610100909204821660048201526024810183905291925083169063a9059cbb906044015f604051808303815f87803b158015610b71575f5ffd5b505af1158015610b83573d5f5f3e3d5ffd5b505050505050565b5f805460ff16610bad5760405162461bcd60e51b81526004016108cb906137d7565b5f805460ff19168155610bc233868686611881565b1490505f805460ff191660011790559392505050565b5f610be38383611a98565b505f92915050565b5f5f6040518060200160405280610c0061142e565b90526001600160a01b0384165f908152600e6020526040902054909150610c28908290611ae7565b9392505050565b5f61092f611b06565b5f61084382611b78565b60035461010090046001600160a01b03163314610cb75760405162461bcd60e51b815260206004820152602d60248201527f6f6e6c79207468652061646d696e206d61792063616c6c205f6265636f6d654960448201526c36b83632b6b2b73a30ba34b7b760991b60648201526084016108cb565b50565b5f805460ff16610cdc5760405162461bcd60e51b81526004016108cb906137d7565b5f805460ff19169055610ced611089565b5061091382611bcb565b5f805460ff16610d195760405162461bcd60e51b81526004016108cb906137d7565b5f805460ff19169055610d2a611089565b5050600b545f805460ff1916600117905590565b5f61085382611ce5565b6002805461075b9061379f565b5f61084382611d32565b60035461010090046001600160a01b03163314610dca5760405162461bcd60e51b8152602060048201526024808201527f6f6e6c792061646d696e206d617920696e697469616c697a6520746865206d616044820152631c9ad95d60e21b60648201526084016108cb565b600954158015610dda5750600a54155b610e325760405162461bcd60e51b815260206004820152602360248201527f6d61726b6574206d6179206f6e6c7920626520696e697469616c697a6564206f6044820152626e636560e81b60648201526084016108cb565b600784905583610e9d5760405162461bcd60e51b815260206004820152603060248201527f696e697469616c2065786368616e67652072617465206d75737420626520677260448201526f32b0ba32b9103a3430b7103d32b9379760811b60648201526084016108cb565b5f610ea7876114c5565b90508015610ef75760405162461bcd60e51b815260206004820152601d60248201527f73657474696e672070657269646f7474726f6c6c6572206661696c656400000060448201526064016108cb565b43600955670de0b6b3a7640000600a55610f1086611d7b565b90508015610f6b5760405162461bcd60e51b815260206004820152602260248201527f73657474696e6720696e7465726573742072617465206d6f64656c206661696c604482015261195960f21b60648201526084016108cb565b6001610f77858261385b565b506002610f84848261385b565b50506003805460ff90921660ff199283161790555f805490911660011790555050505050565b5f61085382611eec565b60035461010090046001600160a01b0316331461102c5760405162461bcd60e51b815260206004820152603060248201527f6f6e6c79207468652061646d696e206d6179207365742074686520706572696460448201526f6f742d6c696b652064656c656761746560801b60648201526084016108cb565b6011546040516317066a5760e21b81526001600160a01b03838116600483015290911690635c19a95c906024015f604051808303815f87803b158015611070575f5ffd5b505af1158015611082573d5f5f3e3d5ffd5b5050505050565b6009545f90439081810361109f575f9250505090565b5f6110a8611b06565b600b54600c54600a546006546040516315f2405360e01b81526004810186905260248101859052604481018490529495509293919290915f916001600160a01b0316906315f2405390606401602060405180830381865afa15801561110f573d5f5f3e3d5ffd5b505050506040513d601f19601f8201168201806040525081019061113391906137fb565b905065048c2739500081111561118b5760405162461bcd60e51b815260206004820152601c60248201527f626f72726f772072617465206973206162737572646c7920686967680000000060448201526064016108cb565b5f611196878961392a565b90505f6111b160405180602001604052808581525083611f29565b90505f6111be8288611ae7565b90505f6111cb888361393d565b90505f6111e96040518060200160405280600854815250848a611f58565b90505f6111f785898a611f58565b60098e9055600a819055600b849055600c839055604080518d815260208101879052908101829052606081018590529091507f4dec04e750ca11537cabcd8a9eab06494de08da3735bc8871cd41250e190bc049060800160405180910390a15f9d505050505050505050505050505090565b5f805460ff1661128b5760405162461bcd60e51b81526004016108cb906137d7565b5f805460ff191681556112a033808686611881565b1490505f805460ff1916600117905592915050565b6006545f906001600160a01b031663b81688166112d0611b06565b600b54600c546008546040516001600160e01b031960e087901b16815260048101949094526024840192909252604483015260648201526084015b602060405180830381865afa158015611326573d5f5f3e3d5ffd5b505050506040513d601f19601f8201168201806040525081019061092f91906137fb565b5f805460ff1661136c5760405162461bcd60e51b81526004016108cb906137d7565b5f805460ff1916905561138133858585611f78565b505f5f805460ff191660011790559392505050565b6003545f9061010090046001600160a01b031633146113c857604051635cb56c2b60e01b815260040160405180910390fd5b600480546001600160a01b038481166001600160a01b031983168117909355604080519190921680825260208201939093527fca4f2f25d0898edd99413412fb94012f9e54ec8142f9b093e7720646a95b16a991015b60405180910390a1505f92915050565b5f805460ff166114505760405162461bcd60e51b81526004016108cb906137d7565b5f805460ff19169055611461611089565b5061146a610926565b90505f805460ff1916600117905590565b6001600160a01b0381165f908152600e602052604081205481908190819081906114a487611d32565b6114ac61181d565b93509350935093509193509193565b5f610853826121e2565b6003545f9061010090046001600160a01b031633146114f757604051634c2fa00360e01b815260040160405180910390fd5b6005546040805163fa707af960e01b815290516001600160a01b039283169285169163fa707af99160048083019260209291908290030181865afa158015611541573d5f5f3e3d5ffd5b505050506040513d601f19601f820116820180604052508101906115659190613950565b6115b15760405162461bcd60e51b815260206004820152601c60248201527f6d61726b6572206d6574686f642072657475726e65642066616c73650000000060448201526064016108cb565b600580546001600160a01b0319166001600160a01b0385811691821790925560408051928416835260208301919091527ff911792cf103798503b6dab0992e023d45661865683c550a919b8c9ad07dbf7f910161141e565b5f6108538261221f565b6004545f906001600160a01b03163314158061162d575033155b1561164b57604051631ba24f2960e21b815260040160405180910390fd5b60038054600480546001600160a01b03808216610100818102610100600160a81b0319871617968790556001600160a01b031990931690935560408051948390048216808652929095041660208401529290917ff9ffabca9c8276e99321725bcb43fb076a6c66a54b7f21c4e8146d8519b417dc910160405180910390a1600454604080516001600160a01b03808516825290921660208301527fca4f2f25d0898edd99413412fb94012f9e54ec8142f9b093e7720646a95b16a9910160405180910390a15f9250505090565b5f611721611089565b5061084382611d7b565b5f61173784848461225d565b505f9392505050565b6006545f906001600160a01b03166315f2405361175b611b06565b600b54600c546040516001600160e01b031960e086901b16815260048101939093526024830191909152604482015260640161130b565b5f805460ff166117b45760405162461bcd60e51b81526004016108cb906137d7565b5f805460ff191690556117c5611089565b5061091382612334565b5f5460ff166117f05760405162461bcd60e51b81526004016108cb906137d7565b5f805460ff19169055611801611089565b5061180d3333836123ef565b50505f805460ff19166001179055565b600d545f9080820361183157505060075490565b5f61183a611b06565b90505f600c54600b548361184e919061393d565b611858919061392a565b90505f8361186e670de0b6b3a76400008461396f565b6118789190613986565b95945050505050565b6005546040516317b9b84b60e31b81523060048201526001600160a01b0385811660248301528481166044830152606482018490525f92839291169063bdcdc258906084016020604051808303815f875af11580156118e2573d5f5f3e3d5ffd5b505050506040513d601f19601f8201168201806040525081019061190691906137fb565b9050801561192a57604051630c93cb5b60e01b8152600481018290526024016108cb565b836001600160a01b0316856001600160a01b03160361195c57604051638cd22d1960e01b815260040160405180910390fd5b5f6001600160a01b038087169088160361197857505f1961199f565b506001600160a01b038086165f908152600f60209081526040808320938a16835292905220545b5f6119aa858361392a565b6001600160a01b0388165f908152600e6020526040812054919250906119d190879061392a565b6001600160a01b0388165f908152600e6020526040812054919250906119f890889061393d565b6001600160a01b03808b165f908152600e6020526040808220869055918b1681522081905590505f198414611a4f576001600160a01b03808a165f908152600f60209081526040808320938e168352929052208390555b876001600160a01b0316896001600160a01b03165f516020613a0d5f395f51905f5289604051611a8191815260200190565b60405180910390a3505f9998505050505050505050565b5f5460ff16611ab95760405162461bcd60e51b81526004016108cb906137d7565b5f805460ff19169055611aca611089565b50611ad63383836123ef565b50505f805460ff1916600117905550565b5f5f611af38484611f29565b9050611afe8161258d565b949350505050565b6011546040516370a0823160e01b81523060048201525f916001600160a01b03169081906370a0823190602401602060405180830381865afa158015611b4e573d5f5f3e3d5ffd5b505050506040513d601f19601f82011682018060405250810190611b7291906137fb565b91505090565b5f805460ff16611b9a5760405162461bcd60e51b81526004016108cb906137d7565b5f805460ff19169055611bab611089565b50611bb5826125a4565b50505f90505f805460ff19166001179055919050565b6003545f90819061010090046001600160a01b03163314611bff57604051630f7e5e6d60e41b815260040160405180910390fd5b4360095414611c2157604051630dff50cb60e41b815260040160405180910390fd5b82611c2a611b06565b1015611c4957604051633345e99960e01b815260040160405180910390fd5b600c54831115611c6c576040516378d2980560e11b815260040160405180910390fd5b82600c54611c7a919061392a565b600c819055600354909150611c9d9061010090046001600160a01b031684612636565b7f3bad0c59cf2f06e7314077049f48a93578cd16f5ef92329f1dab1420a99c177e600360019054906101000a90046001600160a01b0316848360405161141e939291906139a5565b5f5460ff16611d065760405162461bcd60e51b81526004016108cb906137d7565b5f805460ff19169055611d17611089565b50611d23335f83612715565b505f805460ff19166001179055565b6001600160a01b0381165f90815260106020526040812080548203611d5957505f92915050565b600a5481545f91611d699161396f565b9050816001015481611afe9190613986565b6003545f90819061010090046001600160a01b03163314611daf5760405163407fded560e01b815260040160405180910390fd5b4360095414611dd157604051630be2a5cb60e11b815260040160405180910390fd5b60065f9054906101000a90046001600160a01b03169050826001600160a01b0316632191f92a6040518163ffffffff1660e01b8152600401602060405180830381865afa158015611e24573d5f5f3e3d5ffd5b505050506040513d601f19601f82011682018060405250810190611e489190613950565b611e945760405162461bcd60e51b815260206004820152601c60248201527f6d61726b6572206d6574686f642072657475726e65642066616c73650000000060448201526064016108cb565b600680546001600160a01b0319166001600160a01b0385811691821790925560408051928416835260208301919091527fedffc32e068c7c95dfd4bdfd5c4d939a084d6b11c4199eac8436ed234d72f926910161141e565b5f5460ff16611f0d5760405162461bcd60e51b81526004016108cb906137d7565b5f805460ff19169055611f1e611089565b50611d2333826129e4565b60408051602081019091525f81526040518060200160405280611f4f855f015185612b90565b90529392505050565b5f5f611f648585611f29565b9050611878611f728261258d565b84612b9b565b60055460405163d02f735160e01b81523060048201526001600160a01b03868116602483015285811660448301528481166064830152608482018490525f92169063d02f73519060a4016020604051808303815f875af1158015611fde573d5f5f3e3d5ffd5b505050506040513d601f19601f8201168201806040525081019061200291906137fb565b90508015612026576040516305a647b960e31b8152600481018290526024016108cb565b836001600160a01b0316836001600160a01b03160361205857604051633a94626760e11b815260040160405180910390fd5b5f612078836040518060200160405280666379da05b60000815250612ba6565b90505f612085828561392a565b90505f604051806020016040528061209b61181d565b905290505f6120aa8285611ae7565b90505f81600c546120bb919061393d565b600c819055600d549091506120d190869061392a565b600d556001600160a01b0388165f908152600e60205260409020546120f790889061392a565b6001600160a01b03808a165f908152600e602052604080822093909355908b168152205461212690859061393d565b6001600160a01b03808b165f818152600e602052604090819020939093559151908a16905f516020613a0d5f395f51905f52906121669088815260200190565b60405180910390a360405185815230906001600160a01b038a16905f516020613a0d5f395f51905f529060200160405180910390a37fa91e67c5ea634cd43a12c5a482724b03de01e85ca68702a53d0c2f45cb7c1dc53083836040516121ce939291906139a5565b60405180910390a150505050505050505050565b5f5460ff166122035760405162461bcd60e51b81526004016108cb906137d7565b5f805460ff19169055612214611089565b50611d233382612bc7565b5f5460ff166122405760405162461bcd60e51b81526004016108cb906137d7565b5f805460ff19169055612251611089565b50611d2333825f612715565b5f5460ff1661227e5760405162461bcd60e51b81526004016108cb906137d7565b5f805460ff1916905561228f611089565b505f816001600160a01b031663a6afed956040518163ffffffff1660e01b81526004016020604051808303815f875af11580156122ce573d5f5f3e3d5ffd5b505050506040513d601f19601f820116820180604052508101906122f291906137fb565b9050801561231657604051633eea49b760e11b8152600481018290526024016108cb565b61232233858585612d5e565b50505f805460ff191660011790555050565b6003545f9061010090046001600160a01b0316331461236657604051631205b57b60e11b815260040160405180910390fd5b436009541461238857604051637dfca6b760e11b815260040160405180910390fd5b670de0b6b3a76400008211156123b15760405163717220f360e11b815260040160405180910390fd5b600880549083905560408051828152602081018590527faaa68312e2ea9d50e16af5068410ab56e1a1fd06037b1a35664812c30f821460910161141e565b600554604051631200453160e11b81523060048201526001600160a01b0385811660248301528481166044830152606482018490525f9283929116906324008a62906084016020604051808303815f875af1158015612450573d5f5f3e3d5ffd5b505050506040513d601f19601f8201168201806040525081019061247491906137fb565b90508015612498576040516335a6a70b60e21b8152600481018290526024016108cb565b43600954146124ba5760405163c9021e2f60e01b815260040160405180910390fd5b5f6124c485611d32565b90505f5f1985146124d557846124d7565b815b90505f6124e48883613205565b90505f6124f1828561392a565b90505f82600b54612502919061392a565b6001600160a01b038a81165f81815260106020908152604091829020878155600a54600190910155600b8590558151938f168452830191909152810185905260608101849052608081018290529091507f1a2a22cb034d26d1854bdc6666a5b91fe25efbbb5dcad3b0355478d6f5c362a19060a00160405180910390a1509098975050505050505050565b80515f9061084390670de0b6b3a764000090613986565b5f80808043600954146125cd576040516338acf79960e01b8152600481018290526024016108cb565b6125d73386613205565b905080600c546125e7919061393d565b915081600c819055507fa91e67c5ea634cd43a12c5a482724b03de01e85ca68702a53d0c2f45cb7c1dc5338284604051612623939291906139a5565b60405180910390a15f9590945092505050565b60115460405163a9059cbb60e01b81526001600160a01b0384811660048301526024820184905290911690819063a9059cbb906044015f604051808303815f87803b158015612683575f5ffd5b505af1158015612695573d5f5f3e3d5ffd5b505050505f3d5f81146126ae57602081146126b7575f5ffd5b5f1991506126c1565b60205f5f3e5f5191505b508061270f5760405162461bcd60e51b815260206004820152601960248201527f544f4b454e5f5452414e534645525f4f55545f4641494c45440000000000000060448201526064016108cb565b50505050565b811580612720575080155b6127895760405162461bcd60e51b815260206004820152603460248201527f6f6e65206f662072656465656d546f6b656e73496e206f722072656465656d416044820152736d6f756e74496e206d757374206265207a65726f60601b60648201526084016108cb565b5f604051806020016040528061279d61181d565b905290505f8084156127bd578491506127b68386611ae7565b90506127cd565b6127c784846133cb565b91508390505b60055460405163eabe7d9160e01b81525f916001600160a01b03169063eabe7d91906128019030908b9088906004016139c6565b6020604051808303815f875af115801561281d573d5f5f3e3d5ffd5b505050506040513d601f19601f8201168201806040525081019061284191906137fb565b9050801561286557604051635bd5f7ab60e11b8152600481018290526024016108cb565b4360095414612887576040516397b5cfcd60e01b815260040160405180910390fd5b81612890611b06565b10156128af576040516391240a1b60e01b815260040160405180910390fd5b82600d546128bd919061392a565b600d556001600160a01b0387165f908152600e60205260409020546128e390849061392a565b6001600160a01b0388165f908152600e60205260409020556129058783612636565b60405183815230906001600160a01b038916905f516020613a0d5f395f51905f529060200160405180910390a37fe5b754fb1abb7f01b499791d0b820ae3b6af3424ac1c59768edb53f4ec31a929878385604051612965939291906139a5565b60405180910390a16005546040516351dff98960e01b81523060048201526001600160a01b0389811660248301526044820185905260648201869052909116906351dff989906084015f604051808303815f87803b1580156129c5575f5ffd5b505af11580156129d7573d5f5f3e3d5ffd5b5050505050505050505050565b600554604051634ef4c3e160e01b81525f916001600160a01b031690634ef4c3e190612a18903090879087906004016139c6565b6020604051808303815f875af1158015612a34573d5f5f3e3d5ffd5b505050506040513d601f19601f82011682018060405250810190612a5891906137fb565b90508015612a7c576040516303171a8760e61b8152600481018290526024016108cb565b4360095414612a9e576040516338d8859760e01b815260040160405180910390fd5b5f6040518060200160405280612ab261181d565b905290505f612ac18585613205565b90505f612ace82846133cb565b905080600d54612ade919061393d565b600d556001600160a01b0386165f908152600e6020526040902054612b0490829061393d565b6001600160a01b0387165f908152600e60205260409081902091909155517f4c209b5fc8ad50758f13e2e1088ba56a560dff690a1c6fef26394f4c03821c4f90612b53908890859085906139a5565b60405180910390a16040518181526001600160a01b0387169030905f516020613a0d5f395f51905f529060200160405180910390a3505050505050565b5f610c28828461396f565b5f610c28828461393d565b5f670de0b6b3a7640000612bbd84845f0151612b90565b610c289190613986565b60055460405163368f515360e21b81525f916001600160a01b03169063da3d454c90612bfb903090879087906004016139c6565b6020604051808303815f875af1158015612c17573d5f5f3e3d5ffd5b505050506040513d601f19601f82011682018060405250810190612c3b91906137fb565b90508015612c5f57604051635684deff60e11b8152600481018290526024016108cb565b4360095414612c8157604051630e8d8c6160e21b815260040160405180910390fd5b81612c8a611b06565b1015612ca9576040516348c2588160e01b815260040160405180910390fd5b5f612cb384611d32565b90505f612cc0848361393d565b90505f84600b54612cd1919061393d565b6001600160a01b0387165f908152601060205260409020838155600a54600190910155600b8190559050612d058686612636565b604080516001600160a01b038816815260208101879052908101839052606081018290527f13ed6866d4e1ee6da46f845c46d7e54120883d75c5ea9a2dacc1c4ca8984ab809060800160405180910390a1505050505050565b600554604051632fe3f38f60e11b81523060048201526001600160a01b03838116602483015286811660448301528581166064830152608482018590525f921690635fc7e71e9060a4016020604051808303815f875af1158015612dc4573d5f5f3e3d5ffd5b505050506040513d601f19601f82011682018060405250810190612de891906137fb565b90508015612e0c57604051632d33e4f360e21b8152600481018290526024016108cb565b4360095414612e2e576040516380965b1b60e01b815260040160405180910390fd5b43826001600160a01b0316636c540baf6040518163ffffffff1660e01b8152600401602060405180830381865afa158015612e6b573d5f5f3e3d5ffd5b505050506040513d601f19601f82011682018060405250810190612e8f91906137fb565b14612ead57604051631046f38d60e31b815260040160405180910390fd5b846001600160a01b0316846001600160a01b031603612edf57604051631bd1a62160e21b815260040160405180910390fd5b825f03612eff5760405163d29da7ef60e01b815260040160405180910390fd5b5f198303612f2057604051635982c5bb60e11b815260040160405180910390fd5b5f612f2c8686866123ef565b60055460405163c488847b60e01b81529192505f9182916001600160a01b03169063c488847b90612f65903090899088906004016139c6565b6040805180830381865afa158015612f7f573d5f5f3e3d5ffd5b505050506040513d601f19601f82011682018060405250810190612fa391906139ea565b915091505f82146130125760405162461bcd60e51b815260206004820152603360248201527f4c49515549444154455f434f4d5054524f4c4c45525f43414c43554c4154455f604482015272105353d5539517d4d152569157d19052531151606a1b60648201526084016108cb565b6040516370a0823160e01b81526001600160a01b0388811660048301528291908716906370a0823190602401602060405180830381865afa158015613059573d5f5f3e3d5ffd5b505050506040513d601f19601f8201168201806040525081019061307d91906137fb565b10156130cb5760405162461bcd60e51b815260206004820152601860248201527f4c49515549444154455f5345495a455f544f4f5f4d554348000000000000000060448201526064016108cb565b306001600160a01b038616036130ec576130e730898984611f78565b6131a2565b60405163b2a02ff160e01b81525f906001600160a01b0387169063b2a02ff19061311e908c908c9087906004016139c6565b6020604051808303815f875af115801561313a573d5f5f3e3d5ffd5b505050506040513d601f19601f8201168201806040525081019061315e91906137fb565b146131a25760405162461bcd60e51b81526020600482015260146024820152731d1bdad95b881cd95a5e9d5c994819985a5b195960621b60448201526064016108cb565b604080516001600160a01b038a811682528981166020830152818301869052871660608201526080810183905290517f298637f684da70674f26509b10f07ec2fbc77a335ab1e7d6215a4b2484d8bb529181900360a00190a15050505050505050565b6011546040516370a0823160e01b81523060048201525f916001600160a01b0316908190839082906370a0823190602401602060405180830381865afa158015613251573d5f5f3e3d5ffd5b505050506040513d601f19601f8201168201806040525081019061327591906137fb565b6040516323b872dd60e01b81529091506001600160a01b038316906323b872dd906132a890899030908a906004016139c6565b5f604051808303815f87803b1580156132bf575f5ffd5b505af11580156132d1573d5f5f3e3d5ffd5b505050505f3d5f81146132ea57602081146132f3575f5ffd5b5f1991506132fd565b60205f5f3e5f5191505b508061334b5760405162461bcd60e51b815260206004820152601860248201527f544f4b454e5f5452414e534645525f494e5f4641494c4544000000000000000060448201526064016108cb565b6040516370a0823160e01b81523060048201525f906001600160a01b038616906370a0823190602401602060405180830381865afa15801561338f573d5f5f3e3d5ffd5b505050506040513d601f19601f820116820180604052508101906133b391906137fb565b90506133bf838261392a565b98975050505050505050565b5f610c286133e184670de0b6b3a7640000612b90565b83515f610c288284613986565b602081525f82518060208401528060208501604085015e5f604082850101526040601f19601f83011684010191505092915050565b6001600160a01b0381168114610cb7575f5ffd5b5f5f60408385031215613448575f5ffd5b823561345381613423565b946020939093013593505050565b5f60208284031215613471575f5ffd5b5035919050565b5f60208284031215613488575f5ffd5b8135610c2881613423565b634e487b7160e01b5f52604160045260245ffd5b5f5f67ffffffffffffffff8411156134c1576134c1613493565b50604051601f19601f85018116603f0116810181811067ffffffffffffffff821117156134f0576134f0613493565b604052838152905080828401851015613507575f5ffd5b838360208301375f60208583010152509392505050565b5f82601f83011261352d575f5ffd5b610c28838335602085016134a7565b803560ff8116811461354c575f5ffd5b919050565b5f5f5f5f5f5f5f60e0888a031215613567575f5ffd5b873561357281613423565b9650602088013561358281613423565b9550604088013561359281613423565b945060608801359350608088013567ffffffffffffffff8111156135b4575f5ffd5b6135c08a828b0161351e565b93505060a088013567ffffffffffffffff8111156135dc575f5ffd5b6135e88a828b0161351e565b9250506135f760c0890161353c565b905092959891949750929550565b5f5f5f60608486031215613617575f5ffd5b833561362281613423565b9250602084013561363281613423565b929592945050506040919091013590565b5f60208284031215613653575f5ffd5b813567ffffffffffffffff811115613669575f5ffd5b8201601f81018413613679575f5ffd5b611afe848235602084016134a7565b5f5f5f5f5f5f60c0878903121561369d575f5ffd5b86356136a881613423565b955060208701356136b881613423565b945060408701359350606087013567ffffffffffffffff8111156136da575f5ffd5b6136e689828a0161351e565b935050608087013567ffffffffffffffff811115613702575f5ffd5b61370e89828a0161351e565b92505061371d60a0880161353c565b90509295509295509295565b5f5f6040838503121561373a575f5ffd5b823561374581613423565b9150602083013561375581613423565b809150509250929050565b5f5f5f60608486031215613772575f5ffd5b833561377d81613423565b925060208401359150604084013561379481613423565b809150509250925092565b600181811c908216806137b357607f821691505b6020821081036137d157634e487b7160e01b5f52602260045260245ffd5b50919050565b6020808252600a90820152691c994b595b9d195c995960b21b604082015260600190565b5f6020828403121561380b575f5ffd5b5051919050565b601f82111561385657805f5260205f20601f840160051c810160208510156138375750805b601f840160051c820191505b81811015611082575f8155600101613843565b505050565b815167ffffffffffffffff81111561387557613875613493565b61388981613883845461379f565b84613812565b6020601f8211600181146138bb575f83156138a45750848201515b5f19600385901b1c1916600184901b178455611082565b5f84815260208120601f198516915b828110156138ea57878501518255602094850194600190920191016138ca565b508482101561390757868401515f19600387901b60f8161c191681555b50505050600190811b01905550565b634e487b7160e01b5f52601160045260245ffd5b8181038181111561084357610843613916565b8082018082111561084357610843613916565b5f60208284031215613960575f5ffd5b81518015158114610c28575f5ffd5b808202811582820484141761084357610843613916565b5f826139a057634e487b7160e01b5f52601260045260245ffd5b500490565b6001600160a01b039390931683526020830191909152604082015260600190565b6001600160a01b039384168152919092166020820152604081019190915260600190565b5f5f604083850312156139fb575f5ffd5b50508051602090910151909290915056feddf252ad1be2c89b69c2b068fc378daa952ba7f163c4a11628f55a4df523b3efa26469706673582212208f0ac59db03f855234f9c3637eb14652e5ef8b83d717edee591d27e08e900ebb64736f6c634300081b0033","linkReferences":{}},"methodIdentifiers":{"NO_ERROR()":"69ab3250","_acceptAdmin()":"e9c714f2","_addReserves(uint256)":"3e941010","_becomeImplementation(bytes)":"56e67728","_delegatePeridotLikeTo(address)":"a252d8be","_reduceReserves(uint256)":"601a0bf1","_resignImplementation()":"153ab505","_setInterestRateModel(address)":"f2b3abbd","_setPendingAdmin(address)":"b71d1a0c","_setPeridottroller(address)":"d5c6d3bd","_setReserveFactor(uint256)":"fca7820b","accrualBlockNumber()":"6c540baf","accrueInterest()":"a6afed95","admin()":"f851a440","allowance(address,address)":"dd62ed3e","approve(address,uint256)":"095ea7b3","balanceOf(address)":"70a08231","balanceOfUnderlying(address)":"3af9e669","borrow(uint256)":"c5ebeaec","borrowBalanceCurrent(address)":"17bfdfbc","borrowBalanceStored(address)":"95dd9193","borrowIndex()":"aa5af0fd","borrowRatePerBlock()":"f8f9da28","decimals()":"313ce567","exchangeRateCurrent()":"bd6d894d","exchangeRateStored()":"182df0f5","getAccountSnapshot(address)":"c37f68e2","getCash()":"3b1d21a2","implementation()":"5c60da1b","initialize(address,address,address,uint256,string,string,uint8)":"1a31d465","initialize(address,address,uint256,string,string,uint8)":"99d8c1b4","interestRateModel()":"f3fdb15a","isPToken()":"5a890c0e","liquidateBorrow(address,uint256,address)":"f5e3c462","mint(uint256)":"a0712d68","name()":"06fdde03","pendingAdmin()":"26782247","peridottroller()":"c423fe29","protocolSeizeShareMantissa()":"6752e702","redeem(uint256)":"db006a75","redeemUnderlying(uint256)":"852a12e3","repayBorrow(uint256)":"0e752702","repayBorrowBehalf(address,uint256)":"2608f818","reserveFactorMantissa()":"173b9904","seize(address,address,uint256)":"b2a02ff1","supplyRatePerBlock()":"ae9d70b0","sweepToken(address)":"1be19560","symbol()":"95d89b41","totalBorrows()":"47bd3718","totalBorrowsCurrent()":"73acee98","totalReserves()":"8f840ddd","totalSupply()":"18160ddd","transfer(address,uint256)":"a9059cbb","transferFrom(address,address,uint256)":"23b872dd","underlying()":"6f307dc3"},"id":15}