{"abi":[{"type":"constructor","inputs":[{"name":"cEther_","type":"address","internalType":"contract PEther"}],"stateMutability":"nonpayable"},{"type":"function","name":"pEther","inputs":[],"outputs":[{"name":"","type":"address","internalType":"contract PEther"}],"stateMutability":"view"},{"type":"function","name":"repayBehalf","inputs":[{"name":"borrower","type":"address","internalType":"address"}],"outputs":[],"stateMutability":"payable"},{"type":"function","name":"repayBehalfExplicit","inputs":[{"name":"borrower","type":"address","internalType":"address"},{"name":"cEther_","type":"address","internalType":"contract PEther"}],"outputs":[],"stateMutability":"payable"}],"bytecode":{"object":"0x6080604052348015600e575f5ffd5b5060405161038b38038061038b833981016040819052602b91604e565b5f80546001600160a01b0319166001600160a01b03929092169190911790556079565b5f60208284031215605d575f5ffd5b81516001600160a01b03811681146072575f5ffd5b9392505050565b610305806100865f395ff3fe608060405260043610610033575f3560e01c8063367b7f05146100375780637af42ed81461004c5780639f35c3d514610086575b5f5ffd5b61004a61004536600461023a565b610099565b005b348015610057575f5ffd5b505f5461006a906001600160a01b031681565b6040516001600160a01b03909116815260200160405180910390f35b61004a610094366004610271565b61020d565b6040516305eff7ef60e21b81526001600160a01b03838116600483015234915f918416906317bfdfbc906024016020604051808303815f875af11580156100e2573d5f5f3e3d5ffd5b505050506040513d601f19601f820116820180604052508101906101069190610293565b9050808211156101ad5760405163e597461960e01b81526001600160a01b03858116600483015284169063e59746199083906024015f604051808303818588803b158015610152575f5ffd5b505af1158015610164573d5f5f3e3d5ffd5b5050505050336001600160a01b03166108fc828461018291906102aa565b6040518115909202915f818181858888f193505050501580156101a7573d5f5f3e3d5ffd5b50610207565b60405163e597461960e01b81526001600160a01b03858116600483015284169063e59746199084906024015f604051808303818588803b1580156101ef575f5ffd5b505af1158015610201573d5f5f3e3d5ffd5b50505050505b50505050565b5f546102239082906001600160a01b0316610099565b50565b6001600160a01b0381168114610223575f5ffd5b5f5f6040838503121561024b575f5ffd5b823561025681610226565b9150602083013561026681610226565b809150509250929050565b5f60208284031215610281575f5ffd5b813561028c81610226565b9392505050565b5f602082840312156102a3575f5ffd5b5051919050565b818103818111156102c957634e487b7160e01b5f52601160045260245ffd5b9291505056fea2646970667358221220d36338c6effe1afdd5a552020567b40e13883bcf43665fea1c3701768608221564736f6c634300081b0033","linkReferences":{}},"methodIdentifiers":{"pEther()":"7af42ed8","repayBehalf(address)":"9f35c3d5","repayBehalfExplicit(address,address)":"367b7f05"},"id":11}