{"abi":[{"type":"constructor","inputs":[{"name":"account","type":"address","internalType":"address"}],"stateMutability":"nonpayable"},{"type":"function","name":"DELEGATION_TYPEHASH","inputs":[],"outputs":[{"name":"","type":"bytes32","internalType":"bytes32"}],"stateMutability":"view"},{"type":"function","name":"DOMAIN_TYPEHASH","inputs":[],"outputs":[{"name":"","type":"bytes32","internalType":"bytes32"}],"stateMutability":"view"},{"type":"function","name":"allowance","inputs":[{"name":"account","type":"address","internalType":"address"},{"name":"spender","type":"address","internalType":"address"}],"outputs":[{"name":"","type":"uint256","internalType":"uint256"}],"stateMutability":"view"},{"type":"function","name":"approve","inputs":[{"name":"spender","type":"address","internalType":"address"},{"name":"rawAmount","type":"uint256","internalType":"uint256"}],"outputs":[{"name":"","type":"bool","internalType":"bool"}],"stateMutability":"nonpayable"},{"type":"function","name":"balanceOf","inputs":[{"name":"account","type":"address","internalType":"address"}],"outputs":[{"name":"","type":"uint256","internalType":"uint256"}],"stateMutability":"view"},{"type":"function","name":"checkpoints","inputs":[{"name":"","type":"address","internalType":"address"},{"name":"","type":"uint32","internalType":"uint32"}],"outputs":[{"name":"fromBlock","type":"uint32","internalType":"uint32"},{"name":"votes","type":"uint96","internalType":"uint96"}],"stateMutability":"view"},{"type":"function","name":"decimals","inputs":[],"outputs":[{"name":"","type":"uint8","internalType":"uint8"}],"stateMutability":"view"},{"type":"function","name":"delegate","inputs":[{"name":"delegatee","type":"address","internalType":"address"}],"outputs":[],"stateMutability":"nonpayable"},{"type":"function","name":"delegateBySig","inputs":[{"name":"delegatee","type":"address","internalType":"address"},{"name":"nonce","type":"uint256","internalType":"uint256"},{"name":"expiry","type":"uint256","internalType":"uint256"},{"name":"v","type":"uint8","internalType":"uint8"},{"name":"r","type":"bytes32","internalType":"bytes32"},{"name":"s","type":"bytes32","internalType":"bytes32"}],"outputs":[],"stateMutability":"nonpayable"},{"type":"function","name":"delegates","inputs":[{"name":"","type":"address","internalType":"address"}],"outputs":[{"name":"","type":"address","internalType":"address"}],"stateMutability":"view"},{"type":"function","name":"getCurrentVotes","inputs":[{"name":"account","type":"address","internalType":"address"}],"outputs":[{"name":"","type":"uint96","internalType":"uint96"}],"stateMutability":"view"},{"type":"function","name":"getPriorVotes","inputs":[{"name":"account","type":"address","internalType":"address"},{"name":"blockNumber","type":"uint256","internalType":"uint256"}],"outputs":[{"name":"","type":"uint96","internalType":"uint96"}],"stateMutability":"view"},{"type":"function","name":"name","inputs":[],"outputs":[{"name":"","type":"string","internalType":"string"}],"stateMutability":"view"},{"type":"function","name":"nonces","inputs":[{"name":"","type":"address","internalType":"address"}],"outputs":[{"name":"","type":"uint256","internalType":"uint256"}],"stateMutability":"view"},{"type":"function","name":"numCheckpoints","inputs":[{"name":"","type":"address","internalType":"address"}],"outputs":[{"name":"","type":"uint32","internalType":"uint32"}],"stateMutability":"view"},{"type":"function","name":"symbol","inputs":[],"outputs":[{"name":"","type":"string","internalType":"string"}],"stateMutability":"view"},{"type":"function","name":"totalSupply","inputs":[],"outputs":[{"name":"","type":"uint256","internalType":"uint256"}],"stateMutability":"view"},{"type":"function","name":"transfer","inputs":[{"name":"dst","type":"address","internalType":"address"},{"name":"rawAmount","type":"uint256","internalType":"uint256"}],"outputs":[{"name":"","type":"bool","internalType":"bool"}],"stateMutability":"nonpayable"},{"type":"function","name":"transferFrom","inputs":[{"name":"src","type":"address","internalType":"address"},{"name":"dst","type":"address","internalType":"address"},{"name":"rawAmount","type":"uint256","internalType":"uint256"}],"outputs":[{"name":"","type":"bool","internalType":"bool"}],"stateMutability":"nonpayable"},{"type":"event","name":"Approval","inputs":[{"name":"owner","type":"address","indexed":true,"internalType":"address"},{"name":"spender","type":"address","indexed":true,"internalType":"address"},{"name":"amount","type":"uint256","indexed":false,"internalType":"uint256"}],"anonymous":false},{"type":"event","name":"DelegateChanged","inputs":[{"name":"delegator","type":"address","indexed":true,"internalType":"address"},{"name":"fromDelegate","type":"address","indexed":true,"internalType":"address"},{"name":"toDelegate","type":"address","indexed":true,"internalType":"address"}],"anonymous":false},{"type":"event","name":"DelegateVotesChanged","inputs":[{"name":"delegate","type":"address","indexed":true,"internalType":"address"},{"name":"previousBalance","type":"uint256","indexed":false,"internalType":"uint256"},{"name":"newBalance","type":"uint256","indexed":false,"internalType":"uint256"}],"anonymous":false},{"type":"event","name":"Transfer","inputs":[{"name":"from","type":"address","indexed":true,"internalType":"address"},{"name":"to","type":"address","indexed":true,"internalType":"address"},{"name":"amount","type":"uint256","indexed":false,"internalType":"uint256"}],"anonymous":false}],"bytecode":{"object":"0x6080604052348015600e575f5ffd5b50604051611899380380611899833981016040819052602b91609f565b6001600160a01b0381165f8181526001602052604080822080546001600160601b0319166b033b2e3c9fd0803ce800000090811790915590517fddf252ad1be2c89b69c2b068fc378daa952ba7f163c4a11628f55a4df523b3ef9160929190815260200190565b60405180910390a35060ca565b5f6020828403121560ae575f5ffd5b81516001600160a01b038116811460c3575f5ffd5b9392505050565b6117c2806100d75f395ff3fe608060405234801561000f575f5ffd5b506004361061011c575f3560e01c806370a08231116100a9578063b4b5ea571161006e578063b4b5ea5714610331578063c3cda52014610344578063dd62ed3e14610357578063e7a324dc14610396578063f1127ed8146103bd575f5ffd5b806370a0823114610283578063782d6fe1146102b45780637ecebe00146102df57806395d89b41146102fe578063a9059cbb1461031e575f5ffd5b806323b872dd116100ef57806323b872dd146101c7578063313ce567146101da578063587cde1e146101f45780635c19a95c146102345780636fcfff4514610249575f5ffd5b806306fdde0314610120578063095ea7b31461015c57806318160ddd1461017f57806320606b70146101a0575b5f5ffd5b6101466040518060400160405280600781526020016614195c9a591bdd60ca1b81525081565b604051610153919061139a565b60405180910390f35b61016f61016a3660046113ea565b610423565b6040519015158152602001610153565b6101926b033b2e3c9fd0803ce800000081565b604051908152602001610153565b6101927f8cad95687ba82c2ce50e74f7b754645e5117c3a5bec8151c0726d5857980a86681565b61016f6101d5366004611412565b6104de565b6101e2601281565b60405160ff9091168152602001610153565b61021c61020236600461144c565b60026020525f90815260409020546001600160a01b031681565b6040516001600160a01b039091168152602001610153565b61024761024236600461144c565b61061c565b005b61026e61025736600461144c565b60046020525f908152604090205463ffffffff1681565b60405163ffffffff9091168152602001610153565b61019261029136600461144c565b6001600160a01b03165f908152600160205260409020546001600160601b031690565b6102c76102c23660046113ea565b610629565b6040516001600160601b039091168152602001610153565b6101926102ed36600461144c565b60056020525f908152604090205481565b610146604051806040016040528060018152602001600560fc1b81525081565b61016f61032c3660046113ea565b6108ae565b6102c761033f36600461144c565b6108e9565b610247610352366004611465565b610963565b6101926103653660046114c0565b6001600160a01b039182165f908152602081815260408083209390941682529190915220546001600160601b031690565b6101927fe48329057bfd03d55e49b547132e39cffd9c1820ad7b9d4c5307691425d15adf81565b6103ff6103cb3660046114f1565b600360209081525f928352604080842090915290825290205463ffffffff811690600160201b90046001600160601b031682565b6040805163ffffffff90931683526001600160601b03909116602083015201610153565b5f5f5f19830361043b57506001600160601b03610460565b61045d8360405180606001604052806028815260200161173a60289139610c52565b90505b335f818152602081815260408083206001600160a01b0389168085529083529281902080546001600160601b0319166001600160601b03871690811790915590519081529192917f8c5be1e5ebec7d5bd14f71427d1e84f3dd0314c0f7b2291e5b200ac8c7c3b925910160405180910390a360019150505b92915050565b6001600160a01b0383165f908152602081815260408083203380855290835281842054825160608101909352602880845291936001600160601b03909116928592610533928892919061173a90830139610c52565b9050866001600160a01b0316836001600160a01b03161415801561056057506001600160601b0382811614155b15610604575f61058983836040518060600160405280604081526020016116c760409139610c80565b6001600160a01b038981165f81815260208181526040808320948a168084529482529182902080546001600160601b0319166001600160601b0387169081179091559151918252939450919290917f8c5be1e5ebec7d5bd14f71427d1e84f3dd0314c0f7b2291e5b200ac8c7c3b925910160405180910390a3505b61060f878783610cc9565b5060019695505050505050565b6106263382610f16565b50565b5f4382106106915760405162461bcd60e51b815260206004820152602a60248201527f50657269646f743a3a6765745072696f72566f7465733a206e6f74207965742060448201526919195d195c9b5a5b995960b21b60648201526084015b60405180910390fd5b6001600160a01b0383165f9081526004602052604081205463ffffffff16908190036106c0575f9150506104d8565b6001600160a01b0384165f90815260036020526040812084916106e4600185611542565b63ffffffff908116825260208201929092526040015f20541611610754576001600160a01b0384165f90815260036020526040812090610725600184611542565b63ffffffff16815260208101919091526040015f2054600160201b90046001600160601b031691506104d89050565b6001600160a01b0384165f90815260036020908152604080832083805290915290205463ffffffff1683101561078d575f9150506104d8565b5f8061079a600184611542565b90505b8163ffffffff168163ffffffff16111561086a575f60026107be8484611542565b6107c8919061155e565b6107d29083611542565b6001600160a01b0388165f90815260036020908152604080832063ffffffff858116855290835292819020815180830190925254928316808252600160201b9093046001600160601b03169181019190915291925087900361083e576020015194506104d89350505050565b805163ffffffff1687111561085557819350610863565b610860600183611542565b92505b505061079d565b506001600160a01b0385165f90815260036020908152604080832063ffffffff909416835292905220546001600160601b03600160201b9091041691505092915050565b5f5f6108d28360405180606001604052806029815260200161160460299139610c52565b90506108df338583610cc9565b5060019392505050565b6001600160a01b0381165f9081526004602052604081205463ffffffff1680610912575f61095c565b6001600160a01b0383165f90815260036020526040812090610935600184611542565b63ffffffff16815260208101919091526040015f2054600160201b90046001600160601b03165b9392505050565b604080518082018252600781526614195c9a591bdd60ca1b60209182015281517f8cad95687ba82c2ce50e74f7b754645e5117c3a5bec8151c0726d5857980a866818301527f5e664cc57878659983993cc5123f75503012d292fbfdd25e3258a1ec23ad8ae281840152466060820152306080808301919091528351808303909101815260a0820184528051908301207fe48329057bfd03d55e49b547132e39cffd9c1820ad7b9d4c5307691425d15adf60c08301526001600160a01b038a1660e083015261010082018990526101208083018990528451808403909101815261014083019094528351939092019290922061190160f01b6101608401526101628301829052610182830181905290915f906101a20160408051601f1981840301815282825280516020918201205f80855291840180845281905260ff8a169284019290925260608301889052608083018790529092509060019060a0016020604051602081039080840390855afa158015610ae1573d5f5f3e3d5ffd5b5050604051601f1901519150506001600160a01b038116610b565760405162461bcd60e51b815260206004820152602960248201527f50657269646f743a3a64656c656761746542795369673a20696e76616c6964206044820152687369676e617475726560b81b6064820152608401610688565b6001600160a01b0381165f908152600560205260408120805491610b7983611591565b919050558914610bd95760405162461bcd60e51b815260206004820152602560248201527f50657269646f743a3a64656c656761746542795369673a20696e76616c6964206044820152646e6f6e636560d81b6064820152608401610688565b87421115610c3b5760405162461bcd60e51b815260206004820152602960248201527f50657269646f743a3a64656c656761746542795369673a207369676e617475726044820152681948195e1c1a5c995960ba1b6064820152608401610688565b610c45818b610f16565b505050505b505050505050565b5f81600160601b8410610c785760405162461bcd60e51b8152600401610688919061139a565b509192915050565b5f836001600160601b0316836001600160601b031611158290610cb65760405162461bcd60e51b8152600401610688919061139a565b50610cc183856115a9565b949350505050565b6001600160a01b038316610d455760405162461bcd60e51b815260206004820152603f60248201527f50657269646f743a3a5f7472616e73666572546f6b656e733a2063616e6e6f7460448201527f207472616e736665722066726f6d20746865207a65726f2061646472657373006064820152608401610688565b6001600160a01b038216610dc15760405162461bcd60e51b815260206004820152603d60248201527f50657269646f743a3a5f7472616e73666572546f6b656e733a2063616e6e6f7460448201527f207472616e7366657220746f20746865207a65726f20616464726573730000006064820152608401610688565b6001600160a01b0383165f90815260016020908152604091829020548251606081019093526039808452610e0b936001600160601b03909216928592919061168e90830139610c80565b6001600160a01b038481165f90815260016020908152604080832080546001600160601b0319166001600160601b03968716179055928616825290829020548251606081019093526033808452610e72949190911692859290919061170790830139610f9f565b6001600160a01b038381165f8181526001602090815260409182902080546001600160601b0319166001600160601b03968716179055905193851684529092918616917fddf252ad1be2c89b69c2b068fc378daa952ba7f163c4a11628f55a4df523b3ef910160405180910390a36001600160a01b038084165f90815260026020526040808220548584168352912054610f1192918216911683610feb565b505050565b6001600160a01b038083165f81815260026020818152604080842080546001845282862054949093528787166001600160a01b031984168117909155905191909516946001600160601b039092169391928592917f3134e8a2e6d97e929a7e54011ea5485d7d196dd5f0ba4d4ef95803e8e3fc257f9190a4610f99828483610feb565b50505050565b5f80610fab84866115c8565b9050846001600160601b0316816001600160601b031610158390610fe25760405162461bcd60e51b8152600401610688919061139a565b50949350505050565b816001600160a01b0316836001600160a01b03161415801561101557505f816001600160601b0316115b15610f11576001600160a01b038316156110d5576001600160a01b0383165f9081526004602052604081205463ffffffff169081611053575f61109d565b6001600160a01b0385165f90815260036020526040812090611076600185611542565b63ffffffff16815260208101919091526040015f2054600160201b90046001600160601b03165b90505f6110c382856040518060600160405280602b8152602001611762602b9139610c80565b90506110d186848484611188565b5050505b6001600160a01b03821615610f11576001600160a01b0382165f9081526004602052604081205463ffffffff16908161110e575f611158565b6001600160a01b0384165f90815260036020526040812090611131600185611542565b63ffffffff16815260208101919091526040015f2054600160201b90046001600160601b03165b90505f61117e82856040518060600160405280602a815260200161162d602a9139610f9f565b9050610c4a858484845b5f6111ab4360405180606001604052806037815260200161165760379139611378565b90505f8463ffffffff1611801561120257506001600160a01b0385165f90815260036020526040812063ffffffff8316916111e7600188611542565b63ffffffff908116825260208201929092526040015f205416145b15611274576001600160a01b0385165f908152600360205260408120839161122b600188611542565b63ffffffff16815260208101919091526040015f2080546001600160601b0392909216600160201b026fffffffffffffffffffffffff0000000019909216919091179055611323565b60408051808201825263ffffffff80841682526001600160601b0380861660208085019182526001600160a01b038b165f908152600382528681208b8616825290915294909420925183549451909116600160201b026fffffffffffffffffffffffffffffffff199094169116179190911790556112f38460016115e7565b6001600160a01b0386165f908152600460205260409020805463ffffffff191663ffffffff929092169190911790555b604080516001600160601b038086168252841660208201526001600160a01b038716917fdec2bacdd2f05b59de34da9b523dff8be42e5e38e818c82fdb0bae774387a724910160405180910390a25050505050565b5f81600160201b8410610c785760405162461bcd60e51b815260040161068891905b602081525f82518060208401528060208501604085015e5f604082850101526040601f19601f83011684010191505092915050565b80356001600160a01b03811681146113e5575f5ffd5b919050565b5f5f604083850312156113fb575f5ffd5b611404836113cf565b946020939093013593505050565b5f5f5f60608486031215611424575f5ffd5b61142d846113cf565b925061143b602085016113cf565b929592945050506040919091013590565b5f6020828403121561145c575f5ffd5b61095c826113cf565b5f5f5f5f5f5f60c0878903121561147a575f5ffd5b611483876113cf565b95506020870135945060408701359350606087013560ff811681146114a6575f5ffd5b9598949750929560808101359460a0909101359350915050565b5f5f604083850312156114d1575f5ffd5b6114da836113cf565b91506114e8602084016113cf565b90509250929050565b5f5f60408385031215611502575f5ffd5b61150b836113cf565b9150602083013563ffffffff81168114611523575f5ffd5b809150509250929050565b634e487b7160e01b5f52601160045260245ffd5b63ffffffff82811682821603908111156104d8576104d861152e565b5f63ffffffff83168061157f57634e487b7160e01b5f52601260045260245ffd5b8063ffffffff84160491505092915050565b5f600182016115a2576115a261152e565b5060010190565b6001600160601b0382811682821603908111156104d8576104d861152e565b6001600160601b0381811683821601908111156104d8576104d861152e565b63ffffffff81811683821601908111156104d8576104d861152e56fe50657269646f743a3a7472616e736665723a20616d6f756e742065786365656473203936206269747350657269646f743a3a5f6d6f7665566f7465733a20766f746520616d6f756e74206f766572666c6f777350657269646f743a3a5f7772697465436865636b706f696e743a20626c6f636b206e756d6265722065786365656473203332206269747350657269646f743a3a5f7472616e73666572546f6b656e733a207472616e7366657220616d6f756e7420657863656564732062616c616e636550657269646f743a3a7472616e7366657246726f6d3a207472616e7366657220616d6f756e742065786365656473207370656e64657220616c6c6f77616e636550657269646f743a3a5f7472616e73666572546f6b656e733a207472616e7366657220616d6f756e74206f766572666c6f777350657269646f743a3a617070726f76653a20616d6f756e742065786365656473203936206269747350657269646f743a3a5f6d6f7665566f7465733a20766f746520616d6f756e7420756e646572666c6f7773a2646970667358221220dbe6be246f65edb6d846dcf71dc52cc19c4faf52d489fc04e24be8a8684d00d364736f6c634300081b0033","linkReferences":{}},"methodIdentifiers":{"DELEGATION_TYPEHASH()":"e7a324dc","DOMAIN_TYPEHASH()":"20606b70","allowance(address,address)":"dd62ed3e","approve(address,uint256)":"095ea7b3","balanceOf(address)":"70a08231","checkpoints(address,uint32)":"f1127ed8","decimals()":"313ce567","delegate(address)":"5c19a95c","delegateBySig(address,uint256,uint256,uint8,bytes32,bytes32)":"c3cda520","delegates(address)":"587cde1e","getCurrentVotes(address)":"b4b5ea57","getPriorVotes(address,uint256)":"782d6fe1","name()":"06fdde03","nonces(address)":"7ecebe00","numCheckpoints(address)":"6fcfff45","symbol()":"95d89b41","totalSupply()":"18160ddd","transfer(address,uint256)":"a9059cbb","transferFrom(address,address,uint256)":"23b872dd"},"id":6}