{"abi":[{"type":"constructor","inputs":[{"name":"_COMP","type":"address","internalType":"address"}],"stateMutability":"nonpayable"},{"type":"function","name":"PERIDOT","inputs":[],"outputs":[{"name":"","type":"address","internalType":"address"}],"stateMutability":"view"},{"type":"function","name":"_become","inputs":[{"name":"unitroller","type":"address","internalType":"contract Unitroller"}],"outputs":[],"stateMutability":"nonpayable"},{"type":"function","name":"_borrowGuardianPaused","inputs":[],"outputs":[{"name":"","type":"bool","internalType":"bool"}],"stateMutability":"view"},{"type":"function","name":"_grantPeridot","inputs":[{"name":"recipient","type":"address","internalType":"address"},{"name":"amount","type":"uint256","internalType":"uint256"}],"outputs":[],"stateMutability":"nonpayable"},{"type":"function","name":"_mintGuardianPaused","inputs":[],"outputs":[{"name":"","type":"bool","internalType":"bool"}],"stateMutability":"view"},{"type":"function","name":"_setBorrowCapGuardian","inputs":[{"name":"newBorrowCapGuardian","type":"address","internalType":"address"}],"outputs":[],"stateMutability":"nonpayable"},{"type":"function","name":"_setBorrowPaused","inputs":[{"name":"pToken","type":"address","internalType":"contract PToken"},{"name":"state","type":"bool","internalType":"bool"}],"outputs":[{"name":"","type":"bool","internalType":"bool"}],"stateMutability":"nonpayable"},{"type":"function","name":"_setCloseFactor","inputs":[{"name":"newCloseFactorMantissa","type":"uint256","internalType":"uint256"}],"outputs":[{"name":"","type":"uint256","internalType":"uint256"}],"stateMutability":"nonpayable"},{"type":"function","name":"_setCollateralFactor","inputs":[{"name":"pToken","type":"address","internalType":"contract PToken"},{"name":"newCollateralFactorMantissa","type":"uint256","internalType":"uint256"}],"outputs":[{"name":"","type":"uint256","internalType":"uint256"}],"stateMutability":"nonpayable"},{"type":"function","name":"_setContributorPeridotSpeed","inputs":[{"name":"contributor","type":"address","internalType":"address"},{"name":"peridotSpeed","type":"uint256","internalType":"uint256"}],"outputs":[],"stateMutability":"nonpayable"},{"type":"function","name":"_setLiquidationIncentive","inputs":[{"name":"newLiquidationIncentiveMantissa","type":"uint256","internalType":"uint256"}],"outputs":[{"name":"","type":"uint256","internalType":"uint256"}],"stateMutability":"nonpayable"},{"type":"function","name":"_setMarketBorrowCaps","inputs":[{"name":"pTokens","type":"address[]","internalType":"contract PToken[]"},{"name":"newBorrowCaps","type":"uint256[]","internalType":"uint256[]"}],"outputs":[],"stateMutability":"nonpayable"},{"type":"function","name":"_setMintPaused","inputs":[{"name":"pToken","type":"address","internalType":"contract PToken"},{"name":"state","type":"bool","internalType":"bool"}],"outputs":[{"name":"","type":"bool","internalType":"bool"}],"stateMutability":"nonpayable"},{"type":"function","name":"_setPauseGuardian","inputs":[{"name":"newPauseGuardian","type":"address","internalType":"address"}],"outputs":[{"name":"","type":"uint256","internalType":"uint256"}],"stateMutability":"nonpayable"},{"type":"function","name":"_setPeridotSpeed","inputs":[{"name":"pToken","type":"address","internalType":"contract PToken"},{"name":"peridotSpeed","type":"uint256","internalType":"uint256"}],"outputs":[],"stateMutability":"nonpayable"},{"type":"function","name":"_setPriceOracle","inputs":[{"name":"newOracle","type":"address","internalType":"contract PriceOracle"}],"outputs":[{"name":"","type":"uint256","internalType":"uint256"}],"stateMutability":"nonpayable"},{"type":"function","name":"_setSeizePaused","inputs":[{"name":"state","type":"bool","internalType":"bool"}],"outputs":[{"name":"","type":"bool","internalType":"bool"}],"stateMutability":"nonpayable"},{"type":"function","name":"_setTransferPaused","inputs":[{"name":"state","type":"bool","internalType":"bool"}],"outputs":[{"name":"","type":"bool","internalType":"bool"}],"stateMutability":"nonpayable"},{"type":"function","name":"_supportMarket","inputs":[{"name":"pToken","type":"address","internalType":"contract PToken"}],"outputs":[{"name":"","type":"uint256","internalType":"uint256"}],"stateMutability":"nonpayable"},{"type":"function","name":"accountAssets","inputs":[{"name":"","type":"address","internalType":"address"},{"name":"","type":"uint256","internalType":"uint256"}],"outputs":[{"name":"","type":"address","internalType":"contract PToken"}],"stateMutability":"view"},{"type":"function","name":"admin","inputs":[],"outputs":[{"name":"","type":"address","internalType":"address"}],"stateMutability":"view"},{"type":"function","name":"allMarkets","inputs":[{"name":"","type":"uint256","internalType":"uint256"}],"outputs":[{"name":"","type":"address","internalType":"contract PToken"}],"stateMutability":"view"},{"type":"function","name":"borrowAllowed","inputs":[{"name":"pToken","type":"address","internalType":"address"},{"name":"borrower","type":"address","internalType":"address"},{"name":"borrowAmount","type":"uint256","internalType":"uint256"}],"outputs":[{"name":"","type":"uint256","internalType":"uint256"}],"stateMutability":"nonpayable"},{"type":"function","name":"borrowCapGuardian","inputs":[],"outputs":[{"name":"","type":"address","internalType":"address"}],"stateMutability":"view"},{"type":"function","name":"borrowCaps","inputs":[{"name":"","type":"address","internalType":"address"}],"outputs":[{"name":"","type":"uint256","internalType":"uint256"}],"stateMutability":"view"},{"type":"function","name":"borrowGuardianPaused","inputs":[{"name":"","type":"address","internalType":"address"}],"outputs":[{"name":"","type":"bool","internalType":"bool"}],"stateMutability":"view"},{"type":"function","name":"borrowVerify","inputs":[{"name":"pToken","type":"address","internalType":"address"},{"name":"borrower","type":"address","internalType":"address"},{"name":"borrowAmount","type":"uint256","internalType":"uint256"}],"outputs":[],"stateMutability":"nonpayable"},{"type":"function","name":"checkMembership","inputs":[{"name":"account","type":"address","internalType":"address"},{"name":"pToken","type":"address","internalType":"contract PToken"}],"outputs":[{"name":"","type":"bool","internalType":"bool"}],"stateMutability":"view"},{"type":"function","name":"claimPeridot","inputs":[{"name":"holders","type":"address[]","internalType":"address[]"},{"name":"pTokens","type":"address[]","internalType":"contract PToken[]"},{"name":"borrowers","type":"bool","internalType":"bool"},{"name":"suppliers","type":"bool","internalType":"bool"}],"outputs":[],"stateMutability":"nonpayable"},{"type":"function","name":"claimPeridot","inputs":[{"name":"holder","type":"address","internalType":"address"}],"outputs":[],"stateMutability":"nonpayable"},{"type":"function","name":"claimPeridot","inputs":[{"name":"holder","type":"address","internalType":"address"},{"name":"pTokens","type":"address[]","internalType":"contract PToken[]"}],"outputs":[],"stateMutability":"nonpayable"},{"type":"function","name":"closeFactorMantissa","inputs":[],"outputs":[{"name":"","type":"uint256","internalType":"uint256"}],"stateMutability":"view"},{"type":"function","name":"enterMarkets","inputs":[{"name":"pTokens","type":"address[]","internalType":"address[]"}],"outputs":[{"name":"","type":"uint256[]","internalType":"uint256[]"}],"stateMutability":"nonpayable"},{"type":"function","name":"exitMarket","inputs":[{"name":"pTokenAddress","type":"address","internalType":"address"}],"outputs":[{"name":"","type":"uint256","internalType":"uint256"}],"stateMutability":"nonpayable"},{"type":"function","name":"getAccountLiquidity","inputs":[{"name":"account","type":"address","internalType":"address"}],"outputs":[{"name":"","type":"uint256","internalType":"uint256"},{"name":"","type":"uint256","internalType":"uint256"},{"name":"","type":"uint256","internalType":"uint256"}],"stateMutability":"view"},{"type":"function","name":"getAllMarkets","inputs":[],"outputs":[{"name":"","type":"address[]","internalType":"contract PToken[]"}],"stateMutability":"view"},{"type":"function","name":"getAssetsIn","inputs":[{"name":"account","type":"address","internalType":"address"}],"outputs":[{"name":"","type":"address[]","internalType":"contract PToken[]"}],"stateMutability":"view"},{"type":"function","name":"getBlockNumber","inputs":[],"outputs":[{"name":"","type":"uint256","internalType":"uint256"}],"stateMutability":"view"},{"type":"function","name":"getHypotheticalAccountLiquidity","inputs":[{"name":"account","type":"address","internalType":"address"},{"name":"pTokenModify","type":"address","internalType":"address"},{"name":"redeemTokens","type":"uint256","internalType":"uint256"},{"name":"borrowAmount","type":"uint256","internalType":"uint256"}],"outputs":[{"name":"","type":"uint256","internalType":"uint256"},{"name":"","type":"uint256","internalType":"uint256"},{"name":"","type":"uint256","internalType":"uint256"}],"stateMutability":"view"},{"type":"function","name":"getPeridotAddress","inputs":[],"outputs":[{"name":"","type":"address","internalType":"address"}],"stateMutability":"view"},{"type":"function","name":"isPeridottroller","inputs":[],"outputs":[{"name":"","type":"bool","internalType":"bool"}],"stateMutability":"view"},{"type":"function","name":"lastContributorBlock","inputs":[{"name":"","type":"address","internalType":"address"}],"outputs":[{"name":"","type":"uint256","internalType":"uint256"}],"stateMutability":"view"},{"type":"function","name":"liquidateBorrowAllowed","inputs":[{"name":"pTokenBorrowed","type":"address","internalType":"address"},{"name":"pTokenCollateral","type":"address","internalType":"address"},{"name":"liquidator","type":"address","internalType":"address"},{"name":"borrower","type":"address","internalType":"address"},{"name":"repayAmount","type":"uint256","internalType":"uint256"}],"outputs":[{"name":"","type":"uint256","internalType":"uint256"}],"stateMutability":"nonpayable"},{"type":"function","name":"liquidateBorrowVerify","inputs":[{"name":"pTokenBorrowed","type":"address","internalType":"address"},{"name":"pTokenCollateral","type":"address","internalType":"address"},{"name":"liquidator","type":"address","internalType":"address"},{"name":"borrower","type":"address","internalType":"address"},{"name":"actualRepayAmount","type":"uint256","internalType":"uint256"},{"name":"seizeTokens","type":"uint256","internalType":"uint256"}],"outputs":[],"stateMutability":"nonpayable"},{"type":"function","name":"liquidateCalculateSeizeTokens","inputs":[{"name":"pTokenBorrowed","type":"address","internalType":"address"},{"name":"pTokenCollateral","type":"address","internalType":"address"},{"name":"actualRepayAmount","type":"uint256","internalType":"uint256"}],"outputs":[{"name":"","type":"uint256","internalType":"uint256"},{"name":"","type":"uint256","internalType":"uint256"}],"stateMutability":"view"},{"type":"function","name":"liquidationIncentiveMantissa","inputs":[],"outputs":[{"name":"","type":"uint256","internalType":"uint256"}],"stateMutability":"view"},{"type":"function","name":"markets","inputs":[{"name":"","type":"address","internalType":"address"}],"outputs":[{"name":"isListed","type":"bool","internalType":"bool"},{"name":"collateralFactorMantissa","type":"uint256","internalType":"uint256"},{"name":"isPeridoted","type":"bool","internalType":"bool"}],"stateMutability":"view"},{"type":"function","name":"maxAssets","inputs":[],"outputs":[{"name":"","type":"uint256","internalType":"uint256"}],"stateMutability":"view"},{"type":"function","name":"mintAllowed","inputs":[{"name":"pToken","type":"address","internalType":"address"},{"name":"minter","type":"address","internalType":"address"},{"name":"mintAmount","type":"uint256","internalType":"uint256"}],"outputs":[{"name":"","type":"uint256","internalType":"uint256"}],"stateMutability":"nonpayable"},{"type":"function","name":"mintGuardianPaused","inputs":[{"name":"","type":"address","internalType":"address"}],"outputs":[{"name":"","type":"bool","internalType":"bool"}],"stateMutability":"view"},{"type":"function","name":"mintVerify","inputs":[{"name":"pToken","type":"address","internalType":"address"},{"name":"minter","type":"address","internalType":"address"},{"name":"actualMintAmount","type":"uint256","internalType":"uint256"},{"name":"mintTokens","type":"uint256","internalType":"uint256"}],"outputs":[],"stateMutability":"nonpayable"},{"type":"function","name":"oracle","inputs":[],"outputs":[{"name":"","type":"address","internalType":"contract PriceOracle"}],"stateMutability":"view"},{"type":"function","name":"pauseGuardian","inputs":[],"outputs":[{"name":"","type":"address","internalType":"address"}],"stateMutability":"view"},{"type":"function","name":"pendingAdmin","inputs":[],"outputs":[{"name":"","type":"address","internalType":"address"}],"stateMutability":"view"},{"type":"function","name":"pendingPeridottrollerImplementation","inputs":[],"outputs":[{"name":"","type":"address","internalType":"address"}],"stateMutability":"view"},{"type":"function","name":"peridotAccrued","inputs":[{"name":"","type":"address","internalType":"address"}],"outputs":[{"name":"","type":"uint256","internalType":"uint256"}],"stateMutability":"view"},{"type":"function","name":"peridotBorrowState","inputs":[{"name":"","type":"address","internalType":"address"}],"outputs":[{"name":"index","type":"uint224","internalType":"uint224"},{"name":"block","type":"uint32","internalType":"uint32"}],"stateMutability":"view"},{"type":"function","name":"peridotBorrowerIndex","inputs":[{"name":"","type":"address","internalType":"address"},{"name":"","type":"address","internalType":"address"}],"outputs":[{"name":"","type":"uint256","internalType":"uint256"}],"stateMutability":"view"},{"type":"function","name":"peridotContributorSpeeds","inputs":[{"name":"","type":"address","internalType":"address"}],"outputs":[{"name":"","type":"uint256","internalType":"uint256"}],"stateMutability":"view"},{"type":"function","name":"peridotInitialIndex","inputs":[],"outputs":[{"name":"","type":"uint224","internalType":"uint224"}],"stateMutability":"view"},{"type":"function","name":"peridotRate","inputs":[],"outputs":[{"name":"","type":"uint256","internalType":"uint256"}],"stateMutability":"view"},{"type":"function","name":"peridotSpeeds","inputs":[{"name":"","type":"address","internalType":"address"}],"outputs":[{"name":"","type":"uint256","internalType":"uint256"}],"stateMutability":"view"},{"type":"function","name":"peridotSupplierIndex","inputs":[{"name":"","type":"address","internalType":"address"},{"name":"","type":"address","internalType":"address"}],"outputs":[{"name":"","type":"uint256","internalType":"uint256"}],"stateMutability":"view"},{"type":"function","name":"peridotSupplyState","inputs":[{"name":"","type":"address","internalType":"address"}],"outputs":[{"name":"index","type":"uint224","internalType":"uint224"},{"name":"block","type":"uint32","internalType":"uint32"}],"stateMutability":"view"},{"type":"function","name":"peridottrollerImplementation","inputs":[],"outputs":[{"name":"","type":"address","internalType":"address"}],"stateMutability":"view"},{"type":"function","name":"redeemAllowed","inputs":[{"name":"pToken","type":"address","internalType":"address"},{"name":"redeemer","type":"address","internalType":"address"},{"name":"redeemTokens","type":"uint256","internalType":"uint256"}],"outputs":[{"name":"","type":"uint256","internalType":"uint256"}],"stateMutability":"nonpayable"},{"type":"function","name":"redeemVerify","inputs":[{"name":"pToken","type":"address","internalType":"address"},{"name":"redeemer","type":"address","internalType":"address"},{"name":"redeemAmount","type":"uint256","internalType":"uint256"},{"name":"redeemTokens","type":"uint256","internalType":"uint256"}],"outputs":[],"stateMutability":"nonpayable"},{"type":"function","name":"repayBorrowAllowed","inputs":[{"name":"pToken","type":"address","internalType":"address"},{"name":"payer","type":"address","internalType":"address"},{"name":"borrower","type":"address","internalType":"address"},{"name":"repayAmount","type":"uint256","internalType":"uint256"}],"outputs":[{"name":"","type":"uint256","internalType":"uint256"}],"stateMutability":"nonpayable"},{"type":"function","name":"repayBorrowVerify","inputs":[{"name":"pToken","type":"address","internalType":"address"},{"name":"payer","type":"address","internalType":"address"},{"name":"borrower","type":"address","internalType":"address"},{"name":"actualRepayAmount","type":"uint256","internalType":"uint256"},{"name":"borrowerIndex","type":"uint256","internalType":"uint256"}],"outputs":[],"stateMutability":"nonpayable"},{"type":"function","name":"seizeAllowed","inputs":[{"name":"pTokenCollateral","type":"address","internalType":"address"},{"name":"pTokenBorrowed","type":"address","internalType":"address"},{"name":"liquidator","type":"address","internalType":"address"},{"name":"borrower","type":"address","internalType":"address"},{"name":"seizeTokens","type":"uint256","internalType":"uint256"}],"outputs":[{"name":"","type":"uint256","internalType":"uint256"}],"stateMutability":"nonpayable"},{"type":"function","name":"seizeGuardianPaused","inputs":[],"outputs":[{"name":"","type":"bool","internalType":"bool"}],"stateMutability":"view"},{"type":"function","name":"seizeVerify","inputs":[{"name":"pTokenCollateral","type":"address","internalType":"address"},{"name":"pTokenBorrowed","type":"address","internalType":"address"},{"name":"liquidator","type":"address","internalType":"address"},{"name":"borrower","type":"address","internalType":"address"},{"name":"seizeTokens","type":"uint256","internalType":"uint256"}],"outputs":[],"stateMutability":"nonpayable"},{"type":"function","name":"transferAllowed","inputs":[{"name":"pToken","type":"address","internalType":"address"},{"name":"src","type":"address","internalType":"address"},{"name":"dst","type":"address","internalType":"address"},{"name":"transferTokens","type":"uint256","internalType":"uint256"}],"outputs":[{"name":"","type":"uint256","internalType":"uint256"}],"stateMutability":"nonpayable"},{"type":"function","name":"transferGuardianPaused","inputs":[],"outputs":[{"name":"","type":"bool","internalType":"bool"}],"stateMutability":"view"},{"type":"function","name":"transferVerify","inputs":[{"name":"pToken","type":"address","internalType":"address"},{"name":"src","type":"address","internalType":"address"},{"name":"dst","type":"address","internalType":"address"},{"name":"transferTokens","type":"uint256","internalType":"uint256"}],"outputs":[],"stateMutability":"nonpayable"},{"type":"function","name":"updateContributorRewards","inputs":[{"name":"contributor","type":"address","internalType":"address"}],"outputs":[],"stateMutability":"nonpayable"},{"type":"event","name":"ActionPaused","inputs":[{"name":"action","type":"string","indexed":false,"internalType":"string"},{"name":"pauseState","type":"bool","indexed":false,"internalType":"bool"}],"anonymous":false},{"type":"event","name":"ActionPaused","inputs":[{"name":"pToken","type":"address","indexed":false,"internalType":"contract PToken"},{"name":"action","type":"string","indexed":false,"internalType":"string"},{"name":"pauseState","type":"bool","indexed":false,"internalType":"bool"}],"anonymous":false},{"type":"event","name":"ContributorPeridotSpeedUpdated","inputs":[{"name":"contributor","type":"address","indexed":true,"internalType":"address"},{"name":"newSpeed","type":"uint256","indexed":false,"internalType":"uint256"}],"anonymous":false},{"type":"event","name":"DistributedBorrowerPeridot","inputs":[{"name":"pToken","type":"address","indexed":true,"internalType":"contract PToken"},{"name":"borrower","type":"address","indexed":true,"internalType":"address"},{"name":"peridotDelta","type":"uint256","indexed":false,"internalType":"uint256"},{"name":"peridotBorrowIndex","type":"uint256","indexed":false,"internalType":"uint256"}],"anonymous":false},{"type":"event","name":"DistributedSupplierPeridot","inputs":[{"name":"pToken","type":"address","indexed":true,"internalType":"contract PToken"},{"name":"supplier","type":"address","indexed":true,"internalType":"address"},{"name":"peridotDelta","type":"uint256","indexed":false,"internalType":"uint256"},{"name":"peridotSupplyIndex","type":"uint256","indexed":false,"internalType":"uint256"}],"anonymous":false},{"type":"event","name":"Failure","inputs":[{"name":"error","type":"uint256","indexed":false,"internalType":"uint256"},{"name":"info","type":"uint256","indexed":false,"internalType":"uint256"},{"name":"detail","type":"uint256","indexed":false,"internalType":"uint256"}],"anonymous":false},{"type":"event","name":"MarketEntered","inputs":[{"name":"pToken","type":"address","indexed":false,"internalType":"contract PToken"},{"name":"account","type":"address","indexed":false,"internalType":"address"}],"anonymous":false},{"type":"event","name":"MarketExited","inputs":[{"name":"pToken","type":"address","indexed":false,"internalType":"contract PToken"},{"name":"account","type":"address","indexed":false,"internalType":"address"}],"anonymous":false},{"type":"event","name":"MarketListed","inputs":[{"name":"pToken","type":"address","indexed":false,"internalType":"contract PToken"}],"anonymous":false},{"type":"event","name":"NewBorrowCap","inputs":[{"name":"pToken","type":"address","indexed":true,"internalType":"contract PToken"},{"name":"newBorrowCap","type":"uint256","indexed":false,"internalType":"uint256"}],"anonymous":false},{"type":"event","name":"NewBorrowCapGuardian","inputs":[{"name":"oldBorrowCapGuardian","type":"address","indexed":false,"internalType":"address"},{"name":"newBorrowCapGuardian","type":"address","indexed":false,"internalType":"address"}],"anonymous":false},{"type":"event","name":"NewCloseFactor","inputs":[{"name":"oldCloseFactorMantissa","type":"uint256","indexed":false,"internalType":"uint256"},{"name":"newCloseFactorMantissa","type":"uint256","indexed":false,"internalType":"uint256"}],"anonymous":false},{"type":"event","name":"NewCollateralFactor","inputs":[{"name":"pToken","type":"address","indexed":false,"internalType":"contract PToken"},{"name":"oldCollateralFactorMantissa","type":"uint256","indexed":false,"internalType":"uint256"},{"name":"newCollateralFactorMantissa","type":"uint256","indexed":false,"internalType":"uint256"}],"anonymous":false},{"type":"event","name":"NewLiquidationIncentive","inputs":[{"name":"oldLiquidationIncentiveMantissa","type":"uint256","indexed":false,"internalType":"uint256"},{"name":"newLiquidationIncentiveMantissa","type":"uint256","indexed":false,"internalType":"uint256"}],"anonymous":false},{"type":"event","name":"NewPauseGuardian","inputs":[{"name":"oldPauseGuardian","type":"address","indexed":false,"internalType":"address"},{"name":"newPauseGuardian","type":"address","indexed":false,"internalType":"address"}],"anonymous":false},{"type":"event","name":"NewPriceOracle","inputs":[{"name":"oldPriceOracle","type":"address","indexed":false,"internalType":"contract PriceOracle"},{"name":"newPriceOracle","type":"address","indexed":false,"internalType":"contract PriceOracle"}],"anonymous":false},{"type":"event","name":"PeridotGranted","inputs":[{"name":"recipient","type":"address","indexed":false,"internalType":"address"},{"name":"amount","type":"uint256","indexed":false,"internalType":"uint256"}],"anonymous":false},{"type":"event","name":"PeridotSpeedUpdated","inputs":[{"name":"pToken","type":"address","indexed":true,"internalType":"contract PToken"},{"name":"newSpeed","type":"uint256","indexed":false,"internalType":"uint256"}],"anonymous":false}],"bytecode":{"object":"0x6080604052348015600e575f5ffd5b50604051614e36380380614e36833981016040819052602b916057565b601980546001600160a01b039092166001600160a01b03199283161790555f8054909116331790556082565b5f602082840312156066575f5ffd5b81516001600160a01b0381168114607b575f5ffd5b9392505050565b614da78061008f5f395ff3fe608060405234801561000f575f5ffd5b5060043610610443575f3560e01c8063794595f511610237578063b0cbd62211610135578063d088864a116100bf578063e875544611610084578063e875544614610b56578063eabe7d9114610b5f578063ede4edd014610b72578063f851a44014610b85578063fa707af914610b97575f5ffd5b8063d088864a14610b00578063da3d454c14610b09578063dce1544914610b1c578063e4028eee14610b2f578063e6653f3d14610b42575f5ffd5b8063c488847b11610105578063c488847b14610a59578063cd2489f014610a81578063ce27c01e14610aaf578063d002d98914610ace578063d02f735114610aed575f5ffd5b8063b0cbd622146109f4578063bdcdc25814610a07578063bea6b8b814610a1a578063c299823814610a39575f5ffd5b8063935dbd26116101c1578063a6b1395511610186578063a6b1395514610992578063a76b3fda146109a5578063abfceffc146109b8578063ac0b0bb7146109d8578063b0772d0b146109ec575f5ffd5b8063935dbd261461090257806394b2294b146109395780639a8260d6146109425780639d92e62f14610955578063a64db62714610968575f5ffd5b806387f763031161020757806387f76303146108385780638b130fa01461084c5780638e8f294b1461085d5780638ebf6364146108af578063929fe9a1146108c2575f5ffd5b8063794595f5146107e05780637c8f3a67146107ff5780637dc0d1d014610812578063825d327f14610825575f5ffd5b806347ef3b3b116103445780635c778605116102ce5780636a56947e116102935780636a56947e1461076d5780636d154ea51461077b5780636d35bf911461079d578063731f0c2b146107ab578063741b2525146107cd575f5ffd5b80635c7786051461070e5780635ec88c79146107215780635f5af1aa146107345780635fc7e71e14610747578063607ef6c11461075a575f5ffd5b80634ef4c3e1116103145780634ef4c3e1146106af5780634fd42e17146106c257806351dff989146106d557806352d84d1e146106e857806355ee1fe1146106fb575f5ffd5b806347ef3b3b146106435780634a584432146106595780634ada90af146106785780634e79238f14610681575f5ffd5b806326782247116103d0578063391957d711610395578063391957d7146105ef5780633bcf7ec1146106025780633c94786f1461061557806341c728b91461062957806342cbb15c1461063d575f5ffd5b806326782247146105485780632d70db781461055b578063317b0b771461056e578063328bb72b1461058157806336376925146105dc575f5ffd5b80631ededc91116104165780631ededc91146104e757806321af4569146104fc57806324008a621461050f57806324a3d622146105225780632582e0ec14610535575f5ffd5b80630aa4266f1461044757806318c882a51461048457806318f1408d146104a75780631d504dc6146104d2575b5f5ffd5b61047161045536600461452d565b601260209081525f928352604080842090915290825290205481565b6040519081526020015b60405180910390f35b610497610492366004614571565b610b9f565b604051901515815260200161047b565b6002546104ba906001600160a01b031681565b6040516001600160a01b03909116815260200161047b565b6104e56104e036600461459d565b610cdd565b005b6104e56104f53660046145b8565b5050505050565b6015546104ba906001600160a01b031681565b61047161051d36600461460f565b610e56565b600a546104ba906001600160a01b031681565b6104e5610543366004614738565b610f0f565b6001546104ba906001600160a01b031681565b6104976105693660046147c1565b6111af565b61047161057c3660046147dc565b61129c565b6105b861058f36600461459d565b60116020525f90815260409020546001600160e01b03811690600160e01b900463ffffffff1682565b604080516001600160e01b03909316835263ffffffff90911660208301520161047b565b6104e56105ea36600461459d565b611341565b6104e56105fd36600461459d565b6113a3565b610497610610366004614571565b61146c565b600a5461049790600160a01b900460ff1681565b6104e56106373660046147f3565b50505050565b43610471565b6104e5610651366004614836565b505050505050565b61047161066736600461459d565b60166020525f908152604090205481565b61047160065481565b61069461068f3660046147f3565b611592565b6040805193845260208401929092529082015260600161047b565b6104716106bd3660046148a0565b6115cf565b6104716106d03660046147dc565b61166d565b6104e56106e33660046147f3565b6116c9565b6104ba6106f63660046147dc565b611717565b61047161070936600461459d565b61173f565b6104e561071c3660046148a0565b505050565b61069461072f36600461459d565b6117b7565b61047161074236600461459d565b6117ed565b6104716107553660046148de565b611865565b6104e5610768366004614986565b6119b7565b6104e561063736600461460f565b61049761078936600461459d565b600c6020525f908152604090205460ff1681565b6104e56104f53660046148de565b6104976107b936600461459d565b600b6020525f908152604090205460ff1681565b6104e56107db36600461459d565b611b87565b6104716107ee36600461459d565b600f6020525f908152604090205481565b6003546104ba906001600160a01b031681565b6004546104ba906001600160a01b031681565b6104e56108333660046149f2565b611c2d565b600a5461049790600160b01b900460ff1681565b6019546001600160a01b03166104ba565b61089061086b36600461459d565b60096020525f908152604090208054600182015460039092015460ff91821692911683565b604080519315158452602084019290925215159082015260600161047b565b6104976108bd3660046147c1565b611c8f565b6104976108d036600461452d565b6001600160a01b038082165f908152600960209081526040808320938616835260029093019052205460ff1692915050565b6105b861091036600461459d565b60106020525f90815260409020546001600160e01b03811690600160e01b900463ffffffff1682565b61047160075481565b6104e56109503660046149f2565b611d73565b6104e5610963366004614a1c565b611e69565b61047161097636600461452d565b601360209081525f928352604080842090915290825290205481565b6019546104ba906001600160a01b031681565b6104716109b336600461459d565b611eca565b6109cb6109c636600461459d565b611fee565b60405161047b9190614a69565b600a5461049790600160b81b900460ff1681565b6109cb612061565b6104e5610a023660046149f2565b6120c1565b610471610a1536600461460f565b6121b4565b610471610a2836600461459d565b60186020525f908152604090205481565b610a4c610a47366004614ab4565b61223d565b60405161047b9190614ae6565b610a6c610a673660046148a0565b6122f8565b6040805192835260208301919091520161047b565b610a976ec097ce7bc90715b34b9f100000000081565b6040516001600160e01b03909116815260200161047b565b610471610abd36600461459d565b60176020525f908152604090205481565b610471610adc36600461459d565b60146020525f908152604090205481565b610471610afb3660046148de565b612508565b610471600e5481565b610471610b173660046148a0565b6126a7565b6104ba610b2a3660046149f2565b612a65565b610471610b3d3660046149f2565b612a99565b600a5461049790600160a81b900460ff1681565b61047160055481565b610471610b6d3660046148a0565b612c26565b610471610b8036600461459d565b612c5f565b5f546104ba906001600160a01b031681565b610497600181565b6001600160a01b0382165f9081526009602052604081205460ff16610bdf5760405162461bcd60e51b8152600401610bd690614b1d565b60405180910390fd5b600a546001600160a01b0316331480610c0157505f546001600160a01b031633145b610c1d5760405162461bcd60e51b8152600401610bd690614b65565b5f546001600160a01b0316331480610c3757506001821515145b610c535760405162461bcd60e51b8152600401610bd690614bac565b6001600160a01b0383165f818152600c6020908152604091829020805460ff19168615159081179091558251938452606091840182905260069184019190915265426f72726f7760d01b6080840152908201527f71aec636243f9709bb0007ae15e9afb8150ab01716d75fd7573be5cc096e03b09060a0015b60405180910390a150805b92915050565b806001600160a01b031663f851a4406040518163ffffffff1660e01b8152600401602060405180830381865afa158015610d19573d5f5f3e3d5ffd5b505050506040513d601f19601f82011682018060405250810190610d3d9190614bdc565b6001600160a01b0316336001600160a01b031614610dad5760405162461bcd60e51b815260206004820152602760248201527f6f6e6c7920756e6974726f6c6c65722061646d696e2063616e206368616e676560448201526620627261696e7360c81b6064820152608401610bd6565b806001600160a01b031663c1e803346040518163ffffffff1660e01b81526004016020604051808303815f875af1158015610dea573d5f5f3e3d5ffd5b505050506040513d601f19601f82011682018060405250810190610e0e9190614bf7565b15610e535760405162461bcd60e51b815260206004820152601560248201527418da185b99d9481b9bdd08185d5d1a1bdc9a5e9959605a1b6044820152606401610bd6565b50565b6001600160a01b0384165f9081526009602052604081205460ff16610e7d57506009610f07565b5f6040518060200160405280876001600160a01b031663aa5af0fd6040518163ffffffff1660e01b8152600401602060405180830381865afa158015610ec5573d5f5f3e3d5ffd5b505050506040513d601f19601f82011682018060405250810190610ee99190614bf7565b90529050610ef78682612fa5565b610f028685836131f6565b5f9150505b949350505050565b5f5b83518110156104f5575f848281518110610f2d57610f2d614c22565b6020908102919091018101516001600160a01b0381165f908152600990925260409091205490915060ff16610f9c5760405162461bcd60e51b81526020600482015260156024820152741b585c9ad95d081b5d5cdd081899481b1a5cdd1959605a1b6044820152606401610bd6565b8315156001036110f1575f6040518060200160405280836001600160a01b031663aa5af0fd6040518163ffffffff1660e01b8152600401602060405180830381865afa158015610fee573d5f5f3e3d5ffd5b505050506040513d601f19601f820116820180604052508101906110129190614bf7565b905290506110208282612fa5565b5f5b87518110156110ee5761104f8389838151811061104157611041614c22565b6020026020010151846131f6565b6110ae88828151811061106457611064614c22565b602002602001015160145f8b858151811061108157611081614c22565b60200260200101516001600160a01b03166001600160a01b031681526020019081526020015f2054613354565b60145f8a84815181106110c3576110c3614c22565b6020908102919091018101516001600160a01b031682528101919091526040015f2055600101611022565b50505b8215156001036111a6576111048161346d565b5f5b86518110156111a4576111328288838151811061112557611125614c22565b60200260200101516136b4565b61116487828151811061114757611147614c22565b602002602001015160145f8a858151811061108157611081614c22565b60145f89848151811061117957611179614c22565b6020908102919091018101516001600160a01b031682528101919091526040015f2055600101611106565b505b50600101610f11565b600a545f906001600160a01b03163314806111d357505f546001600160a01b031633145b6111ef5760405162461bcd60e51b8152600401610bd690614b65565b5f546001600160a01b031633148061120957506001821515145b6112255760405162461bcd60e51b8152600401610bd690614bac565b600a8054831515600160b81b0260ff60b81b199091161790556040517fef159d9a32b2472e32b098f954f3ce62d232939f1c207070b584df1814de2de0906112909084906040808252600590820152645365697a6560d81b6060820152901515602082015260800190565b60405180910390a15090565b5f80546001600160a01b031633146112f65760405162461bcd60e51b815260206004820152601f60248201527f6f6e6c792061646d696e2063616e2073657420636c6f736520666163746f72006044820152606401610bd6565b600580549083905560408051828152602081018590527f3b9670cf975d26958e754b57098eaa2ac914d8d2a31b83257997b9f346110fd991015b60405180910390a15f5b9392505050565b610e5381600d80548060200260200160405190810160405280929190818152602001828054801561139957602002820191905f5260205f20905b81546001600160a01b0316815260019091019060200180831161137b575b5050505050611e69565b5f546001600160a01b0316331461140b5760405162461bcd60e51b815260206004820152602660248201527f6f6e6c792061646d696e2063616e2073657420626f72726f772063617020677560448201526530b93234b0b760d11b6064820152608401610bd6565b601580546001600160a01b038381166001600160a01b031983168117909355604080519190921680825260208201939093527feda98690e518e9a05f8ec6837663e188211b2da8f4906648b323f2c1d4434e29910160405180910390a15050565b6001600160a01b0382165f9081526009602052604081205460ff166114a35760405162461bcd60e51b8152600401610bd690614b1d565b600a546001600160a01b03163314806114c557505f546001600160a01b031633145b6114e15760405162461bcd60e51b8152600401610bd690614b65565b5f546001600160a01b03163314806114fb57506001821515145b6115175760405162461bcd60e51b8152600401610bd690614bac565b6001600160a01b0383165f818152600b6020908152604091829020805460ff19168615159081179091558251938452606091840182905260049184019190915263135a5b9d60e21b6080840152908201527f71aec636243f9709bb0007ae15e9afb8150ab01716d75fd7573be5cc096e03b09060a001610ccc565b5f5f5f5f5f5f6115a48a8a8a8a613850565b9250925092508260118111156115bc576115bc614c0e565b95509093509150505b9450945094915050565b6001600160a01b0383165f908152600b602052604081205460ff16156116285760405162461bcd60e51b815260206004820152600e60248201526d1b5a5b9d081a5cc81c185d5cd95960921b6044820152606401610bd6565b6001600160a01b0384165f9081526009602052604090205460ff166116515760095b905061133a565b61165a8461346d565b61166484846136b4565b5f949350505050565b5f80546001600160a01b0316331461168b57610cd76001600b613b65565b600680549083905560408051828152602081018590527faeba5a6c40a8ac138134bff1aaa65debf25971188a58804bad717f82f0ec13169101611330565b801580156116d657505f82115b156106375760405162461bcd60e51b815260206004820152601160248201527072656465656d546f6b656e73207a65726f60781b6044820152606401610bd6565b600d8181548110611726575f80fd5b5f918252602090912001546001600160a01b0316905081565b5f80546001600160a01b0316331461175d57610cd760016010613b65565b600480546001600160a01b038481166001600160a01b031983168117909355604080519190921680825260208201939093527fd52b2b9b7e9ee655fcb95d2e5b9e0c9f69e7ef2b8e9d2d0ea78402d576d22e229101611330565b5f5f5f5f5f5f6117c9875f5f5f613850565b9250925092508260118111156117e1576117e1614c0e565b97919650945092505050565b5f80546001600160a01b0316331461180b57610cd760016013613b65565b600a80546001600160a01b038481166001600160a01b031983168117909355604080519190921680825260208201939093527f0613b6ee6a04f0d09f390e4d9318894b9f6ac7fd83897cd8d18896ba579c401e9101611330565b6001600160a01b0385165f9081526009602052604081205460ff1615806118a457506001600160a01b0385165f9081526009602052604090205460ff16155b156118b35760095b90506119ae565b5f5f6118be85613bdc565b9193509091505f90508260118111156118d9576118d9614c0e565b146118f9578160118111156118f0576118f0614c0e565b925050506119ae565b805f036119075760036118f0565b6040516395dd919360e01b81526001600160a01b0386811660048301525f91908a16906395dd919390602401602060405180830381865afa15801561194e573d5f5f3e3d5ffd5b505050506040513d601f19601f820116820180604052508101906119729190614bf7565b90505f61198f604051806020016040528060055481525083613bf8565b9050808611156119a65760119450505050506119ae565b5f9450505050505b95945050505050565b5f546001600160a01b03163314806119d957506015546001600160a01b031633145b611a435760405162461bcd60e51b815260206004820152603560248201527f6f6e6c792061646d696e206f7220626f72726f772063617020677561726469616044820152746e2063616e2073657420626f72726f77206361707360581b6064820152608401610bd6565b82818115801590611a5357508082145b611a8f5760405162461bcd60e51b815260206004820152600d60248201526c1a5b9d985b1a59081a5b9c1d5d609a1b6044820152606401610bd6565b5f5b82811015611b7e57848482818110611aab57611aab614c22565b9050602002013560165f898985818110611ac757611ac7614c22565b9050602002016020810190611adc919061459d565b6001600160a01b0316815260208101919091526040015f2055868682818110611b0757611b07614c22565b9050602002016020810190611b1c919061459d565b6001600160a01b03167f6f1951b2aad10f3fc81b86d91105b413a5b3f847a34bbc5ce1904201b14438f6868684818110611b5857611b58614c22565b90506020020135604051611b6e91815260200190565b60405180910390a2600101611a91565b50505050505050565b6001600160a01b0381165f90815260176020908152604080832054601890925282205490914391611bb9908390613c0f565b90505f81118015611bc957505f83115b15610637575f611bd98285613c1a565b6001600160a01b0386165f9081526014602052604081205491925090611bff9083613c25565b6001600160a01b0387165f908152601460209081526040808320939093556018905220849055505050505050565b611c35613c30565b611c815760405162461bcd60e51b815260206004820181905260248201527f6f6e6c792061646d696e2063616e207365742070657269646f742073706565646044820152606401610bd6565b611c8b8282613c58565b5050565b600a545f906001600160a01b0316331480611cb357505f546001600160a01b031633145b611ccf5760405162461bcd60e51b8152600401610bd690614b65565b5f546001600160a01b0316331480611ce957506001821515145b611d055760405162461bcd60e51b8152600401610bd690614bac565b600a8054831515600160b01b0260ff60b01b199091161790556040517fef159d9a32b2472e32b098f954f3ce62d232939f1c207070b584df1814de2de0906112909084906040808252600890820152672a3930b739b332b960c11b6060820152901515602082015260800190565b611d7b613c30565b611dc75760405162461bcd60e51b815260206004820152601c60248201527f6f6e6c792061646d696e2063616e206772616e742070657269646f74000000006044820152606401610bd6565b5f611dd28383613354565b90508015611e225760405162461bcd60e51b815260206004820152601e60248201527f696e73756666696369656e742070657269646f7420666f72206772616e7400006044820152606401610bd6565b604080516001600160a01b0385168152602081018490527f261934657a3c2333b8c49721bd1f22d7fa808b39ff56c88e0ed42daaff5e2c4e910160405180910390a1505050565b6040805160018082528183019092525f916020808301908036833701905050905082815f81518110611e9d57611e9d614c22565b60200260200101906001600160a01b031690816001600160a01b03168152505061071c8183600180610f0f565b5f80546001600160a01b03163314611ee857610cd760016012613b65565b6001600160a01b0382165f9081526009602052604090205460ff1615611f1457610cd7600a6011613b65565b816001600160a01b0316635a890c0e6040518163ffffffff1660e01b8152600401602060405180830381865afa158015611f50573d5f5f3e3d5ffd5b505050506040513d601f19601f82011682018060405250810190611f749190614c36565b506001600160a01b0382165f9081526009602052604081208054600160ff1991821681178355600383018054909216909155810191909155611fb583613f82565b6040516001600160a01b03841681527fcf583bb0c569eb967f806b11601c4cb93c10310485c67add5f8362c2f212321f90602001611330565b6001600160a01b0381165f90815260086020908152604080832080548251818502810185019093528083526060949383018282801561205457602002820191905f5260205f20905b81546001600160a01b03168152600190910190602001808311612036575b5093979650505050505050565b6060600d8054806020026020016040519081016040528092919081815260200182805480156120b757602002820191905f5260205f20905b81546001600160a01b03168152600190910190602001808311612099575b5050505050905090565b6120c9613c30565b6121155760405162461bcd60e51b815260206004820181905260248201527f6f6e6c792061646d696e2063616e207365742070657269646f742073706565646044820152606401610bd6565b61211e82611b87565b805f03612142576001600160a01b0382165f9081526018602052604081205561215c565b436001600160a01b0383165f908152601860205260409020555b6001600160a01b0382165f8181526017602052604090819020839055517f25c31f2aebcdd5690c478d6f15c5d081640120a66428323870ed17257e342c3a906121a89084815260200190565b60405180910390a25050565b600a545f90600160b01b900460ff16156122055760405162461bcd60e51b81526020600482015260126024820152711d1c985b9cd9995c881a5cc81c185d5cd95960721b6044820152606401610bd6565b5f61221186868561405d565b90508015612220579050610f07565b6122298661346d565b61223386866136b4565b610f0286856136b4565b80516060905f8167ffffffffffffffff81111561225c5761225c61465d565b604051908082528060200260200182016040528015612285578160200160208202803683370190505b5090505f5b828110156122f0575f8582815181106122a5576122a5614c22565b602002602001015190506122b9813361410f565b60118111156122ca576122ca614c0e565b8383815181106122dc576122dc614c22565b60209081029190910101525060010161228a565b509392505050565b6004805460405163fc57d4df60e01b81526001600160a01b03868116938201939093525f928392839291169063fc57d4df90602401602060405180830381865afa158015612348573d5f5f3e3d5ffd5b505050506040513d601f19601f8201168201806040525081019061236c9190614bf7565b6004805460405163fc57d4df60e01b81526001600160a01b03898116938201939093529293505f9291169063fc57d4df90602401602060405180830381865afa1580156123bb573d5f5f3e3d5ffd5b505050506040513d601f19601f820116820180604052508101906123df9190614bf7565b90508115806123ec575080155b156123ff57600d5f935093505050612500565b5f866001600160a01b031663182df0f56040518163ffffffff1660e01b8152600401602060405180830381865afa15801561243c573d5f5f3e3d5ffd5b505050506040513d601f19601f820116820180604052508101906124609190614bf7565b90505f61247860405180602001604052805f81525090565b60408051602080820183525f80835283518083018552908152835180830185526006548152845192830190945288825291926124b3916141fe565b92506124db6040518060200160405280888152506040518060200160405280888152506141fe565b91506124e78383614243565b90506124f3818b613bf8565b5f99509750505050505050505b935093915050565b600a545f90600160b81b900460ff16156125565760405162461bcd60e51b815260206004820152600f60248201526e1cd95a5e99481a5cc81c185d5cd959608a1b6044820152606401610bd6565b6001600160a01b0386165f9081526009602052604090205460ff16158061259557506001600160a01b0385165f9081526009602052604090205460ff16155b156125a15760096118ac565b846001600160a01b031663c423fe296040518163ffffffff1660e01b8152600401602060405180830381865afa1580156125dd573d5f5f3e3d5ffd5b505050506040513d601f19601f820116820180604052508101906126019190614bdc565b6001600160a01b0316866001600160a01b031663c423fe296040518163ffffffff1660e01b8152600401602060405180830381865afa158015612646573d5f5f3e3d5ffd5b505050506040513d601f19601f8201168201806040525081019061266a9190614bdc565b6001600160a01b03161461267f5760026118ac565b6126888661346d565b61269286846136b4565b61269c86856136b4565b5f9695505050505050565b6001600160a01b0383165f908152600c602052604081205460ff16156127025760405162461bcd60e51b815260206004820152601060248201526f189bdc9c9bddc81a5cc81c185d5cd95960821b6044820152606401610bd6565b6001600160a01b0384165f9081526009602052604090205460ff1661272857600961164a565b6001600160a01b038085165f908152600960209081526040808320938716835260029093019052205460ff1661282157336001600160a01b038516146127a85760405162461bcd60e51b815260206004820152601560248201527439b2b73232b91036bab9ba10313290382a37b5b2b760591b6044820152606401610bd6565b5f6127b3338561410f565b90505f8160118111156127c8576127c8614c0e565b146127e7578060118111156127df576127df614c0e565b91505061133a565b6001600160a01b038086165f908152600960209081526040808320938816835260029093019052205460ff1661281f5761281f614c51565b505b6004805460405163fc57d4df60e01b81526001600160a01b038781169382019390935291169063fc57d4df90602401602060405180830381865afa15801561286b573d5f5f3e3d5ffd5b505050506040513d601f19601f8201168201806040525081019061288f9190614bf7565b5f0361289c57600d61164a565b6001600160a01b0384165f90815260166020526040902054801561297c575f856001600160a01b03166347bd37186040518163ffffffff1660e01b8152600401602060405180830381865afa1580156128f7573d5f5f3e3d5ffd5b505050506040513d601f19601f8201168201806040525081019061291b9190614bf7565b90505f6129288286613c25565b90508281106129795760405162461bcd60e51b815260206004820152601960248201527f6d61726b657420626f72726f77206361702072656163686564000000000000006044820152606401610bd6565b50505b5f5f61298a86885f88613850565b9193509091505f90508260118111156129a5576129a5614c0e565b146129c6578160118111156129bc576129bc614c0e565b935050505061133a565b80156129d35760046129bc565b5f6040518060200160405280896001600160a01b031663aa5af0fd6040518163ffffffff1660e01b8152600401602060405180830381865afa158015612a1b573d5f5f3e3d5ffd5b505050506040513d601f19601f82011682018060405250810190612a3f9190614bf7565b90529050612a4d8882612fa5565b612a588888836131f6565b5f98975050505050505050565b6008602052815f5260405f208181548110612a7e575f80fd5b5f918252602090912001546001600160a01b03169150829050565b5f80546001600160a01b03163314612abe57612ab760016006613b65565b9050610cd7565b6001600160a01b0383165f908152600960205260409020805460ff16612af257612aea60096007613b65565b915050610cd7565b60408051602080820183528582528251908101909252670c7d713b49da0000825290612b2081835190511090565b15612b3b57612b3160066008613b65565b9350505050610cd7565b8415801590612bb557506004805460405163fc57d4df60e01b81526001600160a01b038981169382019390935291169063fc57d4df90602401602060405180830381865afa158015612b8f573d5f5f3e3d5ffd5b505050506040513d601f19601f82011682018060405250810190612bb39190614bf7565b155b15612bc657612b31600d6009613b65565b60018301805490869055604080516001600160a01b0389168152602081018390529081018790527f70483e6592cd5182d45ac970e05bc62cdcc90e9d8ef2c2dbe686cf383bcd7fc59060600160405180910390a15f979650505050505050565b5f5f612c3385858561405d565b90508015612c4257905061133a565b612c4b8561346d565b612c5585856136b4565b5f95945050505050565b6040516361bfb47160e11b81523360048201525f9082908290819081906001600160a01b0385169063c37f68e290602401608060405180830381865afa158015612cab573d5f5f3e3d5ffd5b505050506040513d601f19601f82011682018060405250810190612ccf9190614c65565b50925092509250825f14612d335760405162461bcd60e51b815260206004820152602560248201527f657869744d61726b65743a206765744163636f756e74536e617073686f742066604482015264185a5b195960da1b6064820152608401610bd6565b8015612d4f57612d45600c6002613b65565b9695505050505050565b5f612d5b87338561405d565b90508015612d7b57612d70600e60038361427b565b979650505050505050565b6001600160a01b0385165f908152600960209081526040808320338452600281019092529091205460ff16612db7575f98975050505050505050565b335f9081526002820160209081526040808320805460ff191690556008825280832080548251818502810185019093528083529192909190830182828015612e2657602002820191905f5260205f20905b81546001600160a01b03168152600190910190602001808311612e08575b505083519394508392505f9150505b82811015612e7f57896001600160a01b0316848281518110612e5957612e59614c22565b60200260200101516001600160a01b031603612e7757809150612e7f565b600101612e35565b50818110612e8f57612e8f614c51565b335f90815260086020526040902080548190612ead90600190614cac565b81548110612ebd57612ebd614c22565b905f5260205f20015f9054906101000a90046001600160a01b0316818381548110612eea57612eea614c22565b905f5260205f20015f6101000a8154816001600160a01b0302191690836001600160a01b0316021790555080805480612f2557612f25614cbf565b5f8281526020902081015f1990810180546001600160a01b03191690550190556040517fe699a64c18b07ac5b7301aa273f36a2287239eb9501d81950672794afba29a0d90612f8c908c9033906001600160a01b0392831681529116602082015260400190565b60405180910390a15f9c9b505050505050505050505050565b6001600160a01b0382165f908152601160209081526040808320600f90925282205490914383549091505f90612fe9908390600160e01b900463ffffffff16613c0f565b90505f81118015612ff957505f83115b1561319d575f613068876001600160a01b03166347bd37186040518163ffffffff1660e01b8152600401602060405180830381865afa15801561303e573d5f5f3e3d5ffd5b505050506040513d601f19601f820116820180604052508101906130629190614bf7565b876142f2565b90505f6130758386613c1a565b90505f5f83116130935760405180602001604052805f81525061309d565b61309d828461430f565b604080516020810190915288546001600160e01b031681529091505f906130c4908361434a565b90506040518060400160405280613113835f01516040518060400160405280601a81526020017f6e657720696e6465782065786365656473203232342062697473000000000000815250614373565b6001600160e01b0316815260200161314d886040518060400160405280601c81526020015f516020614d525f395f51905f528152506143a1565b63ffffffff9081169091526001600160a01b038c165f90815260116020908152604090912083519390910151909116600160e01b026001600160e01b039092169190911790555061065192505050565b8015610651576131cf826040518060400160405280601c81526020015f516020614d525f395f51905f528152506143a1565b845463ffffffff91909116600160e01b026001600160e01b03909116178455505050505050565b6001600160a01b038084165f8181526011602090815260408083208151808401835281546001600160e01b031681528251808501845295855260138452828520968916808652878552928520805487528151939095529590925290915581519092919015610651575f61326983836143c8565b6040516395dd919360e01b81526001600160a01b0388811660048301529192505f916132b791908a16906395dd919390602401602060405180830381865afa15801561303e573d5f5f3e3d5ffd5b90505f6132c482846143f1565b6001600160a01b0389165f90815260146020526040812054919250906132ea9083613c25565b6001600160a01b038a81165f818152601460209081526040918290208590558a518251888152918201529394509092918d16917f1e5561ff39e796a5299c233e6fd3b11fe55a12e535266cc176f37334e6c7efb6910160405180910390a350505050505050505050565b5f5f6133686019546001600160a01b031690565b6040516370a0823160e01b81523060048201529091505f906001600160a01b038316906370a0823190602401602060405180830381865afa1580156133af573d5f5f3e3d5ffd5b505050506040513d601f19601f820116820180604052508101906133d39190614bf7565b90505f841180156133e45750808411155b156134645760405163a9059cbb60e01b81526001600160a01b0386811660048301526024820186905283169063a9059cbb906044016020604051808303815f875af1158015613435573d5f5f3e3d5ffd5b505050506040513d601f19601f820116820180604052508101906134599190614c36565b505f92505050610cd7565b50919392505050565b6001600160a01b0381165f908152601060209081526040808320600f90925282205490914383549091505f906134b1908390600160e01b900463ffffffff16613c0f565b90505f811180156134c157505f83115b1561365c575f856001600160a01b03166318160ddd6040518163ffffffff1660e01b8152600401602060405180830381865afa158015613503573d5f5f3e3d5ffd5b505050506040513d601f19601f820116820180604052508101906135279190614bf7565b90505f6135348386613c1a565b90505f5f83116135525760405180602001604052805f81525061355c565b61355c828461430f565b604080516020810190915288546001600160e01b031681529091505f90613583908361434a565b905060405180604001604052806135d2835f01516040518060400160405280601a81526020017f6e657720696e6465782065786365656473203232342062697473000000000000815250614373565b6001600160e01b0316815260200161360c886040518060400160405280601c81526020015f516020614d525f395f51905f528152506143a1565b63ffffffff9081169091526001600160a01b038b165f90815260106020908152604090912083519390910151909116600160e01b026001600160e01b03909216919091179055506104f592505050565b80156104f55761368e826040518060400160405280601c81526020015f516020614d525f395f51905f528152506143a1565b845463ffffffff91909116600160e01b026001600160e01b039091161784555050505050565b6001600160a01b038083165f8181526010602090815260408083208151808401835281546001600160e01b03168152825180850184529585526012845282852096881680865287855292852080548752815193909552959092529091558151909291901580156137245750815115155b1561373c576ec097ce7bc90715b34b9f100000000081525b5f61374783836143c8565b6040516370a0823160e01b81526001600160a01b0387811660048301529192505f918816906370a0823190602401602060405180830381865afa158015613790573d5f5f3e3d5ffd5b505050506040513d601f19601f820116820180604052508101906137b49190614bf7565b90505f6137c182846143f1565b6001600160a01b0388165f90815260146020526040812054919250906137e79083613c25565b6001600160a01b038981165f818152601460209081526040918290208590558a518251888152918201529394509092918c16917faf420590cb43d2e84351d8cd2a32149325e748efcd73152eacf2e54ecab59766910160405180910390a3505050505050505050565b5f5f5f61385b614481565b6001600160a01b0388165f908152600860209081526040808320805482518185028101850190935280835284938301828280156138bf57602002820191905f5260205f20905b81546001600160a01b031681526001909101906020018083116138a1575b509394505f93505050505b8151811015613b13575f8282815181106138e6576138e6614c22565b60209081029190910101516040516361bfb47160e11b81526001600160a01b038e811660048301529192509082169063c37f68e290602401608060405180830381865afa158015613939573d5f5f3e3d5ffd5b505050506040513d601f19601f8201168201806040525081019061395d9190614c65565b6080890152606088015260408701529350831561398857600f5f5f97509750975050505050506115c5565b60408051602080820183526001600160a01b038481165f8181526009845285902060010154845260c08a01939093528351808301855260808a0151815260e08a015260048054855163fc57d4df60e01b815291820194909452935192169263fc57d4df92602480830193928290030181865afa158015613a0a573d5f5f3e3d5ffd5b505050506040513d601f19601f82011682018060405250810190613a2e9190614bf7565b60a086018190525f03613a4f57600d5f5f97509750975050505050506115c5565b604080516020810190915260a0860151815261010086015260c085015160e0860151613a8991613a7e916141fe565b8661010001516141fe565b610120860181905260408601518651613aa3929190614419565b855261010085015160608601516020870151613ac0929190614419565b60208601526001600160a01b03808c1690821603613b0a57613aec8561012001518b8760200151614419565b60208601819052610100860151613b04918b90614419565b60208601525b506001016138ca565b50602083015183511115613b4257602083015183515f91613b3391614cac565b5f9550955095505050506115c5565b5f5f845f01518560200151613b579190614cac565b9550955095505050506115c5565b5f7f45b96fe442630264581b197e84bbada861235052c5a1aadfff9ea4e40a969aa0836011811115613b9957613b99614c0e565b836013811115613bab57613bab614c0e565b6040805192835260208301919091525f9082015260600160405180910390a182601181111561133a5761133a614c0e565b5f5f5f613beb845f5f5f613850565b9250925092509193909250565b5f5f613c048484614439565b9050610f078161445f565b5f61133a8284614cac565b5f61133a8284614cd3565b5f61133a8284614cea565b5f80546001600160a01b0316331480613c5357506002546001600160a01b031633145b905090565b6001600160a01b0382165f908152600f60205260409020548015613cff575f6040518060200160405280856001600160a01b031663aa5af0fd6040518163ffffffff1660e01b8152600401602060405180830381865afa158015613cbe573d5f5f3e3d5ffd5b505050506040513d601f19601f82011682018060405250810190613ce29190614bf7565b90529050613cef8461346d565b613cf98482612fa5565b50613f22565b8115613f22576001600160a01b0383165f908152600960205260409020805460ff161515600114613d725760405162461bcd60e51b815260206004820152601c60248201527f70657269646f74206d61726b6574206973206e6f74206c6973746564000000006044820152606401610bd6565b6001600160a01b0384165f908152601060205260409020546001600160e01b0316158015613dc257506001600160a01b0384165f90815260106020526040902054600160e01b900463ffffffff16155b15613e5b57604080518082019091526ec097ce7bc90715b34b9f1000000000815260208101613e14435b6040518060400160405280601c81526020015f516020614d525f395f51905f528152506143a1565b63ffffffff9081169091526001600160a01b0386165f90815260106020908152604090912083519390910151909116600160e01b026001600160e01b039092169190911790555b6001600160a01b0384165f908152601160205260409020546001600160e01b0316158015613eab57506001600160a01b0384165f90815260116020526040902054600160e01b900463ffffffff16155b15613f2057604080518082019091526ec097ce7bc90715b34b9f1000000000815260208101613ed943613dec565b63ffffffff9081169091526001600160a01b0386165f90815260116020908152604090912083519390910151909116600160e01b026001600160e01b039092169190911790555b505b81811461071c576001600160a01b0383165f818152600f602052604090819020849055517f7192d234c68cd375a28075afb25d2e5ab2f48248c84841e104c1bd008785b98090613f759085815260200190565b60405180910390a2505050565b5f5b600d5481101561400b57816001600160a01b0316600d8281548110613fab57613fab614c22565b5f918252602090912001546001600160a01b0316036140035760405162461bcd60e51b81526020600482015260146024820152731b585c9ad95d08185b1c9958591e48185919195960621b6044820152606401610bd6565b600101613f84565b50600d80546001810182555f919091527fd7b6990105719101dabeb77144f2a3385c8033acd3af97e9423a695e81ad1eb50180546001600160a01b0319166001600160a01b0392909216919091179055565b6001600160a01b0383165f9081526009602052604081205460ff1661408357600961164a565b6001600160a01b038085165f908152600960209081526040808320938716835260029093019052205460ff166140b9575f61164a565b5f5f6140c78587865f613850565b9193509091505f90508260118111156140e2576140e2614c0e565b14614102578160118111156140f9576140f9614c0e565b9250505061133a565b801561269c5760046140f9565b6001600160a01b0382165f908152600960205260408120805460ff16614139576009915050610cd7565b6001600160a01b0383165f90815260028201602052604090205460ff161515600103614168575f915050610cd7565b6001600160a01b038381165f81815260028401602090815260408083208054600160ff199091168117909155600883528184208054918201815584529282902090920180546001600160a01b031916948916948517905581519384528301919091527f3ab23ab0d51cccc0c3085aec51f99228625aa1a922b3a8ca89a26b0f2027a1a5910160405180910390a1505f9392505050565b60408051602081019091525f81526040518060200160405280670de0b6b3a7640000614230865f0151865f0151613c1a565b61423a9190614cfd565b90529392505050565b60408051602081019091525f8152604051806020016040528061423a614274865f0151670de0b6b3a7640000613c1a565b8551614476565b5f7f45b96fe442630264581b197e84bbada861235052c5a1aadfff9ea4e40a969aa08460118111156142af576142af614c0e565b8460138111156142c1576142c1614c0e565b604080519283526020830191909152810184905260600160405180910390a1836011811115610f0757610f07614c0e565b5f61133a61430884670de0b6b3a7640000613c1a565b8351614476565b60408051602081019091525f8152604051806020016040528061423a614344866ec097ce7bc90715b34b9f1000000000613c1a565b85614476565b60408051602081019091525f8152604051806020016040528061423a855f0151855f0151613c25565b5f81600160e01b84106143995760405162461bcd60e51b8152600401610bd69190614d1c565b509192915050565b5f8164010000000084106143995760405162461bcd60e51b8152600401610bd69190614d1c565b60408051602081019091525f8152604051806020016040528061423a855f0151855f0151613c0f565b5f6ec097ce7bc90715b34b9f100000000061440f84845f0151613c1a565b61133a9190614cfd565b5f5f6144258585614439565b90506119ae6144338261445f565b84613c25565b60408051602081019091525f8152604051806020016040528061423a855f015185613c1a565b80515f90610cd790670de0b6b3a764000090614cfd565b5f61133a8284614cfd565b6040518061014001604052805f81526020015f81526020015f81526020015f81526020015f81526020015f81526020016144c660405180602001604052805f81525090565b81526020016144e060405180602001604052805f81525090565b81526020016144fa60405180602001604052805f81525090565b815260200161451460405180602001604052805f81525090565b905290565b6001600160a01b0381168114610e53575f5ffd5b5f5f6040838503121561453e575f5ffd5b823561454981614519565b9150602083013561455981614519565b809150509250929050565b8015158114610e53575f5ffd5b5f5f60408385031215614582575f5ffd5b823561458d81614519565b9150602083013561455981614564565b5f602082840312156145ad575f5ffd5b813561133a81614519565b5f5f5f5f5f60a086880312156145cc575f5ffd5b85356145d781614519565b945060208601356145e781614519565b935060408601356145f781614519565b94979396509394606081013594506080013592915050565b5f5f5f5f60808587031215614622575f5ffd5b843561462d81614519565b9350602085013561463d81614519565b9250604085013561464d81614519565b9396929550929360600135925050565b634e487b7160e01b5f52604160045260245ffd5b604051601f8201601f1916810167ffffffffffffffff8111828210171561469a5761469a61465d565b604052919050565b5f67ffffffffffffffff8211156146bb576146bb61465d565b5060051b60200190565b5f82601f8301126146d4575f5ffd5b81356146e76146e2826146a2565b614671565b8082825260208201915060208360051b860101925085831115614708575f5ffd5b602085015b8381101561472e57803561472081614519565b83526020928301920161470d565b5095945050505050565b5f5f5f5f6080858703121561474b575f5ffd5b843567ffffffffffffffff811115614761575f5ffd5b61476d878288016146c5565b945050602085013567ffffffffffffffff811115614789575f5ffd5b614795878288016146c5565b93505060408501356147a681614564565b915060608501356147b681614564565b939692955090935050565b5f602082840312156147d1575f5ffd5b813561133a81614564565b5f602082840312156147ec575f5ffd5b5035919050565b5f5f5f5f60808587031215614806575f5ffd5b843561481181614519565b9350602085013561482181614519565b93969395505050506040820135916060013590565b5f5f5f5f5f5f60c0878903121561484b575f5ffd5b863561485681614519565b9550602087013561486681614519565b9450604087013561487681614519565b9350606087013561488681614519565b9598949750929560808101359460a0909101359350915050565b5f5f5f606084860312156148b2575f5ffd5b83356148bd81614519565b925060208401356148cd81614519565b929592945050506040919091013590565b5f5f5f5f5f60a086880312156148f2575f5ffd5b85356148fd81614519565b9450602086013561490d81614519565b9350604086013561491d81614519565b9250606086013561492d81614519565b949793965091946080013592915050565b5f5f83601f84011261494e575f5ffd5b50813567ffffffffffffffff811115614965575f5ffd5b6020830191508360208260051b850101111561497f575f5ffd5b9250929050565b5f5f5f5f60408587031215614999575f5ffd5b843567ffffffffffffffff8111156149af575f5ffd5b6149bb8782880161493e565b909550935050602085013567ffffffffffffffff8111156149da575f5ffd5b6149e68782880161493e565b95989497509550505050565b5f5f60408385031215614a03575f5ffd5b8235614a0e81614519565b946020939093013593505050565b5f5f60408385031215614a2d575f5ffd5b8235614a3881614519565b9150602083013567ffffffffffffffff811115614a53575f5ffd5b614a5f858286016146c5565b9150509250929050565b602080825282518282018190525f918401906040840190835b81811015614aa95783516001600160a01b0316835260209384019390920191600101614a82565b509095945050505050565b5f60208284031215614ac4575f5ffd5b813567ffffffffffffffff811115614ada575f5ffd5b610f07848285016146c5565b602080825282518282018190525f918401906040840190835b81811015614aa9578351835260209384019390920191600101614aff565b60208082526028908201527f63616e6e6f742070617573652061206d61726b65742074686174206973206e6f6040820152671d081b1a5cdd195960c21b606082015260800190565b60208082526027908201527f6f6e6c7920706175736520677561726469616e20616e642061646d696e2063616040820152666e20706175736560c81b606082015260800190565b6020808252601690820152756f6e6c792061646d696e2063616e20756e706175736560501b604082015260600190565b5f60208284031215614bec575f5ffd5b815161133a81614519565b5f60208284031215614c07575f5ffd5b5051919050565b634e487b7160e01b5f52602160045260245ffd5b634e487b7160e01b5f52603260045260245ffd5b5f60208284031215614c46575f5ffd5b815161133a81614564565b634e487b7160e01b5f52600160045260245ffd5b5f5f5f5f60808587031215614c78575f5ffd5b505082516020840151604085015160609095015191969095509092509050565b634e487b7160e01b5f52601160045260245ffd5b81810381811115610cd757610cd7614c98565b634e487b7160e01b5f52603160045260245ffd5b8082028115828204841417610cd757610cd7614c98565b80820180821115610cd757610cd7614c98565b5f82614d1757634e487b7160e01b5f52601260045260245ffd5b500490565b602081525f82518060208401528060208501604085015e5f604082850101526040601f19601f8301168401019150509291505056fe626c6f636b206e756d6265722065786365656473203332206269747300000000a2646970667358221220765b4c8f05a3c38cabfcfe8df922d950b5a27156cdfd9f22cb13249965e428c764736f6c634300081b0033","linkReferences":{}},"methodIdentifiers":{"PERIDOT()":"a6b13955","_become(address)":"1d504dc6","_borrowGuardianPaused()":"e6653f3d","_grantPeridot(address,uint256)":"9a8260d6","_mintGuardianPaused()":"3c94786f","_setBorrowCapGuardian(address)":"391957d7","_setBorrowPaused(address,bool)":"18c882a5","_setCloseFactor(uint256)":"317b0b77","_setCollateralFactor(address,uint256)":"e4028eee","_setContributorPeridotSpeed(address,uint256)":"b0cbd622","_setLiquidationIncentive(uint256)":"4fd42e17","_setMarketBorrowCaps(address[],uint256[])":"607ef6c1","_setMintPaused(address,bool)":"3bcf7ec1","_setPauseGuardian(address)":"5f5af1aa","_setPeridotSpeed(address,uint256)":"825d327f","_setPriceOracle(address)":"55ee1fe1","_setSeizePaused(bool)":"2d70db78","_setTransferPaused(bool)":"8ebf6364","_supportMarket(address)":"a76b3fda","accountAssets(address,uint256)":"dce15449","admin()":"f851a440","allMarkets(uint256)":"52d84d1e","borrowAllowed(address,address,uint256)":"da3d454c","borrowCapGuardian()":"21af4569","borrowCaps(address)":"4a584432","borrowGuardianPaused(address)":"6d154ea5","borrowVerify(address,address,uint256)":"5c778605","checkMembership(address,address)":"929fe9a1","claimPeridot(address)":"36376925","claimPeridot(address,address[])":"9d92e62f","claimPeridot(address[],address[],bool,bool)":"2582e0ec","closeFactorMantissa()":"e8755446","enterMarkets(address[])":"c2998238","exitMarket(address)":"ede4edd0","getAccountLiquidity(address)":"5ec88c79","getAllMarkets()":"b0772d0b","getAssetsIn(address)":"abfceffc","getBlockNumber()":"42cbb15c","getHypotheticalAccountLiquidity(address,address,uint256,uint256)":"4e79238f","getPeridotAddress()":"8b130fa0","isPeridottroller()":"fa707af9","lastContributorBlock(address)":"bea6b8b8","liquidateBorrowAllowed(address,address,address,address,uint256)":"5fc7e71e","liquidateBorrowVerify(address,address,address,address,uint256,uint256)":"47ef3b3b","liquidateCalculateSeizeTokens(address,address,uint256)":"c488847b","liquidationIncentiveMantissa()":"4ada90af","markets(address)":"8e8f294b","maxAssets()":"94b2294b","mintAllowed(address,address,uint256)":"4ef4c3e1","mintGuardianPaused(address)":"731f0c2b","mintVerify(address,address,uint256,uint256)":"41c728b9","oracle()":"7dc0d1d0","pauseGuardian()":"24a3d622","pendingAdmin()":"26782247","pendingPeridottrollerImplementation()":"7c8f3a67","peridotAccrued(address)":"d002d989","peridotBorrowState(address)":"328bb72b","peridotBorrowerIndex(address,address)":"a64db627","peridotContributorSpeeds(address)":"ce27c01e","peridotInitialIndex()":"cd2489f0","peridotRate()":"d088864a","peridotSpeeds(address)":"794595f5","peridotSupplierIndex(address,address)":"0aa4266f","peridotSupplyState(address)":"935dbd26","peridottrollerImplementation()":"18f1408d","redeemAllowed(address,address,uint256)":"eabe7d91","redeemVerify(address,address,uint256,uint256)":"51dff989","repayBorrowAllowed(address,address,address,uint256)":"24008a62","repayBorrowVerify(address,address,address,uint256,uint256)":"1ededc91","seizeAllowed(address,address,address,address,uint256)":"d02f7351","seizeGuardianPaused()":"ac0b0bb7","seizeVerify(address,address,address,address,uint256)":"6d35bf91","transferAllowed(address,address,address,uint256)":"bdcdc258","transferGuardianPaused()":"87f76303","transferVerify(address,address,address,uint256)":"6a56947e","updateContributorRewards(address)":"741b2525"},"id":22}