{"abi":[{"type":"function","name":"NO_ERROR","inputs":[],"outputs":[{"name":"","type":"uint256","internalType":"uint256"}],"stateMutability":"view"},{"type":"function","name":"_acceptAdmin","inputs":[],"outputs":[{"name":"","type":"uint256","internalType":"uint256"}],"stateMutability":"nonpayable"},{"type":"function","name":"_addReserves","inputs":[{"name":"addAmount","type":"uint256","internalType":"uint256"}],"outputs":[{"name":"","type":"uint256","internalType":"uint256"}],"stateMutability":"nonpayable"},{"type":"function","name":"_becomeImplementation","inputs":[{"name":"data","type":"bytes","internalType":"bytes"}],"outputs":[],"stateMutability":"nonpayable"},{"type":"function","name":"_delegatePeridotLikeTo","inputs":[{"name":"peridotLikeDelegatee","type":"address","internalType":"address"}],"outputs":[],"stateMutability":"nonpayable"},{"type":"function","name":"_reduceReserves","inputs":[{"name":"reduceAmount","type":"uint256","internalType":"uint256"}],"outputs":[{"name":"","type":"uint256","internalType":"uint256"}],"stateMutability":"nonpayable"},{"type":"function","name":"_resignImplementation","inputs":[],"outputs":[],"stateMutability":"nonpayable"},{"type":"function","name":"_setInterestRateModel","inputs":[{"name":"newInterestRateModel","type":"address","internalType":"contract InterestRateModel"}],"outputs":[{"name":"","type":"uint256","internalType":"uint256"}],"stateMutability":"nonpayable"},{"type":"function","name":"_setPendingAdmin","inputs":[{"name":"newPendingAdmin","type":"address","internalType":"address payable"}],"outputs":[{"name":"","type":"uint256","internalType":"uint256"}],"stateMutability":"nonpayable"},{"type":"function","name":"_setPeridottroller","inputs":[{"name":"newPeridottroller","type":"address","internalType":"contract PeridottrollerInterface"}],"outputs":[{"name":"","type":"uint256","internalType":"uint256"}],"stateMutability":"nonpayable"},{"type":"function","name":"_setReserveFactor","inputs":[{"name":"newReserveFactorMantissa","type":"uint256","internalType":"uint256"}],"outputs":[{"name":"","type":"uint256","internalType":"uint256"}],"stateMutability":"nonpayable"},{"type":"function","name":"accrualBlockNumber","inputs":[],"outputs":[{"name":"","type":"uint256","internalType":"uint256"}],"stateMutability":"view"},{"type":"function","name":"accrueInterest","inputs":[],"outputs":[{"name":"","type":"uint256","internalType":"uint256"}],"stateMutability":"nonpayable"},{"type":"function","name":"admin","inputs":[],"outputs":[{"name":"","type":"address","internalType":"address payable"}],"stateMutability":"view"},{"type":"function","name":"allowance","inputs":[{"name":"owner","type":"address","internalType":"address"},{"name":"spender","type":"address","internalType":"address"}],"outputs":[{"name":"","type":"uint256","internalType":"uint256"}],"stateMutability":"view"},{"type":"function","name":"approve","inputs":[{"name":"spender","type":"address","internalType":"address"},{"name":"amount","type":"uint256","internalType":"uint256"}],"outputs":[{"name":"","type":"bool","internalType":"bool"}],"stateMutability":"nonpayable"},{"type":"function","name":"balanceOf","inputs":[{"name":"owner","type":"address","internalType":"address"}],"outputs":[{"name":"","type":"uint256","internalType":"uint256"}],"stateMutability":"view"},{"type":"function","name":"balanceOfUnderlying","inputs":[{"name":"owner","type":"address","internalType":"address"}],"outputs":[{"name":"","type":"uint256","internalType":"uint256"}],"stateMutability":"nonpayable"},{"type":"function","name":"borrow","inputs":[{"name":"borrowAmount","type":"uint256","internalType":"uint256"}],"outputs":[{"name":"","type":"uint256","internalType":"uint256"}],"stateMutability":"nonpayable"},{"type":"function","name":"borrowBalanceCurrent","inputs":[{"name":"account","type":"address","internalType":"address"}],"outputs":[{"name":"","type":"uint256","internalType":"uint256"}],"stateMutability":"nonpayable"},{"type":"function","name":"borrowBalanceStored","inputs":[{"name":"account","type":"address","internalType":"address"}],"outputs":[{"name":"","type":"uint256","internalType":"uint256"}],"stateMutability":"view"},{"type":"function","name":"borrowIndex","inputs":[],"outputs":[{"name":"","type":"uint256","internalType":"uint256"}],"stateMutability":"view"},{"type":"function","name":"borrowRatePerBlock","inputs":[],"outputs":[{"name":"","type":"uint256","internalType":"uint256"}],"stateMutability":"view"},{"type":"function","name":"daiJoinAddress","inputs":[],"outputs":[{"name":"","type":"address","internalType":"address"}],"stateMutability":"view"},{"type":"function","name":"decimals","inputs":[],"outputs":[{"name":"","type":"uint8","internalType":"uint8"}],"stateMutability":"view"},{"type":"function","name":"exchangeRateCurrent","inputs":[],"outputs":[{"name":"","type":"uint256","internalType":"uint256"}],"stateMutability":"nonpayable"},{"type":"function","name":"exchangeRateStored","inputs":[],"outputs":[{"name":"","type":"uint256","internalType":"uint256"}],"stateMutability":"view"},{"type":"function","name":"getAccountSnapshot","inputs":[{"name":"account","type":"address","internalType":"address"}],"outputs":[{"name":"","type":"uint256","internalType":"uint256"},{"name":"","type":"uint256","internalType":"uint256"},{"name":"","type":"uint256","internalType":"uint256"},{"name":"","type":"uint256","internalType":"uint256"}],"stateMutability":"view"},{"type":"function","name":"getCash","inputs":[],"outputs":[{"name":"","type":"uint256","internalType":"uint256"}],"stateMutability":"view"},{"type":"function","name":"implementation","inputs":[],"outputs":[{"name":"","type":"address","internalType":"address"}],"stateMutability":"view"},{"type":"function","name":"initialize","inputs":[{"name":"underlying_","type":"address","internalType":"address"},{"name":"peridottroller_","type":"address","internalType":"contract PeridottrollerInterface"},{"name":"interestRateModel_","type":"address","internalType":"contract InterestRateModel"},{"name":"initialExchangeRateMantissa_","type":"uint256","internalType":"uint256"},{"name":"name_","type":"string","internalType":"string"},{"name":"symbol_","type":"string","internalType":"string"},{"name":"decimals_","type":"uint8","internalType":"uint8"}],"outputs":[],"stateMutability":"nonpayable"},{"type":"function","name":"initialize","inputs":[{"name":"peridottroller_","type":"address","internalType":"contract PeridottrollerInterface"},{"name":"interestRateModel_","type":"address","internalType":"contract InterestRateModel"},{"name":"initialExchangeRateMantissa_","type":"uint256","internalType":"uint256"},{"name":"name_","type":"string","internalType":"string"},{"name":"symbol_","type":"string","internalType":"string"},{"name":"decimals_","type":"uint8","internalType":"uint8"}],"outputs":[],"stateMutability":"nonpayable"},{"type":"function","name":"interestRateModel","inputs":[],"outputs":[{"name":"","type":"address","internalType":"contract InterestRateModel"}],"stateMutability":"view"},{"type":"function","name":"isPToken","inputs":[],"outputs":[{"name":"","type":"bool","internalType":"bool"}],"stateMutability":"view"},{"type":"function","name":"liquidateBorrow","inputs":[{"name":"borrower","type":"address","internalType":"address"},{"name":"repayAmount","type":"uint256","internalType":"uint256"},{"name":"pTokenCollateral","type":"address","internalType":"contract PTokenInterface"}],"outputs":[{"name":"","type":"uint256","internalType":"uint256"}],"stateMutability":"nonpayable"},{"type":"function","name":"mint","inputs":[{"name":"mintAmount","type":"uint256","internalType":"uint256"}],"outputs":[{"name":"","type":"uint256","internalType":"uint256"}],"stateMutability":"nonpayable"},{"type":"function","name":"name","inputs":[],"outputs":[{"name":"","type":"string","internalType":"string"}],"stateMutability":"view"},{"type":"function","name":"pendingAdmin","inputs":[],"outputs":[{"name":"","type":"address","internalType":"address payable"}],"stateMutability":"view"},{"type":"function","name":"peridottroller","inputs":[],"outputs":[{"name":"","type":"address","internalType":"contract PeridottrollerInterface"}],"stateMutability":"view"},{"type":"function","name":"potAddress","inputs":[],"outputs":[{"name":"","type":"address","internalType":"address"}],"stateMutability":"view"},{"type":"function","name":"protocolSeizeShareMantissa","inputs":[],"outputs":[{"name":"","type":"uint256","internalType":"uint256"}],"stateMutability":"view"},{"type":"function","name":"redeem","inputs":[{"name":"redeemTokens","type":"uint256","internalType":"uint256"}],"outputs":[{"name":"","type":"uint256","internalType":"uint256"}],"stateMutability":"nonpayable"},{"type":"function","name":"redeemUnderlying","inputs":[{"name":"redeemAmount","type":"uint256","internalType":"uint256"}],"outputs":[{"name":"","type":"uint256","internalType":"uint256"}],"stateMutability":"nonpayable"},{"type":"function","name":"repayBorrow","inputs":[{"name":"repayAmount","type":"uint256","internalType":"uint256"}],"outputs":[{"name":"","type":"uint256","internalType":"uint256"}],"stateMutability":"nonpayable"},{"type":"function","name":"repayBorrowBehalf","inputs":[{"name":"borrower","type":"address","internalType":"address"},{"name":"repayAmount","type":"uint256","internalType":"uint256"}],"outputs":[{"name":"","type":"uint256","internalType":"uint256"}],"stateMutability":"nonpayable"},{"type":"function","name":"reserveFactorMantissa","inputs":[],"outputs":[{"name":"","type":"uint256","internalType":"uint256"}],"stateMutability":"view"},{"type":"function","name":"seize","inputs":[{"name":"liquidator","type":"address","internalType":"address"},{"name":"borrower","type":"address","internalType":"address"},{"name":"seizeTokens","type":"uint256","internalType":"uint256"}],"outputs":[{"name":"","type":"uint256","internalType":"uint256"}],"stateMutability":"nonpayable"},{"type":"function","name":"supplyRatePerBlock","inputs":[],"outputs":[{"name":"","type":"uint256","internalType":"uint256"}],"stateMutability":"view"},{"type":"function","name":"sweepToken","inputs":[{"name":"token","type":"address","internalType":"contract EIP20NonStandardInterface"}],"outputs":[],"stateMutability":"nonpayable"},{"type":"function","name":"symbol","inputs":[],"outputs":[{"name":"","type":"string","internalType":"string"}],"stateMutability":"view"},{"type":"function","name":"totalBorrows","inputs":[],"outputs":[{"name":"","type":"uint256","internalType":"uint256"}],"stateMutability":"view"},{"type":"function","name":"totalBorrowsCurrent","inputs":[],"outputs":[{"name":"","type":"uint256","internalType":"uint256"}],"stateMutability":"nonpayable"},{"type":"function","name":"totalReserves","inputs":[],"outputs":[{"name":"","type":"uint256","internalType":"uint256"}],"stateMutability":"view"},{"type":"function","name":"totalSupply","inputs":[],"outputs":[{"name":"","type":"uint256","internalType":"uint256"}],"stateMutability":"view"},{"type":"function","name":"transfer","inputs":[{"name":"dst","type":"address","internalType":"address"},{"name":"amount","type":"uint256","internalType":"uint256"}],"outputs":[{"name":"","type":"bool","internalType":"bool"}],"stateMutability":"nonpayable"},{"type":"function","name":"transferFrom","inputs":[{"name":"src","type":"address","internalType":"address"},{"name":"dst","type":"address","internalType":"address"},{"name":"amount","type":"uint256","internalType":"uint256"}],"outputs":[{"name":"","type":"bool","internalType":"bool"}],"stateMutability":"nonpayable"},{"type":"function","name":"underlying","inputs":[],"outputs":[{"name":"","type":"address","internalType":"address"}],"stateMutability":"view"},{"type":"function","name":"vatAddress","inputs":[],"outputs":[{"name":"","type":"address","internalType":"address"}],"stateMutability":"view"},{"type":"event","name":"AccrueInterest","inputs":[{"name":"cashPrior","type":"uint256","indexed":false,"internalType":"uint256"},{"name":"interestAccumulated","type":"uint256","indexed":false,"internalType":"uint256"},{"name":"borrowIndex","type":"uint256","indexed":false,"internalType":"uint256"},{"name":"totalBorrows","type":"uint256","indexed":false,"internalType":"uint256"}],"anonymous":false},{"type":"event","name":"Approval","inputs":[{"name":"owner","type":"address","indexed":true,"internalType":"address"},{"name":"spender","type":"address","indexed":true,"internalType":"address"},{"name":"amount","type":"uint256","indexed":false,"internalType":"uint256"}],"anonymous":false},{"type":"event","name":"Borrow","inputs":[{"name":"borrower","type":"address","indexed":false,"internalType":"address"},{"name":"borrowAmount","type":"uint256","indexed":false,"internalType":"uint256"},{"name":"accountBorrows","type":"uint256","indexed":false,"internalType":"uint256"},{"name":"totalBorrows","type":"uint256","indexed":false,"internalType":"uint256"}],"anonymous":false},{"type":"event","name":"LiquidateBorrow","inputs":[{"name":"liquidator","type":"address","indexed":false,"internalType":"address"},{"name":"borrower","type":"address","indexed":false,"internalType":"address"},{"name":"repayAmount","type":"uint256","indexed":false,"internalType":"uint256"},{"name":"pTokenCollateral","type":"address","indexed":false,"internalType":"address"},{"name":"seizeTokens","type":"uint256","indexed":false,"internalType":"uint256"}],"anonymous":false},{"type":"event","name":"Mint","inputs":[{"name":"minter","type":"address","indexed":false,"internalType":"address"},{"name":"mintAmount","type":"uint256","indexed":false,"internalType":"uint256"},{"name":"mintTokens","type":"uint256","indexed":false,"internalType":"uint256"}],"anonymous":false},{"type":"event","name":"NewAdmin","inputs":[{"name":"oldAdmin","type":"address","indexed":false,"internalType":"address"},{"name":"newAdmin","type":"address","indexed":false,"internalType":"address"}],"anonymous":false},{"type":"event","name":"NewMarketInterestRateModel","inputs":[{"name":"oldInterestRateModel","type":"address","indexed":false,"internalType":"contract InterestRateModel"},{"name":"newInterestRateModel","type":"address","indexed":false,"internalType":"contract InterestRateModel"}],"anonymous":false},{"type":"event","name":"NewPendingAdmin","inputs":[{"name":"oldPendingAdmin","type":"address","indexed":false,"internalType":"address"},{"name":"newPendingAdmin","type":"address","indexed":false,"internalType":"address"}],"anonymous":false},{"type":"event","name":"NewPeridottroller","inputs":[{"name":"oldPeridottroller","type":"address","indexed":false,"internalType":"contract PeridottrollerInterface"},{"name":"newPeridottroller","type":"address","indexed":false,"internalType":"contract PeridottrollerInterface"}],"anonymous":false},{"type":"event","name":"NewReserveFactor","inputs":[{"name":"oldReserveFactorMantissa","type":"uint256","indexed":false,"internalType":"uint256"},{"name":"newReserveFactorMantissa","type":"uint256","indexed":false,"internalType":"uint256"}],"anonymous":false},{"type":"event","name":"Redeem","inputs":[{"name":"redeemer","type":"address","indexed":false,"internalType":"address"},{"name":"redeemAmount","type":"uint256","indexed":false,"internalType":"uint256"},{"name":"redeemTokens","type":"uint256","indexed":false,"internalType":"uint256"}],"anonymous":false},{"type":"event","name":"RepayBorrow","inputs":[{"name":"payer","type":"address","indexed":false,"internalType":"address"},{"name":"borrower","type":"address","indexed":false,"internalType":"address"},{"name":"repayAmount","type":"uint256","indexed":false,"internalType":"uint256"},{"name":"accountBorrows","type":"uint256","indexed":false,"internalType":"uint256"},{"name":"totalBorrows","type":"uint256","indexed":false,"internalType":"uint256"}],"anonymous":false},{"type":"event","name":"ReservesAdded","inputs":[{"name":"benefactor","type":"address","indexed":false,"internalType":"address"},{"name":"addAmount","type":"uint256","indexed":false,"internalType":"uint256"},{"name":"newTotalReserves","type":"uint256","indexed":false,"internalType":"uint256"}],"anonymous":false},{"type":"event","name":"ReservesReduced","inputs":[{"name":"admin","type":"address","indexed":false,"internalType":"address"},{"name":"reduceAmount","type":"uint256","indexed":false,"internalType":"uint256"},{"name":"newTotalReserves","type":"uint256","indexed":false,"internalType":"uint256"}],"anonymous":false},{"type":"event","name":"Transfer","inputs":[{"name":"from","type":"address","indexed":true,"internalType":"address"},{"name":"to","type":"address","indexed":true,"internalType":"address"},{"name":"amount","type":"uint256","indexed":false,"internalType":"uint256"}],"anonymous":false},{"type":"error","name":"AcceptAdminPendingAdminCheck","inputs":[]},{"type":"error","name":"AddReservesFactorFreshCheck","inputs":[{"name":"actualAddAmount","type":"uint256","internalType":"uint256"}]},{"type":"error","name":"BorrowCashNotAvailable","inputs":[]},{"type":"error","name":"BorrowFreshnessCheck","inputs":[]},{"type":"error","name":"BorrowPeridottrollerRejection","inputs":[{"name":"errorCode","type":"uint256","internalType":"uint256"}]},{"type":"error","name":"LiquidateAccrueBorrowInterestFailed","inputs":[{"name":"errorCode","type":"uint256","internalType":"uint256"}]},{"type":"error","name":"LiquidateAccrueCollateralInterestFailed","inputs":[{"name":"errorCode","type":"uint256","internalType":"uint256"}]},{"type":"error","name":"LiquidateCloseAmountIsUintMax","inputs":[]},{"type":"error","name":"LiquidateCloseAmountIsZero","inputs":[]},{"type":"error","name":"LiquidateCollateralFreshnessCheck","inputs":[]},{"type":"error","name":"LiquidateFreshnessCheck","inputs":[]},{"type":"error","name":"LiquidateLiquidatorIsBorrower","inputs":[]},{"type":"error","name":"LiquidatePeridottrollerRejection","inputs":[{"name":"errorCode","type":"uint256","internalType":"uint256"}]},{"type":"error","name":"LiquidateRepayBorrowFreshFailed","inputs":[{"name":"errorCode","type":"uint256","internalType":"uint256"}]},{"type":"error","name":"LiquidateSeizeLiquidatorIsBorrower","inputs":[]},{"type":"error","name":"LiquidateSeizePeridottrollerRejection","inputs":[{"name":"errorCode","type":"uint256","internalType":"uint256"}]},{"type":"error","name":"MintFreshnessCheck","inputs":[]},{"type":"error","name":"MintPeridottrollerRejection","inputs":[{"name":"errorCode","type":"uint256","internalType":"uint256"}]},{"type":"error","name":"RedeemFreshnessCheck","inputs":[]},{"type":"error","name":"RedeemPeridottrollerRejection","inputs":[{"name":"errorCode","type":"uint256","internalType":"uint256"}]},{"type":"error","name":"RedeemTransferOutNotPossible","inputs":[]},{"type":"error","name":"ReduceReservesAdminCheck","inputs":[]},{"type":"error","name":"ReduceReservesCashNotAvailable","inputs":[]},{"type":"error","name":"ReduceReservesCashValidation","inputs":[]},{"type":"error","name":"ReduceReservesFreshCheck","inputs":[]},{"type":"error","name":"RepayBorrowFreshnessCheck","inputs":[]},{"type":"error","name":"RepayBorrowPeridottrollerRejection","inputs":[{"name":"errorCode","type":"uint256","internalType":"uint256"}]},{"type":"error","name":"SetInterestRateModelFreshCheck","inputs":[]},{"type":"error","name":"SetInterestRateModelOwnerCheck","inputs":[]},{"type":"error","name":"SetPendingAdminOwnerCheck","inputs":[]},{"type":"error","name":"SetPeridottrollerOwnerCheck","inputs":[]},{"type":"error","name":"SetReserveFactorAdminCheck","inputs":[]},{"type":"error","name":"SetReserveFactorBoundsCheck","inputs":[]},{"type":"error","name":"SetReserveFactorFreshCheck","inputs":[]},{"type":"error","name":"TransferNotAllowed","inputs":[]},{"type":"error","name":"TransferNotEnough","inputs":[]},{"type":"error","name":"TransferPeridottrollerRejection","inputs":[{"name":"errorCode","type":"uint256","internalType":"uint256"}]},{"type":"error","name":"TransferTooMuch","inputs":[]}],"bytecode":{"object":"0x6080604052348015600e575f5ffd5b506143788061001c5f395ff3fe608060405234801561000f575f5ffd5b506004361061037d575f3560e01c8063852a12e3116101d4578063b71d1a0c11610109578063dd62ed3e116100a9578063f5e3c46211610079578063f5e3c46214610771578063f851a44014610784578063f8f9da281461079c578063fca7820b146107a4575f5ffd5b8063dd62ed3e1461070b578063e9c714f214610743578063f2b3abbd1461074b578063f3fdb15a1461075e575f5ffd5b8063c423fe29116100e4578063c423fe29146106bf578063c5ebeaec146106d2578063d5c6d3bd146106e5578063db006a75146106f8575f5ffd5b8063b71d1a0c14610671578063bd6d894d14610684578063c37f68e21461068c575f5ffd5b8063a0712d6811610174578063a9059cbb1161014f578063a9059cbb1461063a578063aa5af0fd1461064d578063ae9d70b014610656578063b2a02ff11461065e575f5ffd5b8063a0712d681461060c578063a252d8be1461061f578063a6afed9514610632575f5ffd5b80638f840ddd116101af5780638f840ddd146105d557806395d89b41146105de57806395dd9193146105e657806399d8c1b4146105f9575f5ffd5b8063852a12e31461059c5780638a8df2e6146105af5780638d925ccd146105c2575f5ffd5b80633af9e669116102b5578063601a0bf1116102555780636c540baf116102255780636c540baf146105505780636f307dc31461055957806370a082311461056c57806373acee9814610594575f5ffd5b8063601a0bf11461051557806366ced602146105285780636752e7021461053b57806369ab325014610549575f5ffd5b806347bd37181161029057806347bd3718146104de57806356e67728146104e75780635a890c0e146104fa5780635c60da1b14610502575f5ffd5b80633af9e669146104b05780633b1d21a2146104c35780633e941010146104cb575f5ffd5b8063182df0f51161032057806323b872dd116102fb57806323b872dd146104405780632608f818146104535780632678224714610466578063313ce56714610491575f5ffd5b8063182df0f5146104125780631a31d4651461041a5780631be195601461042d575f5ffd5b8063153ab5051161035b578063153ab505146103e3578063173b9904146103ed57806317bfdfbc146103f657806318160ddd14610409575f5ffd5b806306fdde0314610381578063095ea7b31461039f5780630e752702146103c2575b5f5ffd5b6103896107b7565b6040516103969190613cbe565b60405180910390f35b6103b26103ad366004613d0a565b610843565b6040519015158152602001610396565b6103d56103d0366004613d34565b6108b2565b604051908152602001610396565b6103eb6108c3565b005b6103d560085481565b6103d5610404366004613d4b565b610b6b565b6103d5600d5481565b6103d5610bbb565b6103eb610428366004613e24565b610bc9565b6103eb61043b366004613d4b565b610c5c565b6103b261044e366004613ed8565b610e20565b6103d5610461366004613d0a565b610e6d565b600454610479906001600160a01b031681565b6040516001600160a01b039091168152602001610396565b60035461049e9060ff1681565b60405160ff9091168152602001610396565b6103d56104be366004613d4b565b610e80565b6103d5610ec4565b6103d56104d9366004613d34565b610ecd565b6103d5600b5481565b6103eb6104f5366004613f16565b610ed7565b6103b2600181565b601254610479906001600160a01b031681565b6103d5610523366004613d34565b610f78565b601454610479906001600160a01b031681565b6103d5666379da05b6000081565b6103d55f81565b6103d560095481565b601154610479906001600160a01b031681565b6103d561057a366004613d4b565b6001600160a01b03165f908152600e602052604090205490565b6103d5610fb5565b6103d56105aa366004613d34565b610ffc565b601354610479906001600160a01b031681565b601554610479906001600160a01b031681565b6103d5600c5481565b610389611006565b6103d56105f4366004613d4b565b611013565b6103eb610607366004613f5b565b61101d565b6103d561061a366004613d34565b611268565b6103eb61062d366004613d4b565b611272565b6103d5611347565b6103b2610648366004613d0a565b6113bc565b6103d5600a5481565b6103d5611408565b6103d561066c366004613ed8565b61149d565b6103d561067f366004613d4b565b6114e9565b6103d5611581565b61069f61069a366004613d4b565b6115ce565b604080519485526020850193909352918301526060820152608001610396565b600554610479906001600160a01b031681565b6103d56106e0366004613d34565b61160e565b6103d56106f3366004613d4b565b611618565b6103d5610706366004613d34565b61175c565b6103d5610719366004613ffc565b6001600160a01b039182165f908152600f6020908152604080832093909416825291909152205490565b6103d5611766565b6103d5610759366004613d4b565b61186b565b600654610479906001600160a01b031681565b6103d561077f366004614033565b61187e565b6003546104799061010090046001600160a01b031681565b6103d5611893565b6103d56107b2366004613d34565b6118e5565b600180546107c490614072565b80601f01602080910402602001604051908101604052809291908181526020018280546107f090614072565b801561083b5780601f106108125761010080835404028352916020019161083b565b820191905f5260205f20905b81548152906001019060200180831161081e57829003601f168201915b505050505081565b335f818152600f602090815260408083206001600160a01b03871680855292528083208590555191929182907f8c5be1e5ebec7d5bd14f71427d1e84f3dd0314c0f7b2291e5b200ac8c7c3b9259061089e9087815260200190565b60405180910390a360019150505b92915050565b5f6108bc82611922565b505f919050565b60035461010090046001600160a01b0316331461093d5760405162461bcd60e51b815260206004820152602d60248201527f6f6e6c79207468652061646d696e206d6179206162616e646f6e20746865206960448201526c36b83632b6b2b73a30ba34b7b760991b60648201526084015b60405180910390fd5b60135460145460155460408051634fb3c66560e11b815290516001600160a01b039485169493841693909216918391639f678cca91600480830192602092919082900301815f875af1158015610995573d5f5f3e3d5ffd5b505050506040513d601f19601f820116820180604052508101906109b991906140aa565b506040516305f5d64360e11b81523060048201525f906001600160a01b03841690630bebac8690602401602060405180830381865afa1580156109fe573d5f5f3e3d5ffd5b505050506040513d601f19601f82011682018060405250810190610a2291906140aa565b604051637f8661a160e01b8152600481018290529091506001600160a01b03841690637f8661a1906024015f604051808303815f87803b158015610a64575f5ffd5b505af1158015610a76573d5f5f3e3d5ffd5b5050604051633612d9a360e11b81523060048201525f92506001600160a01b0385169150636c25b34690602401602060405180830381865afa158015610abe573d5f5f3e3d5ffd5b505050506040513d601f19601f82011682018060405250810190610ae291906140aa565b90506001600160a01b03851663ef693bed30610b0a6b033b2e3c9fd0803ce8000000856140d5565b6040516001600160e01b031960e085901b1681526001600160a01b03909216600483015260248201526044015b5f604051808303815f87803b158015610b4e575f5ffd5b505af1158015610b60573d5f5f3e3d5ffd5b505050505050505050565b5f805460ff16610b8d5760405162461bcd60e51b8152600401610934906140f4565b5f805460ff19169055610b9e611347565b50610ba882611013565b90505f805460ff19166001179055919050565b5f610bc4611970565b905090565b610bd786868686868661101d565b601180546001600160a01b0319166001600160a01b038916908117909155604080516318160ddd60e01b815290516318160ddd916004808201926020929091908290030181865afa158015610c2e573d5f5f3e3d5ffd5b505050506040513d601f19601f82011682018060405250810190610c5291906140aa565b5050505050505050565b60035461010090046001600160a01b03163314610cd35760405162461bcd60e51b815260206004820152602f60248201527f5045726332303a3a7377656570546f6b656e3a206f6e6c792061646d696e206360448201526e616e20737765657020746f6b656e7360881b6064820152608401610934565b6011546001600160a01b0390811690821603610d4c5760405162461bcd60e51b815260206004820152603260248201527f5045726332303a3a7377656570546f6b656e3a2063616e206e6f74207377656560448201527138103ab73232b9363cb4b733903a37b5b2b760711b6064820152608401610934565b6040516370a0823160e01b81523060048201525f906001600160a01b038316906370a0823190602401602060405180830381865afa158015610d90573d5f5f3e3d5ffd5b505050506040513d601f19601f82011682018060405250810190610db491906140aa565b60035460405163a9059cbb60e01b81526001600160a01b03610100909204821660048201526024810183905291925083169063a9059cbb906044015f604051808303815f87803b158015610e06575f5ffd5b505af1158015610e18573d5f5f3e3d5ffd5b505050505050565b5f805460ff16610e425760405162461bcd60e51b8152600401610934906140f4565b5f805460ff19168155610e57338686866119d4565b1490505f805460ff191660011790559392505050565b5f610e788383611beb565b505f92915050565b5f5f6040518060200160405280610e95611581565b90526001600160a01b0384165f908152600e6020526040902054909150610ebd908290611c3a565b9392505050565b5f610bc4611c59565b5f6108ac82611d50565b60035461010090046001600160a01b03163314610f4f5760405162461bcd60e51b815260206004820152603060248201527f6f6e6c79207468652061646d696e206d617920696e697469616c697a6520746860448201526f329034b6b83632b6b2b73a30ba34b7b760811b6064820152608401610934565b5f5f82806020019051810190610f659190614118565b91509150610f738282611da3565b505050565b5f805460ff16610f9a5760405162461bcd60e51b8152600401610934906140f4565b5f805460ff19169055610fab611347565b50610ba882612096565b5f805460ff16610fd75760405162461bcd60e51b8152600401610934906140f4565b5f805460ff19169055610fe8611347565b5050600b545f805460ff1916600117905590565b5f6108bc826121b0565b600280546107c490614072565b5f6108ac826121fd565b60035461010090046001600160a01b031633146110885760405162461bcd60e51b8152602060048201526024808201527f6f6e6c792061646d696e206d617920696e697469616c697a6520746865206d616044820152631c9ad95d60e21b6064820152608401610934565b6009541580156110985750600a54155b6110f05760405162461bcd60e51b815260206004820152602360248201527f6d61726b6574206d6179206f6e6c7920626520696e697469616c697a6564206f6044820152626e636560e81b6064820152608401610934565b60078490558361115b5760405162461bcd60e51b815260206004820152603060248201527f696e697469616c2065786368616e67652072617465206d75737420626520677260448201526f32b0ba32b9103a3430b7103d32b9379760811b6064820152608401610934565b5f61116587611618565b905080156111b55760405162461bcd60e51b815260206004820152601d60248201527f73657474696e672070657269646f7474726f6c6c6572206661696c65640000006044820152606401610934565b43600955670de0b6b3a7640000600a556111ce86612246565b905080156112295760405162461bcd60e51b815260206004820152602260248201527f73657474696e6720696e7465726573742072617465206d6f64656c206661696c604482015261195960f21b6064820152608401610934565b60016112358582614189565b5060026112428482614189565b50506003805460ff90921660ff199283161790555f805490911660011790555050505050565b5f6108bc826123b7565b60035461010090046001600160a01b031633146112ea5760405162461bcd60e51b815260206004820152603060248201527f6f6e6c79207468652061646d696e206d6179207365742074686520706572696460448201526f6f742d6c696b652064656c656761746560801b6064820152608401610934565b6011546040516317066a5760e21b81526001600160a01b03838116600483015290911690635c19a95c906024015f604051808303815f87803b15801561132e575f5ffd5b505af1158015611340573d5f5f3e3d5ffd5b5050505050565b60145460408051634fb3c66560e11b815290515f926001600160a01b031691639f678cca916004808301926020929190829003018187875af115801561138f573d5f5f3e3d5ffd5b505050506040513d601f19601f820116820180604052508101906113b391906140aa565b50610bc46123f4565b5f805460ff166113de5760405162461bcd60e51b8152600401610934906140f4565b5f805460ff191681556113f3338086866119d4565b1490505f805460ff1916600117905592915050565b6006545f906001600160a01b031663b8168816611423611c59565b600b54600c546008546040516001600160e01b031960e087901b16815260048101949094526024840192909252604483015260648201526084015b602060405180830381865afa158015611479573d5f5f3e3d5ffd5b505050506040513d601f19601f82011682018060405250810190610bc491906140aa565b5f805460ff166114bf5760405162461bcd60e51b8152600401610934906140f4565b5f805460ff191690556114d4338585856125d4565b505f5f805460ff191660011790559392505050565b6003545f9061010090046001600160a01b0316331461151b57604051635cb56c2b60e01b815260040160405180910390fd5b600480546001600160a01b038481166001600160a01b031983168117909355604080519190921680825260208201939093527fca4f2f25d0898edd99413412fb94012f9e54ec8142f9b093e7720646a95b16a991015b60405180910390a1505f92915050565b5f805460ff166115a35760405162461bcd60e51b8152600401610934906140f4565b5f805460ff191690556115b4611347565b506115bd610bbb565b90505f805460ff1916600117905590565b6001600160a01b0381165f908152600e602052604081205481908190819081906115f7876121fd565b6115ff611970565b93509350935093509193509193565b5f6108bc8261283e565b6003545f9061010090046001600160a01b0316331461164a57604051634c2fa00360e01b815260040160405180910390fd5b6005546040805163fa707af960e01b815290516001600160a01b039283169285169163fa707af99160048083019260209291908290030181865afa158015611694573d5f5f3e3d5ffd5b505050506040513d601f19601f820116820180604052508101906116b89190614244565b6117045760405162461bcd60e51b815260206004820152601c60248201527f6d61726b6572206d6574686f642072657475726e65642066616c7365000000006044820152606401610934565b600580546001600160a01b0319166001600160a01b0385811691821790925560408051928416835260208301919091527ff911792cf103798503b6dab0992e023d45661865683c550a919b8c9ad07dbf7f9101611571565b5f6108bc8261287b565b6004545f906001600160a01b031633141580611780575033155b1561179e57604051631ba24f2960e21b815260040160405180910390fd5b60038054600480546001600160a01b03808216610100818102610100600160a81b0319871617968790556001600160a01b031990931690935560408051948390048216808652929095041660208401529290917ff9ffabca9c8276e99321725bcb43fb076a6c66a54b7f21c4e8146d8519b417dc910160405180910390a1600454604080516001600160a01b03808516825290921660208301527fca4f2f25d0898edd99413412fb94012f9e54ec8142f9b093e7720646a95b16a9910160405180910390a15f9250505090565b5f611874611347565b506108ac82612246565b5f61188a8484846128b9565b505f9392505050565b6006545f906001600160a01b03166315f240536118ae611c59565b600b54600c546040516001600160e01b031960e086901b16815260048101939093526024830191909152604482015260640161145e565b5f805460ff166119075760405162461bcd60e51b8152600401610934906140f4565b5f805460ff19169055611918611347565b50610ba882612990565b5f5460ff166119435760405162461bcd60e51b8152600401610934906140f4565b5f805460ff19169055611954611347565b50611960333383612a4b565b50505f805460ff19166001179055565b600d545f9080820361198457505060075490565b5f61198d611c59565b90505f600c54600b54836119a19190614263565b6119ab9190614276565b90505f836119c1670de0b6b3a764000084614289565b6119cb91906140d5565b95945050505050565b6005546040516317b9b84b60e31b81523060048201526001600160a01b0385811660248301528481166044830152606482018490525f92839291169063bdcdc258906084016020604051808303815f875af1158015611a35573d5f5f3e3d5ffd5b505050506040513d601f19601f82011682018060405250810190611a5991906140aa565b90508015611a7d57604051630c93cb5b60e01b815260048101829052602401610934565b836001600160a01b0316856001600160a01b031603611aaf57604051638cd22d1960e01b815260040160405180910390fd5b5f6001600160a01b0380871690881603611acb57505f19611af2565b506001600160a01b038086165f908152600f60209081526040808320938a16835292905220545b5f611afd8583614276565b6001600160a01b0388165f908152600e602052604081205491925090611b24908790614276565b6001600160a01b0388165f908152600e602052604081205491925090611b4b908890614263565b6001600160a01b03808b165f908152600e6020526040808220869055918b1681522081905590505f198414611ba2576001600160a01b03808a165f908152600f60209081526040808320938e168352929052208390555b876001600160a01b0316896001600160a01b03165f5160206143235f395f51905f5289604051611bd491815260200190565b60405180910390a3505f9998505050505050505050565b5f5460ff16611c0c5760405162461bcd60e51b8152600401610934906140f4565b5f805460ff19169055611c1d611347565b50611c29338383612a4b565b50505f805460ff1916600117905550565b5f5f611c468484612be9565b9050611c5181612c18565b949350505050565b6014546040516305f5d64360e11b81523060048201525f916001600160a01b03169082908290630bebac8690602401602060405180830381865afa158015611ca3573d5f5f3e3d5ffd5b505050506040513d601f19601f82011682018060405250810190611cc791906140aa565b90506b033b2e3c9fd0803ce8000000611d3f836001600160a01b031663c92aecc46040518163ffffffff1660e01b8152600401602060405180830381865afa158015611d15573d5f5f3e3d5ffd5b505050506040513d601f19601f82011682018060405250810190611d3991906140aa565b83612c2f565b611d4991906140d5565b9250505090565b5f805460ff16611d725760405162461bcd60e51b8152600401610934906140f4565b5f805460ff19169055611d83611347565b50611d8d82612c8d565b50505f90505f805460ff19166001179055919050565b5f8290505f8290505f826001600160a01b031663f4b9fa756040518163ffffffff1660e01b81526004016020604051808303815f875af1158015611de9573d5f5f3e3d5ffd5b505050506040513d601f19601f82011682018060405250810190611e0d91906142a0565b90505f836001600160a01b03166336569e776040518163ffffffff1660e01b81526004016020604051808303815f875af1158015611e4d573d5f5f3e3d5ffd5b505050506040513d601f19601f82011682018060405250810190611e7191906142a0565b6011549091506001600160a01b03838116911614611edc5760405162461bcd60e51b815260206004820152602260248201527f444149206d757374206265207468652073616d6520617320756e6465726c79696044820152616e6760f01b6064820152608401610934565b601380546001600160a01b03199081166001600160a01b03898116918217909355601480548316898516179055601580549092168484161790915560405163095ea7b360e01b815260048101919091525f1960248201529083169063095ea7b3906044015f604051808303815f87803b158015611f57575f5ffd5b505af1158015611f69573d5f5f3e3d5ffd5b50506014546040516328ec8bf160e21b81526001600160a01b039182166004820152908416925063a3b22fc491506024015f604051808303815f87803b158015611fb1575f5ffd5b505af1158015611fc3573d5f5f3e3d5ffd5b50506013546040516328ec8bf160e21b81526001600160a01b039182166004820152908416925063a3b22fc491506024015f604051808303815f87803b15801561200b575f5ffd5b505af115801561201d573d5f5f3e3d5ffd5b50505050826001600160a01b0316639f678cca6040518163ffffffff1660e01b81526004016020604051808303815f875af115801561205e573d5f5f3e3d5ffd5b505050506040513d601f19601f8201168201806040525081019061208291906140aa565b5061208d305f612d1f565b50505050505050565b6003545f90819061010090046001600160a01b031633146120ca57604051630f7e5e6d60e41b815260040160405180910390fd5b43600954146120ec57604051630dff50cb60e41b815260040160405180910390fd5b826120f5611c59565b101561211457604051633345e99960e01b815260040160405180910390fd5b600c54831115612137576040516378d2980560e11b815260040160405180910390fd5b82600c546121459190614276565b600c8190556003549091506121689061010090046001600160a01b03168461300c565b7f3bad0c59cf2f06e7314077049f48a93578cd16f5ef92329f1dab1420a99c177e600360019054906101000a90046001600160a01b03168483604051611571939291906142bb565b5f5460ff166121d15760405162461bcd60e51b8152600401610934906140f4565b5f805460ff191690556121e2611347565b506121ee335f8361313a565b505f805460ff19166001179055565b6001600160a01b0381165f9081526010602052604081208054820361222457505f92915050565b600a5481545f9161223491614289565b9050816001015481611c5191906140d5565b6003545f90819061010090046001600160a01b0316331461227a5760405163407fded560e01b815260040160405180910390fd5b436009541461229c57604051630be2a5cb60e11b815260040160405180910390fd5b60065f9054906101000a90046001600160a01b03169050826001600160a01b0316632191f92a6040518163ffffffff1660e01b8152600401602060405180830381865afa1580156122ef573d5f5f3e3d5ffd5b505050506040513d601f19601f820116820180604052508101906123139190614244565b61235f5760405162461bcd60e51b815260206004820152601c60248201527f6d61726b6572206d6574686f642072657475726e65642066616c7365000000006044820152606401610934565b600680546001600160a01b0319166001600160a01b0385811691821790925560408051928416835260208301919091527fedffc32e068c7c95dfd4bdfd5c4d939a084d6b11c4199eac8436ed234d72f9269101611571565b5f5460ff166123d85760405162461bcd60e51b8152600401610934906140f4565b5f805460ff191690556123e9611347565b506121ee3382613409565b6009545f90439081810361240a575f9250505090565b5f612413611c59565b600b54600c54600a546006546040516315f2405360e01b81526004810186905260248101859052604481018490529495509293919290915f916001600160a01b0316906315f2405390606401602060405180830381865afa15801561247a573d5f5f3e3d5ffd5b505050506040513d601f19601f8201168201806040525081019061249e91906140aa565b905065048c273950008111156124f65760405162461bcd60e51b815260206004820152601c60248201527f626f72726f772072617465206973206162737572646c792068696768000000006044820152606401610934565b5f6125018789614276565b90505f61251c60405180602001604052808581525083612be9565b90505f6125298288611c3a565b90505f6125368883614263565b90505f6125546040518060200160405280600854815250848a6135b5565b90505f61256285898a6135b5565b60098e9055600a819055600b849055600c839055604080518d815260208101879052908101829052606081018590529091507f4dec04e750ca11537cabcd8a9eab06494de08da3735bc8871cd41250e190bc049060800160405180910390a15f9d505050505050505050505050505090565b60055460405163d02f735160e01b81523060048201526001600160a01b03868116602483015285811660448301528481166064830152608482018490525f92169063d02f73519060a4016020604051808303815f875af115801561263a573d5f5f3e3d5ffd5b505050506040513d601f19601f8201168201806040525081019061265e91906140aa565b90508015612682576040516305a647b960e31b815260048101829052602401610934565b836001600160a01b0316836001600160a01b0316036126b457604051633a94626760e11b815260040160405180910390fd5b5f6126d4836040518060200160405280666379da05b600008152506135d5565b90505f6126e18285614276565b90505f60405180602001604052806126f7611970565b905290505f6127068285611c3a565b90505f81600c546127179190614263565b600c819055600d5490915061272d908690614276565b600d556001600160a01b0388165f908152600e6020526040902054612753908890614276565b6001600160a01b03808a165f908152600e602052604080822093909355908b1681522054612782908590614263565b6001600160a01b03808b165f818152600e602052604090819020939093559151908a16905f5160206143235f395f51905f52906127c29088815260200190565b60405180910390a360405185815230906001600160a01b038a16905f5160206143235f395f51905f529060200160405180910390a37fa91e67c5ea634cd43a12c5a482724b03de01e85ca68702a53d0c2f45cb7c1dc530838360405161282a939291906142bb565b60405180910390a150505050505050505050565b5f5460ff1661285f5760405162461bcd60e51b8152600401610934906140f4565b5f805460ff19169055612870611347565b506121ee33826135f6565b5f5460ff1661289c5760405162461bcd60e51b8152600401610934906140f4565b5f805460ff191690556128ad611347565b506121ee33825f61313a565b5f5460ff166128da5760405162461bcd60e51b8152600401610934906140f4565b5f805460ff191690556128eb611347565b505f816001600160a01b031663a6afed956040518163ffffffff1660e01b81526004016020604051808303815f875af115801561292a573d5f5f3e3d5ffd5b505050506040513d601f19601f8201168201806040525081019061294e91906140aa565b9050801561297257604051633eea49b760e11b815260048101829052602401610934565b61297e3385858561378d565b50505f805460ff191660011790555050565b6003545f9061010090046001600160a01b031633146129c257604051631205b57b60e11b815260040160405180910390fd5b43600954146129e457604051637dfca6b760e11b815260040160405180910390fd5b670de0b6b3a7640000821115612a0d5760405163717220f360e11b815260040160405180910390fd5b600880549083905560408051828152602081018590527faaa68312e2ea9d50e16af5068410ab56e1a1fd06037b1a35664812c30f8214609101611571565b600554604051631200453160e11b81523060048201526001600160a01b0385811660248301528481166044830152606482018490525f9283929116906324008a62906084016020604051808303815f875af1158015612aac573d5f5f3e3d5ffd5b505050506040513d601f19601f82011682018060405250810190612ad091906140aa565b90508015612af4576040516335a6a70b60e21b815260048101829052602401610934565b4360095414612b165760405163c9021e2f60e01b815260040160405180910390fd5b5f612b20856121fd565b90505f5f198514612b315784612b33565b815b90505f612b408883612d1f565b90505f612b4d8285614276565b90505f82600b54612b5e9190614276565b6001600160a01b038a81165f81815260106020908152604091829020878155600a54600190910155600b8590558151938f168452830191909152810185905260608101849052608081018290529091507f1a2a22cb034d26d1854bdc6666a5b91fe25efbbb5dcad3b0355478d6f5c362a19060a00160405180910390a1509098975050505050505050565b60408051602081019091525f81526040518060200160405280612c0f855f015185613c34565b90529392505050565b80515f906108ac90670de0b6b3a7640000906140d5565b5f811580612c5257508282612c448183614289565b9250612c5090836140d5565b145b6108ac5760405162461bcd60e51b815260206004820152600c60248201526b6d756c2d6f766572666c6f7760a01b6044820152606401610934565b5f8080804360095414612cb6576040516338acf79960e01b815260048101829052602401610934565b612cc03386612d1f565b905080600c54612cd09190614263565b915081600c819055507fa91e67c5ea634cd43a12c5a482724b03de01e85ca68702a53d0c2f45cb7c1dc5338284604051612d0c939291906142bb565b60405180910390a15f9590945092505050565b6011546040516323b872dd60e01b81525f916001600160a01b031690819081906323b872dd90612d57908890309089906004016142dc565b6020604051808303815f875af1158015612d73573d5f5f3e3d5ffd5b505050506040513d601f19601f82011682018060405250810190612d979190614244565b612def5760405162461bcd60e51b8152602060048201526024808201527f756e6578706563746564204549502d3230207472616e7366657220696e2072656044820152633a3ab93760e11b6064820152608401610934565b6013546014546015546040516370a0823160e01b815230600482018190526001600160a01b039485169487948116938116928692633b4da69f929091908716906370a0823190602401602060405180830381865afa158015612e53573d5f5f3e3d5ffd5b505050506040513d601f19601f82011682018060405250810190612e7791906140aa565b6040516001600160e01b031960e085901b1681526001600160a01b03909216600483015260248201526044015f604051808303815f87803b158015612eba575f5ffd5b505af1158015612ecc573d5f5f3e3d5ffd5b5050604051633612d9a360e11b81523060048201525f92506001600160a01b0384169150636c25b34690602401602060405180830381865afa158015612f14573d5f5f3e3d5ffd5b505050506040513d601f19601f82011682018060405250810190612f3891906140aa565b90505f836001600160a01b031663c92aecc46040518163ffffffff1660e01b8152600401602060405180830381865afa158015612f77573d5f5f3e3d5ffd5b505050506040513d601f19601f82011682018060405250810190612f9b91906140aa565b612fa590836140d5565b60405163049878f360e01b8152600481018290529091506001600160a01b0385169063049878f3906024015f604051808303815f87803b158015612fe7575f5ffd5b505af1158015612ff9573d5f5f3e3d5ffd5b509b9d9c50505050505050505050505050565b6013546014546040805163324abb3160e21b815290516001600160a01b0393841693909216915f916130ad91849163c92aecc49160048083019260209291908290030181865afa158015613062573d5f5f3e3d5ffd5b505050506040513d601f19601f8201168201806040525081019061308691906140aa565b61309c866b033b2e3c9fd0803ce8000000612c2f565b6130a691906140d5565b6001613c3f565b604051637f8661a160e01b8152600481018290529091506001600160a01b03831690637f8661a1906024015f604051808303815f87803b1580156130ef575f5ffd5b505af1158015613101573d5f5f3e3d5ffd5b505060405163ef693bed60e01b81526001600160a01b038881166004830152602482018890528616925063ef693bed9150604401610b37565b811580613145575080155b6131ae5760405162461bcd60e51b815260206004820152603460248201527f6f6e65206f662072656465656d546f6b656e73496e206f722072656465656d416044820152736d6f756e74496e206d757374206265207a65726f60601b6064820152608401610934565b5f60405180602001604052806131c2611970565b905290505f8084156131e2578491506131db8386611c3a565b90506131f2565b6131ec8484613c8b565b91508390505b60055460405163eabe7d9160e01b81525f916001600160a01b03169063eabe7d91906132269030908b9088906004016142dc565b6020604051808303815f875af1158015613242573d5f5f3e3d5ffd5b505050506040513d601f19601f8201168201806040525081019061326691906140aa565b9050801561328a57604051635bd5f7ab60e11b815260048101829052602401610934565b43600954146132ac576040516397b5cfcd60e01b815260040160405180910390fd5b816132b5611c59565b10156132d4576040516391240a1b60e01b815260040160405180910390fd5b82600d546132e29190614276565b600d556001600160a01b0387165f908152600e6020526040902054613308908490614276565b6001600160a01b0388165f908152600e602052604090205561332a878361300c565b60405183815230906001600160a01b038916905f5160206143235f395f51905f529060200160405180910390a37fe5b754fb1abb7f01b499791d0b820ae3b6af3424ac1c59768edb53f4ec31a92987838560405161338a939291906142bb565b60405180910390a16005546040516351dff98960e01b81523060048201526001600160a01b0389811660248301526044820185905260648201869052909116906351dff989906084015f604051808303815f87803b1580156133ea575f5ffd5b505af11580156133fc573d5f5f3e3d5ffd5b5050505050505050505050565b600554604051634ef4c3e160e01b81525f916001600160a01b031690634ef4c3e19061343d903090879087906004016142dc565b6020604051808303815f875af1158015613459573d5f5f3e3d5ffd5b505050506040513d601f19601f8201168201806040525081019061347d91906140aa565b905080156134a1576040516303171a8760e61b815260048101829052602401610934565b43600954146134c3576040516338d8859760e01b815260040160405180910390fd5b5f60405180602001604052806134d7611970565b905290505f6134e68585612d1f565b90505f6134f38284613c8b565b905080600d546135039190614263565b600d556001600160a01b0386165f908152600e6020526040902054613529908290614263565b6001600160a01b0387165f908152600e60205260409081902091909155517f4c209b5fc8ad50758f13e2e1088ba56a560dff690a1c6fef26394f4c03821c4f90613578908890859085906142bb565b60405180910390a16040518181526001600160a01b0387169030905f5160206143235f395f51905f529060200160405180910390a3505050505050565b5f5f6135c18585612be9565b90506119cb6135cf82612c18565b84613ca8565b5f670de0b6b3a76400006135ec84845f0151613c34565b610ebd91906140d5565b60055460405163368f515360e21b81525f916001600160a01b03169063da3d454c9061362a903090879087906004016142dc565b6020604051808303815f875af1158015613646573d5f5f3e3d5ffd5b505050506040513d601f19601f8201168201806040525081019061366a91906140aa565b9050801561368e57604051635684deff60e11b815260048101829052602401610934565b43600954146136b057604051630e8d8c6160e21b815260040160405180910390fd5b816136b9611c59565b10156136d8576040516348c2588160e01b815260040160405180910390fd5b5f6136e2846121fd565b90505f6136ef8483614263565b90505f84600b546137009190614263565b6001600160a01b0387165f908152601060205260409020838155600a54600190910155600b8190559050613734868661300c565b604080516001600160a01b038816815260208101879052908101839052606081018290527f13ed6866d4e1ee6da46f845c46d7e54120883d75c5ea9a2dacc1c4ca8984ab809060800160405180910390a1505050505050565b600554604051632fe3f38f60e11b81523060048201526001600160a01b03838116602483015286811660448301528581166064830152608482018590525f921690635fc7e71e9060a4016020604051808303815f875af11580156137f3573d5f5f3e3d5ffd5b505050506040513d601f19601f8201168201806040525081019061381791906140aa565b9050801561383b57604051632d33e4f360e21b815260048101829052602401610934565b436009541461385d576040516380965b1b60e01b815260040160405180910390fd5b43826001600160a01b0316636c540baf6040518163ffffffff1660e01b8152600401602060405180830381865afa15801561389a573d5f5f3e3d5ffd5b505050506040513d601f19601f820116820180604052508101906138be91906140aa565b146138dc57604051631046f38d60e31b815260040160405180910390fd5b846001600160a01b0316846001600160a01b03160361390e57604051631bd1a62160e21b815260040160405180910390fd5b825f0361392e5760405163d29da7ef60e01b815260040160405180910390fd5b5f19830361394f57604051635982c5bb60e11b815260040160405180910390fd5b5f61395b868686612a4b565b60055460405163c488847b60e01b81529192505f9182916001600160a01b03169063c488847b90613994903090899088906004016142dc565b6040805180830381865afa1580156139ae573d5f5f3e3d5ffd5b505050506040513d601f19601f820116820180604052508101906139d29190614300565b915091505f8214613a415760405162461bcd60e51b815260206004820152603360248201527f4c49515549444154455f434f4d5054524f4c4c45525f43414c43554c4154455f604482015272105353d5539517d4d152569157d19052531151606a1b6064820152608401610934565b6040516370a0823160e01b81526001600160a01b0388811660048301528291908716906370a0823190602401602060405180830381865afa158015613a88573d5f5f3e3d5ffd5b505050506040513d601f19601f82011682018060405250810190613aac91906140aa565b1015613afa5760405162461bcd60e51b815260206004820152601860248201527f4c49515549444154455f5345495a455f544f4f5f4d55434800000000000000006044820152606401610934565b306001600160a01b03861603613b1b57613b16308989846125d4565b613bd1565b60405163b2a02ff160e01b81525f906001600160a01b0387169063b2a02ff190613b4d908c908c9087906004016142dc565b6020604051808303815f875af1158015613b69573d5f5f3e3d5ffd5b505050506040513d601f19601f82011682018060405250810190613b8d91906140aa565b14613bd15760405162461bcd60e51b81526020600482015260146024820152731d1bdad95b881cd95a5e9d5c994819985a5b195960621b6044820152606401610934565b604080516001600160a01b038a811682528981166020830152818301869052871660608201526080810183905290517f298637f684da70674f26509b10f07ec2fbc77a335ab1e7d6215a4b2484d8bb529181900360a00190a15050505050505050565b5f610ebd8284614289565b5f82613c4b8382614263565b91508110156108ac5760405162461bcd60e51b815260206004820152600c60248201526b6164642d6f766572666c6f7760a01b6044820152606401610934565b5f610ebd613ca184670de0b6b3a7640000613c34565b8351613cb3565b5f610ebd8284614263565b5f610ebd82846140d5565b602081525f82518060208401528060208501604085015e5f604082850101526040601f19601f83011684010191505092915050565b6001600160a01b0381168114613d07575f5ffd5b50565b5f5f60408385031215613d1b575f5ffd5b8235613d2681613cf3565b946020939093013593505050565b5f60208284031215613d44575f5ffd5b5035919050565b5f60208284031215613d5b575f5ffd5b8135610ebd81613cf3565b634e487b7160e01b5f52604160045260245ffd5b5f5f67ffffffffffffffff841115613d9457613d94613d66565b50604051601f19601f85018116603f0116810181811067ffffffffffffffff82111715613dc357613dc3613d66565b604052838152905080828401851015613dda575f5ffd5b838360208301375f60208583010152509392505050565b5f82601f830112613e00575f5ffd5b610ebd83833560208501613d7a565b803560ff81168114613e1f575f5ffd5b919050565b5f5f5f5f5f5f5f60e0888a031215613e3a575f5ffd5b8735613e4581613cf3565b96506020880135613e5581613cf3565b95506040880135613e6581613cf3565b945060608801359350608088013567ffffffffffffffff811115613e87575f5ffd5b613e938a828b01613df1565b93505060a088013567ffffffffffffffff811115613eaf575f5ffd5b613ebb8a828b01613df1565b925050613eca60c08901613e0f565b905092959891949750929550565b5f5f5f60608486031215613eea575f5ffd5b8335613ef581613cf3565b92506020840135613f0581613cf3565b929592945050506040919091013590565b5f60208284031215613f26575f5ffd5b813567ffffffffffffffff811115613f3c575f5ffd5b8201601f81018413613f4c575f5ffd5b611c5184823560208401613d7a565b5f5f5f5f5f5f60c08789031215613f70575f5ffd5b8635613f7b81613cf3565b95506020870135613f8b81613cf3565b945060408701359350606087013567ffffffffffffffff811115613fad575f5ffd5b613fb989828a01613df1565b935050608087013567ffffffffffffffff811115613fd5575f5ffd5b613fe189828a01613df1565b925050613ff060a08801613e0f565b90509295509295509295565b5f5f6040838503121561400d575f5ffd5b823561401881613cf3565b9150602083013561402881613cf3565b809150509250929050565b5f5f5f60608486031215614045575f5ffd5b833561405081613cf3565b925060208401359150604084013561406781613cf3565b809150509250925092565b600181811c9082168061408657607f821691505b6020821081036140a457634e487b7160e01b5f52602260045260245ffd5b50919050565b5f602082840312156140ba575f5ffd5b5051919050565b634e487b7160e01b5f52601160045260245ffd5b5f826140ef57634e487b7160e01b5f52601260045260245ffd5b500490565b6020808252600a90820152691c994b595b9d195c995960b21b604082015260600190565b5f5f60408385031215614129575f5ffd5b825161413481613cf3565b602084015190925061402881613cf3565b601f821115610f7357805f5260205f20601f840160051c8101602085101561416a5750805b601f840160051c820191505b81811015611340575f8155600101614176565b815167ffffffffffffffff8111156141a3576141a3613d66565b6141b7816141b18454614072565b84614145565b6020601f8211600181146141e9575f83156141d25750848201515b5f19600385901b1c1916600184901b178455611340565b5f84815260208120601f198516915b8281101561421857878501518255602094850194600190920191016141f8565b508482101561423557868401515f19600387901b60f8161c191681555b50505050600190811b01905550565b5f60208284031215614254575f5ffd5b81518015158114610ebd575f5ffd5b808201808211156108ac576108ac6140c1565b818103818111156108ac576108ac6140c1565b80820281158282048414176108ac576108ac6140c1565b5f602082840312156142b0575f5ffd5b8151610ebd81613cf3565b6001600160a01b039390931683526020830191909152604082015260600190565b6001600160a01b039384168152919092166020820152604081019190915260600190565b5f5f60408385031215614311575f5ffd5b50508051602090910151909290915056feddf252ad1be2c89b69c2b068fc378daa952ba7f163c4a11628f55a4df523b3efa264697066735822122031f3641eedc4b36cd37b899061b52e6f623c6008f118054d05d3e6ab35faf13264736f6c634300081b0033","linkReferences":{}},"methodIdentifiers":{"NO_ERROR()":"69ab3250","_acceptAdmin()":"e9c714f2","_addReserves(uint256)":"3e941010","_becomeImplementation(bytes)":"56e67728","_delegatePeridotLikeTo(address)":"a252d8be","_reduceReserves(uint256)":"601a0bf1","_resignImplementation()":"153ab505","_setInterestRateModel(address)":"f2b3abbd","_setPendingAdmin(address)":"b71d1a0c","_setPeridottroller(address)":"d5c6d3bd","_setReserveFactor(uint256)":"fca7820b","accrualBlockNumber()":"6c540baf","accrueInterest()":"a6afed95","admin()":"f851a440","allowance(address,address)":"dd62ed3e","approve(address,uint256)":"095ea7b3","balanceOf(address)":"70a08231","balanceOfUnderlying(address)":"3af9e669","borrow(uint256)":"c5ebeaec","borrowBalanceCurrent(address)":"17bfdfbc","borrowBalanceStored(address)":"95dd9193","borrowIndex()":"aa5af0fd","borrowRatePerBlock()":"f8f9da28","daiJoinAddress()":"8a8df2e6","decimals()":"313ce567","exchangeRateCurrent()":"bd6d894d","exchangeRateStored()":"182df0f5","getAccountSnapshot(address)":"c37f68e2","getCash()":"3b1d21a2","implementation()":"5c60da1b","initialize(address,address,address,uint256,string,string,uint8)":"1a31d465","initialize(address,address,uint256,string,string,uint8)":"99d8c1b4","interestRateModel()":"f3fdb15a","isPToken()":"5a890c0e","liquidateBorrow(address,uint256,address)":"f5e3c462","mint(uint256)":"a0712d68","name()":"06fdde03","pendingAdmin()":"26782247","peridottroller()":"c423fe29","potAddress()":"66ced602","protocolSeizeShareMantissa()":"6752e702","redeem(uint256)":"db006a75","redeemUnderlying(uint256)":"852a12e3","repayBorrow(uint256)":"0e752702","repayBorrowBehalf(address,uint256)":"2608f818","reserveFactorMantissa()":"173b9904","seize(address,address,uint256)":"b2a02ff1","supplyRatePerBlock()":"ae9d70b0","sweepToken(address)":"1be19560","symbol()":"95d89b41","totalBorrows()":"47bd3718","totalBorrowsCurrent()":"73acee98","totalReserves()":"8f840ddd","totalSupply()":"18160ddd","transfer(address,uint256)":"a9059cbb","transferFrom(address,address,uint256)":"23b872dd","underlying()":"6f307dc3","vatAddress()":"8d925ccd"},"id":13}