{"abi":[{"type":"constructor","inputs":[{"name":"baseRatePerYear","type":"uint256","internalType":"uint256"},{"name":"multiplierPerYear","type":"uint256","internalType":"uint256"},{"name":"jumpMultiplierPerYear","type":"uint256","internalType":"uint256"},{"name":"kink_","type":"uint256","internalType":"uint256"}],"stateMutability":"nonpayable"},{"type":"function","name":"baseRatePerBlock","inputs":[],"outputs":[{"name":"","type":"uint256","internalType":"uint256"}],"stateMutability":"view"},{"type":"function","name":"blocksPerYear","inputs":[],"outputs":[{"name":"","type":"uint256","internalType":"uint256"}],"stateMutability":"view"},{"type":"function","name":"getBorrowRate","inputs":[{"name":"cash","type":"uint256","internalType":"uint256"},{"name":"borrows","type":"uint256","internalType":"uint256"},{"name":"reserves","type":"uint256","internalType":"uint256"}],"outputs":[{"name":"","type":"uint256","internalType":"uint256"}],"stateMutability":"view"},{"type":"function","name":"getSupplyRate","inputs":[{"name":"cash","type":"uint256","internalType":"uint256"},{"name":"borrows","type":"uint256","internalType":"uint256"},{"name":"reserves","type":"uint256","internalType":"uint256"},{"name":"reserveFactorMantissa","type":"uint256","internalType":"uint256"}],"outputs":[{"name":"","type":"uint256","internalType":"uint256"}],"stateMutability":"view"},{"type":"function","name":"isInterestRateModel","inputs":[],"outputs":[{"name":"","type":"bool","internalType":"bool"}],"stateMutability":"view"},{"type":"function","name":"jumpMultiplierPerBlock","inputs":[],"outputs":[{"name":"","type":"uint256","internalType":"uint256"}],"stateMutability":"view"},{"type":"function","name":"kink","inputs":[],"outputs":[{"name":"","type":"uint256","internalType":"uint256"}],"stateMutability":"view"},{"type":"function","name":"multiplierPerBlock","inputs":[],"outputs":[{"name":"","type":"uint256","internalType":"uint256"}],"stateMutability":"view"},{"type":"function","name":"utilizationRate","inputs":[{"name":"cash","type":"uint256","internalType":"uint256"},{"name":"borrows","type":"uint256","internalType":"uint256"},{"name":"reserves","type":"uint256","internalType":"uint256"}],"outputs":[{"name":"","type":"uint256","internalType":"uint256"}],"stateMutability":"pure"},{"type":"event","name":"NewInterestParams","inputs":[{"name":"baseRatePerBlock","type":"uint256","indexed":false,"internalType":"uint256"},{"name":"multiplierPerBlock","type":"uint256","indexed":false,"internalType":"uint256"},{"name":"jumpMultiplierPerBlock","type":"uint256","indexed":false,"internalType":"uint256"},{"name":"kink","type":"uint256","indexed":false,"internalType":"uint256"}],"anonymous":false}],"bytecode":{"object":"0x608060405234801561000f575f5ffd5b506040516104cd3803806104cd83398101604081905261002e916100bb565b61003b62201480856100ee565b60015561004b62201480846100ee565b5f5561005a62201480836100ee565b600281905560038290556001545f54604080519283526020830191909152810191909152606081018290527f6960ab234c7ef4b0c9197100f5393cfcde7c453ac910a27bd2000aa1dd4c068d9060800160405180910390a15050505061010d565b5f5f5f5f608085870312156100ce575f5ffd5b505082516020840151604085015160609095015191969095509092509050565b5f8261010857634e487b7160e01b5f52601260045260245ffd5b500490565b6103b38061011a5f395ff3fe608060405234801561000f575f5ffd5b5060043610610090575f3560e01c8063a385fb9611610063578063a385fb96146100ed578063b8168816146100f7578063b9f9850a1461010a578063f14039de14610113578063fd2da3391461011c575f5ffd5b806315f24053146100945780632191f92a146100ba5780636e71e2d8146100d25780638726bb89146100e5575b5f5ffd5b6100a76100a23660046102af565b610125565b6040519081526020015b60405180910390f35b6100c2600181565b60405190151581526020016100b1565b6100a76100e03660046102af565b6101ee565b6100a75f5481565b6100a76220148081565b6100a76101053660046102d8565b610236565b6100a760025481565b6100a760015481565b6100a760035481565b5f5f6101328585856101ee565b9050600354811161017257600154670de0b6b3a76400005f5483610156919061031b565b6101609190610338565b61016a9190610357565b9150506101e7565b5f600154670de0b6b3a76400005f5460035461018e919061031b565b6101989190610338565b6101a29190610357565b90505f600354836101b3919061036a565b905081670de0b6b3a7640000600254836101cd919061031b565b6101d79190610338565b6101e19190610357565b93505050505b9392505050565b5f825f036101fd57505f6101e7565b816102088486610357565b610212919061036a565b610224670de0b6b3a76400008561031b565b61022e9190610338565b949350505050565b5f8061024a83670de0b6b3a764000061036a565b90505f610258878787610125565b90505f670de0b6b3a764000061026e848461031b565b6102789190610338565b9050670de0b6b3a76400008161028f8a8a8a6101ee565b610299919061031b565b6102a39190610338565b98975050505050505050565b5f5f5f606084860312156102c1575f5ffd5b505081359360208301359350604090920135919050565b5f5f5f5f608085870312156102eb575f5ffd5b5050823594602084013594506040840135936060013592509050565b634e487b7160e01b5f52601160045260245ffd5b808202811582820484141761033257610332610307565b92915050565b5f8261035257634e487b7160e01b5f52601260045260245ffd5b500490565b8082018082111561033257610332610307565b818103818111156103325761033261030756fea2646970667358221220ac336202f36a7f0782e1484b483036c32cacd15513c59022930e76da8d71d0aa64736f6c634300081b0033","linkReferences":{}},"methodIdentifiers":{"baseRatePerBlock()":"f14039de","blocksPerYear()":"a385fb96","getBorrowRate(uint256,uint256,uint256)":"15f24053","getSupplyRate(uint256,uint256,uint256,uint256)":"b8168816","isInterestRateModel()":"2191f92a","jumpMultiplierPerBlock()":"b9f9850a","kink()":"fd2da339","multiplierPerBlock()":"8726bb89","utilizationRate(uint256,uint256,uint256)":"6e71e2d8"},"id":8}