{"abi":[{"type":"constructor","inputs":[{"name":"dripRate_","type":"uint256","internalType":"uint256"},{"name":"token_","type":"address","internalType":"contract EIP20Interface"},{"name":"target_","type":"address","internalType":"address"}],"stateMutability":"nonpayable"},{"type":"function","name":"drip","inputs":[],"outputs":[{"name":"","type":"uint256","internalType":"uint256"}],"stateMutability":"nonpayable"},{"type":"function","name":"dripRate","inputs":[],"outputs":[{"name":"","type":"uint256","internalType":"uint256"}],"stateMutability":"view"},{"type":"function","name":"dripStart","inputs":[],"outputs":[{"name":"","type":"uint256","internalType":"uint256"}],"stateMutability":"view"},{"type":"function","name":"dripped","inputs":[],"outputs":[{"name":"","type":"uint256","internalType":"uint256"}],"stateMutability":"view"},{"type":"function","name":"target","inputs":[],"outputs":[{"name":"","type":"address","internalType":"address"}],"stateMutability":"view"},{"type":"function","name":"token","inputs":[],"outputs":[{"name":"","type":"address","internalType":"contract EIP20Interface"}],"stateMutability":"view"}],"bytecode":{"object":"0x6080604052348015600e575f5ffd5b50604051610515380380610515833981016040819052602b91607f565b435f908155600193909355600280546001600160a01b039384166001600160a01b0319918216179091556003805492909316911617905560045560ba565b6001600160a01b0381168114607c575f5ffd5b50565b5f5f5f606084860312156090575f5ffd5b83519250602084015160a0816069565b604085015190925060af816069565b809150509250925092565b61044e806100c75f395ff3fe608060405234801561000f575f5ffd5b5060043610610060575f3560e01c806388a91a8a1461006457806395f632b31461007f5780639f678cca14610088578063d326159214610090578063d4b8399214610099578063fc0c546a146100c4575b5f5ffd5b61006c5f5481565b6040519081526020015b60405180910390f35b61006c60045481565b61006c6100d7565b61006c60015481565b6003546100ac906001600160a01b031681565b6040516001600160a01b039091168152602001610076565b6002546100ac906001600160a01b031681565b6002546040516370a0823160e01b81523060048201525f916001600160a01b031690829082906370a0823190602401602060405180830381865afa158015610121573d5f5f3e3d5ffd5b505050506040513d601f19601f82011682018060405250810190610145919061036f565b6001545f805460045460035494955092939092916001600160a01b039091169043906101a5866101758785610386565b6040518060400160405280601281526020017164726970546f74616c206f766572666c6f7760701b8152506102a8565b90505f6101de82866040518060400160405280601381526020017264656c74614472697020756e646572666c6f7760681b8152506102f9565b90505f6101eb8983610331565b90505f61021d87836040518060400160405280600c81526020016b1d185d5d1bdb1bd9da58d85b60a21b815250610349565b600481815560405163a9059cbb60e01b81526001600160a01b0389811692820192909252602481018590529192508c169063a9059cbb906044016020604051808303815f875af1158015610273573d5f5f3e3d5ffd5b505050506040513d601f19601f8201168201806040525081019061029791906103a5565b50909b9a5050505050505050505050565b5f835f036102b757505f6102f2565b838302836102c586836103c4565b1483906102ee5760405162461bcd60e51b81526004016102e591906103e3565b60405180910390fd5b5090505b9392505050565b5f818484111561031c5760405162461bcd60e51b81526004016102e591906103e3565b505f6103288486610386565b95945050505050565b5f818311610340575081610343565b50805b92915050565b5f83830182858210156102ee5760405162461bcd60e51b81526004016102e591906103e3565b5f6020828403121561037f575f5ffd5b5051919050565b8181038181111561034357634e487b7160e01b5f52601160045260245ffd5b5f602082840312156103b5575f5ffd5b815180151581146102f2575f5ffd5b5f826103de57634e487b7160e01b5f52601260045260245ffd5b500490565b602081525f82518060208401528060208501604085015e5f604082850101526040601f19601f8301168401019150509291505056fea2646970667358221220f41248bbc44e18c8e2d71a98ec9c8f147558a8961b153b17db51b181779a99ae64736f6c634300081b0033","linkReferences":{}},"methodIdentifiers":{"drip()":"9f678cca","dripRate()":"d3261592","dripStart()":"88a91a8a","dripped()":"95f632b3","target()":"d4b83992","token()":"fc0c546a"},"id":27}