{"abi":[{"type":"function","name":"assetPrices","inputs":[{"name":"asset","type":"address","internalType":"address"}],"outputs":[{"name":"","type":"uint256","internalType":"uint256"}],"stateMutability":"view"},{"type":"function","name":"getUnderlyingPrice","inputs":[{"name":"pToken","type":"address","internalType":"contract PToken"}],"outputs":[{"name":"","type":"uint256","internalType":"uint256"}],"stateMutability":"view"},{"type":"function","name":"isPriceOracle","inputs":[],"outputs":[{"name":"","type":"bool","internalType":"bool"}],"stateMutability":"view"},{"type":"function","name":"setDirectPrice","inputs":[{"name":"asset","type":"address","internalType":"address"},{"name":"price","type":"uint256","internalType":"uint256"}],"outputs":[],"stateMutability":"nonpayable"},{"type":"function","name":"setUnderlyingPrice","inputs":[{"name":"pToken","type":"address","internalType":"contract PToken"},{"name":"underlyingPriceMantissa","type":"uint256","internalType":"uint256"}],"outputs":[],"stateMutability":"nonpayable"},{"type":"event","name":"PricePosted","inputs":[{"name":"asset","type":"address","indexed":false,"internalType":"address"},{"name":"previousPriceMantissa","type":"uint256","indexed":false,"internalType":"uint256"},{"name":"requestedPriceMantissa","type":"uint256","indexed":false,"internalType":"uint256"},{"name":"newPriceMantissa","type":"uint256","indexed":false,"internalType":"uint256"}],"anonymous":false}],"bytecode":{"object":"0x6080604052348015600e575f5ffd5b506105078061001c5f395ff3fe608060405234801561000f575f5ffd5b5060043610610055575f3560e01c806309a8acb014610059578063127ffda01461006e5780635e9a523c1461008157806366331bba146100bc578063fc57d4df146100d4575b5f5ffd5b61006c61006736600461038d565b6100e7565b005b61006c61007c36600461038d565b61015e565b6100a961008f3660046103b7565b6001600160a01b03165f9081526020819052604090205490565b6040519081526020015b60405180910390f35b6100c4600181565b60405190151581526020016100b3565b6100a96100e23660046103b7565b6101e1565b6001600160a01b0382165f8181526020818152604091829020548251938452908301528101829052606081018290527fdd71a1d19fcba687442a1d5c58578f1e409af71a79d10fd95a4d66efd8fa9ae79060800160405180910390a16001600160a01b039091165f90815260208190526040902055565b5f6101688361020c565b6001600160a01b0381165f8181526020818152604091829020548251938452908301528101849052606081018490529091507fdd71a1d19fcba687442a1d5c58578f1e409af71a79d10fd95a4d66efd8fa9ae79060800160405180910390a16001600160a01b03165f9081526020819052604090205550565b5f5f5f6101ed8461020c565b6001600160a01b0316815260208101919091526040015f205492915050565b5f5f610295836001600160a01b03166395d89b416040518163ffffffff1660e01b81526004015f60405180830381865afa15801561024c573d5f5f3e3d5ffd5b505050506040513d5f823e601f3d908101601f1916820160405261027391908101906103ed565b604051806040016040528060048152602001630e08aa8960e31b81525061031e565b156102b5575073eeeeeeeeeeeeeeeeeeeeeeeeeeeeeeeeeeeeeeee610318565b826001600160a01b0316636f307dc36040518163ffffffff1660e01b8152600401602060405180830381865afa1580156102f1573d5f5f3e3d5ffd5b505050506040513d601f19601f8201168201806040525081019061031591906104a0565b90505b92915050565b5f8160405160200161033091906104bb565b604051602081830303815290604052805190602001208360405160200161035791906104bb565b6040516020818303038152906040528051906020012014905092915050565b6001600160a01b038116811461038a575f5ffd5b50565b5f5f6040838503121561039e575f5ffd5b82356103a981610376565b946020939093013593505050565b5f602082840312156103c7575f5ffd5b81356103d281610376565b9392505050565b634e487b7160e01b5f52604160045260245ffd5b5f602082840312156103fd575f5ffd5b815167ffffffffffffffff811115610413575f5ffd5b8201601f81018413610423575f5ffd5b805167ffffffffffffffff81111561043d5761043d6103d9565b604051601f8201601f19908116603f0116810167ffffffffffffffff8111828210171561046c5761046c6103d9565b604052818152828201602001861015610483575f5ffd5b8160208401602083015e5f91810160200191909152949350505050565b5f602082840312156104b0575f5ffd5b81516103d281610376565b5f82518060208501845e5f92019182525091905056fea2646970667358221220df600392328c991c483b00c53732421fd376e3e5a2d8cf0446af6f33b9c5b67264736f6c634300081b0033","linkReferences":{}},"methodIdentifiers":{"assetPrices(address)":"5e9a523c","getUnderlyingPrice(address)":"fc57d4df","isPriceOracle()":"66331bba","setDirectPrice(address,uint256)":"09a8acb0","setUnderlyingPrice(address,uint256)":"127ffda0"},"id":5}