{"abi":[{"type":"function","name":"buildAndEncodeTransceiverMessage","inputs":[{"name":"prefix","type":"bytes4","internalType":"bytes4"},{"name":"sourceNttManagerAddress","type":"bytes32","internalType":"bytes32"},{"name":"recipientNttManagerAddress","type":"bytes32","internalType":"bytes32"},{"name":"nttManagerMessage","type":"bytes","internalType":"bytes"},{"name":"transceiverPayload","type":"bytes","internalType":"bytes"}],"outputs":[{"name":"","type":"tuple","internalType":"struct TransceiverStructs.TransceiverMessage","components":[{"name":"sourceNttManagerAddress","type":"bytes32","internalType":"bytes32"},{"name":"recipientNttManagerAddress","type":"bytes32","internalType":"bytes32"},{"name":"nttManagerPayload","type":"bytes","internalType":"bytes"},{"name":"transceiverPayload","type":"bytes","internalType":"bytes"}]},{"name":"","type":"bytes","internalType":"bytes"}],"stateMutability":"pure"},{"type":"function","name":"decodeTransceiverInit","inputs":[{"name":"encoded","type":"bytes","internalType":"bytes"}],"outputs":[{"name":"init","type":"tuple","internalType":"struct TransceiverStructs.TransceiverInit","components":[{"name":"transceiverIdentifier","type":"bytes4","internalType":"bytes4"},{"name":"nttManagerAddress","type":"bytes32","internalType":"bytes32"},{"name":"nttManagerMode","type":"uint8","internalType":"uint8"},{"name":"tokenAddress","type":"bytes32","internalType":"bytes32"},{"name":"tokenDecimals","type":"uint8","internalType":"uint8"}]}],"stateMutability":"pure"},{"type":"function","name":"decodeTransceiverRegistration","inputs":[{"name":"encoded","type":"bytes","internalType":"bytes"}],"outputs":[{"name":"registration","type":"tuple","internalType":"struct TransceiverStructs.TransceiverRegistration","components":[{"name":"transceiverIdentifier","type":"bytes4","internalType":"bytes4"},{"name":"transceiverChainId","type":"uint16","internalType":"uint16"},{"name":"transceiverAddress","type":"bytes32","internalType":"bytes32"}]}],"stateMutability":"pure"},{"type":"function","name":"encodeNativeTokenTransfer","inputs":[{"name":"m","type":"tuple","internalType":"struct TransceiverStructs.NativeTokenTransfer","components":[{"name":"amount","type":"uint72","internalType":"TrimmedAmount"},{"name":"sourceToken","type":"bytes32","internalType":"bytes32"},{"name":"to","type":"bytes32","internalType":"bytes32"},{"name":"toChain","type":"uint16","internalType":"uint16"},{"name":"additionalPayload","type":"bytes","internalType":"bytes"}]}],"outputs":[{"name":"encoded","type":"bytes","internalType":"bytes"}],"stateMutability":"pure"},{"type":"function","name":"encodeNttManagerMessage","inputs":[{"name":"m","type":"tuple","internalType":"struct TransceiverStructs.NttManagerMessage","components":[{"name":"id","type":"bytes32","internalType":"bytes32"},{"name":"sender","type":"bytes32","internalType":"bytes32"},{"name":"payload","type":"bytes","internalType":"bytes"}]}],"outputs":[{"name":"encoded","type":"bytes","internalType":"bytes"}],"stateMutability":"pure"},{"type":"function","name":"encodeTransceiverInit","inputs":[{"name":"init","type":"tuple","internalType":"struct TransceiverStructs.TransceiverInit","components":[{"name":"transceiverIdentifier","type":"bytes4","internalType":"bytes4"},{"name":"nttManagerAddress","type":"bytes32","internalType":"bytes32"},{"name":"nttManagerMode","type":"uint8","internalType":"uint8"},{"name":"tokenAddress","type":"bytes32","internalType":"bytes32"},{"name":"tokenDecimals","type":"uint8","internalType":"uint8"}]}],"outputs":[{"name":"","type":"bytes","internalType":"bytes"}],"stateMutability":"pure"},{"type":"function","name":"encodeTransceiverInstruction","inputs":[{"name":"instruction","type":"tuple","internalType":"struct TransceiverStructs.TransceiverInstruction","components":[{"name":"index","type":"uint8","internalType":"uint8"},{"name":"payload","type":"bytes","internalType":"bytes"}]}],"outputs":[{"name":"","type":"bytes","internalType":"bytes"}],"stateMutability":"pure"},{"type":"function","name":"encodeTransceiverInstructions","inputs":[{"name":"instructions","type":"tuple[]","internalType":"struct TransceiverStructs.TransceiverInstruction[]","components":[{"name":"index","type":"uint8","internalType":"uint8"},{"name":"payload","type":"bytes","internalType":"bytes"}]}],"outputs":[{"name":"","type":"bytes","internalType":"bytes"}],"stateMutability":"pure"},{"type":"function","name":"encodeTransceiverMessage","inputs":[{"name":"prefix","type":"bytes4","internalType":"bytes4"},{"name":"m","type":"tuple","internalType":"struct TransceiverStructs.TransceiverMessage","components":[{"name":"sourceNttManagerAddress","type":"bytes32","internalType":"bytes32"},{"name":"recipientNttManagerAddress","type":"bytes32","internalType":"bytes32"},{"name":"nttManagerPayload","type":"bytes","internalType":"bytes"},{"name":"transceiverPayload","type":"bytes","internalType":"bytes"}]}],"outputs":[{"name":"encoded","type":"bytes","internalType":"bytes"}],"stateMutability":"pure"},{"type":"function","name":"encodeTransceiverRegistration","inputs":[{"name":"registration","type":"tuple","internalType":"struct TransceiverStructs.TransceiverRegistration","components":[{"name":"transceiverIdentifier","type":"bytes4","internalType":"bytes4"},{"name":"transceiverChainId","type":"uint16","internalType":"uint16"},{"name":"transceiverAddress","type":"bytes32","internalType":"bytes32"}]}],"outputs":[{"name":"","type":"bytes","internalType":"bytes"}],"stateMutability":"pure"},{"type":"function","name":"nttManagerMessageDigest","inputs":[{"name":"sourceChainId","type":"uint16","internalType":"uint16"},{"name":"m","type":"tuple","internalType":"struct TransceiverStructs.NttManagerMessage","components":[{"name":"id","type":"bytes32","internalType":"bytes32"},{"name":"sender","type":"bytes32","internalType":"bytes32"},{"name":"payload","type":"bytes","internalType":"bytes"}]}],"outputs":[{"name":"","type":"bytes32","internalType":"bytes32"}],"stateMutability":"pure"},{"type":"function","name":"parseNativeTokenTransfer","inputs":[{"name":"encoded","type":"bytes","internalType":"bytes"}],"outputs":[{"name":"nativeTokenTransfer","type":"tuple","internalType":"struct TransceiverStructs.NativeTokenTransfer","components":[{"name":"amount","type":"uint72","internalType":"TrimmedAmount"},{"name":"sourceToken","type":"bytes32","internalType":"bytes32"},{"name":"to","type":"bytes32","internalType":"bytes32"},{"name":"toChain","type":"uint16","internalType":"uint16"},{"name":"additionalPayload","type":"bytes","internalType":"bytes"}]}],"stateMutability":"pure"},{"type":"function","name":"parseNttManagerMessage","inputs":[{"name":"encoded","type":"bytes","internalType":"bytes"}],"outputs":[{"name":"nttManagerMessage","type":"tuple","internalType":"struct TransceiverStructs.NttManagerMessage","components":[{"name":"id","type":"bytes32","internalType":"bytes32"},{"name":"sender","type":"bytes32","internalType":"bytes32"},{"name":"payload","type":"bytes","internalType":"bytes"}]}],"stateMutability":"pure"},{"type":"function","name":"parseTransceiverAndNttManagerMessage","inputs":[{"name":"expectedPrefix","type":"bytes4","internalType":"bytes4"},{"name":"payload","type":"bytes","internalType":"bytes"}],"outputs":[{"name":"","type":"tuple","internalType":"struct TransceiverStructs.TransceiverMessage","components":[{"name":"sourceNttManagerAddress","type":"bytes32","internalType":"bytes32"},{"name":"recipientNttManagerAddress","type":"bytes32","internalType":"bytes32"},{"name":"nttManagerPayload","type":"bytes","internalType":"bytes"},{"name":"transceiverPayload","type":"bytes","internalType":"bytes"}]},{"name":"","type":"tuple","internalType":"struct TransceiverStructs.NttManagerMessage","components":[{"name":"id","type":"bytes32","internalType":"bytes32"},{"name":"sender","type":"bytes32","internalType":"bytes32"},{"name":"payload","type":"bytes","internalType":"bytes"}]}],"stateMutability":"pure"},{"type":"function","name":"parseTransceiverInstructionChecked","inputs":[{"name":"encoded","type":"bytes","internalType":"bytes"}],"outputs":[{"name":"instruction","type":"tuple","internalType":"struct TransceiverStructs.TransceiverInstruction","components":[{"name":"index","type":"uint8","internalType":"uint8"},{"name":"payload","type":"bytes","internalType":"bytes"}]}],"stateMutability":"pure"},{"type":"function","name":"parseTransceiverInstructionUnchecked","inputs":[{"name":"encoded","type":"bytes","internalType":"bytes"},{"name":"offset","type":"uint256","internalType":"uint256"}],"outputs":[{"name":"instruction","type":"tuple","internalType":"struct TransceiverStructs.TransceiverInstruction","components":[{"name":"index","type":"uint8","internalType":"uint8"},{"name":"payload","type":"bytes","internalType":"bytes"}]},{"name":"nextOffset","type":"uint256","internalType":"uint256"}],"stateMutability":"pure"},{"type":"function","name":"parseTransceiverInstructions","inputs":[{"name":"encoded","type":"bytes","internalType":"bytes"},{"name":"numRegisteredTransceivers","type":"uint256","internalType":"uint256"}],"outputs":[{"name":"","type":"tuple[]","internalType":"struct TransceiverStructs.TransceiverInstruction[]","components":[{"name":"index","type":"uint8","internalType":"uint8"},{"name":"payload","type":"bytes","internalType":"bytes"}]}],"stateMutability":"pure"},{"type":"error","name":"IncorrectPrefix","inputs":[{"name":"prefix","type":"bytes4","internalType":"bytes4"}]},{"type":"error","name":"InvalidInstructionIndex","inputs":[{"name":"providedIndex","type":"uint256","internalType":"uint256"},{"name":"numTransceivers","type":"uint256","internalType":"uint256"}]},{"type":"error","name":"LengthMismatch","inputs":[{"name":"encodedLength","type":"uint256","internalType":"uint256"},{"name":"expectedLength","type":"uint256","internalType":"uint256"}]},{"type":"error","name":"PayloadTooLong","inputs":[{"name":"size","type":"uint256","internalType":"uint256"}]},{"type":"error","name":"UnorderedInstructions","inputs":[{"name":"lastIndex","type":"uint256","internalType":"uint256"},{"name":"instructionIndex","type":"uint256","internalType":"uint256"}]}],"bytecode":{"object":"0x611a13610034600b8282823980515f1a607314602857634e487b7160e01b5f525f60045260245ffd5b305f52607381538281f3fe7300000000000000000000000000000000000000003014608060405260043610610111575f3560e01c806340d2f75a116100a9578063a733bdaa11610079578063a733bdaa14610283578063b3f07bbd146102a3578063b620e872146102c4578063c9bc77bb146102e4578063eeca1f6014610347575f5ffd5b806340d2f75a146101ec578063433e3f291461020d5780635f396d4b146102505780638b4979b814610270575f5ffd5b80631185b23c116100e45780631185b23c1461019257806322cebdee146101b35780632b9f4796146101c65780633906001d146101d9575f5ffd5b8063054a7d8414610115578063055cedbd1461013e57806308a700d614610151578063107383fb14610172575b5f5ffd5b610128610123366004610fea565b61035a565b604051610135919061107a565b60405180910390f35b61012861014c36600461116b565b6103d1565b61016461015f366004611234565b610493565b6040516101359291906112f8565b61018561018036600461131c565b610506565b604051610135919061134d565b6101a56101a036600461135f565b61058e565b6040516101359291906113e4565b6101286101c1366004611408565b6105f8565b6101286101d436600461144a565b610661565b6101286101e73660046114f9565b610763565b6101ff6101fa3660046115b4565b610816565b604051610135929190611616565b61022061021b36600461131c565b610867565b6040805182516001600160e01b031916815260208084015161ffff16908201529181015190820152606001610135565b61026361025e36600461131c565b6108d4565b6040516101359190611637565b61012861027e3660046116a1565b610902565b61029661029136600461131c565b61095d565b60405161013591906116d2565b6102b66102b1366004611723565b610a99565b604051908152602001610135565b6102d76102d23660046115b4565b610ab3565b6040516101359190611763565b6102f76102f236600461131c565b610c03565b60405161013591905f60a08201905063ffffffff60e01b83511682526020830151602083015260ff60408401511660408301526060830151606083015260ff608084015116608083015292915050565b6101286103553660046117c6565b610c9b565b8051602080830151604080850151606086810151608088015193516001600160e01b03199097169587019590955260248601939093526001600160f81b031960f891821b8116604487015260458601949094521b9091166065830152906066015b6040516020818303038152906040529050919050565b606060ff80168251111561040657815160405163a341969160e01b81526004016103fd91815260200190565b60405180910390fd5b815160605f5b82811015610467575f61043786838151811061042a5761042a61180f565b60200260200101516105f8565b9050828160405160200161044c92919061183a565b60408051601f1981840301815291905292505060010161040c565b50818160405160200161047b92919061184e565b60405160208183030381529060405292505050919050565b6104bc60405180608001604052805f81526020015f815260200160608152602001606081525090565b6104de60405180606001604052805f81526020015f8152602001606081525090565b5f6104e98585610ce0565b90505f6104f98260400151610506565b9196919550909350505050565b61052860405180606001604052805f81526020015f8152602001606081525090565b5f6105338382610deb565b90835290506105428382610deb565b602084019190915290505f6105608483600291810182015192910190565b925061ffff169050610573848383610e0f565b604085019190915291506105878483610e81565b5050919050565b6105b760405180608001604052805f81526020015f815260200160608152602001606081525090565b60605f60405180608001604052808881526020018781526020018681526020018581525090505f6105e88983610763565b9199919850909650505050505050565b606060ff8016826020015151111561062c5781602001515160405163a341969160e01b81526004016103fd91815260200190565b60208083015180518451604051919361064a9391928592910161186d565b604051602081830303815290604052915050919050565b805160808201515160609190156106ef5760808301515161ffff10156106a35782608001515160405163a341969160e01b81526004016103fd91815260200190565b608083015151632653951560e21b60ff8316600884901c6001600160401b0316866020015187604001518860600151868a6080015160405160200161047b989796959493929190611896565b60208381015160408086015160608701519151632653951560e21b9481019490945260f885901b6001600160f81b031916602485015260b885901b6001600160c01b0319166025850152602d840192909252604d83019190915260f01b6001600160f01b031916606d820152606f0161064a565b606061ffff801682604001515111156107985781604001515160405163a341969160e01b81526004016103fd91815260200190565b60408201515160608301515161ffff10156107cf5782606001515160405163a341969160e01b81526004016103fd91815260200190565b606083015180518451602080870151604080890151905194956107fc958b95948993928992909101611913565b604051602081830303815290604052925050505b92915050565b604080518082019091525f815260606020820152818301600181015160ff9081168352600291820151918401919061085390869084908416610e0f565b846020018194508290525050509250929050565b604080516060810182525f808252602082018190529181018290529061088d8382610eb3565b6001600160e01b0319919091168352600284820181015161ffff1660208501520190506108ba8382610deb565b604084019190915290506108ce8382610e81565b50919050565b604080518082019091525f8152606060208201525f6108f38382610816565b90925090506108ce8382610e81565b606061ffff801682604001515111156109375781604001515160405163a341969160e01b81526004016103fd91815260200190565b604080830151805184516020808701519451929461064a9492939092869290910161196e565b61099a6040518060a001604052805f68ffffffffffffffffff1681526020015f81526020015f81526020015f61ffff168152602001606081525090565b5f806109a68482610eb3565b925090506001600160e01b03198116632653951560e21b146109e7576040516356d2569d60e01b81526001600160e01b0319821660048201526024016103fd565b818401600181015160099182015160ff8216600882901b68ffffffffffffffff0016178652919093019290610a1c8685610deb565b60208701919091529350610a308685610deb565b6040870191909152600287820181015161ffff1660608801529081019450610a5990859061199f565b865110610a8657600286850181015194019361ffff16610a7a878683610e0f565b60808801919091529450505b610a908685610e81565b50505050919050565b5f610aac83610aa784610902565b610edc565b9392505050565b6001828101516060919060ff165f846001600160401b03811115610ad957610ad9610f0e565b604051908082528060200260200182016040528015610b1e57816020015b604080518082019091525f815260606020820152815260200190600190039081610af75790505b5090505f805b83811015610bee57604080518082019091525f815260606020820152610b4a8987610816565b81519097509091508215801590610b645750838160ff1611155b15610b8e57604051630555a4b960e01b81526004810185905260ff821660248201526044016103fd565b888160ff1610610bbd5760405163344fa80b60e11b815260ff82166004820152602481018a90526044016103fd565b8060ff16935081858260ff1681518110610bd957610bd961180f565b60209081029190910101525050600101610b24565b50610bf98785610e81565b5095945050505050565b6040805160a0810182525f80825260208201819052918101829052606081018290526080810182905290610c378382610eb3565b6001600160e01b031990911683529050610c518382610deb565b6020840191909152600184820181015160ff166040850152019050610c768382610deb565b6060840191909152600184820181015160ff1660808501520190506108ce8382610e81565b805160208083015160408085015190516001600160e01b03199094169284019290925260f01b6001600160f01b031916602483015260268201526060906046016103bb565b610d0960405180608001604052805f81526020015f815260200160608152602001606081525090565b5f80610d158482610eb3565b925090506001600160e01b031980821690861614610d52576040516356d2569d60e01b81526001600160e01b0319821660048201526024016103fd565b610d5c8483610deb565b9084529150610d6b8483610deb565b602085019190915291505f610d898584600291810182015192910190565b93509050610d9c858461ffff8416610e0f565b604086019190915292505f610dba8685600291810182015192910190565b94509050610dcd868561ffff8416610e0f565b60608701919091529350610de18685610e81565b5050505092915050565b5f5f5f5f610e028686602091810182015192910190565b9097909650945050505050565b60605f825f03610e2f575050604080515f81526020810190915282610e79565b5050604051828201601f831680610e44575060205b80830184810186838901015b81831015610e68578051835260209283019201610e50565b5050848452601f01601f1916604052505b935093915050565b80825114610eaf5781516040516355c5b3e360e11b81526004810191909152602481018290526044016103fd565b5050565b5f5f5f5f610eca8686600491810182015192910190565b60e09190911b97909650945050505050565b5f8282604051602001610ef09291906119be565b60405160208183030381529060405280519060200120905092915050565b634e487b7160e01b5f52604160045260245ffd5b60405160a081016001600160401b0381118282101715610f4457610f44610f0e565b60405290565b604051608081016001600160401b0381118282101715610f4457610f44610f0e565b604051606081016001600160401b0381118282101715610f4457610f44610f0e565b604051601f8201601f191681016001600160401b0381118282101715610fb657610fb6610f0e565b604052919050565b80356001600160e01b031981168114610fd5575f5ffd5b919050565b803560ff81168114610fd5575f5ffd5b5f60a0828403128015610ffb575f5ffd5b50611004610f22565b61100d83610fbe565b81526020838101359082015261102560408401610fda565b60408201526060838101359082015261104060808401610fda565b60808201529392505050565b5f81518084528060208401602086015e5f602082860101526020601f19601f83011685010191505092915050565b602081525f610aac602083018461104c565b5f82601f83011261109b575f5ffd5b81356001600160401b038111156110b4576110b4610f0e565b6110c7601f8201601f1916602001610f8e565b8181528460208386010111156110db575f5ffd5b816020850160208301375f918101602001919091529392505050565b5f60408284031215611107575f5ffd5b604080519081016001600160401b038111828210171561112957611129610f0e565b60405290508061113883610fda565b815260208301356001600160401b03811115611152575f5ffd5b61115e8582860161108c565b6020830152505092915050565b5f6020828403121561117b575f5ffd5b81356001600160401b03811115611190575f5ffd5b8201601f810184136111a0575f5ffd5b80356001600160401b038111156111b9576111b9610f0e565b8060051b6111c960208201610f8e565b918252602081840181019290810190878411156111e4575f5ffd5b6020850192505b838310156112295782356001600160401b03811115611208575f5ffd5b611217896020838901016110f7565b835250602092830192909101906111eb565b979650505050505050565b5f5f60408385031215611245575f5ffd5b61124e83610fbe565b915060208301356001600160401b03811115611268575f5ffd5b6112748582860161108c565b9150509250929050565b80518252602081015160208301525f6040820151608060408501526112a6608085018261104c565b9050606083015184820360608601526112bf828261104c565b95945050505050565b80518252602081015160208301525f6040820151606060408501526112f0606085018261104c565b949350505050565b604081525f61130a604083018561127e565b82810360208401526112bf81856112c8565b5f6020828403121561132c575f5ffd5b81356001600160401b03811115611341575f5ffd5b6112f08482850161108c565b602081525f610aac60208301846112c8565b5f5f5f5f5f60a08688031215611373575f5ffd5b61137c86610fbe565b9450602086013593506040860135925060608601356001600160401b038111156113a4575f5ffd5b6113b08882890161108c565b92505060808601356001600160401b038111156113cb575f5ffd5b6113d78882890161108c565b9150509295509295909350565b604081525f6113f6604083018561127e565b82810360208401526112bf818561104c565b5f60208284031215611418575f5ffd5b81356001600160401b0381111561142d575f5ffd5b6112f0848285016110f7565b803561ffff81168114610fd5575f5ffd5b5f6020828403121561145a575f5ffd5b81356001600160401b0381111561146f575f5ffd5b820160a08185031215611480575f5ffd5b611488610f22565b813568ffffffffffffffffff811681146114a0575f5ffd5b815260208281013590820152604080830135908201526114c260608301611439565b606082015260808201356001600160401b038111156114df575f5ffd5b6114eb8682850161108c565b608083015250949350505050565b5f5f6040838503121561150a575f5ffd5b61151383610fbe565b915060208301356001600160401b0381111561152d575f5ffd5b83016080818603121561153e575f5ffd5b611546610f4a565b813581526020808301359082015260408201356001600160401b0381111561156c575f5ffd5b6115788782850161108c565b60408301525060608201356001600160401b03811115611596575f5ffd5b6115a28782850161108c565b60608301525080925050509250929050565b5f5f604083850312156115c5575f5ffd5b82356001600160401b038111156115da575f5ffd5b6115e68582860161108c565b95602094909401359450505050565b60ff81511682525f6020820151604060208501526112f0604085018261104c565b604081525f61162860408301856115f5565b90508260208301529392505050565b602081525f610aac60208301846115f5565b5f60608284031215611659575f5ffd5b611661610f6c565b8235815260208084013590820152905060408201356001600160401b03811115611689575f5ffd5b6116958482850161108c565b60408301525092915050565b5f602082840312156116b1575f5ffd5b81356001600160401b038111156116c6575f5ffd5b6112f084828501611649565b6020815268ffffffffffffffffff8251166020820152602082015160408201526040820151606082015261ffff60608301511660808201525f608083015160a0808401526112f060c084018261104c565b5f5f60408385031215611734575f5ffd5b61173d83611439565b915060208301356001600160401b03811115611757575f5ffd5b61127485828601611649565b5f602082016020835280845180835260408501915060408160051b8601019250602086015f5b828110156117ba57603f198786030184526117a58583516115f5565b94506020938401939190910190600101611789565b50929695505050505050565b5f60608284031280156117d7575f5ffd5b506117e0610f6c565b6117e983610fbe565b81526117f760208401611439565b60208201526040928301359281019290925250919050565b634e487b7160e01b5f52603260045260245ffd5b5f81518060208401855e5f93019283525090919050565b5f6112f06118488386611823565b84611823565b60f883901b6001600160f81b03191681525f6112f06001830184611823565b6001600160f81b031960f885811b8216835284901b1660018201525f6112bf6002830184611823565b6001600160e01b0319891681526001600160f81b031960f889901b1660048201526001600160c01b031960c088901b166005820152600d8101869052602d81018590526001600160f01b031960f085811b8216604d84015284901b16604f8201525f6119056051830184611823565b9a9950505050505050505050565b6001600160e01b031988168152600481018790526024810186905260f085901b6001600160f01b03191660448201525f6119506046830186611823565b60f085901b6001600160f01b03191681526119056002820185611823565b84815283602082015261ffff60f01b8360f01b1660408201525f6119956042830184611823565b9695505050505050565b8082018082111561081057634e487b7160e01b5f52601160045260245ffd5b60f083901b6001600160f01b03191681525f6112f0600283018461182356fea26469706673582212209e5f70c195df50cf026f55a8d97590a35e6ba061299ef9382cbc2a97d9e182b064736f6c634300081b0033","linkReferences":{}},"methodIdentifiers":{"buildAndEncodeTransceiverMessage(bytes4,bytes32,bytes32,bytes,bytes)":"1185b23c","decodeTransceiverInit(bytes)":"c9bc77bb","decodeTransceiverRegistration(bytes)":"433e3f29","encodeNativeTokenTransfer(TransceiverStructs.NativeTokenTransfer)":"2b9f4796","encodeNttManagerMessage(TransceiverStructs.NttManagerMessage)":"8b4979b8","encodeTransceiverInit(TransceiverStructs.TransceiverInit)":"054a7d84","encodeTransceiverInstruction(TransceiverStructs.TransceiverInstruction)":"22cebdee","encodeTransceiverInstructions(TransceiverStructs.TransceiverInstruction[])":"055cedbd","encodeTransceiverMessage(bytes4,TransceiverStructs.TransceiverMessage)":"3906001d","encodeTransceiverRegistration(TransceiverStructs.TransceiverRegistration)":"eeca1f60","nttManagerMessageDigest(uint16,TransceiverStructs.NttManagerMessage)":"b3f07bbd","parseNativeTokenTransfer(bytes)":"a733bdaa","parseNttManagerMessage(bytes)":"107383fb","parseTransceiverAndNttManagerMessage(bytes4,bytes)":"08a700d6","parseTransceiverInstructionChecked(bytes)":"5f396d4b","parseTransceiverInstructionUnchecked(bytes,uint256)":"40d2f75a","parseTransceiverInstructions(bytes,uint256)":"b620e872"},"id":79}