{"abi":[{"type":"function","name":"_borrowGuardianPaused","inputs":[],"outputs":[{"name":"","type":"bool","internalType":"bool"}],"stateMutability":"view"},{"type":"function","name":"_mintGuardianPaused","inputs":[],"outputs":[{"name":"","type":"bool","internalType":"bool"}],"stateMutability":"view"},{"type":"function","name":"accountAssets","inputs":[{"name":"","type":"address","internalType":"address"},{"name":"","type":"uint256","internalType":"uint256"}],"outputs":[{"name":"","type":"address","internalType":"contract PToken"}],"stateMutability":"view"},{"type":"function","name":"admin","inputs":[],"outputs":[{"name":"","type":"address","internalType":"address"}],"stateMutability":"view"},{"type":"function","name":"allMarkets","inputs":[{"name":"","type":"uint256","internalType":"uint256"}],"outputs":[{"name":"","type":"address","internalType":"contract PToken"}],"stateMutability":"view"},{"type":"function","name":"borrowCapGuardian","inputs":[],"outputs":[{"name":"","type":"address","internalType":"address"}],"stateMutability":"view"},{"type":"function","name":"borrowCaps","inputs":[{"name":"","type":"address","internalType":"address"}],"outputs":[{"name":"","type":"uint256","internalType":"uint256"}],"stateMutability":"view"},{"type":"function","name":"borrowGuardianPaused","inputs":[{"name":"","type":"address","internalType":"address"}],"outputs":[{"name":"","type":"bool","internalType":"bool"}],"stateMutability":"view"},{"type":"function","name":"closeFactorMantissa","inputs":[],"outputs":[{"name":"","type":"uint256","internalType":"uint256"}],"stateMutability":"view"},{"type":"function","name":"liquidationIncentiveMantissa","inputs":[],"outputs":[{"name":"","type":"uint256","internalType":"uint256"}],"stateMutability":"view"},{"type":"function","name":"markets","inputs":[{"name":"","type":"address","internalType":"address"}],"outputs":[{"name":"isListed","type":"bool","internalType":"bool"},{"name":"collateralFactorMantissa","type":"uint256","internalType":"uint256"},{"name":"isPeridoted","type":"bool","internalType":"bool"}],"stateMutability":"view"},{"type":"function","name":"maxAssets","inputs":[],"outputs":[{"name":"","type":"uint256","internalType":"uint256"}],"stateMutability":"view"},{"type":"function","name":"mintGuardianPaused","inputs":[{"name":"","type":"address","internalType":"address"}],"outputs":[{"name":"","type":"bool","internalType":"bool"}],"stateMutability":"view"},{"type":"function","name":"oracle","inputs":[],"outputs":[{"name":"","type":"address","internalType":"contract PriceOracle"}],"stateMutability":"view"},{"type":"function","name":"pauseGuardian","inputs":[],"outputs":[{"name":"","type":"address","internalType":"address"}],"stateMutability":"view"},{"type":"function","name":"pendingAdmin","inputs":[],"outputs":[{"name":"","type":"address","internalType":"address"}],"stateMutability":"view"},{"type":"function","name":"pendingPeridottrollerImplementation","inputs":[],"outputs":[{"name":"","type":"address","internalType":"address"}],"stateMutability":"view"},{"type":"function","name":"peridotAccrued","inputs":[{"name":"","type":"address","internalType":"address"}],"outputs":[{"name":"","type":"uint256","internalType":"uint256"}],"stateMutability":"view"},{"type":"function","name":"peridotBorrowState","inputs":[{"name":"","type":"address","internalType":"address"}],"outputs":[{"name":"index","type":"uint224","internalType":"uint224"},{"name":"block","type":"uint32","internalType":"uint32"}],"stateMutability":"view"},{"type":"function","name":"peridotBorrowerIndex","inputs":[{"name":"","type":"address","internalType":"address"},{"name":"","type":"address","internalType":"address"}],"outputs":[{"name":"","type":"uint256","internalType":"uint256"}],"stateMutability":"view"},{"type":"function","name":"peridotRate","inputs":[],"outputs":[{"name":"","type":"uint256","internalType":"uint256"}],"stateMutability":"view"},{"type":"function","name":"peridotSpeeds","inputs":[{"name":"","type":"address","internalType":"address"}],"outputs":[{"name":"","type":"uint256","internalType":"uint256"}],"stateMutability":"view"},{"type":"function","name":"peridotSupplierIndex","inputs":[{"name":"","type":"address","internalType":"address"},{"name":"","type":"address","internalType":"address"}],"outputs":[{"name":"","type":"uint256","internalType":"uint256"}],"stateMutability":"view"},{"type":"function","name":"peridotSupplyState","inputs":[{"name":"","type":"address","internalType":"address"}],"outputs":[{"name":"index","type":"uint224","internalType":"uint224"},{"name":"block","type":"uint32","internalType":"uint32"}],"stateMutability":"view"},{"type":"function","name":"peridottrollerImplementation","inputs":[],"outputs":[{"name":"","type":"address","internalType":"address"}],"stateMutability":"view"},{"type":"function","name":"seizeGuardianPaused","inputs":[],"outputs":[{"name":"","type":"bool","internalType":"bool"}],"stateMutability":"view"},{"type":"function","name":"transferGuardianPaused","inputs":[],"outputs":[{"name":"","type":"bool","internalType":"bool"}],"stateMutability":"view"}],"bytecode":{"object":"0x6080604052348015600e575f5ffd5b506106148061001c5f395ff3fe608060405234801561000f575f5ffd5b50600436106101a1575f3560e01c80637c8f3a67116100f3578063ac0b0bb711610093578063dce154491161006e578063dce1544914610495578063e6653f3d146104a8578063e8755446146104bc578063f851a440146104c5575f5ffd5b8063ac0b0bb714610459578063d002d9891461046d578063d088864a1461048c575f5ffd5b80638e8f294b116100ce5780638e8f294b1461039d578063935dbd26146103ef57806394b2294b14610426578063a64db6271461042f575f5ffd5b80637c8f3a67146103635780637dc0d1d01461037657806387f7630314610389575f5ffd5b80633c94786f1161015e57806352d84d1e1161013957806352d84d1e146102ed5780636d154ea514610300578063731f0c2b14610322578063794595f514610344575f5ffd5b80633c94786f146102a15780634a584432146102c55780634ada90af146102e4575f5ffd5b80630aa4266f146101a557806318f1408d146101e257806321af45691461020d57806324a3d622146102205780632678224714610233578063328bb72b14610246575b5f5ffd5b6101cf6101b336600461054e565b601260209081525f928352604080842090915290825290205481565b6040519081526020015b60405180910390f35b6002546101f5906001600160a01b031681565b6040516001600160a01b0390911681526020016101d9565b6015546101f5906001600160a01b031681565b600a546101f5906001600160a01b031681565b6001546101f5906001600160a01b031681565b61027d61025436600461057f565b60116020525f90815260409020546001600160e01b03811690600160e01b900463ffffffff1682565b604080516001600160e01b03909316835263ffffffff9091166020830152016101d9565b600a546102b590600160a01b900460ff1681565b60405190151581526020016101d9565b6101cf6102d336600461057f565b60166020525f908152604090205481565b6101cf60065481565b6101f56102fb36600461059f565b6104d7565b6102b561030e36600461057f565b600c6020525f908152604090205460ff1681565b6102b561033036600461057f565b600b6020525f908152604090205460ff1681565b6101cf61035236600461057f565b600f6020525f908152604090205481565b6003546101f5906001600160a01b031681565b6004546101f5906001600160a01b031681565b600a546102b590600160b01b900460ff1681565b6103d06103ab36600461057f565b60096020525f908152604090208054600182015460039092015460ff91821692911683565b60408051931515845260208401929092521515908201526060016101d9565b61027d6103fd36600461057f565b60106020525f90815260409020546001600160e01b03811690600160e01b900463ffffffff1682565b6101cf60075481565b6101cf61043d36600461054e565b601360209081525f928352604080842090915290825290205481565b600a546102b590600160b81b900460ff1681565b6101cf61047b36600461057f565b60146020525f908152604090205481565b6101cf600e5481565b6101f56104a33660046105b6565b6104ff565b600a546102b590600160a81b900460ff1681565b6101cf60055481565b5f546101f5906001600160a01b031681565b600d81815481106104e6575f80fd5b5f918252602090912001546001600160a01b0316905081565b6008602052815f5260405f208181548110610518575f80fd5b5f918252602090912001546001600160a01b03169150829050565b80356001600160a01b0381168114610549575f5ffd5b919050565b5f5f6040838503121561055f575f5ffd5b61056883610533565b915061057660208401610533565b90509250929050565b5f6020828403121561058f575f5ffd5b61059882610533565b9392505050565b5f602082840312156105af575f5ffd5b5035919050565b5f5f604083850312156105c7575f5ffd5b6105d083610533565b94602093909301359350505056fea264697066735822122055be417da4b1dd01762f53653b2d235f3326b686bc51858b913101c0f455f46064736f6c634300081b0033","linkReferences":{}},"methodIdentifiers":{"_borrowGuardianPaused()":"e6653f3d","_mintGuardianPaused()":"3c94786f","accountAssets(address,uint256)":"dce15449","admin()":"f851a440","allMarkets(uint256)":"52d84d1e","borrowCapGuardian()":"21af4569","borrowCaps(address)":"4a584432","borrowGuardianPaused(address)":"6d154ea5","closeFactorMantissa()":"e8755446","liquidationIncentiveMantissa()":"4ada90af","markets(address)":"8e8f294b","maxAssets()":"94b2294b","mintGuardianPaused(address)":"731f0c2b","oracle()":"7dc0d1d0","pauseGuardian()":"24a3d622","pendingAdmin()":"26782247","pendingPeridottrollerImplementation()":"7c8f3a67","peridotAccrued(address)":"d002d989","peridotBorrowState(address)":"328bb72b","peridotBorrowerIndex(address,address)":"a64db627","peridotRate()":"d088864a","peridotSpeeds(address)":"794595f5","peridotSupplierIndex(address,address)":"0aa4266f","peridotSupplyState(address)":"935dbd26","peridottrollerImplementation()":"18f1408d","seizeGuardianPaused()":"ac0b0bb7","transferGuardianPaused()":"87f76303"},"id":24}