{"abi":[{"type":"function","name":"accountAssets","inputs":[{"name":"","type":"address","internalType":"address"},{"name":"","type":"uint256","internalType":"uint256"}],"outputs":[{"name":"","type":"address","internalType":"contract PToken"}],"stateMutability":"view"},{"type":"function","name":"admin","inputs":[],"outputs":[{"name":"","type":"address","internalType":"address"}],"stateMutability":"view"},{"type":"function","name":"closeFactorMantissa","inputs":[],"outputs":[{"name":"","type":"uint256","internalType":"uint256"}],"stateMutability":"view"},{"type":"function","name":"liquidationIncentiveMantissa","inputs":[],"outputs":[{"name":"","type":"uint256","internalType":"uint256"}],"stateMutability":"view"},{"type":"function","name":"maxAssets","inputs":[],"outputs":[{"name":"","type":"uint256","internalType":"uint256"}],"stateMutability":"view"},{"type":"function","name":"oracle","inputs":[],"outputs":[{"name":"","type":"address","internalType":"contract PriceOracle"}],"stateMutability":"view"},{"type":"function","name":"pendingAdmin","inputs":[],"outputs":[{"name":"","type":"address","internalType":"address"}],"stateMutability":"view"},{"type":"function","name":"pendingPeridottrollerImplementation","inputs":[],"outputs":[{"name":"","type":"address","internalType":"address"}],"stateMutability":"view"},{"type":"function","name":"peridottrollerImplementation","inputs":[],"outputs":[{"name":"","type":"address","internalType":"address"}],"stateMutability":"view"}],"bytecode":{"object":"0x6080604052348015600e575f5ffd5b506101ea8061001c5f395ff3fe608060405234801561000f575f5ffd5b5060043610610090575f3560e01c80637dc0d1d0116100635780637dc0d1d01461010157806394b2294b14610114578063dce154491461011d578063e875544614610130578063f851a44014610139575f5ffd5b806318f1408d1461009457806326782247146100c45780634ada90af146100d75780637c8f3a67146100ee575b5f5ffd5b6002546100a7906001600160a01b031681565b6040516001600160a01b0390911681526020015b60405180910390f35b6001546100a7906001600160a01b031681565b6100e060065481565b6040519081526020016100bb565b6003546100a7906001600160a01b031681565b6004546100a7906001600160a01b031681565b6100e060075481565b6100a761012b36600461017f565b61014b565b6100e060055481565b5f546100a7906001600160a01b031681565b6008602052815f5260405f208181548110610164575f80fd5b5f918252602090912001546001600160a01b03169150829050565b5f5f60408385031215610190575f5ffd5b82356001600160a01b03811681146101a6575f5ffd5b94602093909301359350505056fea264697066735822122051e6bf5c18d69c0ecf93757db31f705ba69c06e7a605ac2c712012a7f43e82f764736f6c634300081b0033","linkReferences":{}},"methodIdentifiers":{"accountAssets(address,uint256)":"dce15449","admin()":"f851a440","closeFactorMantissa()":"e8755446","liquidationIncentiveMantissa()":"4ada90af","maxAssets()":"94b2294b","oracle()":"7dc0d1d0","pendingAdmin()":"26782247","pendingPeridottrollerImplementation()":"7c8f3a67","peridottrollerImplementation()":"18f1408d"},"id":24}