{"abi":[{"type":"function","name":"_borrowGuardianPaused","inputs":[],"outputs":[{"name":"","type":"bool","internalType":"bool"}],"stateMutability":"view"},{"type":"function","name":"_mintGuardianPaused","inputs":[],"outputs":[{"name":"","type":"bool","internalType":"bool"}],"stateMutability":"view"},{"type":"function","name":"accountAssets","inputs":[{"name":"","type":"address","internalType":"address"},{"name":"","type":"uint256","internalType":"uint256"}],"outputs":[{"name":"","type":"address","internalType":"contract PToken"}],"stateMutability":"view"},{"type":"function","name":"admin","inputs":[],"outputs":[{"name":"","type":"address","internalType":"address"}],"stateMutability":"view"},{"type":"function","name":"allMarkets","inputs":[{"name":"","type":"uint256","internalType":"uint256"}],"outputs":[{"name":"","type":"address","internalType":"contract PToken"}],"stateMutability":"view"},{"type":"function","name":"borrowCapGuardian","inputs":[],"outputs":[{"name":"","type":"address","internalType":"address"}],"stateMutability":"view"},{"type":"function","name":"borrowCaps","inputs":[{"name":"","type":"address","internalType":"address"}],"outputs":[{"name":"","type":"uint256","internalType":"uint256"}],"stateMutability":"view"},{"type":"function","name":"borrowGuardianPaused","inputs":[{"name":"","type":"address","internalType":"address"}],"outputs":[{"name":"","type":"bool","internalType":"bool"}],"stateMutability":"view"},{"type":"function","name":"closeFactorMantissa","inputs":[],"outputs":[{"name":"","type":"uint256","internalType":"uint256"}],"stateMutability":"view"},{"type":"function","name":"lastContributorBlock","inputs":[{"name":"","type":"address","internalType":"address"}],"outputs":[{"name":"","type":"uint256","internalType":"uint256"}],"stateMutability":"view"},{"type":"function","name":"liquidationIncentiveMantissa","inputs":[],"outputs":[{"name":"","type":"uint256","internalType":"uint256"}],"stateMutability":"view"},{"type":"function","name":"markets","inputs":[{"name":"","type":"address","internalType":"address"}],"outputs":[{"name":"isListed","type":"bool","internalType":"bool"},{"name":"collateralFactorMantissa","type":"uint256","internalType":"uint256"},{"name":"isPeridoted","type":"bool","internalType":"bool"}],"stateMutability":"view"},{"type":"function","name":"maxAssets","inputs":[],"outputs":[{"name":"","type":"uint256","internalType":"uint256"}],"stateMutability":"view"},{"type":"function","name":"mintGuardianPaused","inputs":[{"name":"","type":"address","internalType":"address"}],"outputs":[{"name":"","type":"bool","internalType":"bool"}],"stateMutability":"view"},{"type":"function","name":"oracle","inputs":[],"outputs":[{"name":"","type":"address","internalType":"contract PriceOracle"}],"stateMutability":"view"},{"type":"function","name":"pauseGuardian","inputs":[],"outputs":[{"name":"","type":"address","internalType":"address"}],"stateMutability":"view"},{"type":"function","name":"pendingAdmin","inputs":[],"outputs":[{"name":"","type":"address","internalType":"address"}],"stateMutability":"view"},{"type":"function","name":"pendingPeridottrollerImplementation","inputs":[],"outputs":[{"name":"","type":"address","internalType":"address"}],"stateMutability":"view"},{"type":"function","name":"peridotAccrued","inputs":[{"name":"","type":"address","internalType":"address"}],"outputs":[{"name":"","type":"uint256","internalType":"uint256"}],"stateMutability":"view"},{"type":"function","name":"peridotBorrowSpeeds","inputs":[{"name":"","type":"address","internalType":"address"}],"outputs":[{"name":"","type":"uint256","internalType":"uint256"}],"stateMutability":"view"},{"type":"function","name":"peridotBorrowState","inputs":[{"name":"","type":"address","internalType":"address"}],"outputs":[{"name":"index","type":"uint224","internalType":"uint224"},{"name":"block","type":"uint32","internalType":"uint32"}],"stateMutability":"view"},{"type":"function","name":"peridotBorrowerIndex","inputs":[{"name":"","type":"address","internalType":"address"},{"name":"","type":"address","internalType":"address"}],"outputs":[{"name":"","type":"uint256","internalType":"uint256"}],"stateMutability":"view"},{"type":"function","name":"peridotContributorSpeeds","inputs":[{"name":"","type":"address","internalType":"address"}],"outputs":[{"name":"","type":"uint256","internalType":"uint256"}],"stateMutability":"view"},{"type":"function","name":"peridotRate","inputs":[],"outputs":[{"name":"","type":"uint256","internalType":"uint256"}],"stateMutability":"view"},{"type":"function","name":"peridotReceivable","inputs":[{"name":"","type":"address","internalType":"address"}],"outputs":[{"name":"","type":"uint256","internalType":"uint256"}],"stateMutability":"view"},{"type":"function","name":"peridotSpeeds","inputs":[{"name":"","type":"address","internalType":"address"}],"outputs":[{"name":"","type":"uint256","internalType":"uint256"}],"stateMutability":"view"},{"type":"function","name":"peridotSupplierIndex","inputs":[{"name":"","type":"address","internalType":"address"},{"name":"","type":"address","internalType":"address"}],"outputs":[{"name":"","type":"uint256","internalType":"uint256"}],"stateMutability":"view"},{"type":"function","name":"peridotSupplySpeeds","inputs":[{"name":"","type":"address","internalType":"address"}],"outputs":[{"name":"","type":"uint256","internalType":"uint256"}],"stateMutability":"view"},{"type":"function","name":"peridotSupplyState","inputs":[{"name":"","type":"address","internalType":"address"}],"outputs":[{"name":"index","type":"uint224","internalType":"uint224"},{"name":"block","type":"uint32","internalType":"uint32"}],"stateMutability":"view"},{"type":"function","name":"peridottrollerImplementation","inputs":[],"outputs":[{"name":"","type":"address","internalType":"address"}],"stateMutability":"view"},{"type":"function","name":"proposal65FixExecuted","inputs":[],"outputs":[{"name":"","type":"bool","internalType":"bool"}],"stateMutability":"view"},{"type":"function","name":"seizeGuardianPaused","inputs":[],"outputs":[{"name":"","type":"bool","internalType":"bool"}],"stateMutability":"view"},{"type":"function","name":"transferGuardianPaused","inputs":[],"outputs":[{"name":"","type":"bool","internalType":"bool"}],"stateMutability":"view"}],"bytecode":{"object":"0x6080604052348015600e575f5ffd5b5061070d8061001c5f395ff3fe608060405234801561000f575f5ffd5b50600436106101f2575f3560e01c806387f7630311610114578063ce27c01e116100a9578063e6653f3d11610079578063e6653f3d14610575578063e875544614610589578063f00a7a9214610592578063f1ad57561461059f578063f851a440146105be575f5ffd5b8063ce27c01e1461051b578063d002d9891461053a578063d088864a14610559578063dce1544914610562575f5ffd5b8063a64db627116100e4578063a64db6271461049f578063ac0b0bb7146104c9578063bea6b8b8146104dd578063c6a01759146104fc575f5ffd5b806387f76303146103f95780638e8f294b1461040d578063935dbd261461045f57806394b2294b14610496575f5ffd5b80634a5844321161018a578063731f0c2b1161015a578063731f0c2b14610392578063794595f5146103b45780637c8f3a67146103d35780637dc0d1d0146103e6575f5ffd5b80634a584432146103355780634ada90af1461035457806352d84d1e1461035d5780636d154ea514610370575f5ffd5b806324a3d622116101c557806324a3d6221461029057806326782247146102a3578063328bb72b146102b65780633c94786f14610311575f5ffd5b80630938c63d146101f65780630aa4266f1461022857806318f1408d1461025257806321af45691461027d575b5f5ffd5b610215610204366004610647565b601a6020525f908152604090205481565b6040519081526020015b60405180910390f35b610215610236366004610667565b601260209081525f928352604080842090915290825290205481565b600254610265906001600160a01b031681565b6040516001600160a01b03909116815260200161021f565b601554610265906001600160a01b031681565b600a54610265906001600160a01b031681565b600154610265906001600160a01b031681565b6102ed6102c4366004610647565b60116020525f90815260409020546001600160e01b03811690600160e01b900463ffffffff1682565b604080516001600160e01b03909316835263ffffffff90911660208301520161021f565b600a5461032590600160a01b900460ff1681565b604051901515815260200161021f565b610215610343366004610647565b60166020525f908152604090205481565b61021560065481565b61026561036b366004610698565b6105d0565b61032561037e366004610647565b600c6020525f908152604090205460ff1681565b6103256103a0366004610647565b600b6020525f908152604090205460ff1681565b6102156103c2366004610647565b600f6020525f908152604090205481565b600354610265906001600160a01b031681565b600454610265906001600160a01b031681565b600a5461032590600160b01b900460ff1681565b61044061041b366004610647565b60096020525f908152604090208054600182015460039092015460ff91821692911683565b604080519315158452602084019290925215159082015260600161021f565b6102ed61046d366004610647565b60106020525f90815260409020546001600160e01b03811690600160e01b900463ffffffff1682565b61021560075481565b6102156104ad366004610667565b601360209081525f928352604080842090915290825290205481565b600a5461032590600160b81b900460ff1681565b6102156104eb366004610647565b60186020525f908152604090205481565b61021561050a366004610647565b60196020525f908152604090205481565b610215610529366004610647565b60176020525f908152604090205481565b610215610548366004610647565b60146020525f908152604090205481565b610215600e5481565b6102656105703660046106af565b6105f8565b600a5461032590600160a81b900460ff1681565b61021560055481565b601b546103259060ff1681565b6102156105ad366004610647565b601c6020525f908152604090205481565b5f54610265906001600160a01b031681565b600d81815481106105df575f80fd5b5f918252602090912001546001600160a01b0316905081565b6008602052815f5260405f208181548110610611575f80fd5b5f918252602090912001546001600160a01b03169150829050565b80356001600160a01b0381168114610642575f5ffd5b919050565b5f60208284031215610657575f5ffd5b6106608261062c565b9392505050565b5f5f60408385031215610678575f5ffd5b6106818361062c565b915061068f6020840161062c565b90509250929050565b5f602082840312156106a8575f5ffd5b5035919050565b5f5f604083850312156106c0575f5ffd5b6106c98361062c565b94602093909301359350505056fea26469706673582212200742babb8f09d4a499a62b5d3653294aead5beeac8bc168b27c64c1c6baa7b5564736f6c634300081b0033","linkReferences":{}},"methodIdentifiers":{"_borrowGuardianPaused()":"e6653f3d","_mintGuardianPaused()":"3c94786f","accountAssets(address,uint256)":"dce15449","admin()":"f851a440","allMarkets(uint256)":"52d84d1e","borrowCapGuardian()":"21af4569","borrowCaps(address)":"4a584432","borrowGuardianPaused(address)":"6d154ea5","closeFactorMantissa()":"e8755446","lastContributorBlock(address)":"bea6b8b8","liquidationIncentiveMantissa()":"4ada90af","markets(address)":"8e8f294b","maxAssets()":"94b2294b","mintGuardianPaused(address)":"731f0c2b","oracle()":"7dc0d1d0","pauseGuardian()":"24a3d622","pendingAdmin()":"26782247","pendingPeridottrollerImplementation()":"7c8f3a67","peridotAccrued(address)":"d002d989","peridotBorrowSpeeds(address)":"c6a01759","peridotBorrowState(address)":"328bb72b","peridotBorrowerIndex(address,address)":"a64db627","peridotContributorSpeeds(address)":"ce27c01e","peridotRate()":"d088864a","peridotReceivable(address)":"f1ad5756","peridotSpeeds(address)":"794595f5","peridotSupplierIndex(address,address)":"0aa4266f","peridotSupplySpeeds(address)":"0938c63d","peridotSupplyState(address)":"935dbd26","peridottrollerImplementation()":"18f1408d","proposal65FixExecuted()":"f00a7a92","seizeGuardianPaused()":"ac0b0bb7","transferGuardianPaused()":"87f76303"},"id":24}