{"abi":[{"type":"function","name":"_borrowGuardianPaused","inputs":[],"outputs":[{"name":"","type":"bool","internalType":"bool"}],"stateMutability":"view"},{"type":"function","name":"_mintGuardianPaused","inputs":[],"outputs":[{"name":"","type":"bool","internalType":"bool"}],"stateMutability":"view"},{"type":"function","name":"accountAssets","inputs":[{"name":"","type":"address","internalType":"address"},{"name":"","type":"uint256","internalType":"uint256"}],"outputs":[{"name":"","type":"address","internalType":"contract PToken"}],"stateMutability":"view"},{"type":"function","name":"admin","inputs":[],"outputs":[{"name":"","type":"address","internalType":"address"}],"stateMutability":"view"},{"type":"function","name":"allMarkets","inputs":[{"name":"","type":"uint256","internalType":"uint256"}],"outputs":[{"name":"","type":"address","internalType":"contract PToken"}],"stateMutability":"view"},{"type":"function","name":"borrowCapGuardian","inputs":[],"outputs":[{"name":"","type":"address","internalType":"address"}],"stateMutability":"view"},{"type":"function","name":"borrowCaps","inputs":[{"name":"","type":"address","internalType":"address"}],"outputs":[{"name":"","type":"uint256","internalType":"uint256"}],"stateMutability":"view"},{"type":"function","name":"borrowGuardianPaused","inputs":[{"name":"","type":"address","internalType":"address"}],"outputs":[{"name":"","type":"bool","internalType":"bool"}],"stateMutability":"view"},{"type":"function","name":"closeFactorMantissa","inputs":[],"outputs":[{"name":"","type":"uint256","internalType":"uint256"}],"stateMutability":"view"},{"type":"function","name":"lastContributorBlock","inputs":[{"name":"","type":"address","internalType":"address"}],"outputs":[{"name":"","type":"uint256","internalType":"uint256"}],"stateMutability":"view"},{"type":"function","name":"liquidationIncentiveMantissa","inputs":[],"outputs":[{"name":"","type":"uint256","internalType":"uint256"}],"stateMutability":"view"},{"type":"function","name":"markets","inputs":[{"name":"","type":"address","internalType":"address"}],"outputs":[{"name":"isListed","type":"bool","internalType":"bool"},{"name":"collateralFactorMantissa","type":"uint256","internalType":"uint256"},{"name":"isPeridoted","type":"bool","internalType":"bool"}],"stateMutability":"view"},{"type":"function","name":"maxAssets","inputs":[],"outputs":[{"name":"","type":"uint256","internalType":"uint256"}],"stateMutability":"view"},{"type":"function","name":"mintGuardianPaused","inputs":[{"name":"","type":"address","internalType":"address"}],"outputs":[{"name":"","type":"bool","internalType":"bool"}],"stateMutability":"view"},{"type":"function","name":"oracle","inputs":[],"outputs":[{"name":"","type":"address","internalType":"contract PriceOracle"}],"stateMutability":"view"},{"type":"function","name":"pauseGuardian","inputs":[],"outputs":[{"name":"","type":"address","internalType":"address"}],"stateMutability":"view"},{"type":"function","name":"pendingAdmin","inputs":[],"outputs":[{"name":"","type":"address","internalType":"address"}],"stateMutability":"view"},{"type":"function","name":"pendingPeridottrollerImplementation","inputs":[],"outputs":[{"name":"","type":"address","internalType":"address"}],"stateMutability":"view"},{"type":"function","name":"peridotAccrued","inputs":[{"name":"","type":"address","internalType":"address"}],"outputs":[{"name":"","type":"uint256","internalType":"uint256"}],"stateMutability":"view"},{"type":"function","name":"peridotBorrowState","inputs":[{"name":"","type":"address","internalType":"address"}],"outputs":[{"name":"index","type":"uint224","internalType":"uint224"},{"name":"block","type":"uint32","internalType":"uint32"}],"stateMutability":"view"},{"type":"function","name":"peridotBorrowerIndex","inputs":[{"name":"","type":"address","internalType":"address"},{"name":"","type":"address","internalType":"address"}],"outputs":[{"name":"","type":"uint256","internalType":"uint256"}],"stateMutability":"view"},{"type":"function","name":"peridotContributorSpeeds","inputs":[{"name":"","type":"address","internalType":"address"}],"outputs":[{"name":"","type":"uint256","internalType":"uint256"}],"stateMutability":"view"},{"type":"function","name":"peridotRate","inputs":[],"outputs":[{"name":"","type":"uint256","internalType":"uint256"}],"stateMutability":"view"},{"type":"function","name":"peridotSpeeds","inputs":[{"name":"","type":"address","internalType":"address"}],"outputs":[{"name":"","type":"uint256","internalType":"uint256"}],"stateMutability":"view"},{"type":"function","name":"peridotSupplierIndex","inputs":[{"name":"","type":"address","internalType":"address"},{"name":"","type":"address","internalType":"address"}],"outputs":[{"name":"","type":"uint256","internalType":"uint256"}],"stateMutability":"view"},{"type":"function","name":"peridotSupplyState","inputs":[{"name":"","type":"address","internalType":"address"}],"outputs":[{"name":"index","type":"uint224","internalType":"uint224"},{"name":"block","type":"uint32","internalType":"uint32"}],"stateMutability":"view"},{"type":"function","name":"peridottrollerImplementation","inputs":[],"outputs":[{"name":"","type":"address","internalType":"address"}],"stateMutability":"view"},{"type":"function","name":"seizeGuardianPaused","inputs":[],"outputs":[{"name":"","type":"bool","internalType":"bool"}],"stateMutability":"view"},{"type":"function","name":"transferGuardianPaused","inputs":[],"outputs":[{"name":"","type":"bool","internalType":"bool"}],"stateMutability":"view"}],"bytecode":{"object":"0x6080604052348015600e575f5ffd5b506106778061001c5f395ff3fe608060405234801561000f575f5ffd5b50600436106101c6575f3560e01c80637dc0d1d0116100fe578063bea6b8b81161009e578063dce154491161006e578063dce15449146104f8578063e6653f3d1461050b578063e87554461461051f578063f851a44014610528575f5ffd5b8063bea6b8b814610492578063ce27c01e146104b1578063d002d989146104d0578063d088864a146104ef575f5ffd5b8063935dbd26116100d9578063935dbd261461041457806394b2294b1461044b578063a64db62714610454578063ac0b0bb71461047e575f5ffd5b80637dc0d1d01461039b57806387f76303146103ae5780638e8f294b146103c2575f5ffd5b80634a584432116101695780636d154ea5116101445780636d154ea514610325578063731f0c2b14610347578063794595f5146103695780637c8f3a6714610388575f5ffd5b80634a584432146102ea5780634ada90af1461030957806352d84d1e14610312575f5ffd5b806324a3d622116101a457806324a3d622146102455780632678224714610258578063328bb72b1461026b5780633c94786f146102c6575f5ffd5b80630aa4266f146101ca57806318f1408d1461020757806321af456914610232575b5f5ffd5b6101f46101d83660046105b1565b601260209081525f928352604080842090915290825290205481565b6040519081526020015b60405180910390f35b60025461021a906001600160a01b031681565b6040516001600160a01b0390911681526020016101fe565b60155461021a906001600160a01b031681565b600a5461021a906001600160a01b031681565b60015461021a906001600160a01b031681565b6102a26102793660046105e2565b60116020525f90815260409020546001600160e01b03811690600160e01b900463ffffffff1682565b604080516001600160e01b03909316835263ffffffff9091166020830152016101fe565b600a546102da90600160a01b900460ff1681565b60405190151581526020016101fe565b6101f46102f83660046105e2565b60166020525f908152604090205481565b6101f460065481565b61021a610320366004610602565b61053a565b6102da6103333660046105e2565b600c6020525f908152604090205460ff1681565b6102da6103553660046105e2565b600b6020525f908152604090205460ff1681565b6101f46103773660046105e2565b600f6020525f908152604090205481565b60035461021a906001600160a01b031681565b60045461021a906001600160a01b031681565b600a546102da90600160b01b900460ff1681565b6103f56103d03660046105e2565b60096020525f908152604090208054600182015460039092015460ff91821692911683565b60408051931515845260208401929092521515908201526060016101fe565b6102a26104223660046105e2565b60106020525f90815260409020546001600160e01b03811690600160e01b900463ffffffff1682565b6101f460075481565b6101f46104623660046105b1565b601360209081525f928352604080842090915290825290205481565b600a546102da90600160b81b900460ff1681565b6101f46104a03660046105e2565b60186020525f908152604090205481565b6101f46104bf3660046105e2565b60176020525f908152604090205481565b6101f46104de3660046105e2565b60146020525f908152604090205481565b6101f4600e5481565b61021a610506366004610619565b610562565b600a546102da90600160a81b900460ff1681565b6101f460055481565b5f5461021a906001600160a01b031681565b600d8181548110610549575f80fd5b5f918252602090912001546001600160a01b0316905081565b6008602052815f5260405f20818154811061057b575f80fd5b5f918252602090912001546001600160a01b03169150829050565b80356001600160a01b03811681146105ac575f5ffd5b919050565b5f5f604083850312156105c2575f5ffd5b6105cb83610596565b91506105d960208401610596565b90509250929050565b5f602082840312156105f2575f5ffd5b6105fb82610596565b9392505050565b5f60208284031215610612575f5ffd5b5035919050565b5f5f6040838503121561062a575f5ffd5b61063383610596565b94602093909301359350505056fea2646970667358221220cf1bb4188293d24b02910e1eb5c549c7510ce7f9c3bfb2155a20bfcb54e9c02d64736f6c634300081b0033","linkReferences":{}},"methodIdentifiers":{"_borrowGuardianPaused()":"e6653f3d","_mintGuardianPaused()":"3c94786f","accountAssets(address,uint256)":"dce15449","admin()":"f851a440","allMarkets(uint256)":"52d84d1e","borrowCapGuardian()":"21af4569","borrowCaps(address)":"4a584432","borrowGuardianPaused(address)":"6d154ea5","closeFactorMantissa()":"e8755446","lastContributorBlock(address)":"bea6b8b8","liquidationIncentiveMantissa()":"4ada90af","markets(address)":"8e8f294b","maxAssets()":"94b2294b","mintGuardianPaused(address)":"731f0c2b","oracle()":"7dc0d1d0","pauseGuardian()":"24a3d622","pendingAdmin()":"26782247","pendingPeridottrollerImplementation()":"7c8f3a67","peridotAccrued(address)":"d002d989","peridotBorrowState(address)":"328bb72b","peridotBorrowerIndex(address,address)":"a64db627","peridotContributorSpeeds(address)":"ce27c01e","peridotRate()":"d088864a","peridotSpeeds(address)":"794595f5","peridotSupplierIndex(address,address)":"0aa4266f","peridotSupplyState(address)":"935dbd26","peridottrollerImplementation()":"18f1408d","seizeGuardianPaused()":"ac0b0bb7","transferGuardianPaused()":"87f76303"},"id":24}