{"abi":[{"type":"function","name":"_borrowGuardianPaused","inputs":[],"outputs":[{"name":"","type":"bool","internalType":"bool"}],"stateMutability":"view"},{"type":"function","name":"_mintGuardianPaused","inputs":[],"outputs":[{"name":"","type":"bool","internalType":"bool"}],"stateMutability":"view"},{"type":"function","name":"accountAssets","inputs":[{"name":"","type":"address","internalType":"address"},{"name":"","type":"uint256","internalType":"uint256"}],"outputs":[{"name":"","type":"address","internalType":"contract PToken"}],"stateMutability":"view"},{"type":"function","name":"admin","inputs":[],"outputs":[{"name":"","type":"address","internalType":"address"}],"stateMutability":"view"},{"type":"function","name":"allMarkets","inputs":[{"name":"","type":"uint256","internalType":"uint256"}],"outputs":[{"name":"","type":"address","internalType":"contract PToken"}],"stateMutability":"view"},{"type":"function","name":"borrowCapGuardian","inputs":[],"outputs":[{"name":"","type":"address","internalType":"address"}],"stateMutability":"view"},{"type":"function","name":"borrowCaps","inputs":[{"name":"","type":"address","internalType":"address"}],"outputs":[{"name":"","type":"uint256","internalType":"uint256"}],"stateMutability":"view"},{"type":"function","name":"borrowGuardianPaused","inputs":[{"name":"","type":"address","internalType":"address"}],"outputs":[{"name":"","type":"bool","internalType":"bool"}],"stateMutability":"view"},{"type":"function","name":"closeFactorMantissa","inputs":[],"outputs":[{"name":"","type":"uint256","internalType":"uint256"}],"stateMutability":"view"},{"type":"function","name":"lastContributorBlock","inputs":[{"name":"","type":"address","internalType":"address"}],"outputs":[{"name":"","type":"uint256","internalType":"uint256"}],"stateMutability":"view"},{"type":"function","name":"liquidationIncentiveMantissa","inputs":[],"outputs":[{"name":"","type":"uint256","internalType":"uint256"}],"stateMutability":"view"},{"type":"function","name":"markets","inputs":[{"name":"","type":"address","internalType":"address"}],"outputs":[{"name":"isListed","type":"bool","internalType":"bool"},{"name":"collateralFactorMantissa","type":"uint256","internalType":"uint256"},{"name":"isPeridoted","type":"bool","internalType":"bool"}],"stateMutability":"view"},{"type":"function","name":"maxAssets","inputs":[],"outputs":[{"name":"","type":"uint256","internalType":"uint256"}],"stateMutability":"view"},{"type":"function","name":"mintGuardianPaused","inputs":[{"name":"","type":"address","internalType":"address"}],"outputs":[{"name":"","type":"bool","internalType":"bool"}],"stateMutability":"view"},{"type":"function","name":"oracle","inputs":[],"outputs":[{"name":"","type":"address","internalType":"contract PriceOracle"}],"stateMutability":"view"},{"type":"function","name":"pauseGuardian","inputs":[],"outputs":[{"name":"","type":"address","internalType":"address"}],"stateMutability":"view"},{"type":"function","name":"pendingAdmin","inputs":[],"outputs":[{"name":"","type":"address","internalType":"address"}],"stateMutability":"view"},{"type":"function","name":"pendingPeridottrollerImplementation","inputs":[],"outputs":[{"name":"","type":"address","internalType":"address"}],"stateMutability":"view"},{"type":"function","name":"peridotAccrued","inputs":[{"name":"","type":"address","internalType":"address"}],"outputs":[{"name":"","type":"uint256","internalType":"uint256"}],"stateMutability":"view"},{"type":"function","name":"peridotBorrowSpeeds","inputs":[{"name":"","type":"address","internalType":"address"}],"outputs":[{"name":"","type":"uint256","internalType":"uint256"}],"stateMutability":"view"},{"type":"function","name":"peridotBorrowState","inputs":[{"name":"","type":"address","internalType":"address"}],"outputs":[{"name":"index","type":"uint224","internalType":"uint224"},{"name":"block","type":"uint32","internalType":"uint32"}],"stateMutability":"view"},{"type":"function","name":"peridotBorrowerIndex","inputs":[{"name":"","type":"address","internalType":"address"},{"name":"","type":"address","internalType":"address"}],"outputs":[{"name":"","type":"uint256","internalType":"uint256"}],"stateMutability":"view"},{"type":"function","name":"peridotContributorSpeeds","inputs":[{"name":"","type":"address","internalType":"address"}],"outputs":[{"name":"","type":"uint256","internalType":"uint256"}],"stateMutability":"view"},{"type":"function","name":"peridotRate","inputs":[],"outputs":[{"name":"","type":"uint256","internalType":"uint256"}],"stateMutability":"view"},{"type":"function","name":"peridotSpeeds","inputs":[{"name":"","type":"address","internalType":"address"}],"outputs":[{"name":"","type":"uint256","internalType":"uint256"}],"stateMutability":"view"},{"type":"function","name":"peridotSupplierIndex","inputs":[{"name":"","type":"address","internalType":"address"},{"name":"","type":"address","internalType":"address"}],"outputs":[{"name":"","type":"uint256","internalType":"uint256"}],"stateMutability":"view"},{"type":"function","name":"peridotSupplySpeeds","inputs":[{"name":"","type":"address","internalType":"address"}],"outputs":[{"name":"","type":"uint256","internalType":"uint256"}],"stateMutability":"view"},{"type":"function","name":"peridotSupplyState","inputs":[{"name":"","type":"address","internalType":"address"}],"outputs":[{"name":"index","type":"uint224","internalType":"uint224"},{"name":"block","type":"uint32","internalType":"uint32"}],"stateMutability":"view"},{"type":"function","name":"peridottrollerImplementation","inputs":[],"outputs":[{"name":"","type":"address","internalType":"address"}],"stateMutability":"view"},{"type":"function","name":"seizeGuardianPaused","inputs":[],"outputs":[{"name":"","type":"bool","internalType":"bool"}],"stateMutability":"view"},{"type":"function","name":"transferGuardianPaused","inputs":[],"outputs":[{"name":"","type":"bool","internalType":"bool"}],"stateMutability":"view"}],"bytecode":{"object":"0x6080604052348015600e575f5ffd5b506106cb8061001c5f395ff3fe608060405234801561000f575f5ffd5b50600436106101dc575f3560e01c80637dc0d1d011610109578063c6a017591161009e578063dce154491161006e578063dce154491461054c578063e6653f3d1461055f578063e875544614610573578063f851a4401461057c575f5ffd5b8063c6a01759146104e6578063ce27c01e14610505578063d002d98914610524578063d088864a14610543575f5ffd5b806394b2294b116100d957806394b2294b14610480578063a64db62714610489578063ac0b0bb7146104b3578063bea6b8b8146104c7575f5ffd5b80637dc0d1d0146103d057806387f76303146103e35780638e8f294b146103f7578063935dbd2614610449575f5ffd5b80633c94786f1161017f5780636d154ea51161014f5780636d154ea51461035a578063731f0c2b1461037c578063794595f51461039e5780637c8f3a67146103bd575f5ffd5b80633c94786f146102fb5780634a5844321461031f5780634ada90af1461033e57806352d84d1e14610347575f5ffd5b806321af4569116101ba57806321af45691461026757806324a3d6221461027a578063267822471461028d578063328bb72b146102a0575f5ffd5b80630938c63d146101e05780630aa4266f1461021257806318f1408d1461023c575b5f5ffd5b6101ff6101ee366004610605565b601a6020525f908152604090205481565b6040519081526020015b60405180910390f35b6101ff610220366004610625565b601260209081525f928352604080842090915290825290205481565b60025461024f906001600160a01b031681565b6040516001600160a01b039091168152602001610209565b60155461024f906001600160a01b031681565b600a5461024f906001600160a01b031681565b60015461024f906001600160a01b031681565b6102d76102ae366004610605565b60116020525f90815260409020546001600160e01b03811690600160e01b900463ffffffff1682565b604080516001600160e01b03909316835263ffffffff909116602083015201610209565b600a5461030f90600160a01b900460ff1681565b6040519015158152602001610209565b6101ff61032d366004610605565b60166020525f908152604090205481565b6101ff60065481565b61024f610355366004610656565b61058e565b61030f610368366004610605565b600c6020525f908152604090205460ff1681565b61030f61038a366004610605565b600b6020525f908152604090205460ff1681565b6101ff6103ac366004610605565b600f6020525f908152604090205481565b60035461024f906001600160a01b031681565b60045461024f906001600160a01b031681565b600a5461030f90600160b01b900460ff1681565b61042a610405366004610605565b60096020525f908152604090208054600182015460039092015460ff91821692911683565b6040805193151584526020840192909252151590820152606001610209565b6102d7610457366004610605565b60106020525f90815260409020546001600160e01b03811690600160e01b900463ffffffff1682565b6101ff60075481565b6101ff610497366004610625565b601360209081525f928352604080842090915290825290205481565b600a5461030f90600160b81b900460ff1681565b6101ff6104d5366004610605565b60186020525f908152604090205481565b6101ff6104f4366004610605565b60196020525f908152604090205481565b6101ff610513366004610605565b60176020525f908152604090205481565b6101ff610532366004610605565b60146020525f908152604090205481565b6101ff600e5481565b61024f61055a36600461066d565b6105b6565b600a5461030f90600160a81b900460ff1681565b6101ff60055481565b5f5461024f906001600160a01b031681565b600d818154811061059d575f80fd5b5f918252602090912001546001600160a01b0316905081565b6008602052815f5260405f2081815481106105cf575f80fd5b5f918252602090912001546001600160a01b03169150829050565b80356001600160a01b0381168114610600575f5ffd5b919050565b5f60208284031215610615575f5ffd5b61061e826105ea565b9392505050565b5f5f60408385031215610636575f5ffd5b61063f836105ea565b915061064d602084016105ea565b90509250929050565b5f60208284031215610666575f5ffd5b5035919050565b5f5f6040838503121561067e575f5ffd5b610687836105ea565b94602093909301359350505056fea2646970667358221220093aca8790cf88ae3ca30f102af8168d08ba7bf723deae2acb41637cadc9a9b464736f6c634300081b0033","linkReferences":{}},"methodIdentifiers":{"_borrowGuardianPaused()":"e6653f3d","_mintGuardianPaused()":"3c94786f","accountAssets(address,uint256)":"dce15449","admin()":"f851a440","allMarkets(uint256)":"52d84d1e","borrowCapGuardian()":"21af4569","borrowCaps(address)":"4a584432","borrowGuardianPaused(address)":"6d154ea5","closeFactorMantissa()":"e8755446","lastContributorBlock(address)":"bea6b8b8","liquidationIncentiveMantissa()":"4ada90af","markets(address)":"8e8f294b","maxAssets()":"94b2294b","mintGuardianPaused(address)":"731f0c2b","oracle()":"7dc0d1d0","pauseGuardian()":"24a3d622","pendingAdmin()":"26782247","pendingPeridottrollerImplementation()":"7c8f3a67","peridotAccrued(address)":"d002d989","peridotBorrowSpeeds(address)":"c6a01759","peridotBorrowState(address)":"328bb72b","peridotBorrowerIndex(address,address)":"a64db627","peridotContributorSpeeds(address)":"ce27c01e","peridotRate()":"d088864a","peridotSpeeds(address)":"794595f5","peridotSupplierIndex(address,address)":"0aa4266f","peridotSupplySpeeds(address)":"0938c63d","peridotSupplyState(address)":"935dbd26","peridottrollerImplementation()":"18f1408d","seizeGuardianPaused()":"ac0b0bb7","transferGuardianPaused()":"87f76303"},"id":24}