{"abi":[{"type":"function","name":"_borrowGuardianPaused","inputs":[],"outputs":[{"name":"","type":"bool","internalType":"bool"}],"stateMutability":"view"},{"type":"function","name":"_mintGuardianPaused","inputs":[],"outputs":[{"name":"","type":"bool","internalType":"bool"}],"stateMutability":"view"},{"type":"function","name":"accountAssets","inputs":[{"name":"","type":"address","internalType":"address"},{"name":"","type":"uint256","internalType":"uint256"}],"outputs":[{"name":"","type":"address","internalType":"contract PToken"}],"stateMutability":"view"},{"type":"function","name":"admin","inputs":[],"outputs":[{"name":"","type":"address","internalType":"address"}],"stateMutability":"view"},{"type":"function","name":"borrowGuardianPaused","inputs":[{"name":"","type":"address","internalType":"address"}],"outputs":[{"name":"","type":"bool","internalType":"bool"}],"stateMutability":"view"},{"type":"function","name":"closeFactorMantissa","inputs":[],"outputs":[{"name":"","type":"uint256","internalType":"uint256"}],"stateMutability":"view"},{"type":"function","name":"liquidationIncentiveMantissa","inputs":[],"outputs":[{"name":"","type":"uint256","internalType":"uint256"}],"stateMutability":"view"},{"type":"function","name":"markets","inputs":[{"name":"","type":"address","internalType":"address"}],"outputs":[{"name":"isListed","type":"bool","internalType":"bool"},{"name":"collateralFactorMantissa","type":"uint256","internalType":"uint256"},{"name":"isPeridoted","type":"bool","internalType":"bool"}],"stateMutability":"view"},{"type":"function","name":"maxAssets","inputs":[],"outputs":[{"name":"","type":"uint256","internalType":"uint256"}],"stateMutability":"view"},{"type":"function","name":"mintGuardianPaused","inputs":[{"name":"","type":"address","internalType":"address"}],"outputs":[{"name":"","type":"bool","internalType":"bool"}],"stateMutability":"view"},{"type":"function","name":"oracle","inputs":[],"outputs":[{"name":"","type":"address","internalType":"contract PriceOracle"}],"stateMutability":"view"},{"type":"function","name":"pauseGuardian","inputs":[],"outputs":[{"name":"","type":"address","internalType":"address"}],"stateMutability":"view"},{"type":"function","name":"pendingAdmin","inputs":[],"outputs":[{"name":"","type":"address","internalType":"address"}],"stateMutability":"view"},{"type":"function","name":"pendingPeridottrollerImplementation","inputs":[],"outputs":[{"name":"","type":"address","internalType":"address"}],"stateMutability":"view"},{"type":"function","name":"peridottrollerImplementation","inputs":[],"outputs":[{"name":"","type":"address","internalType":"address"}],"stateMutability":"view"},{"type":"function","name":"seizeGuardianPaused","inputs":[],"outputs":[{"name":"","type":"bool","internalType":"bool"}],"stateMutability":"view"},{"type":"function","name":"transferGuardianPaused","inputs":[],"outputs":[{"name":"","type":"bool","internalType":"bool"}],"stateMutability":"view"}],"bytecode":{"object":"0x6080604052348015600e575f5ffd5b506103978061001c5f395ff3fe608060405234801561000f575f5ffd5b5060043610610106575f3560e01c80637dc0d1d01161009e578063ac0b0bb71161006e578063ac0b0bb714610274578063dce1544914610288578063e6653f3d1461029b578063e8755446146102af578063f851a440146102b8575f5ffd5b80637dc0d1d0146101f257806387f76303146102055780638e8f294b1461021957806394b2294b1461026b575f5ffd5b80634ada90af116100d95780634ada90af146101845780636d154ea51461019b578063731f0c2b146101bd5780637c8f3a67146101df575f5ffd5b806318f1408d1461010a57806324a3d6221461013a578063267822471461014d5780633c94786f14610160575b5f5ffd5b60025461011d906001600160a01b031681565b6040516001600160a01b0390911681526020015b60405180910390f35b600a5461011d906001600160a01b031681565b60015461011d906001600160a01b031681565b600a5461017490600160a01b900460ff1681565b6040519015158152602001610131565b61018d60065481565b604051908152602001610131565b6101746101a9366004610319565b600c6020525f908152604090205460ff1681565b6101746101cb366004610319565b600b6020525f908152604090205460ff1681565b60035461011d906001600160a01b031681565b60045461011d906001600160a01b031681565b600a5461017490600160b01b900460ff1681565b61024c610227366004610319565b60096020525f908152604090208054600182015460039092015460ff91821692911683565b6040805193151584526020840192909252151590820152606001610131565b61018d60075481565b600a5461017490600160b81b900460ff1681565b61011d610296366004610339565b6102ca565b600a5461017490600160a81b900460ff1681565b61018d60055481565b5f5461011d906001600160a01b031681565b6008602052815f5260405f2081815481106102e3575f80fd5b5f918252602090912001546001600160a01b03169150829050565b80356001600160a01b0381168114610314575f5ffd5b919050565b5f60208284031215610329575f5ffd5b610332826102fe565b9392505050565b5f5f6040838503121561034a575f5ffd5b610353836102fe565b94602093909301359350505056fea26469706673582212209fd2c631ad6067fc19ae5a70bfa067366ab5328120a3c526a278ff483008feda64736f6c634300081b0033","linkReferences":{}},"methodIdentifiers":{"_borrowGuardianPaused()":"e6653f3d","_mintGuardianPaused()":"3c94786f","accountAssets(address,uint256)":"dce15449","admin()":"f851a440","borrowGuardianPaused(address)":"6d154ea5","closeFactorMantissa()":"e8755446","liquidationIncentiveMantissa()":"4ada90af","markets(address)":"8e8f294b","maxAssets()":"94b2294b","mintGuardianPaused(address)":"731f0c2b","oracle()":"7dc0d1d0","pauseGuardian()":"24a3d622","pendingAdmin()":"26782247","pendingPeridottrollerImplementation()":"7c8f3a67","peridottrollerImplementation()":"18f1408d","seizeGuardianPaused()":"ac0b0bb7","transferGuardianPaused()":"87f76303"},"id":24}