{"abi":[{"type":"function","name":"admin","inputs":[],"outputs":[{"name":"","type":"address","internalType":"address"}],"stateMutability":"view"},{"type":"function","name":"pendingAdmin","inputs":[],"outputs":[{"name":"","type":"address","internalType":"address"}],"stateMutability":"view"},{"type":"function","name":"pendingPeridottrollerImplementation","inputs":[],"outputs":[{"name":"","type":"address","internalType":"address"}],"stateMutability":"view"},{"type":"function","name":"peridottrollerImplementation","inputs":[],"outputs":[{"name":"","type":"address","internalType":"address"}],"stateMutability":"view"}],"bytecode":{"object":"0x6080604052348015600e575f5ffd5b5060e180601a5f395ff3fe6080604052348015600e575f5ffd5b50600436106044575f3560e01c806318f1408d146048578063267822471460765780637c8f3a67146088578063f851a44014609a575b5f5ffd5b600254605a906001600160a01b031681565b6040516001600160a01b03909116815260200160405180910390f35b600154605a906001600160a01b031681565b600354605a906001600160a01b031681565b5f54605a906001600160a01b03168156fea26469706673582212200bc5f83fd953a41a3f75b38d2812bad7c4d4cefbbf6283d2b83d73260e0002e064736f6c634300081b0033","linkReferences":{}},"methodIdentifiers":{"admin()":"f851a440","pendingAdmin()":"26782247","pendingPeridottrollerImplementation()":"7c8f3a67","peridottrollerImplementation()":"18f1408d"},"id":24}