{"abi":[{"type":"function","name":"NO_ERROR","inputs":[],"outputs":[{"name":"","type":"uint256","internalType":"uint256"}],"stateMutability":"view"},{"type":"function","name":"_acceptAdmin","inputs":[],"outputs":[{"name":"","type":"uint256","internalType":"uint256"}],"stateMutability":"nonpayable"},{"type":"function","name":"_addReserves","inputs":[{"name":"addAmount","type":"uint256","internalType":"uint256"}],"outputs":[{"name":"","type":"uint256","internalType":"uint256"}],"stateMutability":"nonpayable"},{"type":"function","name":"_delegatePeridotLikeTo","inputs":[{"name":"peridotLikeDelegatee","type":"address","internalType":"address"}],"outputs":[],"stateMutability":"nonpayable"},{"type":"function","name":"_reduceReserves","inputs":[{"name":"reduceAmount","type":"uint256","internalType":"uint256"}],"outputs":[{"name":"","type":"uint256","internalType":"uint256"}],"stateMutability":"nonpayable"},{"type":"function","name":"_setInterestRateModel","inputs":[{"name":"newInterestRateModel","type":"address","internalType":"contract InterestRateModel"}],"outputs":[{"name":"","type":"uint256","internalType":"uint256"}],"stateMutability":"nonpayable"},{"type":"function","name":"_setPendingAdmin","inputs":[{"name":"newPendingAdmin","type":"address","internalType":"address payable"}],"outputs":[{"name":"","type":"uint256","internalType":"uint256"}],"stateMutability":"nonpayable"},{"type":"function","name":"_setPeridottroller","inputs":[{"name":"newPeridottroller","type":"address","internalType":"contract PeridottrollerInterface"}],"outputs":[{"name":"","type":"uint256","internalType":"uint256"}],"stateMutability":"nonpayable"},{"type":"function","name":"_setReserveFactor","inputs":[{"name":"newReserveFactorMantissa","type":"uint256","internalType":"uint256"}],"outputs":[{"name":"","type":"uint256","internalType":"uint256"}],"stateMutability":"nonpayable"},{"type":"function","name":"accrualBlockNumber","inputs":[],"outputs":[{"name":"","type":"uint256","internalType":"uint256"}],"stateMutability":"view"},{"type":"function","name":"accrueInterest","inputs":[],"outputs":[{"name":"","type":"uint256","internalType":"uint256"}],"stateMutability":"nonpayable"},{"type":"function","name":"admin","inputs":[],"outputs":[{"name":"","type":"address","internalType":"address payable"}],"stateMutability":"view"},{"type":"function","name":"allowance","inputs":[{"name":"owner","type":"address","internalType":"address"},{"name":"spender","type":"address","internalType":"address"}],"outputs":[{"name":"","type":"uint256","internalType":"uint256"}],"stateMutability":"view"},{"type":"function","name":"approve","inputs":[{"name":"spender","type":"address","internalType":"address"},{"name":"amount","type":"uint256","internalType":"uint256"}],"outputs":[{"name":"","type":"bool","internalType":"bool"}],"stateMutability":"nonpayable"},{"type":"function","name":"balanceOf","inputs":[{"name":"owner","type":"address","internalType":"address"}],"outputs":[{"name":"","type":"uint256","internalType":"uint256"}],"stateMutability":"view"},{"type":"function","name":"balanceOfUnderlying","inputs":[{"name":"owner","type":"address","internalType":"address"}],"outputs":[{"name":"","type":"uint256","internalType":"uint256"}],"stateMutability":"nonpayable"},{"type":"function","name":"borrow","inputs":[{"name":"borrowAmount","type":"uint256","internalType":"uint256"}],"outputs":[{"name":"","type":"uint256","internalType":"uint256"}],"stateMutability":"nonpayable"},{"type":"function","name":"borrowBalanceCurrent","inputs":[{"name":"account","type":"address","internalType":"address"}],"outputs":[{"name":"","type":"uint256","internalType":"uint256"}],"stateMutability":"nonpayable"},{"type":"function","name":"borrowBalanceStored","inputs":[{"name":"account","type":"address","internalType":"address"}],"outputs":[{"name":"","type":"uint256","internalType":"uint256"}],"stateMutability":"view"},{"type":"function","name":"borrowIndex","inputs":[],"outputs":[{"name":"","type":"uint256","internalType":"uint256"}],"stateMutability":"view"},{"type":"function","name":"borrowRatePerBlock","inputs":[],"outputs":[{"name":"","type":"uint256","internalType":"uint256"}],"stateMutability":"view"},{"type":"function","name":"decimals","inputs":[],"outputs":[{"name":"","type":"uint8","internalType":"uint8"}],"stateMutability":"view"},{"type":"function","name":"exchangeRateCurrent","inputs":[],"outputs":[{"name":"","type":"uint256","internalType":"uint256"}],"stateMutability":"nonpayable"},{"type":"function","name":"exchangeRateStored","inputs":[],"outputs":[{"name":"","type":"uint256","internalType":"uint256"}],"stateMutability":"view"},{"type":"function","name":"getAccountSnapshot","inputs":[{"name":"account","type":"address","internalType":"address"}],"outputs":[{"name":"","type":"uint256","internalType":"uint256"},{"name":"","type":"uint256","internalType":"uint256"},{"name":"","type":"uint256","internalType":"uint256"},{"name":"","type":"uint256","internalType":"uint256"}],"stateMutability":"view"},{"type":"function","name":"getCash","inputs":[],"outputs":[{"name":"","type":"uint256","internalType":"uint256"}],"stateMutability":"view"},{"type":"function","name":"initialize","inputs":[{"name":"underlying_","type":"address","internalType":"address"},{"name":"peridottroller_","type":"address","internalType":"contract PeridottrollerInterface"},{"name":"interestRateModel_","type":"address","internalType":"contract InterestRateModel"},{"name":"initialExchangeRateMantissa_","type":"uint256","internalType":"uint256"},{"name":"name_","type":"string","internalType":"string"},{"name":"symbol_","type":"string","internalType":"string"},{"name":"decimals_","type":"uint8","internalType":"uint8"}],"outputs":[],"stateMutability":"nonpayable"},{"type":"function","name":"initialize","inputs":[{"name":"peridottroller_","type":"address","internalType":"contract PeridottrollerInterface"},{"name":"interestRateModel_","type":"address","internalType":"contract InterestRateModel"},{"name":"initialExchangeRateMantissa_","type":"uint256","internalType":"uint256"},{"name":"name_","type":"string","internalType":"string"},{"name":"symbol_","type":"string","internalType":"string"},{"name":"decimals_","type":"uint8","internalType":"uint8"}],"outputs":[],"stateMutability":"nonpayable"},{"type":"function","name":"interestRateModel","inputs":[],"outputs":[{"name":"","type":"address","internalType":"contract InterestRateModel"}],"stateMutability":"view"},{"type":"function","name":"isPToken","inputs":[],"outputs":[{"name":"","type":"bool","internalType":"bool"}],"stateMutability":"view"},{"type":"function","name":"liquidateBorrow","inputs":[{"name":"borrower","type":"address","internalType":"address"},{"name":"repayAmount","type":"uint256","internalType":"uint256"},{"name":"pTokenCollateral","type":"address","internalType":"contract PTokenInterface"}],"outputs":[{"name":"","type":"uint256","internalType":"uint256"}],"stateMutability":"nonpayable"},{"type":"function","name":"mint","inputs":[{"name":"mintAmount","type":"uint256","internalType":"uint256"}],"outputs":[{"name":"","type":"uint256","internalType":"uint256"}],"stateMutability":"nonpayable"},{"type":"function","name":"name","inputs":[],"outputs":[{"name":"","type":"string","internalType":"string"}],"stateMutability":"view"},{"type":"function","name":"pendingAdmin","inputs":[],"outputs":[{"name":"","type":"address","internalType":"address payable"}],"stateMutability":"view"},{"type":"function","name":"peridottroller","inputs":[],"outputs":[{"name":"","type":"address","internalType":"contract PeridottrollerInterface"}],"stateMutability":"view"},{"type":"function","name":"protocolSeizeShareMantissa","inputs":[],"outputs":[{"name":"","type":"uint256","internalType":"uint256"}],"stateMutability":"view"},{"type":"function","name":"redeem","inputs":[{"name":"redeemTokens","type":"uint256","internalType":"uint256"}],"outputs":[{"name":"","type":"uint256","internalType":"uint256"}],"stateMutability":"nonpayable"},{"type":"function","name":"redeemUnderlying","inputs":[{"name":"redeemAmount","type":"uint256","internalType":"uint256"}],"outputs":[{"name":"","type":"uint256","internalType":"uint256"}],"stateMutability":"nonpayable"},{"type":"function","name":"repayBorrow","inputs":[{"name":"repayAmount","type":"uint256","internalType":"uint256"}],"outputs":[{"name":"","type":"uint256","internalType":"uint256"}],"stateMutability":"nonpayable"},{"type":"function","name":"repayBorrowBehalf","inputs":[{"name":"borrower","type":"address","internalType":"address"},{"name":"repayAmount","type":"uint256","internalType":"uint256"}],"outputs":[{"name":"","type":"uint256","internalType":"uint256"}],"stateMutability":"nonpayable"},{"type":"function","name":"reserveFactorMantissa","inputs":[],"outputs":[{"name":"","type":"uint256","internalType":"uint256"}],"stateMutability":"view"},{"type":"function","name":"seize","inputs":[{"name":"liquidator","type":"address","internalType":"address"},{"name":"borrower","type":"address","internalType":"address"},{"name":"seizeTokens","type":"uint256","internalType":"uint256"}],"outputs":[{"name":"","type":"uint256","internalType":"uint256"}],"stateMutability":"nonpayable"},{"type":"function","name":"supplyRatePerBlock","inputs":[],"outputs":[{"name":"","type":"uint256","internalType":"uint256"}],"stateMutability":"view"},{"type":"function","name":"sweepToken","inputs":[{"name":"token","type":"address","internalType":"contract EIP20NonStandardInterface"}],"outputs":[],"stateMutability":"nonpayable"},{"type":"function","name":"symbol","inputs":[],"outputs":[{"name":"","type":"string","internalType":"string"}],"stateMutability":"view"},{"type":"function","name":"totalBorrows","inputs":[],"outputs":[{"name":"","type":"uint256","internalType":"uint256"}],"stateMutability":"view"},{"type":"function","name":"totalBorrowsCurrent","inputs":[],"outputs":[{"name":"","type":"uint256","internalType":"uint256"}],"stateMutability":"nonpayable"},{"type":"function","name":"totalReserves","inputs":[],"outputs":[{"name":"","type":"uint256","internalType":"uint256"}],"stateMutability":"view"},{"type":"function","name":"totalSupply","inputs":[],"outputs":[{"name":"","type":"uint256","internalType":"uint256"}],"stateMutability":"view"},{"type":"function","name":"transfer","inputs":[{"name":"dst","type":"address","internalType":"address"},{"name":"amount","type":"uint256","internalType":"uint256"}],"outputs":[{"name":"","type":"bool","internalType":"bool"}],"stateMutability":"nonpayable"},{"type":"function","name":"transferFrom","inputs":[{"name":"src","type":"address","internalType":"address"},{"name":"dst","type":"address","internalType":"address"},{"name":"amount","type":"uint256","internalType":"uint256"}],"outputs":[{"name":"","type":"bool","internalType":"bool"}],"stateMutability":"nonpayable"},{"type":"function","name":"underlying","inputs":[],"outputs":[{"name":"","type":"address","internalType":"address"}],"stateMutability":"view"},{"type":"event","name":"AccrueInterest","inputs":[{"name":"cashPrior","type":"uint256","indexed":false,"internalType":"uint256"},{"name":"interestAccumulated","type":"uint256","indexed":false,"internalType":"uint256"},{"name":"borrowIndex","type":"uint256","indexed":false,"internalType":"uint256"},{"name":"totalBorrows","type":"uint256","indexed":false,"internalType":"uint256"}],"anonymous":false},{"type":"event","name":"Approval","inputs":[{"name":"owner","type":"address","indexed":true,"internalType":"address"},{"name":"spender","type":"address","indexed":true,"internalType":"address"},{"name":"amount","type":"uint256","indexed":false,"internalType":"uint256"}],"anonymous":false},{"type":"event","name":"Borrow","inputs":[{"name":"borrower","type":"address","indexed":false,"internalType":"address"},{"name":"borrowAmount","type":"uint256","indexed":false,"internalType":"uint256"},{"name":"accountBorrows","type":"uint256","indexed":false,"internalType":"uint256"},{"name":"totalBorrows","type":"uint256","indexed":false,"internalType":"uint256"}],"anonymous":false},{"type":"event","name":"LiquidateBorrow","inputs":[{"name":"liquidator","type":"address","indexed":false,"internalType":"address"},{"name":"borrower","type":"address","indexed":false,"internalType":"address"},{"name":"repayAmount","type":"uint256","indexed":false,"internalType":"uint256"},{"name":"pTokenCollateral","type":"address","indexed":false,"internalType":"address"},{"name":"seizeTokens","type":"uint256","indexed":false,"internalType":"uint256"}],"anonymous":false},{"type":"event","name":"Mint","inputs":[{"name":"minter","type":"address","indexed":false,"internalType":"address"},{"name":"mintAmount","type":"uint256","indexed":false,"internalType":"uint256"},{"name":"mintTokens","type":"uint256","indexed":false,"internalType":"uint256"}],"anonymous":false},{"type":"event","name":"NewAdmin","inputs":[{"name":"oldAdmin","type":"address","indexed":false,"internalType":"address"},{"name":"newAdmin","type":"address","indexed":false,"internalType":"address"}],"anonymous":false},{"type":"event","name":"NewMarketInterestRateModel","inputs":[{"name":"oldInterestRateModel","type":"address","indexed":false,"internalType":"contract InterestRateModel"},{"name":"newInterestRateModel","type":"address","indexed":false,"internalType":"contract InterestRateModel"}],"anonymous":false},{"type":"event","name":"NewPendingAdmin","inputs":[{"name":"oldPendingAdmin","type":"address","indexed":false,"internalType":"address"},{"name":"newPendingAdmin","type":"address","indexed":false,"internalType":"address"}],"anonymous":false},{"type":"event","name":"NewPeridottroller","inputs":[{"name":"oldPeridottroller","type":"address","indexed":false,"internalType":"contract PeridottrollerInterface"},{"name":"newPeridottroller","type":"address","indexed":false,"internalType":"contract PeridottrollerInterface"}],"anonymous":false},{"type":"event","name":"NewReserveFactor","inputs":[{"name":"oldReserveFactorMantissa","type":"uint256","indexed":false,"internalType":"uint256"},{"name":"newReserveFactorMantissa","type":"uint256","indexed":false,"internalType":"uint256"}],"anonymous":false},{"type":"event","name":"Redeem","inputs":[{"name":"redeemer","type":"address","indexed":false,"internalType":"address"},{"name":"redeemAmount","type":"uint256","indexed":false,"internalType":"uint256"},{"name":"redeemTokens","type":"uint256","indexed":false,"internalType":"uint256"}],"anonymous":false},{"type":"event","name":"RepayBorrow","inputs":[{"name":"payer","type":"address","indexed":false,"internalType":"address"},{"name":"borrower","type":"address","indexed":false,"internalType":"address"},{"name":"repayAmount","type":"uint256","indexed":false,"internalType":"uint256"},{"name":"accountBorrows","type":"uint256","indexed":false,"internalType":"uint256"},{"name":"totalBorrows","type":"uint256","indexed":false,"internalType":"uint256"}],"anonymous":false},{"type":"event","name":"ReservesAdded","inputs":[{"name":"benefactor","type":"address","indexed":false,"internalType":"address"},{"name":"addAmount","type":"uint256","indexed":false,"internalType":"uint256"},{"name":"newTotalReserves","type":"uint256","indexed":false,"internalType":"uint256"}],"anonymous":false},{"type":"event","name":"ReservesReduced","inputs":[{"name":"admin","type":"address","indexed":false,"internalType":"address"},{"name":"reduceAmount","type":"uint256","indexed":false,"internalType":"uint256"},{"name":"newTotalReserves","type":"uint256","indexed":false,"internalType":"uint256"}],"anonymous":false},{"type":"event","name":"Transfer","inputs":[{"name":"from","type":"address","indexed":true,"internalType":"address"},{"name":"to","type":"address","indexed":true,"internalType":"address"},{"name":"amount","type":"uint256","indexed":false,"internalType":"uint256"}],"anonymous":false},{"type":"error","name":"AcceptAdminPendingAdminCheck","inputs":[]},{"type":"error","name":"AddReservesFactorFreshCheck","inputs":[{"name":"actualAddAmount","type":"uint256","internalType":"uint256"}]},{"type":"error","name":"BorrowCashNotAvailable","inputs":[]},{"type":"error","name":"BorrowFreshnessCheck","inputs":[]},{"type":"error","name":"BorrowPeridottrollerRejection","inputs":[{"name":"errorCode","type":"uint256","internalType":"uint256"}]},{"type":"error","name":"LiquidateAccrueBorrowInterestFailed","inputs":[{"name":"errorCode","type":"uint256","internalType":"uint256"}]},{"type":"error","name":"LiquidateAccrueCollateralInterestFailed","inputs":[{"name":"errorCode","type":"uint256","internalType":"uint256"}]},{"type":"error","name":"LiquidateCloseAmountIsUintMax","inputs":[]},{"type":"error","name":"LiquidateCloseAmountIsZero","inputs":[]},{"type":"error","name":"LiquidateCollateralFreshnessCheck","inputs":[]},{"type":"error","name":"LiquidateFreshnessCheck","inputs":[]},{"type":"error","name":"LiquidateLiquidatorIsBorrower","inputs":[]},{"type":"error","name":"LiquidatePeridottrollerRejection","inputs":[{"name":"errorCode","type":"uint256","internalType":"uint256"}]},{"type":"error","name":"LiquidateRepayBorrowFreshFailed","inputs":[{"name":"errorCode","type":"uint256","internalType":"uint256"}]},{"type":"error","name":"LiquidateSeizeLiquidatorIsBorrower","inputs":[]},{"type":"error","name":"LiquidateSeizePeridottrollerRejection","inputs":[{"name":"errorCode","type":"uint256","internalType":"uint256"}]},{"type":"error","name":"MintFreshnessCheck","inputs":[]},{"type":"error","name":"MintPeridottrollerRejection","inputs":[{"name":"errorCode","type":"uint256","internalType":"uint256"}]},{"type":"error","name":"RedeemFreshnessCheck","inputs":[]},{"type":"error","name":"RedeemPeridottrollerRejection","inputs":[{"name":"errorCode","type":"uint256","internalType":"uint256"}]},{"type":"error","name":"RedeemTransferOutNotPossible","inputs":[]},{"type":"error","name":"ReduceReservesAdminCheck","inputs":[]},{"type":"error","name":"ReduceReservesCashNotAvailable","inputs":[]},{"type":"error","name":"ReduceReservesCashValidation","inputs":[]},{"type":"error","name":"ReduceReservesFreshCheck","inputs":[]},{"type":"error","name":"RepayBorrowFreshnessCheck","inputs":[]},{"type":"error","name":"RepayBorrowPeridottrollerRejection","inputs":[{"name":"errorCode","type":"uint256","internalType":"uint256"}]},{"type":"error","name":"SetInterestRateModelFreshCheck","inputs":[]},{"type":"error","name":"SetInterestRateModelOwnerCheck","inputs":[]},{"type":"error","name":"SetPendingAdminOwnerCheck","inputs":[]},{"type":"error","name":"SetPeridottrollerOwnerCheck","inputs":[]},{"type":"error","name":"SetReserveFactorAdminCheck","inputs":[]},{"type":"error","name":"SetReserveFactorBoundsCheck","inputs":[]},{"type":"error","name":"SetReserveFactorFreshCheck","inputs":[]},{"type":"error","name":"TransferNotAllowed","inputs":[]},{"type":"error","name":"TransferNotEnough","inputs":[]},{"type":"error","name":"TransferPeridottrollerRejection","inputs":[{"name":"errorCode","type":"uint256","internalType":"uint256"}]},{"type":"error","name":"TransferTooMuch","inputs":[]}],"bytecode":{"object":"0x6080604052348015600e575f5ffd5b506138af8061001c5f395ff3fe608060405234801561000f575f5ffd5b50600436106102ff575f3560e01c80638f840ddd11610195578063c37f68e2116100e4578063e9c714f21161009e578063f5e3c46211610079578063f5e3c4621461068c578063f851a4401461069f578063f8f9da28146106b7578063fca7820b146106bf575f5ffd5b8063e9c714f21461065e578063f2b3abbd14610666578063f3fdb15a14610679575f5ffd5b8063c37f68e2146105a7578063c423fe29146105da578063c5ebeaec146105ed578063d5c6d3bd14610600578063db006a7514610613578063dd62ed3e14610626575f5ffd5b8063a6afed951161014f578063ae9d70b01161012a578063ae9d70b014610571578063b2a02ff114610579578063b71d1a0c1461058c578063bd6d894d1461059f575f5ffd5b8063a6afed951461054d578063a9059cbb14610555578063aa5af0fd14610568575f5ffd5b80638f840ddd146104f057806395d89b41146104f957806395dd91931461050157806399d8c1b414610514578063a0712d6814610527578063a252d8be1461053a575f5ffd5b80633af9e669116102515780636752e7021161020b5780636f307dc3116101e65780636f307dc31461049a57806370a08231146104ad57806373acee98146104d5578063852a12e3146104dd575f5ffd5b80636752e7021461047c57806369ab32501461048a5780636c540baf14610491575f5ffd5b80633af9e6691461042a5780633b1d21a21461043d5780633e9410101461044557806347bd3718146104585780635a890c0e14610461578063601a0bf114610469575f5ffd5b8063182df0f5116102bc57806323b872dd1161029757806323b872dd146103ba5780632608f818146103cd57806326782247146103e0578063313ce5671461040b575f5ffd5b8063182df0f51461038a5780631a31d465146103925780631be19560146103a7575f5ffd5b806306fdde0314610303578063095ea7b3146103215780630e75270214610344578063173b99041461036557806317bfdfbc1461036e57806318160ddd14610381575b5f5ffd5b61030b6106d2565b6040516103189190613287565b60405180910390f35b61033461032f3660046132d3565b61075e565b6040519015158152602001610318565b6103576103523660046132fd565b6107cd565b604051908152602001610318565b61035760085481565b61035761037c366004613314565b6107de565b610357600d5481565b610357610837565b6103a56103a03660046133e3565b610845565b005b6103a56103b5366004613314565b6108d8565b6103346103c8366004613497565b610a9c565b6103576103db3660046132d3565b610ae9565b6004546103f3906001600160a01b031681565b6040516001600160a01b039091168152602001610318565b6003546104189060ff1681565b60405160ff9091168152602001610318565b610357610438366004613314565b610afc565b610357610b40565b6103576104533660046132fd565b610b49565b610357600b5481565b610334600181565b6103576104773660046132fd565b610b53565b610357666379da05b6000081565b6103575f81565b61035760095481565b6011546103f3906001600160a01b031681565b6103576104bb366004613314565b6001600160a01b03165f908152600e602052604090205490565b610357610b90565b6103576104eb3660046132fd565b610bd7565b610357600c5481565b61030b610be1565b61035761050f366004613314565b610bee565b6103a56105223660046134d5565b610bf8565b6103576105353660046132fd565b610e43565b6103a5610548366004613314565b610e4d565b610357610f22565b6103346105633660046132d3565b611102565b610357600a5481565b61035761114e565b610357610587366004613497565b6111e3565b61035761059a366004613314565b61122f565b6103576112c7565b6105ba6105b5366004613314565b611314565b604080519485526020850193909352918301526060820152608001610318565b6005546103f3906001600160a01b031681565b6103576105fb3660046132fd565b611354565b61035761060e366004613314565b61135e565b6103576106213660046132fd565b6114a2565b610357610634366004613576565b6001600160a01b039182165f908152600f6020908152604080832093909416825291909152205490565b6103576114ac565b610357610674366004613314565b6115b1565b6006546103f3906001600160a01b031681565b61035761069a3660046135ad565b6115c4565b6003546103f39061010090046001600160a01b031681565b6103576115d9565b6103576106cd3660046132fd565b61162b565b600180546106df906135ec565b80601f016020809104026020016040519081016040528092919081815260200182805461070b906135ec565b80156107565780601f1061072d57610100808354040283529160200191610756565b820191905f5260205f20905b81548152906001019060200180831161073957829003601f168201915b505050505081565b335f818152600f602090815260408083206001600160a01b03871680855292528083208590555191929182907f8c5be1e5ebec7d5bd14f71427d1e84f3dd0314c0f7b2291e5b200ac8c7c3b925906107b99087815260200190565b60405180910390a360019150505b92915050565b5f6107d782611668565b505f919050565b5f805460ff166108095760405162461bcd60e51b815260040161080090613624565b60405180910390fd5b5f805460ff1916905561081a610f22565b5061082482610bee565b90505f805460ff19166001179055919050565b5f6108406116b6565b905090565b610853868686868686610bf8565b601180546001600160a01b0319166001600160a01b038916908117909155604080516318160ddd60e01b815290516318160ddd916004808201926020929091908290030181865afa1580156108aa573d5f5f3e3d5ffd5b505050506040513d601f19601f820116820180604052508101906108ce9190613648565b5050505050505050565b60035461010090046001600160a01b0316331461094f5760405162461bcd60e51b815260206004820152602f60248201527f5045726332303a3a7377656570546f6b656e3a206f6e6c792061646d696e206360448201526e616e20737765657020746f6b656e7360881b6064820152608401610800565b6011546001600160a01b03908116908216036109c85760405162461bcd60e51b815260206004820152603260248201527f5045726332303a3a7377656570546f6b656e3a2063616e206e6f74207377656560448201527138103ab73232b9363cb4b733903a37b5b2b760711b6064820152608401610800565b6040516370a0823160e01b81523060048201525f906001600160a01b038316906370a0823190602401602060405180830381865afa158015610a0c573d5f5f3e3d5ffd5b505050506040513d601f19601f82011682018060405250810190610a309190613648565b60035460405163a9059cbb60e01b81526001600160a01b03610100909204821660048201526024810183905291925083169063a9059cbb906044015f604051808303815f87803b158015610a82575f5ffd5b505af1158015610a94573d5f5f3e3d5ffd5b505050505050565b5f805460ff16610abe5760405162461bcd60e51b815260040161080090613624565b5f805460ff19168155610ad33386868661171a565b1490505f805460ff191660011790559392505050565b5f610af48383611931565b505f92915050565b5f5f6040518060200160405280610b116112c7565b90526001600160a01b0384165f908152600e6020526040902054909150610b39908290611980565b9392505050565b5f61084061199f565b5f6107c782611a11565b5f805460ff16610b755760405162461bcd60e51b815260040161080090613624565b5f805460ff19169055610b86610f22565b5061082482611a64565b5f805460ff16610bb25760405162461bcd60e51b815260040161080090613624565b5f805460ff19169055610bc3610f22565b5050600b545f805460ff1916600117905590565b5f6107d782611b7e565b600280546106df906135ec565b5f6107c782611bcb565b60035461010090046001600160a01b03163314610c635760405162461bcd60e51b8152602060048201526024808201527f6f6e6c792061646d696e206d617920696e697469616c697a6520746865206d616044820152631c9ad95d60e21b6064820152608401610800565b600954158015610c735750600a54155b610ccb5760405162461bcd60e51b815260206004820152602360248201527f6d61726b6574206d6179206f6e6c7920626520696e697469616c697a6564206f6044820152626e636560e81b6064820152608401610800565b600784905583610d365760405162461bcd60e51b815260206004820152603060248201527f696e697469616c2065786368616e67652072617465206d75737420626520677260448201526f32b0ba32b9103a3430b7103d32b9379760811b6064820152608401610800565b5f610d408761135e565b90508015610d905760405162461bcd60e51b815260206004820152601d60248201527f73657474696e672070657269646f7474726f6c6c6572206661696c65640000006044820152606401610800565b43600955670de0b6b3a7640000600a55610da986611c14565b90508015610e045760405162461bcd60e51b815260206004820152602260248201527f73657474696e6720696e7465726573742072617465206d6f64656c206661696c604482015261195960f21b6064820152608401610800565b6001610e1085826136a8565b506002610e1d84826136a8565b50506003805460ff90921660ff199283161790555f805490911660011790555050505050565b5f6107d782611d85565b60035461010090046001600160a01b03163314610ec55760405162461bcd60e51b815260206004820152603060248201527f6f6e6c79207468652061646d696e206d6179207365742074686520706572696460448201526f6f742d6c696b652064656c656761746560801b6064820152608401610800565b6011546040516317066a5760e21b81526001600160a01b03838116600483015290911690635c19a95c906024015f604051808303815f87803b158015610f09575f5ffd5b505af1158015610f1b573d5f5f3e3d5ffd5b5050505050565b6009545f904390818103610f38575f9250505090565b5f610f4161199f565b600b54600c54600a546006546040516315f2405360e01b81526004810186905260248101859052604481018490529495509293919290915f916001600160a01b0316906315f2405390606401602060405180830381865afa158015610fa8573d5f5f3e3d5ffd5b505050506040513d601f19601f82011682018060405250810190610fcc9190613648565b905065048c273950008111156110245760405162461bcd60e51b815260206004820152601c60248201527f626f72726f772072617465206973206162737572646c792068696768000000006044820152606401610800565b5f61102f8789613777565b90505f61104a60405180602001604052808581525083611dc2565b90505f6110578288611980565b90505f611064888361378a565b90505f6110826040518060200160405280600854815250848a611df1565b90505f61109085898a611df1565b60098e9055600a819055600b849055600c839055604080518d815260208101879052908101829052606081018590529091507f4dec04e750ca11537cabcd8a9eab06494de08da3735bc8871cd41250e190bc049060800160405180910390a15f9d505050505050505050505050505090565b5f805460ff166111245760405162461bcd60e51b815260040161080090613624565b5f805460ff191681556111393380868661171a565b1490505f805460ff1916600117905592915050565b6006545f906001600160a01b031663b816881661116961199f565b600b54600c546008546040516001600160e01b031960e087901b16815260048101949094526024840192909252604483015260648201526084015b602060405180830381865afa1580156111bf573d5f5f3e3d5ffd5b505050506040513d601f19601f820116820180604052508101906108409190613648565b5f805460ff166112055760405162461bcd60e51b815260040161080090613624565b5f805460ff1916905561121a33858585611e11565b505f5f805460ff191660011790559392505050565b6003545f9061010090046001600160a01b0316331461126157604051635cb56c2b60e01b815260040160405180910390fd5b600480546001600160a01b038481166001600160a01b031983168117909355604080519190921680825260208201939093527fca4f2f25d0898edd99413412fb94012f9e54ec8142f9b093e7720646a95b16a991015b60405180910390a1505f92915050565b5f805460ff166112e95760405162461bcd60e51b815260040161080090613624565b5f805460ff191690556112fa610f22565b50611303610837565b90505f805460ff1916600117905590565b6001600160a01b0381165f908152600e6020526040812054819081908190819061133d87611bcb565b6113456116b6565b93509350935093509193509193565b5f6107d78261207b565b6003545f9061010090046001600160a01b0316331461139057604051634c2fa00360e01b815260040160405180910390fd5b6005546040805163fa707af960e01b815290516001600160a01b039283169285169163fa707af99160048083019260209291908290030181865afa1580156113da573d5f5f3e3d5ffd5b505050506040513d601f19601f820116820180604052508101906113fe919061379d565b61144a5760405162461bcd60e51b815260206004820152601c60248201527f6d61726b6572206d6574686f642072657475726e65642066616c7365000000006044820152606401610800565b600580546001600160a01b0319166001600160a01b0385811691821790925560408051928416835260208301919091527ff911792cf103798503b6dab0992e023d45661865683c550a919b8c9ad07dbf7f91016112b7565b5f6107d7826120b8565b6004545f906001600160a01b0316331415806114c6575033155b156114e457604051631ba24f2960e21b815260040160405180910390fd5b60038054600480546001600160a01b03808216610100818102610100600160a81b0319871617968790556001600160a01b031990931690935560408051948390048216808652929095041660208401529290917ff9ffabca9c8276e99321725bcb43fb076a6c66a54b7f21c4e8146d8519b417dc910160405180910390a1600454604080516001600160a01b03808516825290921660208301527fca4f2f25d0898edd99413412fb94012f9e54ec8142f9b093e7720646a95b16a9910160405180910390a15f9250505090565b5f6115ba610f22565b506107c782611c14565b5f6115d08484846120f6565b505f9392505050565b6006545f906001600160a01b03166315f240536115f461199f565b600b54600c546040516001600160e01b031960e086901b1681526004810193909352602483019190915260448201526064016111a4565b5f805460ff1661164d5760405162461bcd60e51b815260040161080090613624565b5f805460ff1916905561165e610f22565b50610824826121cd565b5f5460ff166116895760405162461bcd60e51b815260040161080090613624565b5f805460ff1916905561169a610f22565b506116a6333383612288565b50505f805460ff19166001179055565b600d545f908082036116ca57505060075490565b5f6116d361199f565b90505f600c54600b54836116e7919061378a565b6116f19190613777565b90505f83611707670de0b6b3a7640000846137bc565b61171191906137d3565b95945050505050565b6005546040516317b9b84b60e31b81523060048201526001600160a01b0385811660248301528481166044830152606482018490525f92839291169063bdcdc258906084016020604051808303815f875af115801561177b573d5f5f3e3d5ffd5b505050506040513d601f19601f8201168201806040525081019061179f9190613648565b905080156117c357604051630c93cb5b60e01b815260048101829052602401610800565b836001600160a01b0316856001600160a01b0316036117f557604051638cd22d1960e01b815260040160405180910390fd5b5f6001600160a01b038087169088160361181157505f19611838565b506001600160a01b038086165f908152600f60209081526040808320938a16835292905220545b5f6118438583613777565b6001600160a01b0388165f908152600e60205260408120549192509061186a908790613777565b6001600160a01b0388165f908152600e60205260408120549192509061189190889061378a565b6001600160a01b03808b165f908152600e6020526040808220869055918b1681522081905590505f1984146118e8576001600160a01b03808a165f908152600f60209081526040808320938e168352929052208390555b876001600160a01b0316896001600160a01b03165f51602061385a5f395f51905f528960405161191a91815260200190565b60405180910390a3505f9998505050505050505050565b5f5460ff166119525760405162461bcd60e51b815260040161080090613624565b5f805460ff19169055611963610f22565b5061196f338383612288565b50505f805460ff1916600117905550565b5f5f61198c8484611dc2565b905061199781612426565b949350505050565b6011546040516370a0823160e01b81523060048201525f916001600160a01b03169081906370a0823190602401602060405180830381865afa1580156119e7573d5f5f3e3d5ffd5b505050506040513d601f19601f82011682018060405250810190611a0b9190613648565b91505090565b5f805460ff16611a335760405162461bcd60e51b815260040161080090613624565b5f805460ff19169055611a44610f22565b50611a4e8261243d565b50505f90505f805460ff19166001179055919050565b6003545f90819061010090046001600160a01b03163314611a9857604051630f7e5e6d60e41b815260040160405180910390fd5b4360095414611aba57604051630dff50cb60e41b815260040160405180910390fd5b82611ac361199f565b1015611ae257604051633345e99960e01b815260040160405180910390fd5b600c54831115611b05576040516378d2980560e11b815260040160405180910390fd5b82600c54611b139190613777565b600c819055600354909150611b369061010090046001600160a01b0316846124cf565b7f3bad0c59cf2f06e7314077049f48a93578cd16f5ef92329f1dab1420a99c177e600360019054906101000a90046001600160a01b031684836040516112b7939291906137f2565b5f5460ff16611b9f5760405162461bcd60e51b815260040161080090613624565b5f805460ff19169055611bb0610f22565b50611bbc335f836125ae565b505f805460ff19166001179055565b6001600160a01b0381165f90815260106020526040812080548203611bf257505f92915050565b600a5481545f91611c02916137bc565b905081600101548161199791906137d3565b6003545f90819061010090046001600160a01b03163314611c485760405163407fded560e01b815260040160405180910390fd5b4360095414611c6a57604051630be2a5cb60e11b815260040160405180910390fd5b60065f9054906101000a90046001600160a01b03169050826001600160a01b0316632191f92a6040518163ffffffff1660e01b8152600401602060405180830381865afa158015611cbd573d5f5f3e3d5ffd5b505050506040513d601f19601f82011682018060405250810190611ce1919061379d565b611d2d5760405162461bcd60e51b815260206004820152601c60248201527f6d61726b6572206d6574686f642072657475726e65642066616c7365000000006044820152606401610800565b600680546001600160a01b0319166001600160a01b0385811691821790925560408051928416835260208301919091527fedffc32e068c7c95dfd4bdfd5c4d939a084d6b11c4199eac8436ed234d72f92691016112b7565b5f5460ff16611da65760405162461bcd60e51b815260040161080090613624565b5f805460ff19169055611db7610f22565b50611bbc338261287d565b60408051602081019091525f81526040518060200160405280611de8855f015185612a29565b90529392505050565b5f5f611dfd8585611dc2565b9050611711611e0b82612426565b84612a34565b60055460405163d02f735160e01b81523060048201526001600160a01b03868116602483015285811660448301528481166064830152608482018490525f92169063d02f73519060a4016020604051808303815f875af1158015611e77573d5f5f3e3d5ffd5b505050506040513d601f19601f82011682018060405250810190611e9b9190613648565b90508015611ebf576040516305a647b960e31b815260048101829052602401610800565b836001600160a01b0316836001600160a01b031603611ef157604051633a94626760e11b815260040160405180910390fd5b5f611f11836040518060200160405280666379da05b60000815250612a3f565b90505f611f1e8285613777565b90505f6040518060200160405280611f346116b6565b905290505f611f438285611980565b90505f81600c54611f54919061378a565b600c819055600d54909150611f6a908690613777565b600d556001600160a01b0388165f908152600e6020526040902054611f90908890613777565b6001600160a01b03808a165f908152600e602052604080822093909355908b1681522054611fbf90859061378a565b6001600160a01b03808b165f818152600e602052604090819020939093559151908a16905f51602061385a5f395f51905f5290611fff9088815260200190565b60405180910390a360405185815230906001600160a01b038a16905f51602061385a5f395f51905f529060200160405180910390a37fa91e67c5ea634cd43a12c5a482724b03de01e85ca68702a53d0c2f45cb7c1dc5308383604051612067939291906137f2565b60405180910390a150505050505050505050565b5f5460ff1661209c5760405162461bcd60e51b815260040161080090613624565b5f805460ff191690556120ad610f22565b50611bbc3382612a60565b5f5460ff166120d95760405162461bcd60e51b815260040161080090613624565b5f805460ff191690556120ea610f22565b50611bbc33825f6125ae565b5f5460ff166121175760405162461bcd60e51b815260040161080090613624565b5f805460ff19169055612128610f22565b505f816001600160a01b031663a6afed956040518163ffffffff1660e01b81526004016020604051808303815f875af1158015612167573d5f5f3e3d5ffd5b505050506040513d601f19601f8201168201806040525081019061218b9190613648565b905080156121af57604051633eea49b760e11b815260048101829052602401610800565b6121bb33858585612bf7565b50505f805460ff191660011790555050565b6003545f9061010090046001600160a01b031633146121ff57604051631205b57b60e11b815260040160405180910390fd5b436009541461222157604051637dfca6b760e11b815260040160405180910390fd5b670de0b6b3a764000082111561224a5760405163717220f360e11b815260040160405180910390fd5b600880549083905560408051828152602081018590527faaa68312e2ea9d50e16af5068410ab56e1a1fd06037b1a35664812c30f82146091016112b7565b600554604051631200453160e11b81523060048201526001600160a01b0385811660248301528481166044830152606482018490525f9283929116906324008a62906084016020604051808303815f875af11580156122e9573d5f5f3e3d5ffd5b505050506040513d601f19601f8201168201806040525081019061230d9190613648565b90508015612331576040516335a6a70b60e21b815260048101829052602401610800565b43600954146123535760405163c9021e2f60e01b815260040160405180910390fd5b5f61235d85611bcb565b90505f5f19851461236e5784612370565b815b90505f61237d888361309e565b90505f61238a8285613777565b90505f82600b5461239b9190613777565b6001600160a01b038a81165f81815260106020908152604091829020878155600a54600190910155600b8590558151938f168452830191909152810185905260608101849052608081018290529091507f1a2a22cb034d26d1854bdc6666a5b91fe25efbbb5dcad3b0355478d6f5c362a19060a00160405180910390a1509098975050505050505050565b80515f906107c790670de0b6b3a7640000906137d3565b5f8080804360095414612466576040516338acf79960e01b815260048101829052602401610800565b612470338661309e565b905080600c54612480919061378a565b915081600c819055507fa91e67c5ea634cd43a12c5a482724b03de01e85ca68702a53d0c2f45cb7c1dc53382846040516124bc939291906137f2565b60405180910390a15f9590945092505050565b60115460405163a9059cbb60e01b81526001600160a01b0384811660048301526024820184905290911690819063a9059cbb906044015f604051808303815f87803b15801561251c575f5ffd5b505af115801561252e573d5f5f3e3d5ffd5b505050505f3d5f81146125475760208114612550575f5ffd5b5f19915061255a565b60205f5f3e5f5191505b50806125a85760405162461bcd60e51b815260206004820152601960248201527f544f4b454e5f5452414e534645525f4f55545f4641494c4544000000000000006044820152606401610800565b50505050565b8115806125b9575080155b6126225760405162461bcd60e51b815260206004820152603460248201527f6f6e65206f662072656465656d546f6b656e73496e206f722072656465656d416044820152736d6f756e74496e206d757374206265207a65726f60601b6064820152608401610800565b5f60405180602001604052806126366116b6565b905290505f8084156126565784915061264f8386611980565b9050612666565b6126608484613264565b91508390505b60055460405163eabe7d9160e01b81525f916001600160a01b03169063eabe7d919061269a9030908b908890600401613813565b6020604051808303815f875af11580156126b6573d5f5f3e3d5ffd5b505050506040513d601f19601f820116820180604052508101906126da9190613648565b905080156126fe57604051635bd5f7ab60e11b815260048101829052602401610800565b4360095414612720576040516397b5cfcd60e01b815260040160405180910390fd5b8161272961199f565b1015612748576040516391240a1b60e01b815260040160405180910390fd5b82600d546127569190613777565b600d556001600160a01b0387165f908152600e602052604090205461277c908490613777565b6001600160a01b0388165f908152600e602052604090205561279e87836124cf565b60405183815230906001600160a01b038916905f51602061385a5f395f51905f529060200160405180910390a37fe5b754fb1abb7f01b499791d0b820ae3b6af3424ac1c59768edb53f4ec31a9298783856040516127fe939291906137f2565b60405180910390a16005546040516351dff98960e01b81523060048201526001600160a01b0389811660248301526044820185905260648201869052909116906351dff989906084015f604051808303815f87803b15801561285e575f5ffd5b505af1158015612870573d5f5f3e3d5ffd5b5050505050505050505050565b600554604051634ef4c3e160e01b81525f916001600160a01b031690634ef4c3e1906128b190309087908790600401613813565b6020604051808303815f875af11580156128cd573d5f5f3e3d5ffd5b505050506040513d601f19601f820116820180604052508101906128f19190613648565b90508015612915576040516303171a8760e61b815260048101829052602401610800565b4360095414612937576040516338d8859760e01b815260040160405180910390fd5b5f604051806020016040528061294b6116b6565b905290505f61295a858561309e565b90505f6129678284613264565b905080600d54612977919061378a565b600d556001600160a01b0386165f908152600e602052604090205461299d90829061378a565b6001600160a01b0387165f908152600e60205260409081902091909155517f4c209b5fc8ad50758f13e2e1088ba56a560dff690a1c6fef26394f4c03821c4f906129ec908890859085906137f2565b60405180910390a16040518181526001600160a01b0387169030905f51602061385a5f395f51905f529060200160405180910390a3505050505050565b5f610b3982846137bc565b5f610b39828461378a565b5f670de0b6b3a7640000612a5684845f0151612a29565b610b3991906137d3565b60055460405163368f515360e21b81525f916001600160a01b03169063da3d454c90612a9490309087908790600401613813565b6020604051808303815f875af1158015612ab0573d5f5f3e3d5ffd5b505050506040513d601f19601f82011682018060405250810190612ad49190613648565b90508015612af857604051635684deff60e11b815260048101829052602401610800565b4360095414612b1a57604051630e8d8c6160e21b815260040160405180910390fd5b81612b2361199f565b1015612b42576040516348c2588160e01b815260040160405180910390fd5b5f612b4c84611bcb565b90505f612b59848361378a565b90505f84600b54612b6a919061378a565b6001600160a01b0387165f908152601060205260409020838155600a54600190910155600b8190559050612b9e86866124cf565b604080516001600160a01b038816815260208101879052908101839052606081018290527f13ed6866d4e1ee6da46f845c46d7e54120883d75c5ea9a2dacc1c4ca8984ab809060800160405180910390a1505050505050565b600554604051632fe3f38f60e11b81523060048201526001600160a01b03838116602483015286811660448301528581166064830152608482018590525f921690635fc7e71e9060a4016020604051808303815f875af1158015612c5d573d5f5f3e3d5ffd5b505050506040513d601f19601f82011682018060405250810190612c819190613648565b90508015612ca557604051632d33e4f360e21b815260048101829052602401610800565b4360095414612cc7576040516380965b1b60e01b815260040160405180910390fd5b43826001600160a01b0316636c540baf6040518163ffffffff1660e01b8152600401602060405180830381865afa158015612d04573d5f5f3e3d5ffd5b505050506040513d601f19601f82011682018060405250810190612d289190613648565b14612d4657604051631046f38d60e31b815260040160405180910390fd5b846001600160a01b0316846001600160a01b031603612d7857604051631bd1a62160e21b815260040160405180910390fd5b825f03612d985760405163d29da7ef60e01b815260040160405180910390fd5b5f198303612db957604051635982c5bb60e11b815260040160405180910390fd5b5f612dc5868686612288565b60055460405163c488847b60e01b81529192505f9182916001600160a01b03169063c488847b90612dfe90309089908890600401613813565b6040805180830381865afa158015612e18573d5f5f3e3d5ffd5b505050506040513d601f19601f82011682018060405250810190612e3c9190613837565b915091505f8214612eab5760405162461bcd60e51b815260206004820152603360248201527f4c49515549444154455f434f4d5054524f4c4c45525f43414c43554c4154455f604482015272105353d5539517d4d152569157d19052531151606a1b6064820152608401610800565b6040516370a0823160e01b81526001600160a01b0388811660048301528291908716906370a0823190602401602060405180830381865afa158015612ef2573d5f5f3e3d5ffd5b505050506040513d601f19601f82011682018060405250810190612f169190613648565b1015612f645760405162461bcd60e51b815260206004820152601860248201527f4c49515549444154455f5345495a455f544f4f5f4d55434800000000000000006044820152606401610800565b306001600160a01b03861603612f8557612f8030898984611e11565b61303b565b60405163b2a02ff160e01b81525f906001600160a01b0387169063b2a02ff190612fb7908c908c908790600401613813565b6020604051808303815f875af1158015612fd3573d5f5f3e3d5ffd5b505050506040513d601f19601f82011682018060405250810190612ff79190613648565b1461303b5760405162461bcd60e51b81526020600482015260146024820152731d1bdad95b881cd95a5e9d5c994819985a5b195960621b6044820152606401610800565b604080516001600160a01b038a811682528981166020830152818301869052871660608201526080810183905290517f298637f684da70674f26509b10f07ec2fbc77a335ab1e7d6215a4b2484d8bb529181900360a00190a15050505050505050565b6011546040516370a0823160e01b81523060048201525f916001600160a01b0316908190839082906370a0823190602401602060405180830381865afa1580156130ea573d5f5f3e3d5ffd5b505050506040513d601f19601f8201168201806040525081019061310e9190613648565b6040516323b872dd60e01b81529091506001600160a01b038316906323b872dd9061314190899030908a90600401613813565b5f604051808303815f87803b158015613158575f5ffd5b505af115801561316a573d5f5f3e3d5ffd5b505050505f3d5f8114613183576020811461318c575f5ffd5b5f199150613196565b60205f5f3e5f5191505b50806131e45760405162461bcd60e51b815260206004820152601860248201527f544f4b454e5f5452414e534645525f494e5f4641494c454400000000000000006044820152606401610800565b6040516370a0823160e01b81523060048201525f906001600160a01b038616906370a0823190602401602060405180830381865afa158015613228573d5f5f3e3d5ffd5b505050506040513d601f19601f8201168201806040525081019061324c9190613648565b90506132588382613777565b98975050505050505050565b5f610b3961327a84670de0b6b3a7640000612a29565b83515f610b3982846137d3565b602081525f82518060208401528060208501604085015e5f604082850101526040601f19601f83011684010191505092915050565b6001600160a01b03811681146132d0575f5ffd5b50565b5f5f604083850312156132e4575f5ffd5b82356132ef816132bc565b946020939093013593505050565b5f6020828403121561330d575f5ffd5b5035919050565b5f60208284031215613324575f5ffd5b8135610b39816132bc565b634e487b7160e01b5f52604160045260245ffd5b5f82601f830112613352575f5ffd5b813567ffffffffffffffff81111561336c5761336c61332f565b604051601f8201601f19908116603f0116810167ffffffffffffffff8111828210171561339b5761339b61332f565b6040528181528382016020018510156133b2575f5ffd5b816020850160208301375f918101602001919091529392505050565b803560ff811681146133de575f5ffd5b919050565b5f5f5f5f5f5f5f60e0888a0312156133f9575f5ffd5b8735613404816132bc565b96506020880135613414816132bc565b95506040880135613424816132bc565b945060608801359350608088013567ffffffffffffffff811115613446575f5ffd5b6134528a828b01613343565b93505060a088013567ffffffffffffffff81111561346e575f5ffd5b61347a8a828b01613343565b92505061348960c089016133ce565b905092959891949750929550565b5f5f5f606084860312156134a9575f5ffd5b83356134b4816132bc565b925060208401356134c4816132bc565b929592945050506040919091013590565b5f5f5f5f5f5f60c087890312156134ea575f5ffd5b86356134f5816132bc565b95506020870135613505816132bc565b945060408701359350606087013567ffffffffffffffff811115613527575f5ffd5b61353389828a01613343565b935050608087013567ffffffffffffffff81111561354f575f5ffd5b61355b89828a01613343565b92505061356a60a088016133ce565b90509295509295509295565b5f5f60408385031215613587575f5ffd5b8235613592816132bc565b915060208301356135a2816132bc565b809150509250929050565b5f5f5f606084860312156135bf575f5ffd5b83356135ca816132bc565b92506020840135915060408401356135e1816132bc565b809150509250925092565b600181811c9082168061360057607f821691505b60208210810361361e57634e487b7160e01b5f52602260045260245ffd5b50919050565b6020808252600a90820152691c994b595b9d195c995960b21b604082015260600190565b5f60208284031215613658575f5ffd5b5051919050565b601f8211156136a357805f5260205f20601f840160051c810160208510156136845750805b601f840160051c820191505b81811015610f1b575f8155600101613690565b505050565b815167ffffffffffffffff8111156136c2576136c261332f565b6136d6816136d084546135ec565b8461365f565b6020601f821160018114613708575f83156136f15750848201515b5f19600385901b1c1916600184901b178455610f1b565b5f84815260208120601f198516915b828110156137375787850151825560209485019460019092019101613717565b508482101561375457868401515f19600387901b60f8161c191681555b50505050600190811b01905550565b634e487b7160e01b5f52601160045260245ffd5b818103818111156107c7576107c7613763565b808201808211156107c7576107c7613763565b5f602082840312156137ad575f5ffd5b81518015158114610b39575f5ffd5b80820281158282048414176107c7576107c7613763565b5f826137ed57634e487b7160e01b5f52601260045260245ffd5b500490565b6001600160a01b039390931683526020830191909152604082015260600190565b6001600160a01b039384168152919092166020820152604081019190915260600190565b5f5f60408385031215613848575f5ffd5b50508051602090910151909290915056feddf252ad1be2c89b69c2b068fc378daa952ba7f163c4a11628f55a4df523b3efa2646970667358221220476803ea4115a0c64ca0339e0dcb90b1998457c087a7d7b09f6d4a8fdb0323d364736f6c634300081b0033","linkReferences":{}},"methodIdentifiers":{"NO_ERROR()":"69ab3250","_acceptAdmin()":"e9c714f2","_addReserves(uint256)":"3e941010","_delegatePeridotLikeTo(address)":"a252d8be","_reduceReserves(uint256)":"601a0bf1","_setInterestRateModel(address)":"f2b3abbd","_setPendingAdmin(address)":"b71d1a0c","_setPeridottroller(address)":"d5c6d3bd","_setReserveFactor(uint256)":"fca7820b","accrualBlockNumber()":"6c540baf","accrueInterest()":"a6afed95","admin()":"f851a440","allowance(address,address)":"dd62ed3e","approve(address,uint256)":"095ea7b3","balanceOf(address)":"70a08231","balanceOfUnderlying(address)":"3af9e669","borrow(uint256)":"c5ebeaec","borrowBalanceCurrent(address)":"17bfdfbc","borrowBalanceStored(address)":"95dd9193","borrowIndex()":"aa5af0fd","borrowRatePerBlock()":"f8f9da28","decimals()":"313ce567","exchangeRateCurrent()":"bd6d894d","exchangeRateStored()":"182df0f5","getAccountSnapshot(address)":"c37f68e2","getCash()":"3b1d21a2","initialize(address,address,address,uint256,string,string,uint8)":"1a31d465","initialize(address,address,uint256,string,string,uint8)":"99d8c1b4","interestRateModel()":"f3fdb15a","isPToken()":"5a890c0e","liquidateBorrow(address,uint256,address)":"f5e3c462","mint(uint256)":"a0712d68","name()":"06fdde03","pendingAdmin()":"26782247","peridottroller()":"c423fe29","protocolSeizeShareMantissa()":"6752e702","redeem(uint256)":"db006a75","redeemUnderlying(uint256)":"852a12e3","repayBorrow(uint256)":"0e752702","repayBorrowBehalf(address,uint256)":"2608f818","reserveFactorMantissa()":"173b9904","seize(address,address,uint256)":"b2a02ff1","supplyRatePerBlock()":"ae9d70b0","sweepToken(address)":"1be19560","symbol()":"95d89b41","totalBorrows()":"47bd3718","totalBorrowsCurrent()":"73acee98","totalReserves()":"8f840ddd","totalSupply()":"18160ddd","transfer(address,uint256)":"a9059cbb","transferFrom(address,address,uint256)":"23b872dd","underlying()":"6f307dc3"},"id":14}