{"abi":[{"type":"constructor","inputs":[{"name":"name_","type":"string","internalType":"string"},{"name":"symbol_","type":"string","internalType":"string"}],"stateMutability":"nonpayable"},{"type":"function","name":"INITIAL_SUPPLY","inputs":[],"outputs":[{"name":"","type":"uint256","internalType":"uint256"}],"stateMutability":"view"},{"type":"function","name":"allowance","inputs":[{"name":"owner","type":"address","internalType":"address"},{"name":"spender","type":"address","internalType":"address"}],"outputs":[{"name":"","type":"uint256","internalType":"uint256"}],"stateMutability":"view"},{"type":"function","name":"approve","inputs":[{"name":"spender","type":"address","internalType":"address"},{"name":"value","type":"uint256","internalType":"uint256"}],"outputs":[{"name":"","type":"bool","internalType":"bool"}],"stateMutability":"nonpayable"},{"type":"function","name":"balanceOf","inputs":[{"name":"account","type":"address","internalType":"address"}],"outputs":[{"name":"","type":"uint256","internalType":"uint256"}],"stateMutability":"view"},{"type":"function","name":"burn","inputs":[{"name":"amount","type":"uint256","internalType":"uint256"}],"outputs":[],"stateMutability":"nonpayable"},{"type":"function","name":"burnFrom","inputs":[{"name":"account","type":"address","internalType":"address"},{"name":"value","type":"uint256","internalType":"uint256"}],"outputs":[],"stateMutability":"nonpayable"},{"type":"function","name":"decimals","inputs":[],"outputs":[{"name":"","type":"uint8","internalType":"uint8"}],"stateMutability":"view"},{"type":"function","name":"mint","inputs":[{"name":"account","type":"address","internalType":"address"},{"name":"amount","type":"uint256","internalType":"uint256"}],"outputs":[],"stateMutability":"nonpayable"},{"type":"function","name":"minter","inputs":[],"outputs":[{"name":"","type":"address","internalType":"address"}],"stateMutability":"view"},{"type":"function","name":"name","inputs":[],"outputs":[{"name":"","type":"string","internalType":"string"}],"stateMutability":"view"},{"type":"function","name":"setMinter","inputs":[{"name":"newMinter","type":"address","internalType":"address"}],"outputs":[],"stateMutability":"nonpayable"},{"type":"function","name":"symbol","inputs":[],"outputs":[{"name":"","type":"string","internalType":"string"}],"stateMutability":"view"},{"type":"function","name":"totalSupply","inputs":[],"outputs":[{"name":"","type":"uint256","internalType":"uint256"}],"stateMutability":"view"},{"type":"function","name":"transfer","inputs":[{"name":"to","type":"address","internalType":"address"},{"name":"value","type":"uint256","internalType":"uint256"}],"outputs":[{"name":"","type":"bool","internalType":"bool"}],"stateMutability":"nonpayable"},{"type":"function","name":"transferFrom","inputs":[{"name":"from","type":"address","internalType":"address"},{"name":"to","type":"address","internalType":"address"},{"name":"value","type":"uint256","internalType":"uint256"}],"outputs":[{"name":"","type":"bool","internalType":"bool"}],"stateMutability":"nonpayable"},{"type":"event","name":"Approval","inputs":[{"name":"owner","type":"address","indexed":true,"internalType":"address"},{"name":"spender","type":"address","indexed":true,"internalType":"address"},{"name":"value","type":"uint256","indexed":false,"internalType":"uint256"}],"anonymous":false},{"type":"event","name":"NewMinter","inputs":[{"name":"previousMinter","type":"address","indexed":false,"internalType":"address"},{"name":"newMinter","type":"address","indexed":false,"internalType":"address"}],"anonymous":false},{"type":"event","name":"Transfer","inputs":[{"name":"from","type":"address","indexed":true,"internalType":"address"},{"name":"to","type":"address","indexed":true,"internalType":"address"},{"name":"value","type":"uint256","indexed":false,"internalType":"uint256"}],"anonymous":false},{"type":"error","name":"CallerNotMinter","inputs":[{"name":"caller","type":"address","internalType":"address"}]},{"type":"error","name":"ERC20InsufficientAllowance","inputs":[{"name":"spender","type":"address","internalType":"address"},{"name":"allowance","type":"uint256","internalType":"uint256"},{"name":"needed","type":"uint256","internalType":"uint256"}]},{"type":"error","name":"ERC20InsufficientBalance","inputs":[{"name":"sender","type":"address","internalType":"address"},{"name":"balance","type":"uint256","internalType":"uint256"},{"name":"needed","type":"uint256","internalType":"uint256"}]},{"type":"error","name":"ERC20InvalidApprover","inputs":[{"name":"approver","type":"address","internalType":"address"}]},{"type":"error","name":"ERC20InvalidReceiver","inputs":[{"name":"receiver","type":"address","internalType":"address"}]},{"type":"error","name":"ERC20InvalidSender","inputs":[{"name":"sender","type":"address","internalType":"address"}]},{"type":"error","name":"ERC20InvalidSpender","inputs":[{"name":"spender","type":"address","internalType":"address"}]},{"type":"error","name":"InsufficientBalance","inputs":[{"name":"balance","type":"uint256","internalType":"uint256"},{"name":"amount","type":"uint256","internalType":"uint256"}]},{"type":"error","name":"InvalidMinterZeroAddress","inputs":[]}],"bytecode":{"object":"0x60806040526a084595161401484a00000060065534801561001e575f5ffd5b50604051610e4d380380610e4d83398101604081905261003d916102ee565b8181600361004b83826103d7565b50600461005882826103d7565b5033915081905061007c576040516304a208c760e01b815260040160405180910390fd5b600580546001600160a01b0319166001600160a01b038316908117909155604080515f815260208101929092527f0b5e7be615a67a819aff3f47c967d1535cead1b98db60fafdcbf22dcaa8fa5a9910160405180910390a16100e6336006546100ee60201b60201c565b5050506104b6565b6001600160a01b03821661011c5760405163ec442f0560e01b81525f60048201526024015b60405180910390fd5b6101275f838361012b565b5050565b6001600160a01b038316610155578060025f82825461014a9190610491565b909155506101c59050565b6001600160a01b0383165f90815260208190526040902054818110156101a75760405163391434e360e21b81526001600160a01b03851660048201526024810182905260448101839052606401610113565b6001600160a01b0384165f9081526020819052604090209082900390555b6001600160a01b0382166101e1576002805482900390556101ff565b6001600160a01b0382165f9081526020819052604090208054820190555b816001600160a01b0316836001600160a01b03167fddf252ad1be2c89b69c2b068fc378daa952ba7f163c4a11628f55a4df523b3ef8360405161024491815260200190565b60405180910390a3505050565b634e487b7160e01b5f52604160045260245ffd5b5f82601f830112610274575f5ffd5b81516001600160401b0381111561028d5761028d610251565b604051601f8201601f19908116603f011681016001600160401b03811182821017156102bb576102bb610251565b6040528181528382016020018510156102d2575f5ffd5b8160208501602083015e5f918101602001919091529392505050565b5f5f604083850312156102ff575f5ffd5b82516001600160401b03811115610314575f5ffd5b61032085828601610265565b602085015190935090506001600160401b0381111561033d575f5ffd5b61034985828601610265565b9150509250929050565b600181811c9082168061036757607f821691505b60208210810361038557634e487b7160e01b5f52602260045260245ffd5b50919050565b601f8211156103d257805f5260205f20601f840160051c810160208510156103b05750805b601f840160051c820191505b818110156103cf575f81556001016103bc565b50505b505050565b81516001600160401b038111156103f0576103f0610251565b610404816103fe8454610353565b8461038b565b6020601f821160018114610436575f831561041f5750848201515b5f19600385901b1c1916600184901b1784556103cf565b5f84815260208120601f198516915b828110156104655787850151825560209485019460019092019101610445565b508482101561048257868401515f19600387901b60f8161c191681555b50505050600190811b01905550565b808201808211156104b057634e487b7160e01b5f52601160045260245ffd5b92915050565b61098a806104c35f395ff3fe608060405234801561000f575f5ffd5b50600436106100f0575f3560e01c806340c10f191161009357806395d89b411161006357806395d89b41146101f0578063a9059cbb146101f8578063dd62ed3e1461020b578063fca3b5aa14610243575f5ffd5b806340c10f191461018d57806342966c68146101a257806370a08231146101b557806379cc6790146101dd575f5ffd5b806318160ddd116100ce57806318160ddd1461015057806323b872dd146101625780632ff2e9dc14610175578063313ce5671461017e575f5ffd5b806306fdde03146100f45780630754617214610112578063095ea7b31461012d575b5f5ffd5b6100fc610256565b60405161010991906107e3565b60405180910390f35b6005546040516001600160a01b039091168152602001610109565b61014061013b366004610833565b6102e6565b6040519015158152602001610109565b6002545b604051908152602001610109565b61014061017036600461085b565b6102ff565b61015460065481565b60405160128152602001610109565b6101a061019b366004610833565b610322565b005b6101a06101b0366004610895565b610362565b6101546101c33660046108ac565b6001600160a01b03165f9081526020819052604090205490565b6101a06101eb366004610833565b6103a5565b6100fc6103ba565b610140610206366004610833565b6103c9565b6101546102193660046108cc565b6001600160a01b039182165f90815260016020908152604080832093909416825291909152205490565b6101a06102513660046108ac565b6103d6565b606060038054610265906108fd565b80601f0160208091040260200160405190810160405280929190818152602001828054610291906108fd565b80156102dc5780601f106102b3576101008083540402835291602001916102dc565b820191905f5260205f20905b8154815290600101906020018083116102bf57829003601f168201915b5050505050905090565b5f336102f381858561048b565b60019150505b92915050565b5f3361030c85828561049d565b610317858585610519565b506001949350505050565b6005546001600160a01b0316331461035457604051632fdab94f60e11b81523360048201526024015b60405180910390fd5b61035e8282610576565b5050565b335f908152602081905260409020548181101561039c5760405163cf47918160e01b8152600481018290526024810183905260440161034b565b61035e826105aa565b6103b082338361049d565b61035e82826105b7565b606060048054610265906108fd565b5f336102f3818585610519565b6005546001600160a01b0316331461040357604051632fdab94f60e11b815233600482015260240161034b565b6001600160a01b03811661042a576040516304a208c760e01b815260040160405180910390fd5b600580546001600160a01b038381166001600160a01b031983168117909355604080519190921680825260208201939093527f0b5e7be615a67a819aff3f47c967d1535cead1b98db60fafdcbf22dcaa8fa5a9910160405180910390a15050565b61049883838360016105eb565b505050565b6001600160a01b038381165f908152600160209081526040808320938616835292905220545f19811015610513578181101561050557604051637dc7a0d960e11b81526001600160a01b0384166004820152602481018290526044810183905260640161034b565b61051384848484035f6105eb565b50505050565b6001600160a01b03831661054257604051634b637e8f60e11b81525f600482015260240161034b565b6001600160a01b03821661056b5760405163ec442f0560e01b81525f600482015260240161034b565b6104988383836106bd565b6001600160a01b03821661059f5760405163ec442f0560e01b81525f600482015260240161034b565b61035e5f83836106bd565b6105b433826105b7565b50565b6001600160a01b0382166105e057604051634b637e8f60e11b81525f600482015260240161034b565b61035e825f836106bd565b6001600160a01b0384166106145760405163e602df0560e01b81525f600482015260240161034b565b6001600160a01b03831661063d57604051634a1406b160e11b81525f600482015260240161034b565b6001600160a01b038085165f908152600160209081526040808320938716835292905220829055801561051357826001600160a01b0316846001600160a01b03167f8c5be1e5ebec7d5bd14f71427d1e84f3dd0314c0f7b2291e5b200ac8c7c3b925846040516106af91815260200190565b60405180910390a350505050565b6001600160a01b0383166106e7578060025f8282546106dc9190610935565b909155506107579050565b6001600160a01b0383165f90815260208190526040902054818110156107395760405163391434e360e21b81526001600160a01b0385166004820152602481018290526044810183905260640161034b565b6001600160a01b0384165f9081526020819052604090209082900390555b6001600160a01b03821661077357600280548290039055610791565b6001600160a01b0382165f9081526020819052604090208054820190555b816001600160a01b0316836001600160a01b03167fddf252ad1be2c89b69c2b068fc378daa952ba7f163c4a11628f55a4df523b3ef836040516107d691815260200190565b60405180910390a3505050565b602081525f82518060208401528060208501604085015e5f604082850101526040601f19601f83011684010191505092915050565b80356001600160a01b038116811461082e575f5ffd5b919050565b5f5f60408385031215610844575f5ffd5b61084d83610818565b946020939093013593505050565b5f5f5f6060848603121561086d575f5ffd5b61087684610818565b925061088460208501610818565b929592945050506040919091013590565b5f602082840312156108a5575f5ffd5b5035919050565b5f602082840312156108bc575f5ffd5b6108c582610818565b9392505050565b5f5f604083850312156108dd575f5ffd5b6108e683610818565b91506108f460208401610818565b90509250929050565b600181811c9082168061091157607f821691505b60208210810361092f57634e487b7160e01b5f52602260045260245ffd5b50919050565b808201808211156102f957634e487b7160e01b5f52601160045260245ffdfea26469706673582212201d886a6707da239f29bfbfd4b2ea41dd993d4698a8cf89ed835eb16dcc0bcad064736f6c634300081b0033","linkReferences":{}},"methodIdentifiers":{"INITIAL_SUPPLY()":"2ff2e9dc","allowance(address,address)":"dd62ed3e","approve(address,uint256)":"095ea7b3","balanceOf(address)":"70a08231","burn(uint256)":"42966c68","burnFrom(address,uint256)":"79cc6790","decimals()":"313ce567","mint(address,uint256)":"40c10f19","minter()":"07546172","name()":"06fdde03","setMinter(address)":"fca3b5aa","symbol()":"95d89b41","totalSupply()":"18160ddd","transfer(address,uint256)":"a9059cbb","transferFrom(address,address,uint256)":"23b872dd"},"id":31}