{"abi":[{"type":"constructor","inputs":[],"stateMutability":"nonpayable"},{"type":"function","name":"_become","inputs":[{"name":"unitroller","type":"address","internalType":"contract Unitroller"}],"outputs":[],"stateMutability":"nonpayable"},{"type":"function","name":"_borrowGuardianPaused","inputs":[],"outputs":[{"name":"","type":"bool","internalType":"bool"}],"stateMutability":"view"},{"type":"function","name":"_grantPeridot","inputs":[{"name":"recipient","type":"address","internalType":"address"},{"name":"amount","type":"uint256","internalType":"uint256"}],"outputs":[],"stateMutability":"nonpayable"},{"type":"function","name":"_mintGuardianPaused","inputs":[],"outputs":[{"name":"","type":"bool","internalType":"bool"}],"stateMutability":"view"},{"type":"function","name":"_setBorrowCapGuardian","inputs":[{"name":"newBorrowCapGuardian","type":"address","internalType":"address"}],"outputs":[],"stateMutability":"nonpayable"},{"type":"function","name":"_setBorrowPaused","inputs":[{"name":"pToken","type":"address","internalType":"contract PToken"},{"name":"state","type":"bool","internalType":"bool"}],"outputs":[{"name":"","type":"bool","internalType":"bool"}],"stateMutability":"nonpayable"},{"type":"function","name":"_setCloseFactor","inputs":[{"name":"newCloseFactorMantissa","type":"uint256","internalType":"uint256"}],"outputs":[{"name":"","type":"uint256","internalType":"uint256"}],"stateMutability":"nonpayable"},{"type":"function","name":"_setCollateralFactor","inputs":[{"name":"pToken","type":"address","internalType":"contract PToken"},{"name":"newCollateralFactorMantissa","type":"uint256","internalType":"uint256"}],"outputs":[{"name":"","type":"uint256","internalType":"uint256"}],"stateMutability":"nonpayable"},{"type":"function","name":"_setContributorPeridotSpeed","inputs":[{"name":"contributor","type":"address","internalType":"address"},{"name":"peridotSpeed","type":"uint256","internalType":"uint256"}],"outputs":[],"stateMutability":"nonpayable"},{"type":"function","name":"_setLiquidationIncentive","inputs":[{"name":"newLiquidationIncentiveMantissa","type":"uint256","internalType":"uint256"}],"outputs":[{"name":"","type":"uint256","internalType":"uint256"}],"stateMutability":"nonpayable"},{"type":"function","name":"_setMarketBorrowCaps","inputs":[{"name":"pTokens","type":"address[]","internalType":"contract PToken[]"},{"name":"newBorrowCaps","type":"uint256[]","internalType":"uint256[]"}],"outputs":[],"stateMutability":"nonpayable"},{"type":"function","name":"_setMintPaused","inputs":[{"name":"pToken","type":"address","internalType":"contract PToken"},{"name":"state","type":"bool","internalType":"bool"}],"outputs":[{"name":"","type":"bool","internalType":"bool"}],"stateMutability":"nonpayable"},{"type":"function","name":"_setPauseGuardian","inputs":[{"name":"newPauseGuardian","type":"address","internalType":"address"}],"outputs":[{"name":"","type":"uint256","internalType":"uint256"}],"stateMutability":"nonpayable"},{"type":"function","name":"_setPeridotSpeeds","inputs":[{"name":"pTokens","type":"address[]","internalType":"contract PToken[]"},{"name":"supplySpeeds","type":"uint256[]","internalType":"uint256[]"},{"name":"borrowSpeeds","type":"uint256[]","internalType":"uint256[]"}],"outputs":[],"stateMutability":"nonpayable"},{"type":"function","name":"_setPriceOracle","inputs":[{"name":"newOracle","type":"address","internalType":"contract PriceOracle"}],"outputs":[{"name":"","type":"uint256","internalType":"uint256"}],"stateMutability":"nonpayable"},{"type":"function","name":"_setSeizePaused","inputs":[{"name":"state","type":"bool","internalType":"bool"}],"outputs":[{"name":"","type":"bool","internalType":"bool"}],"stateMutability":"nonpayable"},{"type":"function","name":"_setTransferPaused","inputs":[{"name":"state","type":"bool","internalType":"bool"}],"outputs":[{"name":"","type":"bool","internalType":"bool"}],"stateMutability":"nonpayable"},{"type":"function","name":"_supportMarket","inputs":[{"name":"pToken","type":"address","internalType":"contract PToken"}],"outputs":[{"name":"","type":"uint256","internalType":"uint256"}],"stateMutability":"nonpayable"},{"type":"function","name":"accountAssets","inputs":[{"name":"","type":"address","internalType":"address"},{"name":"","type":"uint256","internalType":"uint256"}],"outputs":[{"name":"","type":"address","internalType":"contract PToken"}],"stateMutability":"view"},{"type":"function","name":"admin","inputs":[],"outputs":[{"name":"","type":"address","internalType":"address"}],"stateMutability":"view"},{"type":"function","name":"allMarkets","inputs":[{"name":"","type":"uint256","internalType":"uint256"}],"outputs":[{"name":"","type":"address","internalType":"contract PToken"}],"stateMutability":"view"},{"type":"function","name":"borrowAllowed","inputs":[{"name":"pToken","type":"address","internalType":"address"},{"name":"borrower","type":"address","internalType":"address"},{"name":"borrowAmount","type":"uint256","internalType":"uint256"}],"outputs":[{"name":"","type":"uint256","internalType":"uint256"}],"stateMutability":"nonpayable"},{"type":"function","name":"borrowCapGuardian","inputs":[],"outputs":[{"name":"","type":"address","internalType":"address"}],"stateMutability":"view"},{"type":"function","name":"borrowCaps","inputs":[{"name":"","type":"address","internalType":"address"}],"outputs":[{"name":"","type":"uint256","internalType":"uint256"}],"stateMutability":"view"},{"type":"function","name":"borrowGuardianPaused","inputs":[{"name":"","type":"address","internalType":"address"}],"outputs":[{"name":"","type":"bool","internalType":"bool"}],"stateMutability":"view"},{"type":"function","name":"borrowVerify","inputs":[{"name":"pToken","type":"address","internalType":"address"},{"name":"borrower","type":"address","internalType":"address"},{"name":"borrowAmount","type":"uint256","internalType":"uint256"}],"outputs":[],"stateMutability":"nonpayable"},{"type":"function","name":"checkMembership","inputs":[{"name":"account","type":"address","internalType":"address"},{"name":"pToken","type":"address","internalType":"contract PToken"}],"outputs":[{"name":"","type":"bool","internalType":"bool"}],"stateMutability":"view"},{"type":"function","name":"claimPeridot","inputs":[{"name":"holders","type":"address[]","internalType":"address[]"},{"name":"pTokens","type":"address[]","internalType":"contract PToken[]"},{"name":"borrowers","type":"bool","internalType":"bool"},{"name":"suppliers","type":"bool","internalType":"bool"}],"outputs":[],"stateMutability":"nonpayable"},{"type":"function","name":"claimPeridot","inputs":[{"name":"holder","type":"address","internalType":"address"}],"outputs":[],"stateMutability":"nonpayable"},{"type":"function","name":"claimPeridot","inputs":[{"name":"holder","type":"address","internalType":"address"},{"name":"pTokens","type":"address[]","internalType":"contract PToken[]"}],"outputs":[],"stateMutability":"nonpayable"},{"type":"function","name":"closeFactorMantissa","inputs":[],"outputs":[{"name":"","type":"uint256","internalType":"uint256"}],"stateMutability":"view"},{"type":"function","name":"enterMarkets","inputs":[{"name":"pTokens","type":"address[]","internalType":"address[]"}],"outputs":[{"name":"","type":"uint256[]","internalType":"uint256[]"}],"stateMutability":"nonpayable"},{"type":"function","name":"exitMarket","inputs":[{"name":"pTokenAddress","type":"address","internalType":"address"}],"outputs":[{"name":"","type":"uint256","internalType":"uint256"}],"stateMutability":"nonpayable"},{"type":"function","name":"fixBadAccruals","inputs":[{"name":"affectedUsers","type":"address[]","internalType":"address[]"},{"name":"amounts","type":"uint256[]","internalType":"uint256[]"}],"outputs":[],"stateMutability":"nonpayable"},{"type":"function","name":"getAccountLiquidity","inputs":[{"name":"account","type":"address","internalType":"address"}],"outputs":[{"name":"","type":"uint256","internalType":"uint256"},{"name":"","type":"uint256","internalType":"uint256"},{"name":"","type":"uint256","internalType":"uint256"}],"stateMutability":"view"},{"type":"function","name":"getAllMarkets","inputs":[],"outputs":[{"name":"","type":"address[]","internalType":"contract PToken[]"}],"stateMutability":"view"},{"type":"function","name":"getAssetsIn","inputs":[{"name":"account","type":"address","internalType":"address"}],"outputs":[{"name":"","type":"address[]","internalType":"contract PToken[]"}],"stateMutability":"view"},{"type":"function","name":"getBlockNumber","inputs":[],"outputs":[{"name":"","type":"uint256","internalType":"uint256"}],"stateMutability":"view"},{"type":"function","name":"getHypotheticalAccountLiquidity","inputs":[{"name":"account","type":"address","internalType":"address"},{"name":"pTokenModify","type":"address","internalType":"address"},{"name":"redeemTokens","type":"uint256","internalType":"uint256"},{"name":"borrowAmount","type":"uint256","internalType":"uint256"}],"outputs":[{"name":"","type":"uint256","internalType":"uint256"},{"name":"","type":"uint256","internalType":"uint256"},{"name":"","type":"uint256","internalType":"uint256"}],"stateMutability":"view"},{"type":"function","name":"getPeridotAddress","inputs":[],"outputs":[{"name":"","type":"address","internalType":"address"}],"stateMutability":"view"},{"type":"function","name":"isDeprecated","inputs":[{"name":"pToken","type":"address","internalType":"contract PToken"}],"outputs":[{"name":"","type":"bool","internalType":"bool"}],"stateMutability":"view"},{"type":"function","name":"isPeridottroller","inputs":[],"outputs":[{"name":"","type":"bool","internalType":"bool"}],"stateMutability":"view"},{"type":"function","name":"lastContributorBlock","inputs":[{"name":"","type":"address","internalType":"address"}],"outputs":[{"name":"","type":"uint256","internalType":"uint256"}],"stateMutability":"view"},{"type":"function","name":"liquidateBorrowAllowed","inputs":[{"name":"pTokenBorrowed","type":"address","internalType":"address"},{"name":"pTokenCollateral","type":"address","internalType":"address"},{"name":"liquidator","type":"address","internalType":"address"},{"name":"borrower","type":"address","internalType":"address"},{"name":"repayAmount","type":"uint256","internalType":"uint256"}],"outputs":[{"name":"","type":"uint256","internalType":"uint256"}],"stateMutability":"nonpayable"},{"type":"function","name":"liquidateBorrowVerify","inputs":[{"name":"pTokenBorrowed","type":"address","internalType":"address"},{"name":"pTokenCollateral","type":"address","internalType":"address"},{"name":"liquidator","type":"address","internalType":"address"},{"name":"borrower","type":"address","internalType":"address"},{"name":"actualRepayAmount","type":"uint256","internalType":"uint256"},{"name":"seizeTokens","type":"uint256","internalType":"uint256"}],"outputs":[],"stateMutability":"nonpayable"},{"type":"function","name":"liquidateCalculateSeizeTokens","inputs":[{"name":"pTokenBorrowed","type":"address","internalType":"address"},{"name":"pTokenCollateral","type":"address","internalType":"address"},{"name":"actualRepayAmount","type":"uint256","internalType":"uint256"}],"outputs":[{"name":"","type":"uint256","internalType":"uint256"},{"name":"","type":"uint256","internalType":"uint256"}],"stateMutability":"view"},{"type":"function","name":"liquidationIncentiveMantissa","inputs":[],"outputs":[{"name":"","type":"uint256","internalType":"uint256"}],"stateMutability":"view"},{"type":"function","name":"markets","inputs":[{"name":"","type":"address","internalType":"address"}],"outputs":[{"name":"isListed","type":"bool","internalType":"bool"},{"name":"collateralFactorMantissa","type":"uint256","internalType":"uint256"},{"name":"isPeridoted","type":"bool","internalType":"bool"}],"stateMutability":"view"},{"type":"function","name":"maxAssets","inputs":[],"outputs":[{"name":"","type":"uint256","internalType":"uint256"}],"stateMutability":"view"},{"type":"function","name":"mintAllowed","inputs":[{"name":"pToken","type":"address","internalType":"address"},{"name":"minter","type":"address","internalType":"address"},{"name":"mintAmount","type":"uint256","internalType":"uint256"}],"outputs":[{"name":"","type":"uint256","internalType":"uint256"}],"stateMutability":"nonpayable"},{"type":"function","name":"mintGuardianPaused","inputs":[{"name":"","type":"address","internalType":"address"}],"outputs":[{"name":"","type":"bool","internalType":"bool"}],"stateMutability":"view"},{"type":"function","name":"mintVerify","inputs":[{"name":"pToken","type":"address","internalType":"address"},{"name":"minter","type":"address","internalType":"address"},{"name":"actualMintAmount","type":"uint256","internalType":"uint256"},{"name":"mintTokens","type":"uint256","internalType":"uint256"}],"outputs":[],"stateMutability":"nonpayable"},{"type":"function","name":"oracle","inputs":[],"outputs":[{"name":"","type":"address","internalType":"contract PriceOracle"}],"stateMutability":"view"},{"type":"function","name":"pauseGuardian","inputs":[],"outputs":[{"name":"","type":"address","internalType":"address"}],"stateMutability":"view"},{"type":"function","name":"pendingAdmin","inputs":[],"outputs":[{"name":"","type":"address","internalType":"address"}],"stateMutability":"view"},{"type":"function","name":"pendingPeridottrollerImplementation","inputs":[],"outputs":[{"name":"","type":"address","internalType":"address"}],"stateMutability":"view"},{"type":"function","name":"peridotAccrued","inputs":[{"name":"","type":"address","internalType":"address"}],"outputs":[{"name":"","type":"uint256","internalType":"uint256"}],"stateMutability":"view"},{"type":"function","name":"peridotBorrowSpeeds","inputs":[{"name":"","type":"address","internalType":"address"}],"outputs":[{"name":"","type":"uint256","internalType":"uint256"}],"stateMutability":"view"},{"type":"function","name":"peridotBorrowState","inputs":[{"name":"","type":"address","internalType":"address"}],"outputs":[{"name":"index","type":"uint224","internalType":"uint224"},{"name":"block","type":"uint32","internalType":"uint32"}],"stateMutability":"view"},{"type":"function","name":"peridotBorrowerIndex","inputs":[{"name":"","type":"address","internalType":"address"},{"name":"","type":"address","internalType":"address"}],"outputs":[{"name":"","type":"uint256","internalType":"uint256"}],"stateMutability":"view"},{"type":"function","name":"peridotContributorSpeeds","inputs":[{"name":"","type":"address","internalType":"address"}],"outputs":[{"name":"","type":"uint256","internalType":"uint256"}],"stateMutability":"view"},{"type":"function","name":"peridotInitialIndex","inputs":[],"outputs":[{"name":"","type":"uint224","internalType":"uint224"}],"stateMutability":"view"},{"type":"function","name":"peridotRate","inputs":[],"outputs":[{"name":"","type":"uint256","internalType":"uint256"}],"stateMutability":"view"},{"type":"function","name":"peridotReceivable","inputs":[{"name":"","type":"address","internalType":"address"}],"outputs":[{"name":"","type":"uint256","internalType":"uint256"}],"stateMutability":"view"},{"type":"function","name":"peridotSpeeds","inputs":[{"name":"","type":"address","internalType":"address"}],"outputs":[{"name":"","type":"uint256","internalType":"uint256"}],"stateMutability":"view"},{"type":"function","name":"peridotSupplierIndex","inputs":[{"name":"","type":"address","internalType":"address"},{"name":"","type":"address","internalType":"address"}],"outputs":[{"name":"","type":"uint256","internalType":"uint256"}],"stateMutability":"view"},{"type":"function","name":"peridotSupplySpeeds","inputs":[{"name":"","type":"address","internalType":"address"}],"outputs":[{"name":"","type":"uint256","internalType":"uint256"}],"stateMutability":"view"},{"type":"function","name":"peridotSupplyState","inputs":[{"name":"","type":"address","internalType":"address"}],"outputs":[{"name":"index","type":"uint224","internalType":"uint224"},{"name":"block","type":"uint32","internalType":"uint32"}],"stateMutability":"view"},{"type":"function","name":"peridottrollerImplementation","inputs":[],"outputs":[{"name":"","type":"address","internalType":"address"}],"stateMutability":"view"},{"type":"function","name":"proposal65FixExecuted","inputs":[],"outputs":[{"name":"","type":"bool","internalType":"bool"}],"stateMutability":"view"},{"type":"function","name":"redeemAllowed","inputs":[{"name":"pToken","type":"address","internalType":"address"},{"name":"redeemer","type":"address","internalType":"address"},{"name":"redeemTokens","type":"uint256","internalType":"uint256"}],"outputs":[{"name":"","type":"uint256","internalType":"uint256"}],"stateMutability":"nonpayable"},{"type":"function","name":"redeemVerify","inputs":[{"name":"pToken","type":"address","internalType":"address"},{"name":"redeemer","type":"address","internalType":"address"},{"name":"redeemAmount","type":"uint256","internalType":"uint256"},{"name":"redeemTokens","type":"uint256","internalType":"uint256"}],"outputs":[],"stateMutability":"nonpayable"},{"type":"function","name":"repayBorrowAllowed","inputs":[{"name":"pToken","type":"address","internalType":"address"},{"name":"payer","type":"address","internalType":"address"},{"name":"borrower","type":"address","internalType":"address"},{"name":"repayAmount","type":"uint256","internalType":"uint256"}],"outputs":[{"name":"","type":"uint256","internalType":"uint256"}],"stateMutability":"nonpayable"},{"type":"function","name":"repayBorrowVerify","inputs":[{"name":"pToken","type":"address","internalType":"address"},{"name":"payer","type":"address","internalType":"address"},{"name":"borrower","type":"address","internalType":"address"},{"name":"actualRepayAmount","type":"uint256","internalType":"uint256"},{"name":"borrowerIndex","type":"uint256","internalType":"uint256"}],"outputs":[],"stateMutability":"nonpayable"},{"type":"function","name":"seizeAllowed","inputs":[{"name":"pTokenCollateral","type":"address","internalType":"address"},{"name":"pTokenBorrowed","type":"address","internalType":"address"},{"name":"liquidator","type":"address","internalType":"address"},{"name":"borrower","type":"address","internalType":"address"},{"name":"seizeTokens","type":"uint256","internalType":"uint256"}],"outputs":[{"name":"","type":"uint256","internalType":"uint256"}],"stateMutability":"nonpayable"},{"type":"function","name":"seizeGuardianPaused","inputs":[],"outputs":[{"name":"","type":"bool","internalType":"bool"}],"stateMutability":"view"},{"type":"function","name":"seizeVerify","inputs":[{"name":"pTokenCollateral","type":"address","internalType":"address"},{"name":"pTokenBorrowed","type":"address","internalType":"address"},{"name":"liquidator","type":"address","internalType":"address"},{"name":"borrower","type":"address","internalType":"address"},{"name":"seizeTokens","type":"uint256","internalType":"uint256"}],"outputs":[],"stateMutability":"nonpayable"},{"type":"function","name":"transferAllowed","inputs":[{"name":"pToken","type":"address","internalType":"address"},{"name":"src","type":"address","internalType":"address"},{"name":"dst","type":"address","internalType":"address"},{"name":"transferTokens","type":"uint256","internalType":"uint256"}],"outputs":[{"name":"","type":"uint256","internalType":"uint256"}],"stateMutability":"nonpayable"},{"type":"function","name":"transferGuardianPaused","inputs":[],"outputs":[{"name":"","type":"bool","internalType":"bool"}],"stateMutability":"view"},{"type":"function","name":"transferVerify","inputs":[{"name":"pToken","type":"address","internalType":"address"},{"name":"src","type":"address","internalType":"address"},{"name":"dst","type":"address","internalType":"address"},{"name":"transferTokens","type":"uint256","internalType":"uint256"}],"outputs":[],"stateMutability":"nonpayable"},{"type":"function","name":"updateContributorRewards","inputs":[{"name":"contributor","type":"address","internalType":"address"}],"outputs":[],"stateMutability":"nonpayable"},{"type":"event","name":"ActionPaused","inputs":[{"name":"action","type":"string","indexed":false,"internalType":"string"},{"name":"pauseState","type":"bool","indexed":false,"internalType":"bool"}],"anonymous":false},{"type":"event","name":"ActionPaused","inputs":[{"name":"pToken","type":"address","indexed":false,"internalType":"contract PToken"},{"name":"action","type":"string","indexed":false,"internalType":"string"},{"name":"pauseState","type":"bool","indexed":false,"internalType":"bool"}],"anonymous":false},{"type":"event","name":"ContributorPeridotSpeedUpdated","inputs":[{"name":"contributor","type":"address","indexed":true,"internalType":"address"},{"name":"newSpeed","type":"uint256","indexed":false,"internalType":"uint256"}],"anonymous":false},{"type":"event","name":"DistributedBorrowerPeridot","inputs":[{"name":"pToken","type":"address","indexed":true,"internalType":"contract PToken"},{"name":"borrower","type":"address","indexed":true,"internalType":"address"},{"name":"peridotDelta","type":"uint256","indexed":false,"internalType":"uint256"},{"name":"peridotBorrowIndex","type":"uint256","indexed":false,"internalType":"uint256"}],"anonymous":false},{"type":"event","name":"DistributedSupplierPeridot","inputs":[{"name":"pToken","type":"address","indexed":true,"internalType":"contract PToken"},{"name":"supplier","type":"address","indexed":true,"internalType":"address"},{"name":"peridotDelta","type":"uint256","indexed":false,"internalType":"uint256"},{"name":"peridotSupplyIndex","type":"uint256","indexed":false,"internalType":"uint256"}],"anonymous":false},{"type":"event","name":"Failure","inputs":[{"name":"error","type":"uint256","indexed":false,"internalType":"uint256"},{"name":"info","type":"uint256","indexed":false,"internalType":"uint256"},{"name":"detail","type":"uint256","indexed":false,"internalType":"uint256"}],"anonymous":false},{"type":"event","name":"MarketEntered","inputs":[{"name":"pToken","type":"address","indexed":false,"internalType":"contract PToken"},{"name":"account","type":"address","indexed":false,"internalType":"address"}],"anonymous":false},{"type":"event","name":"MarketExited","inputs":[{"name":"pToken","type":"address","indexed":false,"internalType":"contract PToken"},{"name":"account","type":"address","indexed":false,"internalType":"address"}],"anonymous":false},{"type":"event","name":"MarketListed","inputs":[{"name":"pToken","type":"address","indexed":false,"internalType":"contract PToken"}],"anonymous":false},{"type":"event","name":"NewBorrowCap","inputs":[{"name":"pToken","type":"address","indexed":true,"internalType":"contract PToken"},{"name":"newBorrowCap","type":"uint256","indexed":false,"internalType":"uint256"}],"anonymous":false},{"type":"event","name":"NewBorrowCapGuardian","inputs":[{"name":"oldBorrowCapGuardian","type":"address","indexed":false,"internalType":"address"},{"name":"newBorrowCapGuardian","type":"address","indexed":false,"internalType":"address"}],"anonymous":false},{"type":"event","name":"NewCloseFactor","inputs":[{"name":"oldCloseFactorMantissa","type":"uint256","indexed":false,"internalType":"uint256"},{"name":"newCloseFactorMantissa","type":"uint256","indexed":false,"internalType":"uint256"}],"anonymous":false},{"type":"event","name":"NewCollateralFactor","inputs":[{"name":"pToken","type":"address","indexed":false,"internalType":"contract PToken"},{"name":"oldCollateralFactorMantissa","type":"uint256","indexed":false,"internalType":"uint256"},{"name":"newCollateralFactorMantissa","type":"uint256","indexed":false,"internalType":"uint256"}],"anonymous":false},{"type":"event","name":"NewLiquidationIncentive","inputs":[{"name":"oldLiquidationIncentiveMantissa","type":"uint256","indexed":false,"internalType":"uint256"},{"name":"newLiquidationIncentiveMantissa","type":"uint256","indexed":false,"internalType":"uint256"}],"anonymous":false},{"type":"event","name":"NewPauseGuardian","inputs":[{"name":"oldPauseGuardian","type":"address","indexed":false,"internalType":"address"},{"name":"newPauseGuardian","type":"address","indexed":false,"internalType":"address"}],"anonymous":false},{"type":"event","name":"NewPriceOracle","inputs":[{"name":"oldPriceOracle","type":"address","indexed":false,"internalType":"contract PriceOracle"},{"name":"newPriceOracle","type":"address","indexed":false,"internalType":"contract PriceOracle"}],"anonymous":false},{"type":"event","name":"PeridotAccruedAdjusted","inputs":[{"name":"user","type":"address","indexed":true,"internalType":"address"},{"name":"oldPeridotAccrued","type":"uint256","indexed":false,"internalType":"uint256"},{"name":"newPeridotAccrued","type":"uint256","indexed":false,"internalType":"uint256"}],"anonymous":false},{"type":"event","name":"PeridotBorrowSpeedUpdated","inputs":[{"name":"pToken","type":"address","indexed":true,"internalType":"contract PToken"},{"name":"newSpeed","type":"uint256","indexed":false,"internalType":"uint256"}],"anonymous":false},{"type":"event","name":"PeridotGranted","inputs":[{"name":"recipient","type":"address","indexed":false,"internalType":"address"},{"name":"amount","type":"uint256","indexed":false,"internalType":"uint256"}],"anonymous":false},{"type":"event","name":"PeridotReceivableUpdated","inputs":[{"name":"user","type":"address","indexed":true,"internalType":"address"},{"name":"oldPeridotReceivable","type":"uint256","indexed":false,"internalType":"uint256"},{"name":"newPeridotReceivable","type":"uint256","indexed":false,"internalType":"uint256"}],"anonymous":false},{"type":"event","name":"PeridotSupplySpeedUpdated","inputs":[{"name":"pToken","type":"address","indexed":true,"internalType":"contract PToken"},{"name":"newSpeed","type":"uint256","indexed":false,"internalType":"uint256"}],"anonymous":false}],"bytecode":{"object":"0x6080604052348015600e575f5ffd5b505f80546001600160a01b0319163317905561517b8061002d5f395ff3fe608060405234801561000f575f5ffd5b506004361061047a575f3560e01c8063794595f511610258578063bea6b8b81161014b578063da3d454c116100ca578063eabe7d911161008f578063eabe7d9114610bef578063ede4edd014610c02578063f00a7a9214610c15578063f1ad575614610c22578063f851a44014610c41578063fa707af914610c53575f5ffd5b8063da3d454c14610b99578063dce1544914610bac578063e4028eee14610bbf578063e6653f3d14610bd2578063e875544614610be6575f5ffd5b8063cd2489f011610110578063cd2489f014610b12578063ce27c01e14610b3f578063d002d98914610b5e578063d02f735114610b7d578063d088864a14610b90575f5ffd5b8063bea6b8b814610a79578063c299823814610a98578063c44e165714610ab8578063c488847b14610acb578063c6a0175914610af3575f5ffd5b806394b2294b116101d7578063abfceffc1161019c578063abfceffc14610a17578063ac0b0bb714610a37578063b0772d0b14610a4b578063b0cbd62214610a53578063bdcdc25814610a66575f5ffd5b806394b2294b146109ab5780639a8260d6146109b45780639d92e62f146109c7578063a64db627146109da578063a76b3fda14610a04575f5ffd5b80638e8f294b1161021d5780638e8f294b146108bc5780638ebf63641461090e578063929fe9a114610921578063935dbd261461096157806394543c1514610998575f5ffd5b8063794595f5146108495780637c8f3a67146108685780637dc0d1d01461087b57806387f763031461088e5780638b130fa0146108a2575f5ffd5b806342cbb15c116103705780635c778605116102ef5780636a56947e116102b45780636a56947e146107d65780636d154ea5146107e45780636d35bf9114610806578063731f0c2b14610814578063741b252514610836575f5ffd5b80635c778605146107775780635ec88c791461078a5780635f5af1aa1461079d5780635fc7e71e146107b0578063607ef6c1146107c3575f5ffd5b80634ef4c3e1116103355780634ef4c3e1146107185780634fd42e171461072b57806351dff9891461073e57806352d84d1e1461075157806355ee1fe114610764575f5ffd5b806342cbb15c146106a657806347ef3b3b146106ac5780634a584432146106c25780634ada90af146106e15780634e79238f146106ea575f5ffd5b80632582e0ec116103fc57806336376925116103c15780633637692514610645578063391957d7146106585780633bcf7ec11461066b5780633c94786f1461067e57806341c728b914610692575f5ffd5b80632582e0ec1461059e57806326782247146105b15780632d70db78146105c4578063317b0b77146105d7578063328bb72b146105ea575f5ffd5b80631d504dc6116104425780631d504dc61461053d5780631ededc911461055057806321af45691461056557806324008a621461057857806324a3d6221461058b575f5ffd5b80630938c63d1461047e5780630aa4266f146104b057806316b95e8f146104da57806318c882a5146104ef57806318f1408d14610512575b5f5ffd5b61049d61048c366004614844565b601a6020525f908152604090205481565b6040519081526020015b60405180910390f35b61049d6104be36600461485f565b601260209081525f928352604080842090915290825290205481565b6104ed6104e83660046148dd565b610c5b565b005b6105026104fd366004614954565b610ef3565b60405190151581526020016104a7565b600254610525906001600160a01b031681565b6040516001600160a01b0390911681526020016104a7565b6104ed61054b366004614844565b611028565b6104ed61055e366004614980565b5050505050565b601554610525906001600160a01b031681565b61049d6105863660046149d7565b6111a1565b600a54610525906001600160a01b031681565b6104ed6105ac366004614afe565b61125a565b600154610525906001600160a01b031681565b6105026105d2366004614b85565b6114a4565b61049d6105e5366004614ba0565b611591565b6106216105f8366004614844565b60116020525f90815260409020546001600160e01b03811690600160e01b900463ffffffff1682565b604080516001600160e01b03909316835263ffffffff9091166020830152016104a7565b6104ed610653366004614844565b611636565b6104ed610666366004614844565b611698565b610502610679366004614954565b611761565b600a5461050290600160a01b900460ff1681565b6104ed6106a0366004614bb7565b50505050565b4361049d565b6104ed6106ba366004614bfa565b505050505050565b61049d6106d0366004614844565b60166020525f908152604090205481565b61049d60065481565b6106fd6106f8366004614bb7565b611887565b604080519384526020840192909252908201526060016104a7565b61049d610726366004614c64565b6118c4565b61049d610739366004614ba0565b611962565b6104ed61074c366004614bb7565b6119be565b61052561075f366004614ba0565b611a0c565b61049d610772366004614844565b611a34565b6104ed610785366004614c64565b505050565b6106fd610798366004614844565b611aac565b61049d6107ab366004614844565b611ae2565b61049d6107be366004614ca2565b611b5a565b6104ed6107d13660046148dd565b611d22565b6104ed6106a03660046149d7565b6105026107f2366004614844565b600c6020525f908152604090205460ff1681565b6104ed61055e366004614ca2565b610502610822366004614844565b600b6020525f908152604090205460ff1681565b6104ed610844366004614844565b611ef2565b61049d610857366004614844565b600f6020525f908152604090205481565b600354610525906001600160a01b031681565b600454610525906001600160a01b031681565b600a5461050290600160b01b900460ff1681565b73507f0f5e58d21f07d133722e038067248fe4ecbe610525565b6108ef6108ca366004614844565b60096020525f908152604090208054600182015460039092015460ff91821692911683565b60408051931515845260208401929092521515908201526060016104a7565b61050261091c366004614b85565b611f98565b61050261092f36600461485f565b6001600160a01b038082165f908152600960209081526040808320938616835260029093019052205460ff1692915050565b61062161096f366004614844565b60106020525f90815260409020546001600160e01b03811690600160e01b900463ffffffff1682565b6105026109a6366004614844565b61207c565b61049d60075481565b6104ed6109c2366004614d02565b612137565b6104ed6109d5366004614d2c565b61222d565b61049d6109e836600461485f565b601360209081525f928352604080842090915290825290205481565b61049d610a12366004614844565b61228e565b610a2a610a25366004614844565b6123bb565b6040516104a79190614d78565b600a5461050290600160b81b900460ff1681565b610a2a61242e565b6104ed610a61366004614d02565b61248e565b61049d610a743660046149d7565b612581565b61049d610a87366004614844565b60186020525f908152604090205481565b610aab610aa6366004614dc3565b61260a565b6040516104a79190614df4565b6104ed610ac6366004614e86565b6126c4565b610ade610ad9366004614c64565b6127f6565b604080519283526020830191909152016104a7565b61049d610b01366004614844565b60196020525f908152604090205481565b610b276a0c097ce7bc90715b34b9f160241b81565b6040516001600160e01b0390911681526020016104a7565b61049d610b4d366004614844565b60176020525f908152604090205481565b61049d610b6c366004614844565b60146020525f908152604090205481565b61049d610b8b366004614ca2565b612a06565b61049d600e5481565b61049d610ba7366004614c64565b612ba5565b610525610bba366004614d02565b612f63565b61049d610bcd366004614d02565b612f97565b600a5461050290600160a81b900460ff1681565b61049d60055481565b61049d610bfd366004614c64565b613124565b61049d610c10366004614844565b61315d565b601b546105029060ff1681565b61049d610c30366004614844565b601c6020525f908152604090205481565b5f54610525906001600160a01b031681565b610502600181565b5f546001600160a01b03163314610cc35760405162461bcd60e51b815260206004820152602160248201527f4f6e6c792061646d696e2063616e2063616c6c20746869732066756e6374696f6044820152603760f91b60648201526084015b60405180910390fd5b601b5460ff1615610d255760405162461bcd60e51b815260206004820152602660248201527f416c72656164792065786563757465642074686973206f6e652d6f66662066756044820152653731ba34b7b760d11b6064820152608401610cba565b828114610d645760405162461bcd60e51b815260206004820152600d60248201526c125b9d985b1a59081a5b9c1d5d609a1b6044820152606401610cba565b5f808080805b87811015610edb57888882818110610d8457610d84614f11565b9050602002016020810190610d999190614844565b6001600160a01b0381165f908152601460205260409020549095509350868682818110610dc857610dc8614f11565b90506020020135925083831115610e69575f610de48585614f39565b6001600160a01b0387165f908152601c6020526040812054919250610e0982846134a3565b6001600160a01b0389165f818152601c6020908152604091829020849055815186815290810184905292935090917f793e2718d51a297e2789f41937e2eaef28c25cfd40d726695189156df1b9b02b910160405180910390a28695505050505b8215610ed357610e7984846134ae565b6001600160a01b0386165f81815260146020908152604091829020849055815188815290810184905292945090917f2165c0bcff924e014ed0cadcb1b6e7a260b354b504910ee3f6d8813195de997b910160405180910390a25b600101610d6a565b5050601b805460ff1916600117905550505050505050565b6001600160a01b0382165f9081526009602052604081205460ff16610f2a5760405162461bcd60e51b8152600401610cba90614f4c565b600a546001600160a01b0316331480610f4c57505f546001600160a01b031633145b610f685760405162461bcd60e51b8152600401610cba90614f94565b5f546001600160a01b0316331480610f8257506001821515145b610f9e5760405162461bcd60e51b8152600401610cba90614fdb565b6001600160a01b0383165f818152600c6020908152604091829020805460ff19168615159081179091558251938452606091840182905260069184019190915265426f72726f7760d01b6080840152908201527f71aec636243f9709bb0007ae15e9afb8150ab01716d75fd7573be5cc096e03b09060a0015b60405180910390a150805b92915050565b806001600160a01b031663f851a4406040518163ffffffff1660e01b8152600401602060405180830381865afa158015611064573d5f5f3e3d5ffd5b505050506040513d601f19601f82011682018060405250810190611088919061500b565b6001600160a01b0316336001600160a01b0316146110f85760405162461bcd60e51b815260206004820152602760248201527f6f6e6c7920756e6974726f6c6c65722061646d696e2063616e206368616e676560448201526620627261696e7360c81b6064820152608401610cba565b806001600160a01b031663c1e803346040518163ffffffff1660e01b81526004016020604051808303815f875af1158015611135573d5f5f3e3d5ffd5b505050506040513d601f19601f820116820180604052508101906111599190615026565b1561119e5760405162461bcd60e51b815260206004820152601560248201527418da185b99d9481b9bdd08185d5d1a1bdc9a5e9959605a1b6044820152606401610cba565b50565b6001600160a01b0384165f9081526009602052604081205460ff166111c857506009611252565b5f6040518060200160405280876001600160a01b031663aa5af0fd6040518163ffffffff1660e01b8152600401602060405180830381865afa158015611210573d5f5f3e3d5ffd5b505050506040513d601f19601f820116820180604052508101906112349190615026565b9052905061124286826134b9565b61124d8685836136a2565b5f9150505b949350505050565b5f5b83518110156113f9575f84828151811061127857611278614f11565b6020908102919091018101516001600160a01b0381165f908152600990925260409091205490915060ff166112e75760405162461bcd60e51b81526020600482015260156024820152741b585c9ad95d081b5d5cdd081899481b1a5cdd1959605a1b6044820152606401610cba565b8315156001036113a5575f6040518060200160405280836001600160a01b031663aa5af0fd6040518163ffffffff1660e01b8152600401602060405180830381865afa158015611339573d5f5f3e3d5ffd5b505050506040513d601f19601f8201168201806040525081019061135d9190615026565b9052905061136b82826134b9565b5f5b87518110156113a25761139a8389838151811061138c5761138c614f11565b6020026020010151846136a2565b60010161136d565b50505b8215156001036113f0576113b88161381a565b5f5b86518110156113ee576113e6828883815181106113d9576113d9614f11565b6020026020010151613988565b6001016113ba565b505b5060010161125c565b505f5b845181101561055e5761146485828151811061141a5761141a614f11565b602002602001015160145f88858151811061143757611437614f11565b60200260200101516001600160a01b03166001600160a01b031681526020019081526020015f2054613b1e565b60145f87848151811061147957611479614f11565b6020908102919091018101516001600160a01b031682528101919091526040015f20556001016113fc565b600a545f906001600160a01b03163314806114c857505f546001600160a01b031633145b6114e45760405162461bcd60e51b8152600401610cba90614f94565b5f546001600160a01b03163314806114fe57506001821515145b61151a5760405162461bcd60e51b8152600401610cba90614fdb565b600a8054831515600160b81b0260ff60b81b199091161790556040517fef159d9a32b2472e32b098f954f3ce62d232939f1c207070b584df1814de2de0906115859084906040808252600590820152645365697a6560d81b6060820152901515602082015260800190565b60405180910390a15090565b5f80546001600160a01b031633146115eb5760405162461bcd60e51b815260206004820152601f60248201527f6f6e6c792061646d696e2063616e2073657420636c6f736520666163746f72006044820152606401610cba565b600580549083905560408051828152602081018590527f3b9670cf975d26958e754b57098eaa2ac914d8d2a31b83257997b9f346110fd991015b60405180910390a15f5b9392505050565b61119e81600d80548060200260200160405190810160405280929190818152602001828054801561168e57602002820191905f5260205f20905b81546001600160a01b03168152600190910190602001808311611670575b505050505061222d565b5f546001600160a01b031633146117005760405162461bcd60e51b815260206004820152602660248201527f6f6e6c792061646d696e2063616e2073657420626f72726f772063617020677560448201526530b93234b0b760d11b6064820152608401610cba565b601580546001600160a01b038381166001600160a01b031983168117909355604080519190921680825260208201939093527feda98690e518e9a05f8ec6837663e188211b2da8f4906648b323f2c1d4434e29910160405180910390a15050565b6001600160a01b0382165f9081526009602052604081205460ff166117985760405162461bcd60e51b8152600401610cba90614f4c565b600a546001600160a01b03163314806117ba57505f546001600160a01b031633145b6117d65760405162461bcd60e51b8152600401610cba90614f94565b5f546001600160a01b03163314806117f057506001821515145b61180c5760405162461bcd60e51b8152600401610cba90614fdb565b6001600160a01b0383165f818152600b6020908152604091829020805460ff19168615159081179091558251938452606091840182905260049184019190915263135a5b9d60e21b6080840152908201527f71aec636243f9709bb0007ae15e9afb8150ab01716d75fd7573be5cc096e03b09060a001611017565b5f5f5f5f5f5f6118998a8a8a8a613c3a565b9250925092508260118111156118b1576118b161503d565b95509093509150505b9450945094915050565b6001600160a01b0383165f908152600b602052604081205460ff161561191d5760405162461bcd60e51b815260206004820152600e60248201526d1b5a5b9d081a5cc81c185d5cd95960921b6044820152606401610cba565b6001600160a01b0384165f9081526009602052604090205460ff166119465760095b905061162f565b61194f8461381a565b6119598484613988565b5f949350505050565b5f80546001600160a01b03163314611980576110226001600b613f4f565b600680549083905560408051828152602081018590527faeba5a6c40a8ac138134bff1aaa65debf25971188a58804bad717f82f0ec13169101611625565b801580156119cb57505f82115b156106a05760405162461bcd60e51b815260206004820152601160248201527072656465656d546f6b656e73207a65726f60781b6044820152606401610cba565b600d8181548110611a1b575f80fd5b5f918252602090912001546001600160a01b0316905081565b5f80546001600160a01b03163314611a525761102260016010613f4f565b600480546001600160a01b038481166001600160a01b031983168117909355604080519190921680825260208201939093527fd52b2b9b7e9ee655fcb95d2e5b9e0c9f69e7ef2b8e9d2d0ea78402d576d22e229101611625565b5f5f5f5f5f5f611abe875f5f5f613c3a565b925092509250826011811115611ad657611ad661503d565b97919650945092505050565b5f80546001600160a01b03163314611b005761102260016013613f4f565b600a80546001600160a01b038481166001600160a01b031983168117909355604080519190921680825260208201939093527f0613b6ee6a04f0d09f390e4d9318894b9f6ac7fd83897cd8d18896ba579c401e9101611625565b6001600160a01b0385165f9081526009602052604081205460ff161580611b9957506001600160a01b0385165f9081526009602052604090205460ff16155b15611ba85760095b9050611d19565b6040516395dd919360e01b81526001600160a01b0384811660048301525f91908816906395dd919390602401602060405180830381865afa158015611bef573d5f5f3e3d5ffd5b505050506040513d601f19601f82011682018060405250810190611c139190615026565b9050611c1e8761207c565b15611c895782811015611c845760405162461bcd60e51b815260206004820152602860248201527f43616e206e6f74207265706179206d6f7265207468616e2074686520746f74616044820152676c20626f72726f7760c01b6064820152608401610cba565b611d14565b5f5f611c9486613fc6565b9193509091505f9050826011811115611caf57611caf61503d565b14611cd057816011811115611cc657611cc661503d565b9350505050611d19565b805f03611cde576003611cc6565b5f611cf9604051806020016040528060055481525085613fe2565b905080861115611d10576011945050505050611d19565b5050505b5f9150505b95945050505050565b5f546001600160a01b0316331480611d4457506015546001600160a01b031633145b611dae5760405162461bcd60e51b815260206004820152603560248201527f6f6e6c792061646d696e206f7220626f72726f772063617020677561726469616044820152746e2063616e2073657420626f72726f77206361707360581b6064820152608401610cba565b82818115801590611dbe57508082145b611dfa5760405162461bcd60e51b815260206004820152600d60248201526c1a5b9d985b1a59081a5b9c1d5d609a1b6044820152606401610cba565b5f5b82811015611ee957848482818110611e1657611e16614f11565b9050602002013560165f898985818110611e3257611e32614f11565b9050602002016020810190611e479190614844565b6001600160a01b0316815260208101919091526040015f2055868682818110611e7257611e72614f11565b9050602002016020810190611e879190614844565b6001600160a01b03167f6f1951b2aad10f3fc81b86d91105b413a5b3f847a34bbc5ce1904201b14438f6868684818110611ec357611ec3614f11565b90506020020135604051611ed991815260200190565b60405180910390a2600101611dfc565b50505050505050565b6001600160a01b0381165f90815260176020908152604080832054601890925282205490914391611f249083906134ae565b90505f81118015611f3457505f83115b156106a0575f611f448285613ff9565b6001600160a01b0386165f9081526014602052604081205491925090611f6a90836134a3565b6001600160a01b0387165f908152601460209081526040808320939093556018905220849055505050505050565b600a545f906001600160a01b0316331480611fbc57505f546001600160a01b031633145b611fd85760405162461bcd60e51b8152600401610cba90614f94565b5f546001600160a01b0316331480611ff257506001821515145b61200e5760405162461bcd60e51b8152600401610cba90614fdb565b600a8054831515600160b01b0260ff60b01b199091161790556040517fef159d9a32b2472e32b098f954f3ce62d232939f1c207070b584df1814de2de0906115859084906040808252600890820152672a3930b739b332b960c11b6060820152901515602082015260800190565b6001600160a01b0381165f908152600960205260408120600101541580156120c057506001600160a01b0382165f908152600c602052604090205460ff1615156001145b80156110225750816001600160a01b031663173b99046040518163ffffffff1660e01b8152600401602060405180830381865afa158015612103573d5f5f3e3d5ffd5b505050506040513d601f19601f820116820180604052508101906121279190615026565b670de0b6b3a76400001492915050565b61213f614004565b61218b5760405162461bcd60e51b815260206004820152601c60248201527f6f6e6c792061646d696e2063616e206772616e742070657269646f74000000006044820152606401610cba565b5f6121968383613b1e565b905080156121e65760405162461bcd60e51b815260206004820152601e60248201527f696e73756666696369656e742070657269646f7420666f72206772616e7400006044820152606401610cba565b604080516001600160a01b0385168152602081018490527f261934657a3c2333b8c49721bd1f22d7fa808b39ff56c88e0ed42daaff5e2c4e910160405180910390a1505050565b6040805160018082528183019092525f916020808301908036833701905050905082815f8151811061226157612261614f11565b60200260200101906001600160a01b031690816001600160a01b031681525050610785818360018061125a565b5f80546001600160a01b031633146122ac5761102260016012613f4f565b6001600160a01b0382165f9081526009602052604090205460ff16156122d857611022600a6011613f4f565b816001600160a01b0316635a890c0e6040518163ffffffff1660e01b8152600401602060405180830381865afa158015612314573d5f5f3e3d5ffd5b505050506040513d601f19601f820116820180604052508101906123389190615051565b506001600160a01b0382165f9081526009602052604081208054600160ff19918216811783556003830180549092169091558101919091556123798361402c565b61238283614107565b6040516001600160a01b03841681527fcf583bb0c569eb967f806b11601c4cb93c10310485c67add5f8362c2f212321f90602001611625565b6001600160a01b0381165f90815260086020908152604080832080548251818502810185019093528083526060949383018282801561242157602002820191905f5260205f20905b81546001600160a01b03168152600190910190602001808311612403575b5093979650505050505050565b6060600d80548060200260200160405190810160405280929190818152602001828054801561248457602002820191905f5260205f20905b81546001600160a01b03168152600190910190602001808311612466575b5050505050905090565b612496614004565b6124e25760405162461bcd60e51b815260206004820181905260248201527f6f6e6c792061646d696e2063616e207365742070657269646f742073706565646044820152606401610cba565b6124eb82611ef2565b805f0361250f576001600160a01b0382165f90815260186020526040812055612529565b436001600160a01b0383165f908152601860205260409020555b6001600160a01b0382165f8181526017602052604090819020839055517f25c31f2aebcdd5690c478d6f15c5d081640120a66428323870ed17257e342c3a906125759084815260200190565b60405180910390a25050565b600a545f90600160b01b900460ff16156125d25760405162461bcd60e51b81526020600482015260126024820152711d1c985b9cd9995c881a5cc81c185d5cd95960721b6044820152606401610cba565b5f6125de8686856141c8565b905080156125ed579050611252565b6125f68661381a565b6126008686613988565b61124d8685613988565b80516060905f816001600160401b0381111561262857612628614a25565b604051908082528060200260200182016040528015612651578160200160208202803683370190505b5090505f5b828110156126bc575f85828151811061267157612671614f11565b60200260200101519050612685813361427a565b60118111156126965761269661503d565b8383815181106126a8576126a8614f11565b602090810291909101015250600101612656565b509392505050565b6126cc614004565b6127185760405162461bcd60e51b815260206004820181905260248201527f6f6e6c792061646d696e2063616e207365742070657269646f742073706565646044820152606401610cba565b825182518114801561272a5750815181145b61278e5760405162461bcd60e51b815260206004820152602f60248201527f50657269646f7474726f6c6c65723a3a5f73657450657269646f74537065656460448201526e1cc81a5b9d985b1a59081a5b9c1d5d608a1b6064820152608401610cba565b5f5b8181101561055e576127ee8582815181106127ad576127ad614f11565b60200260200101518583815181106127c7576127c7614f11565b60200260200101518584815181106127e1576127e1614f11565b6020026020010151614369565b600101612790565b6004805460405163fc57d4df60e01b81526001600160a01b03868116938201939093525f928392839291169063fc57d4df90602401602060405180830381865afa158015612846573d5f5f3e3d5ffd5b505050506040513d601f19601f8201168201806040525081019061286a9190615026565b6004805460405163fc57d4df60e01b81526001600160a01b03898116938201939093529293505f9291169063fc57d4df90602401602060405180830381865afa1580156128b9573d5f5f3e3d5ffd5b505050506040513d601f19601f820116820180604052508101906128dd9190615026565b90508115806128ea575080155b156128fd57600d5f9350935050506129fe565b5f866001600160a01b031663182df0f56040518163ffffffff1660e01b8152600401602060405180830381865afa15801561293a573d5f5f3e3d5ffd5b505050506040513d601f19601f8201168201806040525081019061295e9190615026565b90505f61297660405180602001604052805f81525090565b60408051602080820183525f80835283518083018552908152835180830185526006548152845192830190945288825291926129b191614540565b92506129d9604051806020016040528088815250604051806020016040528088815250614540565b91506129e58383614585565b90506129f1818b613fe2565b5f99509750505050505050505b935093915050565b600a545f90600160b81b900460ff1615612a545760405162461bcd60e51b815260206004820152600f60248201526e1cd95a5e99481a5cc81c185d5cd959608a1b6044820152606401610cba565b6001600160a01b0386165f9081526009602052604090205460ff161580612a9357506001600160a01b0385165f9081526009602052604090205460ff16155b15612a9f576009611ba1565b846001600160a01b031663c423fe296040518163ffffffff1660e01b8152600401602060405180830381865afa158015612adb573d5f5f3e3d5ffd5b505050506040513d601f19601f82011682018060405250810190612aff919061500b565b6001600160a01b0316866001600160a01b031663c423fe296040518163ffffffff1660e01b8152600401602060405180830381865afa158015612b44573d5f5f3e3d5ffd5b505050506040513d601f19601f82011682018060405250810190612b68919061500b565b6001600160a01b031614612b7d576002611ba1565b612b868661381a565b612b908684613988565b612b9a8685613988565b5f9695505050505050565b6001600160a01b0383165f908152600c602052604081205460ff1615612c005760405162461bcd60e51b815260206004820152601060248201526f189bdc9c9bddc81a5cc81c185d5cd95960821b6044820152606401610cba565b6001600160a01b0384165f9081526009602052604090205460ff16612c2657600961193f565b6001600160a01b038085165f908152600960209081526040808320938716835260029093019052205460ff16612d1f57336001600160a01b03851614612ca65760405162461bcd60e51b815260206004820152601560248201527439b2b73232b91036bab9ba10313290382a37b5b2b760591b6044820152606401610cba565b5f612cb1338561427a565b90505f816011811115612cc657612cc661503d565b14612ce557806011811115612cdd57612cdd61503d565b91505061162f565b6001600160a01b038086165f908152600960209081526040808320938816835260029093019052205460ff16612d1d57612d1d61506c565b505b6004805460405163fc57d4df60e01b81526001600160a01b038781169382019390935291169063fc57d4df90602401602060405180830381865afa158015612d69573d5f5f3e3d5ffd5b505050506040513d601f19601f82011682018060405250810190612d8d9190615026565b5f03612d9a57600d61193f565b6001600160a01b0384165f908152601660205260409020548015612e7a575f856001600160a01b03166347bd37186040518163ffffffff1660e01b8152600401602060405180830381865afa158015612df5573d5f5f3e3d5ffd5b505050506040513d601f19601f82011682018060405250810190612e199190615026565b90505f612e2682866134a3565b9050828110612e775760405162461bcd60e51b815260206004820152601960248201527f6d61726b657420626f72726f77206361702072656163686564000000000000006044820152606401610cba565b50505b5f5f612e8886885f88613c3a565b9193509091505f9050826011811115612ea357612ea361503d565b14612ec457816011811115612eba57612eba61503d565b935050505061162f565b8015612ed1576004612eba565b5f6040518060200160405280896001600160a01b031663aa5af0fd6040518163ffffffff1660e01b8152600401602060405180830381865afa158015612f19573d5f5f3e3d5ffd5b505050506040513d601f19601f82011682018060405250810190612f3d9190615026565b90529050612f4b88826134b9565b612f568888836136a2565b5f98975050505050505050565b6008602052815f5260405f208181548110612f7c575f80fd5b5f918252602090912001546001600160a01b03169150829050565b5f80546001600160a01b03163314612fbc57612fb560016006613f4f565b9050611022565b6001600160a01b0383165f908152600960205260409020805460ff16612ff057612fe860096007613f4f565b915050611022565b60408051602080820183528582528251908101909252670c7d713b49da000082529061301e81835190511090565b156130395761302f60066008613f4f565b9350505050611022565b84158015906130b357506004805460405163fc57d4df60e01b81526001600160a01b038981169382019390935291169063fc57d4df90602401602060405180830381865afa15801561308d573d5f5f3e3d5ffd5b505050506040513d601f19601f820116820180604052508101906130b19190615026565b155b156130c45761302f600d6009613f4f565b60018301805490869055604080516001600160a01b0389168152602081018390529081018790527f70483e6592cd5182d45ac970e05bc62cdcc90e9d8ef2c2dbe686cf383bcd7fc59060600160405180910390a15f979650505050505050565b5f5f6131318585856141c8565b9050801561314057905061162f565b6131498561381a565b6131538585613988565b5f95945050505050565b6040516361bfb47160e11b81523360048201525f9082908290819081906001600160a01b0385169063c37f68e290602401608060405180830381865afa1580156131a9573d5f5f3e3d5ffd5b505050506040513d601f19601f820116820180604052508101906131cd9190615080565b50925092509250825f146132315760405162461bcd60e51b815260206004820152602560248201527f657869744d61726b65743a206765744163636f756e74536e617073686f742066604482015264185a5b195960da1b6064820152608401610cba565b801561324d57613243600c6002613f4f565b9695505050505050565b5f6132598733856141c8565b905080156132795761326e600e6003836145bd565b979650505050505050565b6001600160a01b0385165f908152600960209081526040808320338452600281019092529091205460ff166132b5575f98975050505050505050565b335f9081526002820160209081526040808320805460ff19169055600882528083208054825181850281018501909352808352919290919083018282801561332457602002820191905f5260205f20905b81546001600160a01b03168152600190910190602001808311613306575b505083519394508392505f9150505b8281101561337d57896001600160a01b031684828151811061335757613357614f11565b60200260200101516001600160a01b0316036133755780915061337d565b600101613333565b5081811061338d5761338d61506c565b335f908152600860205260409020805481906133ab90600190614f39565b815481106133bb576133bb614f11565b905f5260205f20015f9054906101000a90046001600160a01b03168183815481106133e8576133e8614f11565b905f5260205f20015f6101000a8154816001600160a01b0302191690836001600160a01b0316021790555080805480613423576134236150b3565b5f8281526020902081015f1990810180546001600160a01b03191690550190556040517fe699a64c18b07ac5b7301aa273f36a2287239eb9501d81950672794afba29a0d9061348a908c9033906001600160a01b0392831681529116602082015260400190565b60405180910390a15f9c9b505050505050505050505050565b5f61162f82846150c7565b5f61162f8284614f39565b6001600160a01b0382165f9081526011602090815260408083206019909252822054909161351d435b6040518060400160405280601c81526020017f626c6f636b206e756d6265722065786365656473203332206269747300000000815250614634565b83549091505f9061353e9063ffffffff80851691600160e01b9004166134ae565b90505f8111801561354e57505f83115b15613677575f6135bd876001600160a01b03166347bd37186040518163ffffffff1660e01b8152600401602060405180830381865afa158015613593573d5f5f3e3d5ffd5b505050506040513d601f19601f820116820180604052508101906135b79190615026565b87614663565b90505f6135ca8386613ff9565b90505f5f83116135e85760405180602001604052805f8152506135f2565b6135f28284614680565b604080516020810190915288546001600160e01b031681529091506136559061361b90836146ba565b5160408051808201909152601a81527f6e657720696e646578206578636565647320323234206269747300000000000060208201526146e3565b6001600160e01b0316600160e01b63ffffffff871602178755506106ba915050565b80156106ba57835463ffffffff8316600160e01b026001600160e01b03909116178455505050505050565b6001600160a01b038381165f90815260116020908152604080832080546013845282852095881685529490925290912080546001600160e01b039093169081905590918015801561370157506a0c097ce7bc90715b34b9f160241b8210155b1561371757506a0c097ce7bc90715b34b9f160241b5b5f604051806020016040528061372d85856134ae565b90526040516395dd919360e01b81526001600160a01b0388811660048301529192505f9161377d91908a16906395dd919390602401602060405180830381865afa158015613593573d5f5f3e3d5ffd5b90505f61378a8284614709565b6001600160a01b0389165f90815260146020526040812054919250906137b090836134a3565b6001600160a01b038a81165f8181526014602090815260409182902085905581518781529081018b90529394509092918d16917f1e5561ff39e796a5299c233e6fd3b11fe55a12e535266cc176f37334e6c7efb6910160405180910390a350505050505050505050565b6001600160a01b0381165f908152601060209081526040808320601a9092528220549091613847436134e2565b83549091505f906138689063ffffffff80851691600160e01b9004166134ae565b90505f8111801561387857505f83115b1561395e575f856001600160a01b03166318160ddd6040518163ffffffff1660e01b8152600401602060405180830381865afa1580156138ba573d5f5f3e3d5ffd5b505050506040513d601f19601f820116820180604052508101906138de9190615026565b90505f6138eb8386613ff9565b90505f5f83116139095760405180602001604052805f815250613913565b6139138284614680565b604080516020810190915288546001600160e01b0316815290915061393c9061361b90836146ba565b6001600160e01b0316600160e01b63ffffffff8716021787555061055e915050565b801561055e57835463ffffffff8316600160e01b026001600160e01b039091161784555050505050565b6001600160a01b038281165f90815260106020908152604080832080546012845282852095871685529490925290912080546001600160e01b03909316908190559091801580156139e757506a0c097ce7bc90715b34b9f160241b8210155b156139fd57506a0c097ce7bc90715b34b9f160241b5b5f6040518060200160405280613a1385856134ae565b90526040516370a0823160e01b81526001600160a01b0387811660048301529192505f918816906370a0823190602401602060405180830381865afa158015613a5e573d5f5f3e3d5ffd5b505050506040513d601f19601f82011682018060405250810190613a829190615026565b90505f613a8f8284614709565b6001600160a01b0388165f9081526014602052604081205491925090613ab590836134a3565b6001600160a01b038981165f8181526014602090815260409182902085905581518781529081018b90529394509092918c16917faf420590cb43d2e84351d8cd2a32149325e748efcd73152eacf2e54ecab59766910160405180910390a3505050505050505050565b5f8073507f0f5e58d21f07d133722e038067248fe4ecbe6040516370a0823160e01b81523060048201529091505f906001600160a01b038316906370a0823190602401602060405180830381865afa158015613b7c573d5f5f3e3d5ffd5b505050506040513d601f19601f82011682018060405250810190613ba09190615026565b90505f84118015613bb15750808411155b15613c315760405163a9059cbb60e01b81526001600160a01b0386811660048301526024820186905283169063a9059cbb906044016020604051808303815f875af1158015613c02573d5f5f3e3d5ffd5b505050506040513d601f19601f82011682018060405250810190613c269190615051565b505f92505050611022565b50919392505050565b5f5f5f613c45614798565b6001600160a01b0388165f90815260086020908152604080832080548251818502810185019093528083528493830182828015613ca957602002820191905f5260205f20905b81546001600160a01b03168152600190910190602001808311613c8b575b509394505f93505050505b8151811015613efd575f828281518110613cd057613cd0614f11565b60209081029190910101516040516361bfb47160e11b81526001600160a01b038e811660048301529192509082169063c37f68e290602401608060405180830381865afa158015613d23573d5f5f3e3d5ffd5b505050506040513d601f19601f82011682018060405250810190613d479190615080565b60808901526060880152604087015293508315613d7257600f5f5f97509750975050505050506118ba565b60408051602080820183526001600160a01b038481165f8181526009845285902060010154845260c08a01939093528351808301855260808a0151815260e08a015260048054855163fc57d4df60e01b815291820194909452935192169263fc57d4df92602480830193928290030181865afa158015613df4573d5f5f3e3d5ffd5b505050506040513d601f19601f82011682018060405250810190613e189190615026565b60a086018190525f03613e3957600d5f5f97509750975050505050506118ba565b604080516020810190915260a0860151815261010086015260c085015160e0860151613e7391613e6891614540565b866101000151614540565b610120860181905260408601518651613e8d929190614730565b855261010085015160608601516020870151613eaa929190614730565b60208601526001600160a01b03808c1690821603613ef457613ed68561012001518b8760200151614730565b60208601819052610100860151613eee918b90614730565b60208601525b50600101613cb4565b50602083015183511115613f2c57602083015183515f91613f1d91614f39565b5f9550955095505050506118ba565b5f5f845f01518560200151613f419190614f39565b9550955095505050506118ba565b5f7f45b96fe442630264581b197e84bbada861235052c5a1aadfff9ea4e40a969aa0836011811115613f8357613f8361503d565b836013811115613f9557613f9561503d565b6040805192835260208301919091525f9082015260600160405180910390a182601181111561162f5761162f61503d565b5f5f5f613fd5845f5f5f613c3a565b9250925092509193909250565b5f5f613fee8484614750565b905061125281614776565b5f61162f82846150da565b5f80546001600160a01b031633148061402757506002546001600160a01b031633145b905090565b5f5b600d548110156140b557816001600160a01b0316600d828154811061405557614055614f11565b5f918252602090912001546001600160a01b0316036140ad5760405162461bcd60e51b81526020600482015260146024820152731b585c9ad95d08185b1c9958591e48185919195960621b6044820152606401610cba565b60010161402e565b50600d80546001810182555f919091527fd7b6990105719101dabeb77144f2a3385c8033acd3af97e9423a695e81ad1eb50180546001600160a01b0319166001600160a01b0392909216919091179055565b5f614111436134e2565b6001600160a01b0383165f908152601060209081526040808320601190925282208154939450909290916001600160e01b03909116900361416b5781546001600160e01b0319166a0c097ce7bc90715b34b9f160241b1782555b80546001600160e01b03165f0361419b5780546001600160e01b0319166a0c097ce7bc90715b34b9f160241b1781555b805463ffffffff909316600160e01b026001600160e01b0393841681179091558154909216909117905550565b6001600160a01b0383165f9081526009602052604081205460ff166141ee57600961193f565b6001600160a01b038085165f908152600960209081526040808320938716835260029093019052205460ff16614224575f61193f565b5f5f6142328587865f613c3a565b9193509091505f905082601181111561424d5761424d61503d565b1461426d578160118111156142645761426461503d565b9250505061162f565b8015612b9a576004614264565b6001600160a01b0382165f908152600960205260408120805460ff166142a4576009915050611022565b6001600160a01b0383165f90815260028201602052604090205460ff1615156001036142d3575f915050611022565b6001600160a01b038381165f81815260028401602090815260408083208054600160ff199091168117909155600883528184208054918201815584529282902090920180546001600160a01b031916948916948517905581519384528301919091527f3ab23ab0d51cccc0c3085aec51f99228625aa1a922b3a8ca89a26b0f2027a1a5910160405180910390a1505f9392505050565b6001600160a01b0383165f908152600960205260409020805460ff166143d15760405162461bcd60e51b815260206004820152601c60248201527f70657269646f74206d61726b6574206973206e6f74206c6973746564000000006044820152606401610cba565b6001600160a01b0384165f908152601a6020526040902054831461444d576143f88461381a565b6001600160a01b0384165f818152601a602052604090819020859055517fe2472d7db054d493512d58f612970e3b40b55230de0ad1a01bb877bad7646eff906144449086815260200190565b60405180910390a25b6001600160a01b0384165f9081526019602052604090205482146106a0575f6040518060200160405280866001600160a01b031663aa5af0fd6040518163ffffffff1660e01b8152600401602060405180830381865afa1580156144b3573d5f5f3e3d5ffd5b505050506040513d601f19601f820116820180604052508101906144d79190615026565b905290506144e585826134b9565b6001600160a01b0385165f8181526019602052604090819020859055517f7c4b2d63a558e248d494f0bc7a1b8606825ff99d95311e4d9c8f4c7911c8949f906145319086815260200190565b60405180910390a25050505050565b60408051602081019091525f81526040518060200160405280670de0b6b3a7640000614572865f0151865f0151613ff9565b61457c91906150f1565b90529392505050565b60408051602081019091525f8152604051806020016040528061457c6145b6865f0151670de0b6b3a7640000613ff9565b855161478d565b5f7f45b96fe442630264581b197e84bbada861235052c5a1aadfff9ea4e40a969aa08460118111156145f1576145f161503d565b8460138111156146035761460361503d565b604080519283526020830191909152810184905260600160405180910390a18360118111156112525761125261503d565b5f81640100000000841061465b5760405162461bcd60e51b8152600401610cba9190615110565b509192915050565b5f61162f61467984670de0b6b3a7640000613ff9565b835161478d565b60408051602081019091525f8152604051806020016040528061457c6146b4866a0c097ce7bc90715b34b9f160241b613ff9565b8561478d565b60408051602081019091525f8152604051806020016040528061457c855f0151855f01516134a3565b5f81600160e01b841061465b5760405162461bcd60e51b8152600401610cba9190615110565b5f6a0c097ce7bc90715b34b9f160241b61472684845f0151613ff9565b61162f91906150f1565b5f5f61473c8585614750565b9050611d1961474a82614776565b846134a3565b60408051602081019091525f8152604051806020016040528061457c855f015185613ff9565b80515f9061102290670de0b6b3a7640000906150f1565b5f61162f82846150f1565b6040518061014001604052805f81526020015f81526020015f81526020015f81526020015f81526020015f81526020016147dd60405180602001604052805f81525090565b81526020016147f760405180602001604052805f81525090565b815260200161481160405180602001604052805f81525090565b815260200161482b60405180602001604052805f81525090565b905290565b6001600160a01b038116811461119e575f5ffd5b5f60208284031215614854575f5ffd5b813561162f81614830565b5f5f60408385031215614870575f5ffd5b823561487b81614830565b9150602083013561488b81614830565b809150509250929050565b5f5f83601f8401126148a6575f5ffd5b5081356001600160401b038111156148bc575f5ffd5b6020830191508360208260051b85010111156148d6575f5ffd5b9250929050565b5f5f5f5f604085870312156148f0575f5ffd5b84356001600160401b03811115614905575f5ffd5b61491187828801614896565b90955093505060208501356001600160401b0381111561492f575f5ffd5b61493b87828801614896565b95989497509550505050565b801515811461119e575f5ffd5b5f5f60408385031215614965575f5ffd5b823561497081614830565b9150602083013561488b81614947565b5f5f5f5f5f60a08688031215614994575f5ffd5b853561499f81614830565b945060208601356149af81614830565b935060408601356149bf81614830565b94979396509394606081013594506080013592915050565b5f5f5f5f608085870312156149ea575f5ffd5b84356149f581614830565b93506020850135614a0581614830565b92506040850135614a1581614830565b9396929550929360600135925050565b634e487b7160e01b5f52604160045260245ffd5b604051601f8201601f191681016001600160401b0381118282101715614a6157614a61614a25565b604052919050565b5f6001600160401b03821115614a8157614a81614a25565b5060051b60200190565b5f82601f830112614a9a575f5ffd5b8135614aad614aa882614a69565b614a39565b8082825260208201915060208360051b860101925085831115614ace575f5ffd5b602085015b83811015614af4578035614ae681614830565b835260209283019201614ad3565b5095945050505050565b5f5f5f5f60808587031215614b11575f5ffd5b84356001600160401b03811115614b26575f5ffd5b614b3287828801614a8b565b94505060208501356001600160401b03811115614b4d575f5ffd5b614b5987828801614a8b565b9350506040850135614b6a81614947565b91506060850135614b7a81614947565b939692955090935050565b5f60208284031215614b95575f5ffd5b813561162f81614947565b5f60208284031215614bb0575f5ffd5b5035919050565b5f5f5f5f60808587031215614bca575f5ffd5b8435614bd581614830565b93506020850135614be581614830565b93969395505050506040820135916060013590565b5f5f5f5f5f5f60c08789031215614c0f575f5ffd5b8635614c1a81614830565b95506020870135614c2a81614830565b94506040870135614c3a81614830565b93506060870135614c4a81614830565b9598949750929560808101359460a0909101359350915050565b5f5f5f60608486031215614c76575f5ffd5b8335614c8181614830565b92506020840135614c9181614830565b929592945050506040919091013590565b5f5f5f5f5f60a08688031215614cb6575f5ffd5b8535614cc181614830565b94506020860135614cd181614830565b93506040860135614ce181614830565b92506060860135614cf181614830565b949793965091946080013592915050565b5f5f60408385031215614d13575f5ffd5b8235614d1e81614830565b946020939093013593505050565b5f5f60408385031215614d3d575f5ffd5b8235614d4881614830565b915060208301356001600160401b03811115614d62575f5ffd5b614d6e85828601614a8b565b9150509250929050565b602080825282518282018190525f918401906040840190835b81811015614db85783516001600160a01b0316835260209384019390920191600101614d91565b509095945050505050565b5f60208284031215614dd3575f5ffd5b81356001600160401b03811115614de8575f5ffd5b61125284828501614a8b565b602080825282518282018190525f918401906040840190835b81811015614db8578351835260209384019390920191600101614e0d565b5f82601f830112614e3a575f5ffd5b8135614e48614aa882614a69565b8082825260208201915060208360051b860101925085831115614e69575f5ffd5b602085015b83811015614af4578035835260209283019201614e6e565b5f5f5f60608486031215614e98575f5ffd5b83356001600160401b03811115614ead575f5ffd5b614eb986828701614a8b565b93505060208401356001600160401b03811115614ed4575f5ffd5b614ee086828701614e2b565b92505060408401356001600160401b03811115614efb575f5ffd5b614f0786828701614e2b565b9150509250925092565b634e487b7160e01b5f52603260045260245ffd5b634e487b7160e01b5f52601160045260245ffd5b8181038181111561102257611022614f25565b60208082526028908201527f63616e6e6f742070617573652061206d61726b65742074686174206973206e6f6040820152671d081b1a5cdd195960c21b606082015260800190565b60208082526027908201527f6f6e6c7920706175736520677561726469616e20616e642061646d696e2063616040820152666e20706175736560c81b606082015260800190565b6020808252601690820152756f6e6c792061646d696e2063616e20756e706175736560501b604082015260600190565b5f6020828403121561501b575f5ffd5b815161162f81614830565b5f60208284031215615036575f5ffd5b5051919050565b634e487b7160e01b5f52602160045260245ffd5b5f60208284031215615061575f5ffd5b815161162f81614947565b634e487b7160e01b5f52600160045260245ffd5b5f5f5f5f60808587031215615093575f5ffd5b505082516020840151604085015160609095015191969095509092509050565b634e487b7160e01b5f52603160045260245ffd5b8082018082111561102257611022614f25565b808202811582820484141761102257611022614f25565b5f8261510b57634e487b7160e01b5f52601260045260245ffd5b500490565b602081525f82518060208401528060208501604085015e5f604082850101526040601f19601f8301168401019150509291505056fea264697066735822122082dcabc7e21546a021385f481fe1b5f5bb972c4a7b481821d1b4f9b01e6fffcc64736f6c634300081b0033","linkReferences":{}},"methodIdentifiers":{"_become(address)":"1d504dc6","_borrowGuardianPaused()":"e6653f3d","_grantPeridot(address,uint256)":"9a8260d6","_mintGuardianPaused()":"3c94786f","_setBorrowCapGuardian(address)":"391957d7","_setBorrowPaused(address,bool)":"18c882a5","_setCloseFactor(uint256)":"317b0b77","_setCollateralFactor(address,uint256)":"e4028eee","_setContributorPeridotSpeed(address,uint256)":"b0cbd622","_setLiquidationIncentive(uint256)":"4fd42e17","_setMarketBorrowCaps(address[],uint256[])":"607ef6c1","_setMintPaused(address,bool)":"3bcf7ec1","_setPauseGuardian(address)":"5f5af1aa","_setPeridotSpeeds(address[],uint256[],uint256[])":"c44e1657","_setPriceOracle(address)":"55ee1fe1","_setSeizePaused(bool)":"2d70db78","_setTransferPaused(bool)":"8ebf6364","_supportMarket(address)":"a76b3fda","accountAssets(address,uint256)":"dce15449","admin()":"f851a440","allMarkets(uint256)":"52d84d1e","borrowAllowed(address,address,uint256)":"da3d454c","borrowCapGuardian()":"21af4569","borrowCaps(address)":"4a584432","borrowGuardianPaused(address)":"6d154ea5","borrowVerify(address,address,uint256)":"5c778605","checkMembership(address,address)":"929fe9a1","claimPeridot(address)":"36376925","claimPeridot(address,address[])":"9d92e62f","claimPeridot(address[],address[],bool,bool)":"2582e0ec","closeFactorMantissa()":"e8755446","enterMarkets(address[])":"c2998238","exitMarket(address)":"ede4edd0","fixBadAccruals(address[],uint256[])":"16b95e8f","getAccountLiquidity(address)":"5ec88c79","getAllMarkets()":"b0772d0b","getAssetsIn(address)":"abfceffc","getBlockNumber()":"42cbb15c","getHypotheticalAccountLiquidity(address,address,uint256,uint256)":"4e79238f","getPeridotAddress()":"8b130fa0","isDeprecated(address)":"94543c15","isPeridottroller()":"fa707af9","lastContributorBlock(address)":"bea6b8b8","liquidateBorrowAllowed(address,address,address,address,uint256)":"5fc7e71e","liquidateBorrowVerify(address,address,address,address,uint256,uint256)":"47ef3b3b","liquidateCalculateSeizeTokens(address,address,uint256)":"c488847b","liquidationIncentiveMantissa()":"4ada90af","markets(address)":"8e8f294b","maxAssets()":"94b2294b","mintAllowed(address,address,uint256)":"4ef4c3e1","mintGuardianPaused(address)":"731f0c2b","mintVerify(address,address,uint256,uint256)":"41c728b9","oracle()":"7dc0d1d0","pauseGuardian()":"24a3d622","pendingAdmin()":"26782247","pendingPeridottrollerImplementation()":"7c8f3a67","peridotAccrued(address)":"d002d989","peridotBorrowSpeeds(address)":"c6a01759","peridotBorrowState(address)":"328bb72b","peridotBorrowerIndex(address,address)":"a64db627","peridotContributorSpeeds(address)":"ce27c01e","peridotInitialIndex()":"cd2489f0","peridotRate()":"d088864a","peridotReceivable(address)":"f1ad5756","peridotSpeeds(address)":"794595f5","peridotSupplierIndex(address,address)":"0aa4266f","peridotSupplySpeeds(address)":"0938c63d","peridotSupplyState(address)":"935dbd26","peridottrollerImplementation()":"18f1408d","proposal65FixExecuted()":"f00a7a92","redeemAllowed(address,address,uint256)":"eabe7d91","redeemVerify(address,address,uint256,uint256)":"51dff989","repayBorrowAllowed(address,address,address,uint256)":"24008a62","repayBorrowVerify(address,address,address,uint256,uint256)":"1ededc91","seizeAllowed(address,address,address,address,uint256)":"d02f7351","seizeGuardianPaused()":"ac0b0bb7","seizeVerify(address,address,address,address,uint256)":"6d35bf91","transferAllowed(address,address,address,uint256)":"bdcdc258","transferGuardianPaused()":"87f76303","transferVerify(address,address,address,uint256)":"6a56947e","updateContributorRewards(address)":"741b2525"},"id":21}