{"abi":[{"type":"constructor","inputs":[{"name":"_wormhole","type":"address","internalType":"address"},{"name":"_tokenBridge","type":"address","internalType":"address"},{"name":"_peridottroller","type":"address","internalType":"address"},{"name":"_relayer","type":"address","internalType":"address"}],"stateMutability":"nonpayable"},{"type":"receive","stateMutability":"payable"},{"type":"function","name":"emergencyWithdraw","inputs":[{"name":"token","type":"address","internalType":"address"}],"outputs":[],"stateMutability":"nonpayable"},{"type":"function","name":"getBorrowBalance","inputs":[{"name":"user","type":"address","internalType":"address"},{"name":"token","type":"address","internalType":"address"}],"outputs":[{"name":"","type":"uint256","internalType":"uint256"}],"stateMutability":"view"},{"type":"function","name":"getCollateralBalance","inputs":[{"name":"user","type":"address","internalType":"address"},{"name":"token","type":"address","internalType":"address"}],"outputs":[{"name":"","type":"uint256","internalType":"uint256"}],"stateMutability":"view"},{"type":"function","name":"initialize","inputs":[{"name":"initialOwner","type":"address","internalType":"address"}],"outputs":[],"stateMutability":"nonpayable"},{"type":"function","name":"owner","inputs":[],"outputs":[{"name":"","type":"address","internalType":"address"}],"stateMutability":"view"},{"type":"function","name":"peridottroller","inputs":[],"outputs":[{"name":"","type":"address","internalType":"contract PeridottrollerG7"}],"stateMutability":"view"},{"type":"function","name":"processedMessages","inputs":[{"name":"","type":"bytes32","internalType":"bytes32"}],"outputs":[{"name":"","type":"bool","internalType":"bool"}],"stateMutability":"view"},{"type":"function","name":"receiveWormholeMessages","inputs":[{"name":"payload","type":"bytes","internalType":"bytes"},{"name":"additionalVaas","type":"bytes[]","internalType":"bytes[]"},{"name":"sourceAddress","type":"bytes32","internalType":"bytes32"},{"name":"sourceChain","type":"uint16","internalType":"uint16"},{"name":"deliveryHash","type":"bytes32","internalType":"bytes32"}],"outputs":[],"stateMutability":"payable"},{"type":"function","name":"registerMarket","inputs":[{"name":"underlying","type":"address","internalType":"address"},{"name":"pToken","type":"address","internalType":"address"}],"outputs":[],"stateMutability":"nonpayable"},{"type":"function","name":"registeredMarkets","inputs":[{"name":"","type":"address","internalType":"address"}],"outputs":[{"name":"","type":"bool","internalType":"bool"}],"stateMutability":"view"},{"type":"function","name":"relayer","inputs":[],"outputs":[{"name":"","type":"address","internalType":"contract IWormholeRelayerSend"}],"stateMutability":"view"},{"type":"function","name":"relayerAddress","inputs":[],"outputs":[{"name":"","type":"address","internalType":"address"}],"stateMutability":"view"},{"type":"function","name":"renounceOwnership","inputs":[],"outputs":[],"stateMutability":"nonpayable"},{"type":"function","name":"setTrustedEmitter","inputs":[{"name":"chainId","type":"uint16","internalType":"uint16"},{"name":"emitterAddress","type":"bytes32","internalType":"bytes32"},{"name":"status","type":"bool","internalType":"bool"}],"outputs":[],"stateMutability":"nonpayable"},{"type":"function","name":"tokenBridge","inputs":[],"outputs":[{"name":"","type":"address","internalType":"contract ITokenBridge"}],"stateMutability":"view"},{"type":"function","name":"transferOwnership","inputs":[{"name":"newOwner","type":"address","internalType":"address"}],"outputs":[],"stateMutability":"nonpayable"},{"type":"function","name":"trustedEmitters","inputs":[{"name":"","type":"uint16","internalType":"uint16"},{"name":"","type":"bytes32","internalType":"bytes32"}],"outputs":[{"name":"","type":"bool","internalType":"bool"}],"stateMutability":"view"},{"type":"function","name":"underlyingToPToken","inputs":[{"name":"","type":"address","internalType":"address"}],"outputs":[{"name":"","type":"address","internalType":"address"}],"stateMutability":"view"},{"type":"function","name":"wormhole","inputs":[],"outputs":[{"name":"","type":"address","internalType":"contract IWormhole"}],"stateMutability":"view"},{"type":"event","name":"BorrowProcessed","inputs":[{"name":"user","type":"address","indexed":true,"internalType":"address"},{"name":"token","type":"address","indexed":true,"internalType":"address"},{"name":"amount","type":"uint256","indexed":false,"internalType":"uint256"}],"anonymous":false},{"type":"event","name":"DeliveryStatus","inputs":[{"name":"status","type":"uint8","indexed":false,"internalType":"uint8"},{"name":"deliveryHash","type":"bytes32","indexed":false,"internalType":"bytes32"}],"anonymous":false},{"type":"event","name":"DepositReceived","inputs":[{"name":"user","type":"address","indexed":true,"internalType":"address"},{"name":"token","type":"address","indexed":true,"internalType":"address"},{"name":"amount","type":"uint256","indexed":false,"internalType":"uint256"}],"anonymous":false},{"type":"event","name":"EmitterRegistered","inputs":[{"name":"chainId","type":"uint16","indexed":true,"internalType":"uint16"},{"name":"emitter","type":"bytes32","indexed":true,"internalType":"bytes32"},{"name":"status","type":"bool","indexed":false,"internalType":"bool"}],"anonymous":false},{"type":"event","name":"Initialized","inputs":[{"name":"version","type":"uint64","indexed":false,"internalType":"uint64"}],"anonymous":false},{"type":"event","name":"MarketRegistered","inputs":[{"name":"underlying","type":"address","indexed":true,"internalType":"address"},{"name":"pToken","type":"address","indexed":true,"internalType":"address"}],"anonymous":false},{"type":"event","name":"OwnershipTransferred","inputs":[{"name":"previousOwner","type":"address","indexed":true,"internalType":"address"},{"name":"newOwner","type":"address","indexed":true,"internalType":"address"}],"anonymous":false},{"type":"event","name":"RepaymentProcessed","inputs":[{"name":"user","type":"address","indexed":true,"internalType":"address"},{"name":"token","type":"address","indexed":true,"internalType":"address"},{"name":"amount","type":"uint256","indexed":false,"internalType":"uint256"}],"anonymous":false},{"type":"event","name":"TokenTransferCompleted","inputs":[{"name":"token","type":"address","indexed":true,"internalType":"address"},{"name":"amount","type":"uint256","indexed":false,"internalType":"uint256"}],"anonymous":false},{"type":"event","name":"TokenTransferPeridotleted","inputs":[{"name":"token","type":"address","indexed":true,"internalType":"address"},{"name":"amount","type":"uint256","indexed":false,"internalType":"uint256"}],"anonymous":false},{"type":"event","name":"WithdrawalProcessed","inputs":[{"name":"user","type":"address","indexed":true,"internalType":"address"},{"name":"token","type":"address","indexed":true,"internalType":"address"},{"name":"amount","type":"uint256","indexed":false,"internalType":"uint256"}],"anonymous":false},{"type":"error","name":"BorrowFailed","inputs":[]},{"type":"error","name":"InsufficientBorrowBalance","inputs":[]},{"type":"error","name":"InsufficientCollateral","inputs":[]},{"type":"error","name":"InsufficientContractBalanceForFee","inputs":[]},{"type":"error","name":"InsufficientLiquidity","inputs":[]},{"type":"error","name":"InvalidAddress","inputs":[{"name":"param","type":"string","internalType":"string"}]},{"type":"error","name":"InvalidAmount","inputs":[]},{"type":"error","name":"InvalidInitialization","inputs":[]},{"type":"error","name":"LiquidityCheckFailed","inputs":[]},{"type":"error","name":"MarketNotSupported","inputs":[]},{"type":"error","name":"MessageAlreadyProcessed","inputs":[]},{"type":"error","name":"MintFailed","inputs":[]},{"type":"error","name":"NotInitializing","inputs":[]},{"type":"error","name":"OnlyRelayer","inputs":[]},{"type":"error","name":"OwnableInvalidOwner","inputs":[{"name":"owner","type":"address","internalType":"address"}]},{"type":"error","name":"OwnableUnauthorizedAccount","inputs":[{"name":"account","type":"address","internalType":"address"}]},{"type":"error","name":"PeridotletionFailed","inputs":[]},{"type":"error","name":"ReentrancyGuardReentrantCall","inputs":[]},{"type":"error","name":"RepayFailed","inputs":[]},{"type":"error","name":"SafeERC20FailedOperation","inputs":[{"name":"token","type":"address","internalType":"address"}]},{"type":"error","name":"SourceNotTrusted","inputs":[]},{"type":"error","name":"TokenBridgeTransferFailed","inputs":[]},{"type":"error","name":"TokenTransferFailed","inputs":[]},{"type":"error","name":"WithdrawalFailed","inputs":[]}],"bytecode":{"object":"0x610120604052348015610010575f5ffd5b50604051612afe380380612afe83398101604081905261002f9161018c565b60015f556001600160a01b03841661007a57604051630b0f5aa160e11b8152602060048201526008602482015267776f726d686f6c6560c01b60448201526064015b60405180910390fd5b6001600160a01b0383166100c057604051630b0f5aa160e11b815260206004820152600c60248201526b746f6b656e2062726964676560a01b6044820152606401610071565b6001600160a01b03821661010857604051630b0f5aa160e11b815260206004820152600e60248201526d3832b934b237ba3a3937b63632b960911b6044820152606401610071565b6001600160a01b03811661014957604051630b0f5aa160e11b81526020600482015260076024820152663932b630bcb2b960c91b6044820152606401610071565b6001600160a01b0393841660805291831660a0528216610100521660c081905260e0526101dd565b80516001600160a01b0381168114610187575f5ffd5b919050565b5f5f5f5f6080858703121561019f575f5ffd5b6101a885610171565b93506101b660208601610171565b92506101c460408601610171565b91506101d260608601610171565b905092959194509250565b60805160a05160c05160e0516101005161288261027c5f395f818161034801528181611adc01528181611b8601528181611d4201528181611e010152611e9201525f8181610161015261049f01525f81816101f40152818161194d01526119f801525f818161039a015281816106320152818161065e01528181611794015261181101525f81816102270152818161057101526116dc01526128825ff3fe608060405260043610610113575f3560e01c806394a3d5c61161009d578063c6328a4611610062578063c6328a4614610389578063d9a1dcef146103bc578063dfc76de3146103db578063f2fde38b14610409578063fd7948d414610428575f5ffd5b806394a3d5c61461029b578063b4359143146102d4578063b7d5820b146102f3578063c423fe2914610337578063c4d66de81461036a575f5ffd5b8063715018a6116100e3578063715018a6146101cf5780638406c079146101e357806384acd1bb1461021657806388ba16ab146102495780638da5cb5b14610287575f5ffd5b8063118e31b71461011e57806318a7cca814610150578063529dca321461019b5780636ff1c9bc146101b0575f5ffd5b3661011a57005b5f5ffd5b348015610129575f5ffd5b5061013d61013836600461204a565b61045c565b6040519081526020015b60405180910390f35b34801561015b575f5ffd5b506101837f000000000000000000000000000000000000000000000000000000000000000081565b6040516001600160a01b039091168152602001610147565b6101ae6101a93660046121c9565b61048c565b005b3480156101bb575f5ffd5b506101ae6101ca3660046122c2565b610763565b3480156101da575f5ffd5b506101ae6107fb565b3480156101ee575f5ffd5b506101837f000000000000000000000000000000000000000000000000000000000000000081565b348015610221575f5ffd5b506101837f000000000000000000000000000000000000000000000000000000000000000081565b348015610254575f5ffd5b506102776102633660046122e4565b60046020525f908152604090205460ff1681565b6040519015158152602001610147565b348015610292575f5ffd5b5061018361080e565b3480156102a6575f5ffd5b506102776102b53660046122fb565b600160209081525f928352604080842090915290825290205460ff1681565b3480156102df575f5ffd5b506101ae6102ee36600461204a565b61083c565b3480156102fe575f5ffd5b5061013d61030d36600461204a565b6001600160a01b039182165f90815260056020908152604080832093909416825291909152205490565b348015610342575f5ffd5b506101837f000000000000000000000000000000000000000000000000000000000000000081565b348015610375575f5ffd5b506101ae6103843660046122c2565b610944565b348015610394575f5ffd5b506101837f000000000000000000000000000000000000000000000000000000000000000081565b3480156103c7575f5ffd5b506101ae6103d6366004612332565b610a3b565b3480156103e6575f5ffd5b506102776103f53660046122c2565b60036020525f908152604090205460ff1681565b348015610414575f5ffd5b506101ae6104233660046122c2565b610aa8565b348015610433575f5ffd5b506101836104423660046122c2565b60026020525f90815260409020546001600160a01b031681565b6001600160a01b038083165f90815260056020908152604080832093851683526001909301905220545b92915050565b610494610ae5565b336001600160a01b037f000000000000000000000000000000000000000000000000000000000000000016146104dd576040516308af1bb760e31b815260040160405180910390fd5b5f8181526004602052604090205460ff161561050c57604051637b04260960e01b815260040160405180910390fd5b61ffff82165f90815260016020908152604080832086845290915290205460ff1661054a57604051634f5d87ed60e11b815260040160405180910390fd5b5f818152600460205260408120805460ff191660011790555b8451811015610748575f5f5f7f00000000000000000000000000000000000000000000000000000000000000006001600160a01b031663c0fd8bde8986815181106105b0576105b0612371565b60200260200101516040518263ffffffff1660e01b81526004016105d491906123b3565b5f60405180830381865afa1580156105ee573d5f5f3e3d5ffd5b505050506040513d5f823e601f3d908101601f19168201604052610615919081019061250f565b9250925092508161062857505050610740565b6001600160a01b037f00000000000000000000000000000000000000000000000000000000000000001683608001510361073c577f00000000000000000000000000000000000000000000000000000000000000006001600160a01b031663c687851989868151811061069d5761069d612371565b60200260200101516040518263ffffffff1660e01b81526004016106c191906123b3565b5f604051808303815f87803b1580156106d8575f5ffd5b505af19250505080156106e9575060015b61070657604051632728491760e01b815260040160405180910390fd5b6040515f808252907fe8be5bd5b2612b88681a9138ce10ab8f39b23eb5901d875b2331916af67fd19f9060200160405180910390a25b5050505b600101610563565b506107538583610b0d565b61075c60015f55565b5050505050565b61076b610c6e565b6040516370a0823160e01b81523060048201525f906001600160a01b038316906370a0823190602401602060405180830381865afa1580156107af573d5f5f3e3d5ffd5b505050506040513d601f19601f820116820180604052508101906107d3919061266f565b905080156107f7576107f76107e661080e565b6001600160a01b0384169083610ca0565b5050565b610803610c6e565b61080c5f610cf7565b565b7f9016d09d72d40fdae2fd8ceac6b6234c7706214fd39c1cd1e609a0528c199300546001600160a01b031690565b610844610c6e565b6001600160a01b038216158061086157506001600160a01b038116155b1561089d57604051630b0f5aa160e11b81526020600482015260066024820152651b585c9ad95d60d21b60448201526064015b60405180910390fd5b6001600160a01b0381165f9081526003602052604090205460ff16156108d657604051630ff2e4a960e31b815260040160405180910390fd5b6001600160a01b038281165f81815260026020908152604080832080546001600160a01b03191695871695861790558483526003909152808220805460ff19166001179055517f85809204e50772a47432493e370a554da587e4798b21fc144cf382946a05abcf9190a35050565b5f61094d610d67565b805490915060ff600160401b82041615906001600160401b03165f811580156109735750825b90505f826001600160401b0316600114801561098e5750303b155b90508115801561099c575080155b156109ba5760405163f92ee8a960e01b815260040160405180910390fd5b845467ffffffffffffffff1916600117855583156109e457845460ff60401b1916600160401b1785555b6109ed86610d8f565b8315610a3357845460ff60401b19168555604051600181527fc7f505b2f371ae2175ee4913f4499e1f2633a7b5936321eed1cdaeb6115181d29060200160405180910390a15b505050505050565b610a43610c6e565b61ffff83165f818152600160209081526040808320868452825291829020805460ff191685151590811790915591519182528492917f6f77753c3af42695dbe844f77763a3286ee7a7e859a09ac2db7b34372fa58060910160405180910390a3505050565b610ab0610c6e565b6001600160a01b038116610ad957604051631e4fbdf760e01b81525f6004820152602401610894565b610ae281610cf7565b50565b60025f5403610b0757604051633ee5aeb560e01b815260040160405180910390fd5b60025f55565b5f5f5f5f85806020019051810190610b259190612686565b6001600160a01b038083165f9081526002602052604090205494985092965090945092501680610b6857604051630ff2e4a960e31b815260040160405180910390fd5b6040805160018082528183019092525f916020808301908036833701905050905081815f81518110610b9c57610b9c612371565b60200260200101906001600160a01b031690816001600160a01b031681525050610bc581610da0565b5f1960ff871601610be057610bdb858585610e6e565b610c64565b60011960ff871601610bf857610bdb8585858a61102a565b60021960ff871601610c0f57610bdb8585856111eb565b60031960ff871601610c2757610bdb8585858a6113e7565b60405162461bcd60e51b8152602060048201526012602482015271125b9d985b1a59081c185e5b1bd85908125160721b6044820152606401610894565b5050505050505050565b33610c7761080e565b6001600160a01b03161461080c5760405163118cdaa760e01b8152336004820152602401610894565b604080516001600160a01b038416602482015260448082018490528251808303909101815260649091019091526020810180516001600160e01b031663a9059cbb60e01b179052610cf29084906115ca565b505050565b7f9016d09d72d40fdae2fd8ceac6b6234c7706214fd39c1cd1e609a0528c19930080546001600160a01b031981166001600160a01b03848116918217845560405192169182907f8be0079c531659141344cd1fd0a4f28419497f9722a3daafe3b4186f6b6457e0905f90a3505050565b5f807ff0c57e16840df040f15088dc2f81fe391c3923bec73e23a9662efc9c229c6a00610486565b610d9761163c565b610ae281611661565b5f5b81518110156107f75760035f838381518110610dc057610dc0612371565b6020908102919091018101516001600160a01b031682528101919091526040015f205460ff1615610e6657818181518110610dfd57610dfd612371565b60200260200101516001600160a01b031663a6afed956040518163ffffffff1660e01b81526004016020604051808303815f875af1925050508015610e5f575060408051601f3d908101601f19168201909252610e5c9181019061266f565b60015b15610e6657505b600101610da2565b6001600160a01b038083165f908152600260205260409020541680610ea657604051630ff2e4a960e31b815260040160405180910390fd5b6001600160a01b038085165f90815260056020908152604080832093871683529290529081208054849290610edc9084906126e7565b909155505060405163095ea7b360e01b81526001600160a01b0382811660048301526024820184905284169063095ea7b3906044016020604051808303815f875af1158015610f2d573d5f5f3e3d5ffd5b505050506040513d601f19601f82011682018060405250810190610f5191906126fa565b5060405163140e25ad60e31b8152600481018390526001600160a01b0382169063a0712d68906024016020604051808303815f875af1158015610f96573d5f5f3e3d5ffd5b505050506040513d601f19601f82011682018060405250810190610fba919061266f565b15610fd75760405162ec6f7b60e31b815260040160405180910390fd5b826001600160a01b0316846001600160a01b03167f54ef209e319f7d023f4f2c1d4b427c3844f7ef008d20a2104b1f20cb533a7fbf8460405161101c91815260200190565b60405180910390a350505050565b6001600160a01b038084165f90815260026020526040902054168061106257604051630ff2e4a960e31b815260040160405180910390fd5b5f5f5f6110728888886001611669565b925092509250825f146110985760405163eaba19a560e01b815260040160405180910390fd5b801515806110a557508582105b156110c35760405163bb55fd2760e01b815260040160405180910390fd5b6001600160a01b038089165f908152600560209081526040808320938b1683526001909301905290812080548892906110fd9084906126e7565b909155505060405163317afabb60e21b8152600481018790526001600160a01b0385169063c5ebeaec906024016020604051808303815f875af1158015611146573d5f5f3e3d5ffd5b505050506040513d601f19601f8201168201806040525081019061116a919061266f565b1561118857604051636b263a7560e01b815260040160405180910390fd5b61119487878a886116d9565b866001600160a01b0316886001600160a01b03167fef6232ed08f3c65a66f8b10d8b4324a48d0cb8c6b66e89c4172e38b6be2f1f72886040516111d991815260200190565b60405180910390a35050505050505050565b6001600160a01b038083165f90815260026020526040902054168061122357604051630ff2e4a960e31b815260040160405180910390fd5b6001600160a01b038085165f908152600560209081526040808320938716835260019093019052205482111561126c5760405163430cc2b160e11b815260040160405180910390fd5b6001600160a01b038085165f90815260056020908152604080832093871683526001909301905290812080548492906112a6908490612715565b909155505060405163095ea7b360e01b81526001600160a01b0382811660048301526024820184905284169063095ea7b3906044016020604051808303815f875af11580156112f7573d5f5f3e3d5ffd5b505050506040513d601f19601f8201168201806040525081019061131b91906126fa565b5060405163073a938160e11b8152600481018390526001600160a01b03821690630e752702906024016020604051808303815f875af1158015611360573d5f5f3e3d5ffd5b505050506040513d601f19601f82011682018060405250810190611384919061266f565b156113a257604051639e703a0560e01b815260040160405180910390fd5b826001600160a01b0316846001600160a01b03167f12e208ca495b89f9259dc591a43bf01a7c2e40414b907ce88a0329c58de8dc7a8460405161101c91815260200190565b6001600160a01b038084165f90815260026020526040902054168061141f57604051630ff2e4a960e31b815260040160405180910390fd5b6001600160a01b038086165f9081526005602090815260408083209388168352929052205483111561146457604051633a23d82560e01b815260040160405180910390fd5b5f5f5f6114738888885f611669565b925092509250825f146114995760405163eaba19a560e01b815260040160405180910390fd5b80156114b85760405163bb55fd2760e01b815260040160405180910390fd5b6001600160a01b038089165f908152600560209081526040808320938b16835292905290812080548892906114ee908490612715565b909155505060405163852a12e360e01b8152600481018790526001600160a01b0385169063852a12e3906024016020604051808303815f875af1158015611537573d5f5f3e3d5ffd5b505050506040513d601f19601f8201168201806040525081019061155b919061266f565b15611579576040516327fcd9d160e01b815260040160405180910390fd5b61158587878a886116d9565b866001600160a01b0316886001600160a01b03167fcd1fce47d5ad89dd70b04c75bd6bdb8114d4d4ff7b4393f9fb5937e733ba9582886040516111d991815260200190565b5f5f60205f8451602086015f885af1806115e9576040513d5f823e3d81fd5b50505f513d9150811561160057806001141561160d565b6001600160a01b0384163b155b1561163657604051635274afe760e01b81526001600160a01b0385166004820152602401610894565b50505050565b611644611a86565b61080c57604051631afcd79f60e31b815260040160405180910390fd5b610ab061163c565b6001600160a01b038084165f9081526002602052604081205490918291829116806116a757604051630ff2e4a960e31b815260040160405180910390fd5b84156116c4576116b8888888611a9f565b935093509350506116cf565b6116b8888888611d05565b9450945094915050565b5f7f00000000000000000000000000000000000000000000000000000000000000006001600160a01b0316631a90a2196040518163ffffffff1660e01b8152600401602060405180830381865afa158015611736573d5f5f3e3d5ffd5b505050506040513d601f19601f8201168201806040525081019061175a919061266f565b90508047101561177d5760405163f461e79f60e01b815260040160405180910390fd5b60405163095ea7b360e01b81526001600160a01b037f0000000000000000000000000000000000000000000000000000000000000000811660048301526024820186905286169063095ea7b3906044016020604051808303815f875af11580156117e9573d5f5f3e3d5ffd5b505050506040513d601f19601f8201168201806040525081019061180d91906126fa565b505f7f00000000000000000000000000000000000000000000000000000000000000006001600160a01b0316630f5287b0838888876118528a6001600160a01b031690565b6040516001600160e01b031960e088901b1681526001600160a01b039094166004850152602484019290925261ffff16604483015260648201525f6084820181905260a482015260c40160206040518083038185885af11580156118b8573d5f5f3e3d5ffd5b50505050506040513d601f19601f820116820180604052508101906118dd9190612728565b604080515f602082018190526001600160a01b03808916938301939093529189166060820152608081018890529192509060a00160408051808303601f190181529082905263c23ee3c360e01b825261ffff861660048301525f60248301819052620f42406044840152909250907f00000000000000000000000000000000000000000000000000000000000000006001600160a01b03169063c23ee3c3906064016040805180830381865afa158015611999573d5f5f3e3d5ffd5b505050506040513d601f19601f820116820180604052508101906119bd9190612741565b509050804710156119e15760405163f461e79f60e01b815260040160405180910390fd5b6040516347f66e8160e11b81526001600160a01b037f00000000000000000000000000000000000000000000000000000000000000001690638fecdd02908390611a3a9089908b9088905f90620f424090600401612763565b60206040518083038185885af1158015611a56573d5f5f3e3d5ffd5b50505050506040513d601f19601f82011682018060405250810190611a7b9190612728565b505050505050505050565b5f611a8f610d67565b54600160401b900460ff16919050565b6001600160a01b038281165f90815260026020526040808220549051635ec88c7960e01b81523060048201529192839283928216918391829182917f000000000000000000000000000000000000000000000000000000000000000090911690635ec88c7990602401606060405180830381865afa158015611b23573d5f5f3e3d5ffd5b505050506040513d601f19601f82011682018060405250810190611b4791906127a4565b925092509250825f141580611b5b57505f81115b15611b8057825f5f8311611b6f575f611b71565b825b96509650965050505050611cfc565b5f5f90507f00000000000000000000000000000000000000000000000000000000000000006001600160a01b0316637dc0d1d06040518163ffffffff1660e01b8152600401602060405180830381865afa925050508015611bfe575060408051601f3d908101601f19168201909252611bfb918101906127cf565b60015b611c115750670de0b6b3a7640000611c8c565b60405163fc57d4df60e01b81526001600160a01b03878116600483015282169063fc57d4df90602401602060405180830381865afa925050508015611c73575060408051601f3d908101601f19168201909252611c709181019061266f565b60015b611c8757670de0b6b3a76400009150611c8a565b91505b505b805f03611c9e5750670de0b6b3a76400005b5f670de0b6b3a7640000611cb2838c6127ea565b611cbc9190612801565b905083811115611ce3575f84611cd28184612715565b985098509850505050505050611cfc565b5f611cee8286612715565b5f9850985098505050505050505b93509350939050565b6001600160a01b038281165f90815260026020526040808220549051635ec88c7960e01b81523060048201529192839283928216918391829182917f000000000000000000000000000000000000000000000000000000000000000090911690635ec88c7990602401606060405180830381865afa158015611d89573d5f5f3e3d5ffd5b505050506040513d601f19601f82011682018060405250810190611dad91906127a4565b925092509250825f141580611dc157505f81115b15611dd557825f5f8311611b6f575f611b71565b604051638e8f294b60e01b81526001600160a01b038581166004830152600191670a688906bd8b0000917f00000000000000000000000000000000000000000000000000000000000000001690638e8f294b906024016040805180830381865afa925050508015611e63575060408051601f3d908101601f19168201909252611e6091810190612820565b60015b15611e6e5790925090505b81611e8c57604051630ff2e4a960e31b815260040160405180910390fd5b5f5f90507f00000000000000000000000000000000000000000000000000000000000000006001600160a01b0316637dc0d1d06040518163ffffffff1660e01b8152600401602060405180830381865afa925050508015611f0a575060408051601f3d908101601f19168201909252611f07918101906127cf565b60015b611f1d5750670de0b6b3a7640000611f98565b60405163fc57d4df60e01b81526001600160a01b03898116600483015282169063fc57d4df90602401602060405180830381865afa925050508015611f7f575060408051601f3d908101601f19168201909252611f7c9181019061266f565b60015b611f9357670de0b6b3a76400009150611f96565b91505b505b805f03611faa5750670de0b6b3a76400005b5f670de0b6b3a7640000611fbe838e6127ea565b611fc89190612801565b90505f670de0b6b3a7640000611fde85846127ea565b611fe89190612801565b905086811115612012575f87611ffe8184612715565b9b509b509b50505050505050505050611cfc565b5f61201d8289612715565b5f9b509b509b5050505050505050505093509350939050565b6001600160a01b0381168114610ae2575f5ffd5b5f5f6040838503121561205b575f5ffd5b823561206681612036565b9150602083013561207681612036565b809150509250929050565b634e487b7160e01b5f52604160045260245ffd5b604051608081016001600160401b03811182821017156120b7576120b7612081565b60405290565b60405161016081016001600160401b03811182821017156120b7576120b7612081565b604051601f8201601f191681016001600160401b038111828210171561210857612108612081565b604052919050565b5f6001600160401b0382111561212857612128612081565b50601f01601f191660200190565b5f82601f830112612145575f5ffd5b813561215861215382612110565b6120e0565b81815284602083860101111561216c575f5ffd5b816020850160208301375f918101602001919091529392505050565b5f6001600160401b038211156121a0576121a0612081565b5060051b60200190565b61ffff81168114610ae2575f5ffd5b80356121c4816121aa565b919050565b5f5f5f5f5f60a086880312156121dd575f5ffd5b85356001600160401b038111156121f2575f5ffd5b6121fe88828901612136565b95505060208601356001600160401b03811115612219575f5ffd5b8601601f81018813612229575f5ffd5b803561223761215382612188565b8082825260208201915060208360051b85010192508a831115612258575f5ffd5b602084015b838110156122985780356001600160401b0381111561227a575f5ffd5b6122898d602083890101612136565b8452506020928301920161225d565b509650505050604086013592506122b1606087016121b9565b949793965091946080013592915050565b5f602082840312156122d2575f5ffd5b81356122dd81612036565b9392505050565b5f602082840312156122f4575f5ffd5b5035919050565b5f5f6040838503121561230c575f5ffd5b8235612317816121aa565b946020939093013593505050565b8015158114610ae2575f5ffd5b5f5f5f60608486031215612344575f5ffd5b833561234f816121aa565b925060208401359150604084013561236681612325565b809150509250925092565b634e487b7160e01b5f52603260045260245ffd5b5f81518084528060208401602086015e5f602082860101526020601f19601f83011685010191505092915050565b602081525f6122dd6020830184612385565b805160ff811681146121c4575f5ffd5b805163ffffffff811681146121c4575f5ffd5b80516121c4816121aa565b80516001600160401b03811681146121c4575f5ffd5b5f82601f830112612418575f5ffd5b8151602083015f61242b61215384612110565b905082815285838301111561243e575f5ffd5b8282602083015e5f92810160200192909252509392505050565b5f82601f830112612467575f5ffd5b815161247561215382612188565b8082825260208201915060208360071b860101925085831115612496575f5ffd5b602085015b838110156124fa57608081880312156124b2575f5ffd5b6124ba612095565b81518152602080830151908201526124d4604083016123c5565b60408201526124e5606083016123c5565b6060820152835260209092019160800161249b565b5095945050505050565b80516121c481612325565b5f5f5f60608486031215612521575f5ffd5b83516001600160401b03811115612536575f5ffd5b84016101608187031215612548575f5ffd5b6125506120bd565b612559826123c5565b8152612567602083016123d5565b6020820152612578604083016123d5565b6040820152612589606083016123e8565b6060820152608082810151908201526125a460a083016123f3565b60a08201526125b560c083016123c5565b60c082015260e08201516001600160401b038111156125d2575f5ffd5b6125de88828501612409565b60e0830152506125f161010083016123d5565b6101008201526101208201516001600160401b03811115612610575f5ffd5b61261c88828501612458565b610120830152506101409182015191810191909152925061263f60208501612504565b915060408401516001600160401b03811115612659575f5ffd5b61266586828701612409565b9150509250925092565b5f6020828403121561267f575f5ffd5b5051919050565b5f5f5f5f60808587031215612699575f5ffd5b6126a2856123c5565b935060208501516126b281612036565b60408601519093506126c381612036565b6060959095015193969295505050565b634e487b7160e01b5f52601160045260245ffd5b80820180821115610486576104866126d3565b5f6020828403121561270a575f5ffd5b81516122dd81612325565b81810381811115610486576104866126d3565b5f60208284031215612738575f5ffd5b6122dd826123f3565b5f5f60408385031215612752575f5ffd5b505080516020909101519092909150565b61ffff861681526001600160a01b038516602082015260a0604082018190525f9061279090830186612385565b606083019490945250608001529392505050565b5f5f5f606084860312156127b6575f5ffd5b5050815160208301516040909301519094929350919050565b5f602082840312156127df575f5ffd5b81516122dd81612036565b8082028115828204841417610486576104866126d3565b5f8261281b57634e487b7160e01b5f52601260045260245ffd5b500490565b5f5f60408385031215612831575f5ffd5b825161283c81612325565b602093909301519294929350505056fea26469706673582212202f05fb0f9e3b7f28e7971f9f78a333ec813c50ddec7b987253021dd1edb3a37264736f6c634300081b0033","linkReferences":{}},"methodIdentifiers":{"emergencyWithdraw(address)":"6ff1c9bc","getBorrowBalance(address,address)":"118e31b7","getCollateralBalance(address,address)":"b7d5820b","initialize(address)":"c4d66de8","owner()":"8da5cb5b","peridottroller()":"c423fe29","processedMessages(bytes32)":"88ba16ab","receiveWormholeMessages(bytes,bytes[],bytes32,uint16,bytes32)":"529dca32","registerMarket(address,address)":"b4359143","registeredMarkets(address)":"dfc76de3","relayer()":"8406c079","relayerAddress()":"18a7cca8","renounceOwnership()":"715018a6","setTrustedEmitter(uint16,bytes32,bool)":"d9a1dcef","tokenBridge()":"c6328a46","transferOwnership(address)":"f2fde38b","trustedEmitters(uint16,bytes32)":"94a3d5c6","underlyingToPToken(address)":"fd7948d4","wormhole()":"84acd1bb"},"id":32}