{"abi":[{"type":"constructor","inputs":[{"name":"_feedsAggregator","type":"address","internalType":"address"}],"stateMutability":"nonpayable"},{"type":"function","name":"feeds","inputs":[],"outputs":[{"name":"","type":"address","internalType":"contract IFeeds"}],"stateMutability":"view"},{"type":"function","name":"fetchLatestAnswer","inputs":[],"outputs":[{"name":"","type":"uint256","internalType":"uint256"}],"stateMutability":"view"},{"type":"function","name":"fetchLatestRoundData","inputs":[],"outputs":[{"name":"","type":"uint80","internalType":"uint80"},{"name":"","type":"uint256","internalType":"uint256"},{"name":"","type":"uint256","internalType":"uint256"},{"name":"","type":"uint256","internalType":"uint256"},{"name":"","type":"uint80","internalType":"uint80"}],"stateMutability":"view"},{"type":"function","name":"getDecimals","inputs":[],"outputs":[{"name":"","type":"uint8","internalType":"uint8"}],"stateMutability":"view"},{"type":"function","name":"getDescription","inputs":[],"outputs":[{"name":"","type":"string","internalType":"string"}],"stateMutability":"view"}],"bytecode":{"object":"0x6080604052348015600e575f5ffd5b50604051610555380380610555833981016040819052602b91604e565b5f80546001600160a01b0319166001600160a01b03929092169190911790556079565b5f60208284031215605d575f5ffd5b81516001600160a01b03811681146072575f5ffd5b9392505050565b6104cf806100865f395ff3fe608060405234801561000f575f5ffd5b5060043610610055575f3560e01c80631a09254114610059578063527616b814610077578063a1951c24146100b6578063d63605b8146100cc578063f0141d84146100f6575b5f5ffd5b610061610110565b60405161006e91906102f3565b60405180910390f35b61007f610182565b6040805169ffffffffffffffffffff968716815260208101959095528401929092526060830152909116608082015260a00161006e565b6100be61020b565b60405190815260200161006e565b5f546100de906001600160a01b031681565b6040516001600160a01b03909116815260200161006e565b6100fe61027f565b60405160ff909116815260200161006e565b5f805460408051633942720b60e11b815290516060936001600160a01b0390931692637284e41692600480820193918290030181865afa158015610156573d5f5f3e3d5ffd5b505050506040513d5f823e601f3d908101601f1916820160405261017d919081019061033c565b905090565b5f5f5f5f5f5f5f9054906101000a90046001600160a01b03166001600160a01b031663feaf968c6040518163ffffffff1660e01b815260040160a060405180830381865afa1580156101d6573d5f5f3e3d5ffd5b505050506040513d601f19601f820116820180604052508101906101fa919061040d565b945094509450945094509091929394565b5f5f5f9054906101000a90046001600160a01b03166001600160a01b03166350d25bcd6040518163ffffffff1660e01b8152600401602060405180830381865afa15801561025b573d5f5f3e3d5ffd5b505050506040513d601f19601f8201168201806040525081019061017d919061045b565b5f5f5f9054906101000a90046001600160a01b03166001600160a01b031663313ce5676040518163ffffffff1660e01b8152600401602060405180830381865afa1580156102cf573d5f5f3e3d5ffd5b505050506040513d601f19601f8201168201806040525081019061017d9190610472565b602081525f82518060208401528060208501604085015e5f604082850101526040601f19601f83011684010191505092915050565b634e487b7160e01b5f52604160045260245ffd5b5f6020828403121561034c575f5ffd5b815167ffffffffffffffff811115610362575f5ffd5b8201601f81018413610372575f5ffd5b805167ffffffffffffffff81111561038c5761038c610328565b604051601f8201601f19908116603f0116810167ffffffffffffffff811182821017156103bb576103bb610328565b6040528181528282016020018610156103d2575f5ffd5b8160208401602083015e5f91810160200191909152949350505050565b805169ffffffffffffffffffff81168114610408575f5ffd5b919050565b5f5f5f5f5f60a08688031215610421575f5ffd5b61042a866103ef565b6020870151604088015160608901519297509095509350915061044f608087016103ef565b90509295509295909350565b5f6020828403121561046b575f5ffd5b5051919050565b5f60208284031215610482575f5ffd5b815160ff81168114610492575f5ffd5b939250505056fea2646970667358221220c5c4d27b43e9b9f75a2ec3b2a842e1362214c7a8c11834bc5cfb0907f845379964736f6c634300081b0033","linkReferences":{}},"methodIdentifiers":{"feeds()":"d63605b8","fetchLatestAnswer()":"a1951c24","fetchLatestRoundData()":"527616b8","getDecimals()":"f0141d84","getDescription()":"1a092541"},"id":12}