{"abi":[{"type":"constructor","inputs":[{"name":"_defaultStaleThreshold","type":"uint256","internalType":"uint256"}],"stateMutability":"nonpayable"},{"type":"function","name":"_getFeedsPrice","inputs":[{"name":"feedsAccessAddress","type":"address","internalType":"address"},{"name":"asset","type":"address","internalType":"address"}],"outputs":[{"name":"","type":"uint256","internalType":"uint256"}],"stateMutability":"view"},{"type":"function","name":"admin","inputs":[{"name":"","type":"address","internalType":"address"}],"outputs":[{"name":"","type":"bool","internalType":"bool"}],"stateMutability":"view"},{"type":"function","name":"assetToFeedsAccess","inputs":[{"name":"","type":"address","internalType":"address"}],"outputs":[{"name":"","type":"address","internalType":"address"}],"stateMutability":"view"},{"type":"function","name":"defaultStaleThreshold","inputs":[],"outputs":[{"name":"","type":"uint256","internalType":"uint256"}],"stateMutability":"view"},{"type":"function","name":"deployAndRegisterFeed","inputs":[{"name":"asset","type":"address","internalType":"address"},{"name":"aggregatorAddress","type":"address","internalType":"address"}],"outputs":[{"name":"","type":"address","internalType":"address"}],"stateMutability":"nonpayable"},{"type":"function","name":"feedsStaleThreshold","inputs":[{"name":"","type":"address","internalType":"address"}],"outputs":[{"name":"","type":"uint256","internalType":"uint256"}],"stateMutability":"view"},{"type":"function","name":"getOwner","inputs":[],"outputs":[{"name":"","type":"address","internalType":"address"}],"stateMutability":"view"},{"type":"function","name":"getUnderlyingPrice","inputs":[{"name":"pToken","type":"address","internalType":"contract PToken"}],"outputs":[{"name":"","type":"uint256","internalType":"uint256"}],"stateMutability":"view"},{"type":"function","name":"isPriceOracle","inputs":[],"outputs":[{"name":"","type":"bool","internalType":"bool"}],"stateMutability":"view"},{"type":"function","name":"registerFeed","inputs":[{"name":"asset","type":"address","internalType":"address"},{"name":"feedsAccessAddress","type":"address","internalType":"address"}],"outputs":[],"stateMutability":"nonpayable"},{"type":"function","name":"removeAdmin","inputs":[{"name":"_admin","type":"address","internalType":"address"}],"outputs":[],"stateMutability":"nonpayable"},{"type":"function","name":"setAdmin","inputs":[{"name":"_newAdmin","type":"address","internalType":"address"}],"outputs":[],"stateMutability":"nonpayable"},{"type":"function","name":"setAssetStaleThreshold","inputs":[{"name":"asset","type":"address","internalType":"address"},{"name":"threshold","type":"uint256","internalType":"uint256"}],"outputs":[],"stateMutability":"nonpayable"},{"type":"function","name":"setOwner","inputs":[{"name":"_newOwner","type":"address","internalType":"address"}],"outputs":[],"stateMutability":"nonpayable"},{"type":"function","name":"setUnderlyingPrice","inputs":[{"name":"pToken","type":"address","internalType":"contract PToken"},{"name":"underlyingPriceMantissa","type":"uint256","internalType":"uint256"}],"outputs":[],"stateMutability":"nonpayable"},{"type":"event","name":"FeedRegistered","inputs":[{"name":"asset","type":"address","indexed":false,"internalType":"address"},{"name":"feedsAccess","type":"address","indexed":false,"internalType":"address"}],"anonymous":false},{"type":"event","name":"PricePosted","inputs":[{"name":"asset","type":"address","indexed":false,"internalType":"address"},{"name":"previousPriceMantissa","type":"uint256","indexed":false,"internalType":"uint256"},{"name":"requestedPriceMantissa","type":"uint256","indexed":false,"internalType":"uint256"},{"name":"newPriceMantissa","type":"uint256","indexed":false,"internalType":"uint256"}],"anonymous":false}],"bytecode":{"object":"0x6080604052348015600e575f5ffd5b50604051611519380380611519833981016040819052602b91605f565b600480546001600160a01b031916339081179091555f908152600360205260409020805460ff191660011790556005556075565b5f60208284031215606e575f5ffd5b5051919050565b611497806100825f395ff3fe608060405234801561000f575f5ffd5b50600436106100f0575f3560e01c8063704b6c0211610093578063c37fac8711610063578063c37fac8714610219578063dc57747414610222578063e9567bb014610241578063fc57d4df14610254575f5ffd5b8063704b6c02146101cf578063751c7dae146101e2578063893d20e8146101f5578063b48fecee14610206575f5ffd5b806331c1946c116100ce57806331c1946c1461012f5780633744406a1461015557806363a846f81461019557806366331bba146101c7575f5ffd5b8063127ffda0146100f457806313af4035146101095780631785f53c1461011c575b5f5ffd5b610107610102366004610b0c565b610267565b005b610107610117366004610b36565b610323565b61010761012a366004610b36565b61036f565b61014261013d366004610b51565b6103b9565b6040519081526020015b60405180910390f35b61017d610163366004610b36565b5f602081905290815260409020546001600160a01b031681565b6040516001600160a01b03909116815260200161014c565b6101b76101a3366004610b36565b60036020525f908152604090205460ff1681565b604051901515815260200161014c565b6101b7600181565b6101076101dd366004610b36565b610611565b6101076101f0366004610b51565b61065e565b6004546001600160a01b031661017d565b610107610214366004610b0c565b6106f4565b61014260055481565b610142610230366004610b36565b60016020525f908152604090205481565b61017d61024f366004610b51565b61073d565b610142610262366004610b36565b610867565b335f9081526003602052604090205460ff1661029e5760405162461bcd60e51b815260040161029590610b88565b60405180910390fd5b5f6102a883610980565b6001600160a01b0381165f81815260026020908152604091829020548251938452908301528101849052606081018490529091507fdd71a1d19fcba687442a1d5c58578f1e409af71a79d10fd95a4d66efd8fa9ae79060800160405180910390a16001600160a01b03165f9081526002602052604090205550565b6004546001600160a01b0316331461034d5760405162461bcd60e51b815260040161029590610bc9565b600480546001600160a01b0319166001600160a01b0392909216919091179055565b6004546001600160a01b031633146103995760405162461bcd60e51b815260040161029590610bc9565b6001600160a01b03165f908152600360205260409020805460ff19169055565b5f3330146104025760405162461bcd60e51b8152602060048201526016602482015275496e7465726e616c2066756e6374696f6e206f6e6c7960501b6044820152606401610295565b5f8390505f5f5f5f5f856001600160a01b031663527616b86040518163ffffffff1660e01b815260040160a060405180830381865afa158015610447573d5f5f3e3d5ffd5b505050506040513d601f19601f8201168201806040525081019061046b9190610c28565b6001600160a01b038d165f90815260016020526040812054959a509398509196509450925081900361049c57506005545b806104a78442610c8a565b11156104eb5760405162461bcd60e51b815260206004820152601360248201527250726963652066656564206973207374616c6560681b6044820152606401610295565b5f851161053a5760405162461bcd60e51b815260206004820152601760248201527f496e76616c69642070726963652066726f6d20666565640000000000000000006044820152606401610295565b5f876001600160a01b031663f0141d846040518163ffffffff1660e01b8152600401602060405180830381865afa158015610577573d5f5f3e3d5ffd5b505050506040513d601f19601f8201168201806040525081019061059b9190610c9d565b905085601260ff831610156105d1576105b5826012610cbd565b6105c090600a610db9565b6105ca9082610dc7565b9050610600565b60128260ff161115610600576105e8601283610cbd565b6105f390600a610db9565b6105fd9082610dde565b90505b985050505050505050505b92915050565b6004546001600160a01b0316331461063b5760405162461bcd60e51b815260040161029590610bc9565b6001600160a01b03165f908152600360205260409020805460ff19166001179055565b335f9081526003602052604090205460ff1661068c5760405162461bcd60e51b815260040161029590610b88565b6001600160a01b038281165f818152602081815260409182902080546001600160a01b031916948616948517905581519283528201929092527f73d979fd03c9000f253d6f57d67ddf5ed50ad2a67bc62c09b2feb7769f81131b910160405180910390a15050565b335f9081526003602052604090205460ff166107225760405162461bcd60e51b815260040161029590610b88565b6001600160a01b039091165f90815260016020526040902055565b335f9081526003602052604081205460ff1661076b5760405162461bcd60e51b815260040161029590610b88565b6001600160a01b0382166107c15760405162461bcd60e51b815260206004820152601a60248201527f496e76616c69642061676772656761746f7220616464726573730000000000006044820152606401610295565b5f826040516107cf90610ae8565b6001600160a01b039091168152602001604051809103905ff0801580156107f8573d5f5f3e3d5ffd5b506001600160a01b038581165f818152602081815260409182902080546001600160a01b031916948616948517905581519283528201929092529192507f73d979fd03c9000f253d6f57d67ddf5ed50ad2a67bc62c09b2feb7769f81131b910160405180910390a19392505050565b5f5f61087283610980565b6001600160a01b038082165f9081526020819052604090205491925016801561091257604051630c70651b60e21b81526001600160a01b0380831660048301528316602482015230906331c1946c90604401602060405180830381865afa9250505080156108fd575060408051601f3d908101601f191682019092526108fa91810190610dfd565b60015b1561091257801561091057949350505050565b505b6001600160a01b0382165f90815260026020526040902054801561093857949350505050565b60405162461bcd60e51b815260206004820152601860248201527f4e6f2076616c696420707269636520617661696c61626c6500000000000000006044820152606401610295565b5f5f610a09836001600160a01b03166395d89b416040518163ffffffff1660e01b81526004015f60405180830381865afa1580156109c0573d5f5f3e3d5ffd5b505050506040513d5f823e601f3d908101601f191682016040526109e79190810190610e28565b604051806040016040528060048152602001630e08aa8960e31b815250610a90565b15610a29575073eeeeeeeeeeeeeeeeeeeeeeeeeeeeeeeeeeeeeeee61060b565b826001600160a01b0316636f307dc36040518163ffffffff1660e01b8152600401602060405180830381865afa158015610a65573d5f5f3e3d5ffd5b505050506040513d601f19601f82011682018060405250810190610a899190610edb565b9392505050565b5f81604051602001610aa29190610ef6565b6040516020818303038152906040528051906020012083604051602001610ac99190610ef6565b6040516020818303038152906040528051906020012014905092915050565b61055580610f0d83390190565b6001600160a01b0381168114610b09575f5ffd5b50565b5f5f60408385031215610b1d575f5ffd5b8235610b2881610af5565b946020939093013593505050565b5f60208284031215610b46575f5ffd5b8135610a8981610af5565b5f5f60408385031215610b62575f5ffd5b8235610b6d81610af5565b91506020830135610b7d81610af5565b809150509250929050565b60208082526021908201527f4f6e6c792061646d696e2063616e2063616c6c20746869732066756e6374696f6040820152603760f91b606082015260800190565b60208082526021908201527f4f6e6c79206f776e65722063616e2063616c6c20746869732066756e6374696f6040820152603760f91b606082015260800190565b805169ffffffffffffffffffff81168114610c23575f5ffd5b919050565b5f5f5f5f5f60a08688031215610c3c575f5ffd5b610c4586610c0a565b60208701516040880151606089015192975090955093509150610c6a60808701610c0a565b90509295509295909350565b634e487b7160e01b5f52601160045260245ffd5b8181038181111561060b5761060b610c76565b5f60208284031215610cad575f5ffd5b815160ff81168114610a89575f5ffd5b60ff828116828216039081111561060b5761060b610c76565b6001815b6001841115610d1157808504811115610cf557610cf5610c76565b6001841615610d0357908102905b60019390931c928002610cda565b935093915050565b5f82610d275750600161060b565b81610d3357505f61060b565b8160018114610d495760028114610d5357610d6f565b600191505061060b565b60ff841115610d6457610d64610c76565b50506001821b61060b565b5060208310610133831016604e8410600b8410161715610d92575081810a61060b565b610d9e5f198484610cd6565b805f1904821115610db157610db1610c76565b029392505050565b5f610a8960ff841683610d19565b808202811582820484141761060b5761060b610c76565b5f82610df857634e487b7160e01b5f52601260045260245ffd5b500490565b5f60208284031215610e0d575f5ffd5b5051919050565b634e487b7160e01b5f52604160045260245ffd5b5f60208284031215610e38575f5ffd5b815167ffffffffffffffff811115610e4e575f5ffd5b8201601f81018413610e5e575f5ffd5b805167ffffffffffffffff811115610e7857610e78610e14565b604051601f8201601f19908116603f0116810167ffffffffffffffff81118282101715610ea757610ea7610e14565b604052818152828201602001861015610ebe575f5ffd5b8160208401602083015e5f91810160200191909152949350505050565b5f60208284031215610eeb575f5ffd5b8151610a8981610af5565b5f82518060208501845e5f92019182525091905056fe6080604052348015600e575f5ffd5b50604051610555380380610555833981016040819052602b91604e565b5f80546001600160a01b0319166001600160a01b03929092169190911790556079565b5f60208284031215605d575f5ffd5b81516001600160a01b03811681146072575f5ffd5b9392505050565b6104cf806100865f395ff3fe608060405234801561000f575f5ffd5b5060043610610055575f3560e01c80631a09254114610059578063527616b814610077578063a1951c24146100b6578063d63605b8146100cc578063f0141d84146100f6575b5f5ffd5b610061610110565b60405161006e91906102f3565b60405180910390f35b61007f610182565b6040805169ffffffffffffffffffff968716815260208101959095528401929092526060830152909116608082015260a00161006e565b6100be61020b565b60405190815260200161006e565b5f546100de906001600160a01b031681565b6040516001600160a01b03909116815260200161006e565b6100fe61027f565b60405160ff909116815260200161006e565b5f805460408051633942720b60e11b815290516060936001600160a01b0390931692637284e41692600480820193918290030181865afa158015610156573d5f5f3e3d5ffd5b505050506040513d5f823e601f3d908101601f1916820160405261017d919081019061033c565b905090565b5f5f5f5f5f5f5f9054906101000a90046001600160a01b03166001600160a01b031663feaf968c6040518163ffffffff1660e01b815260040160a060405180830381865afa1580156101d6573d5f5f3e3d5ffd5b505050506040513d601f19601f820116820180604052508101906101fa919061040d565b945094509450945094509091929394565b5f5f5f9054906101000a90046001600160a01b03166001600160a01b03166350d25bcd6040518163ffffffff1660e01b8152600401602060405180830381865afa15801561025b573d5f5f3e3d5ffd5b505050506040513d601f19601f8201168201806040525081019061017d919061045b565b5f5f5f9054906101000a90046001600160a01b03166001600160a01b031663313ce5676040518163ffffffff1660e01b8152600401602060405180830381865afa1580156102cf573d5f5f3e3d5ffd5b505050506040513d601f19601f8201168201806040525081019061017d9190610472565b602081525f82518060208401528060208501604085015e5f604082850101526040601f19601f83011684010191505092915050565b634e487b7160e01b5f52604160045260245ffd5b5f6020828403121561034c575f5ffd5b815167ffffffffffffffff811115610362575f5ffd5b8201601f81018413610372575f5ffd5b805167ffffffffffffffff81111561038c5761038c610328565b604051601f8201601f19908116603f0116810167ffffffffffffffff811182821017156103bb576103bb610328565b6040528181528282016020018610156103d2575f5ffd5b8160208401602083015e5f91810160200191909152949350505050565b805169ffffffffffffffffffff81168114610408575f5ffd5b919050565b5f5f5f5f5f60a08688031215610421575f5ffd5b61042a866103ef565b6020870151604088015160608901519297509095509350915061044f608087016103ef565b90509295509295909350565b5f6020828403121561046b575f5ffd5b5051919050565b5f60208284031215610482575f5ffd5b815160ff81168114610492575f5ffd5b939250505056fea2646970667358221220c5c4d27b43e9b9f75a2ec3b2a842e1362214c7a8c11834bc5cfb0907f845379964736f6c634300081b0033a2646970667358221220e10a40821b8698de1e77a3f8fa988c9e23d2327b1d337e1935c89226cb539c3e64736f6c634300081b0033","linkReferences":{}},"methodIdentifiers":{"_getFeedsPrice(address,address)":"31c1946c","admin(address)":"63a846f8","assetToFeedsAccess(address)":"3744406a","defaultStaleThreshold()":"c37fac87","deployAndRegisterFeed(address,address)":"e9567bb0","feedsStaleThreshold(address)":"dc577474","getOwner()":"893d20e8","getUnderlyingPrice(address)":"fc57d4df","isPriceOracle()":"66331bba","registerFeed(address,address)":"751c7dae","removeAdmin(address)":"1785f53c","setAdmin(address)":"704b6c02","setAssetStaleThreshold(address,uint256)":"b48fecee","setOwner(address)":"13af4035","setUnderlyingPrice(address,uint256)":"127ffda0"},"id":12}