{"abi":[{"type":"constructor","inputs":[{"name":"peridottroller_","type":"address","internalType":"contract PeridottrollerInterface"},{"name":"interestRateModel_","type":"address","internalType":"contract InterestRateModel"},{"name":"initialExchangeRateMantissa_","type":"uint256","internalType":"uint256"},{"name":"name_","type":"string","internalType":"string"},{"name":"symbol_","type":"string","internalType":"string"},{"name":"decimals_","type":"uint8","internalType":"uint8"},{"name":"admin_","type":"address","internalType":"address payable"}],"stateMutability":"nonpayable"},{"type":"receive","stateMutability":"payable"},{"type":"function","name":"NO_ERROR","inputs":[],"outputs":[{"name":"","type":"uint256","internalType":"uint256"}],"stateMutability":"view"},{"type":"function","name":"_acceptAdmin","inputs":[],"outputs":[{"name":"","type":"uint256","internalType":"uint256"}],"stateMutability":"nonpayable"},{"type":"function","name":"_addReserves","inputs":[],"outputs":[{"name":"","type":"uint256","internalType":"uint256"}],"stateMutability":"payable"},{"type":"function","name":"_reduceReserves","inputs":[{"name":"reduceAmount","type":"uint256","internalType":"uint256"}],"outputs":[{"name":"","type":"uint256","internalType":"uint256"}],"stateMutability":"nonpayable"},{"type":"function","name":"_setInterestRateModel","inputs":[{"name":"newInterestRateModel","type":"address","internalType":"contract InterestRateModel"}],"outputs":[{"name":"","type":"uint256","internalType":"uint256"}],"stateMutability":"nonpayable"},{"type":"function","name":"_setPendingAdmin","inputs":[{"name":"newPendingAdmin","type":"address","internalType":"address payable"}],"outputs":[{"name":"","type":"uint256","internalType":"uint256"}],"stateMutability":"nonpayable"},{"type":"function","name":"_setPeridottroller","inputs":[{"name":"newPeridottroller","type":"address","internalType":"contract PeridottrollerInterface"}],"outputs":[{"name":"","type":"uint256","internalType":"uint256"}],"stateMutability":"nonpayable"},{"type":"function","name":"_setReserveFactor","inputs":[{"name":"newReserveFactorMantissa","type":"uint256","internalType":"uint256"}],"outputs":[{"name":"","type":"uint256","internalType":"uint256"}],"stateMutability":"nonpayable"},{"type":"function","name":"accrualBlockNumber","inputs":[],"outputs":[{"name":"","type":"uint256","internalType":"uint256"}],"stateMutability":"view"},{"type":"function","name":"accrueInterest","inputs":[],"outputs":[{"name":"","type":"uint256","internalType":"uint256"}],"stateMutability":"nonpayable"},{"type":"function","name":"admin","inputs":[],"outputs":[{"name":"","type":"address","internalType":"address payable"}],"stateMutability":"view"},{"type":"function","name":"allowance","inputs":[{"name":"owner","type":"address","internalType":"address"},{"name":"spender","type":"address","internalType":"address"}],"outputs":[{"name":"","type":"uint256","internalType":"uint256"}],"stateMutability":"view"},{"type":"function","name":"approve","inputs":[{"name":"spender","type":"address","internalType":"address"},{"name":"amount","type":"uint256","internalType":"uint256"}],"outputs":[{"name":"","type":"bool","internalType":"bool"}],"stateMutability":"nonpayable"},{"type":"function","name":"balanceOf","inputs":[{"name":"owner","type":"address","internalType":"address"}],"outputs":[{"name":"","type":"uint256","internalType":"uint256"}],"stateMutability":"view"},{"type":"function","name":"balanceOfUnderlying","inputs":[{"name":"owner","type":"address","internalType":"address"}],"outputs":[{"name":"","type":"uint256","internalType":"uint256"}],"stateMutability":"nonpayable"},{"type":"function","name":"borrow","inputs":[{"name":"borrowAmount","type":"uint256","internalType":"uint256"}],"outputs":[{"name":"","type":"uint256","internalType":"uint256"}],"stateMutability":"nonpayable"},{"type":"function","name":"borrowBalanceCurrent","inputs":[{"name":"account","type":"address","internalType":"address"}],"outputs":[{"name":"","type":"uint256","internalType":"uint256"}],"stateMutability":"nonpayable"},{"type":"function","name":"borrowBalanceStored","inputs":[{"name":"account","type":"address","internalType":"address"}],"outputs":[{"name":"","type":"uint256","internalType":"uint256"}],"stateMutability":"view"},{"type":"function","name":"borrowIndex","inputs":[],"outputs":[{"name":"","type":"uint256","internalType":"uint256"}],"stateMutability":"view"},{"type":"function","name":"borrowRatePerBlock","inputs":[],"outputs":[{"name":"","type":"uint256","internalType":"uint256"}],"stateMutability":"view"},{"type":"function","name":"decimals","inputs":[],"outputs":[{"name":"","type":"uint8","internalType":"uint8"}],"stateMutability":"view"},{"type":"function","name":"exchangeRateCurrent","inputs":[],"outputs":[{"name":"","type":"uint256","internalType":"uint256"}],"stateMutability":"nonpayable"},{"type":"function","name":"exchangeRateStored","inputs":[],"outputs":[{"name":"","type":"uint256","internalType":"uint256"}],"stateMutability":"view"},{"type":"function","name":"getAccountSnapshot","inputs":[{"name":"account","type":"address","internalType":"address"}],"outputs":[{"name":"","type":"uint256","internalType":"uint256"},{"name":"","type":"uint256","internalType":"uint256"},{"name":"","type":"uint256","internalType":"uint256"},{"name":"","type":"uint256","internalType":"uint256"}],"stateMutability":"view"},{"type":"function","name":"getCash","inputs":[],"outputs":[{"name":"","type":"uint256","internalType":"uint256"}],"stateMutability":"view"},{"type":"function","name":"initialize","inputs":[{"name":"peridottroller_","type":"address","internalType":"contract PeridottrollerInterface"},{"name":"interestRateModel_","type":"address","internalType":"contract InterestRateModel"},{"name":"initialExchangeRateMantissa_","type":"uint256","internalType":"uint256"},{"name":"name_","type":"string","internalType":"string"},{"name":"symbol_","type":"string","internalType":"string"},{"name":"decimals_","type":"uint8","internalType":"uint8"}],"outputs":[],"stateMutability":"nonpayable"},{"type":"function","name":"interestRateModel","inputs":[],"outputs":[{"name":"","type":"address","internalType":"contract InterestRateModel"}],"stateMutability":"view"},{"type":"function","name":"isPToken","inputs":[],"outputs":[{"name":"","type":"bool","internalType":"bool"}],"stateMutability":"view"},{"type":"function","name":"liquidateBorrow","inputs":[{"name":"borrower","type":"address","internalType":"address"},{"name":"pTokenCollateral","type":"address","internalType":"contract PToken"}],"outputs":[],"stateMutability":"payable"},{"type":"function","name":"mint","inputs":[],"outputs":[],"stateMutability":"payable"},{"type":"function","name":"name","inputs":[],"outputs":[{"name":"","type":"string","internalType":"string"}],"stateMutability":"view"},{"type":"function","name":"pendingAdmin","inputs":[],"outputs":[{"name":"","type":"address","internalType":"address payable"}],"stateMutability":"view"},{"type":"function","name":"peridottroller","inputs":[],"outputs":[{"name":"","type":"address","internalType":"contract PeridottrollerInterface"}],"stateMutability":"view"},{"type":"function","name":"protocolSeizeShareMantissa","inputs":[],"outputs":[{"name":"","type":"uint256","internalType":"uint256"}],"stateMutability":"view"},{"type":"function","name":"redeem","inputs":[{"name":"redeemTokens","type":"uint256","internalType":"uint256"}],"outputs":[{"name":"","type":"uint256","internalType":"uint256"}],"stateMutability":"nonpayable"},{"type":"function","name":"redeemUnderlying","inputs":[{"name":"redeemAmount","type":"uint256","internalType":"uint256"}],"outputs":[{"name":"","type":"uint256","internalType":"uint256"}],"stateMutability":"nonpayable"},{"type":"function","name":"repayBorrow","inputs":[],"outputs":[],"stateMutability":"payable"},{"type":"function","name":"repayBorrowBehalf","inputs":[{"name":"borrower","type":"address","internalType":"address"}],"outputs":[],"stateMutability":"payable"},{"type":"function","name":"reserveFactorMantissa","inputs":[],"outputs":[{"name":"","type":"uint256","internalType":"uint256"}],"stateMutability":"view"},{"type":"function","name":"seize","inputs":[{"name":"liquidator","type":"address","internalType":"address"},{"name":"borrower","type":"address","internalType":"address"},{"name":"seizeTokens","type":"uint256","internalType":"uint256"}],"outputs":[{"name":"","type":"uint256","internalType":"uint256"}],"stateMutability":"nonpayable"},{"type":"function","name":"supplyRatePerBlock","inputs":[],"outputs":[{"name":"","type":"uint256","internalType":"uint256"}],"stateMutability":"view"},{"type":"function","name":"symbol","inputs":[],"outputs":[{"name":"","type":"string","internalType":"string"}],"stateMutability":"view"},{"type":"function","name":"totalBorrows","inputs":[],"outputs":[{"name":"","type":"uint256","internalType":"uint256"}],"stateMutability":"view"},{"type":"function","name":"totalBorrowsCurrent","inputs":[],"outputs":[{"name":"","type":"uint256","internalType":"uint256"}],"stateMutability":"nonpayable"},{"type":"function","name":"totalReserves","inputs":[],"outputs":[{"name":"","type":"uint256","internalType":"uint256"}],"stateMutability":"view"},{"type":"function","name":"totalSupply","inputs":[],"outputs":[{"name":"","type":"uint256","internalType":"uint256"}],"stateMutability":"view"},{"type":"function","name":"transfer","inputs":[{"name":"dst","type":"address","internalType":"address"},{"name":"amount","type":"uint256","internalType":"uint256"}],"outputs":[{"name":"","type":"bool","internalType":"bool"}],"stateMutability":"nonpayable"},{"type":"function","name":"transferFrom","inputs":[{"name":"src","type":"address","internalType":"address"},{"name":"dst","type":"address","internalType":"address"},{"name":"amount","type":"uint256","internalType":"uint256"}],"outputs":[{"name":"","type":"bool","internalType":"bool"}],"stateMutability":"nonpayable"},{"type":"event","name":"AccrueInterest","inputs":[{"name":"cashPrior","type":"uint256","indexed":false,"internalType":"uint256"},{"name":"interestAccumulated","type":"uint256","indexed":false,"internalType":"uint256"},{"name":"borrowIndex","type":"uint256","indexed":false,"internalType":"uint256"},{"name":"totalBorrows","type":"uint256","indexed":false,"internalType":"uint256"}],"anonymous":false},{"type":"event","name":"Approval","inputs":[{"name":"owner","type":"address","indexed":true,"internalType":"address"},{"name":"spender","type":"address","indexed":true,"internalType":"address"},{"name":"amount","type":"uint256","indexed":false,"internalType":"uint256"}],"anonymous":false},{"type":"event","name":"Borrow","inputs":[{"name":"borrower","type":"address","indexed":false,"internalType":"address"},{"name":"borrowAmount","type":"uint256","indexed":false,"internalType":"uint256"},{"name":"accountBorrows","type":"uint256","indexed":false,"internalType":"uint256"},{"name":"totalBorrows","type":"uint256","indexed":false,"internalType":"uint256"}],"anonymous":false},{"type":"event","name":"LiquidateBorrow","inputs":[{"name":"liquidator","type":"address","indexed":false,"internalType":"address"},{"name":"borrower","type":"address","indexed":false,"internalType":"address"},{"name":"repayAmount","type":"uint256","indexed":false,"internalType":"uint256"},{"name":"pTokenCollateral","type":"address","indexed":false,"internalType":"address"},{"name":"seizeTokens","type":"uint256","indexed":false,"internalType":"uint256"}],"anonymous":false},{"type":"event","name":"Mint","inputs":[{"name":"minter","type":"address","indexed":false,"internalType":"address"},{"name":"mintAmount","type":"uint256","indexed":false,"internalType":"uint256"},{"name":"mintTokens","type":"uint256","indexed":false,"internalType":"uint256"}],"anonymous":false},{"type":"event","name":"NewAdmin","inputs":[{"name":"oldAdmin","type":"address","indexed":false,"internalType":"address"},{"name":"newAdmin","type":"address","indexed":false,"internalType":"address"}],"anonymous":false},{"type":"event","name":"NewMarketInterestRateModel","inputs":[{"name":"oldInterestRateModel","type":"address","indexed":false,"internalType":"contract InterestRateModel"},{"name":"newInterestRateModel","type":"address","indexed":false,"internalType":"contract InterestRateModel"}],"anonymous":false},{"type":"event","name":"NewPendingAdmin","inputs":[{"name":"oldPendingAdmin","type":"address","indexed":false,"internalType":"address"},{"name":"newPendingAdmin","type":"address","indexed":false,"internalType":"address"}],"anonymous":false},{"type":"event","name":"NewPeridottroller","inputs":[{"name":"oldPeridottroller","type":"address","indexed":false,"internalType":"contract PeridottrollerInterface"},{"name":"newPeridottroller","type":"address","indexed":false,"internalType":"contract PeridottrollerInterface"}],"anonymous":false},{"type":"event","name":"NewReserveFactor","inputs":[{"name":"oldReserveFactorMantissa","type":"uint256","indexed":false,"internalType":"uint256"},{"name":"newReserveFactorMantissa","type":"uint256","indexed":false,"internalType":"uint256"}],"anonymous":false},{"type":"event","name":"Redeem","inputs":[{"name":"redeemer","type":"address","indexed":false,"internalType":"address"},{"name":"redeemAmount","type":"uint256","indexed":false,"internalType":"uint256"},{"name":"redeemTokens","type":"uint256","indexed":false,"internalType":"uint256"}],"anonymous":false},{"type":"event","name":"RepayBorrow","inputs":[{"name":"payer","type":"address","indexed":false,"internalType":"address"},{"name":"borrower","type":"address","indexed":false,"internalType":"address"},{"name":"repayAmount","type":"uint256","indexed":false,"internalType":"uint256"},{"name":"accountBorrows","type":"uint256","indexed":false,"internalType":"uint256"},{"name":"totalBorrows","type":"uint256","indexed":false,"internalType":"uint256"}],"anonymous":false},{"type":"event","name":"ReservesAdded","inputs":[{"name":"benefactor","type":"address","indexed":false,"internalType":"address"},{"name":"addAmount","type":"uint256","indexed":false,"internalType":"uint256"},{"name":"newTotalReserves","type":"uint256","indexed":false,"internalType":"uint256"}],"anonymous":false},{"type":"event","name":"ReservesReduced","inputs":[{"name":"admin","type":"address","indexed":false,"internalType":"address"},{"name":"reduceAmount","type":"uint256","indexed":false,"internalType":"uint256"},{"name":"newTotalReserves","type":"uint256","indexed":false,"internalType":"uint256"}],"anonymous":false},{"type":"event","name":"Transfer","inputs":[{"name":"from","type":"address","indexed":true,"internalType":"address"},{"name":"to","type":"address","indexed":true,"internalType":"address"},{"name":"amount","type":"uint256","indexed":false,"internalType":"uint256"}],"anonymous":false},{"type":"error","name":"AcceptAdminPendingAdminCheck","inputs":[]},{"type":"error","name":"AddReservesFactorFreshCheck","inputs":[{"name":"actualAddAmount","type":"uint256","internalType":"uint256"}]},{"type":"error","name":"BorrowCashNotAvailable","inputs":[]},{"type":"error","name":"BorrowFreshnessCheck","inputs":[]},{"type":"error","name":"BorrowPeridottrollerRejection","inputs":[{"name":"errorCode","type":"uint256","internalType":"uint256"}]},{"type":"error","name":"LiquidateAccrueBorrowInterestFailed","inputs":[{"name":"errorCode","type":"uint256","internalType":"uint256"}]},{"type":"error","name":"LiquidateAccrueCollateralInterestFailed","inputs":[{"name":"errorCode","type":"uint256","internalType":"uint256"}]},{"type":"error","name":"LiquidateCloseAmountIsUintMax","inputs":[]},{"type":"error","name":"LiquidateCloseAmountIsZero","inputs":[]},{"type":"error","name":"LiquidateCollateralFreshnessCheck","inputs":[]},{"type":"error","name":"LiquidateFreshnessCheck","inputs":[]},{"type":"error","name":"LiquidateLiquidatorIsBorrower","inputs":[]},{"type":"error","name":"LiquidatePeridottrollerRejection","inputs":[{"name":"errorCode","type":"uint256","internalType":"uint256"}]},{"type":"error","name":"LiquidateRepayBorrowFreshFailed","inputs":[{"name":"errorCode","type":"uint256","internalType":"uint256"}]},{"type":"error","name":"LiquidateSeizeLiquidatorIsBorrower","inputs":[]},{"type":"error","name":"LiquidateSeizePeridottrollerRejection","inputs":[{"name":"errorCode","type":"uint256","internalType":"uint256"}]},{"type":"error","name":"MintFreshnessCheck","inputs":[]},{"type":"error","name":"MintPeridottrollerRejection","inputs":[{"name":"errorCode","type":"uint256","internalType":"uint256"}]},{"type":"error","name":"RedeemFreshnessCheck","inputs":[]},{"type":"error","name":"RedeemPeridottrollerRejection","inputs":[{"name":"errorCode","type":"uint256","internalType":"uint256"}]},{"type":"error","name":"RedeemTransferOutNotPossible","inputs":[]},{"type":"error","name":"ReduceReservesAdminCheck","inputs":[]},{"type":"error","name":"ReduceReservesCashNotAvailable","inputs":[]},{"type":"error","name":"ReduceReservesCashValidation","inputs":[]},{"type":"error","name":"ReduceReservesFreshCheck","inputs":[]},{"type":"error","name":"RepayBorrowFreshnessCheck","inputs":[]},{"type":"error","name":"RepayBorrowPeridottrollerRejection","inputs":[{"name":"errorCode","type":"uint256","internalType":"uint256"}]},{"type":"error","name":"SetInterestRateModelFreshCheck","inputs":[]},{"type":"error","name":"SetInterestRateModelOwnerCheck","inputs":[]},{"type":"error","name":"SetPendingAdminOwnerCheck","inputs":[]},{"type":"error","name":"SetPeridottrollerOwnerCheck","inputs":[]},{"type":"error","name":"SetReserveFactorAdminCheck","inputs":[]},{"type":"error","name":"SetReserveFactorBoundsCheck","inputs":[]},{"type":"error","name":"SetReserveFactorFreshCheck","inputs":[]},{"type":"error","name":"TransferNotAllowed","inputs":[]},{"type":"error","name":"TransferNotEnough","inputs":[]},{"type":"error","name":"TransferPeridottrollerRejection","inputs":[{"name":"errorCode","type":"uint256","internalType":"uint256"}]},{"type":"error","name":"TransferTooMuch","inputs":[]}],"bytecode":{"object":"0x608060405234801561000f575f5ffd5b50604051613bef380380613bef83398101604081905261002e9161065a565b60038054610100600160a81b0319163361010002179055610053878787878787610085565b600380546001600160a01b0390921661010002610100600160a81b03199092169190911790555061087b945050505050565b60035461010090046001600160a01b031633146100f55760405162461bcd60e51b8152602060048201526024808201527f6f6e6c792061646d696e206d617920696e697469616c697a6520746865206d616044820152631c9ad95d60e21b60648201526084015b60405180910390fd5b6009541580156101055750600a54155b61015d5760405162461bcd60e51b815260206004820152602360248201527f6d61726b6574206d6179206f6e6c7920626520696e697469616c697a6564206f6044820152626e636560e81b60648201526084016100ec565b6007849055836101c85760405162461bcd60e51b815260206004820152603060248201527f696e697469616c2065786368616e67652072617465206d75737420626520677260448201526f32b0ba32b9103a3430b7103d32b9379760811b60648201526084016100ec565b5f6101d2876102d5565b905080156102225760405162461bcd60e51b815260206004820152601d60248201527f73657474696e672070657269646f7474726f6c6c6572206661696c656400000060448201526064016100ec565b43600955670de0b6b3a7640000600a5561023b86610425565b905080156102965760405162461bcd60e51b815260206004820152602260248201527f73657474696e6720696e7465726573742072617465206d6f64656c206661696c604482015261195960f21b60648201526084016100ec565b60016102a2858261079b565b5060026102af848261079b565b50506003805460ff90921660ff199283161790555f805490911660011790555050505050565b6003545f9061010090046001600160a01b0316331461030757604051634c2fa00360e01b815260040160405180910390fd5b6005546040805163fa707af960e01b815290516001600160a01b039283169285169163fa707af99160048083019260209291908290030181865afa158015610351573d5f5f3e3d5ffd5b505050506040513d601f19601f820116820180604052508101906103759190610855565b6103c15760405162461bcd60e51b815260206004820152601c60248201527f6d61726b6572206d6574686f642072657475726e65642066616c73650000000060448201526064016100ec565b600580546001600160a01b0319166001600160a01b0385811691821790925560408051928416835260208301919091527ff911792cf103798503b6dab0992e023d45661865683c550a919b8c9ad07dbf7f91015b60405180910390a1505f92915050565b6003545f90819061010090046001600160a01b031633146104595760405163407fded560e01b815260040160405180910390fd5b436009541461047b57604051630be2a5cb60e11b815260040160405180910390fd5b60065f9054906101000a90046001600160a01b03169050826001600160a01b0316632191f92a6040518163ffffffff1660e01b8152600401602060405180830381865afa1580156104ce573d5f5f3e3d5ffd5b505050506040513d601f19601f820116820180604052508101906104f29190610855565b61053e5760405162461bcd60e51b815260206004820152601c60248201527f6d61726b6572206d6574686f642072657475726e65642066616c73650000000060448201526064016100ec565b600680546001600160a01b0319166001600160a01b0385811691821790925560408051928416835260208301919091527fedffc32e068c7c95dfd4bdfd5c4d939a084d6b11c4199eac8436ed234d72f9269101610415565b6001600160a01b03811681146105aa575f5ffd5b50565b634e487b7160e01b5f52604160045260245ffd5b5f82601f8301126105d0575f5ffd5b81516001600160401b038111156105e9576105e96105ad565b604051601f8201601f19908116603f011681016001600160401b0381118282101715610617576106176105ad565b60405281815283820160200185101561062e575f5ffd5b8160208501602083015e5f918101602001919091529392505050565b805161065581610596565b919050565b5f5f5f5f5f5f5f60e0888a031215610670575f5ffd5b875161067b81610596565b602089015190975061068c81610596565b604089015160608a015191975095506001600160401b038111156106ae575f5ffd5b6106ba8a828b016105c1565b60808a015190955090506001600160401b038111156106d7575f5ffd5b6106e38a828b016105c1565b60a08a0151909450905060ff811681146106fb575f5ffd5b915061070960c0890161064a565b905092959891949750929550565b600181811c9082168061072b57607f821691505b60208210810361074957634e487b7160e01b5f52602260045260245ffd5b50919050565b601f82111561079657805f5260205f20601f840160051c810160208510156107745750805b601f840160051c820191505b81811015610793575f8155600101610780565b50505b505050565b81516001600160401b038111156107b4576107b46105ad565b6107c8816107c28454610717565b8461074f565b6020601f8211600181146107fa575f83156107e35750848201515b5f19600385901b1c1916600184901b178455610793565b5f84815260208120601f198516915b828110156108295787850151825560209485019460019092019101610809565b508482101561084657868401515f19600387901b60f8161c191681555b50505050600190811b01905550565b5f60208284031215610865575f5ffd5b81518015158114610874575f5ffd5b9392505050565b613367806108885f395ff3fe60806040526004361061028e575f3560e01c806395dd919311610155578063c5ebeaec116100be578063f2b3abbd11610078578063f2b3abbd14610769578063f3fdb15a14610788578063f851a440146107a7578063f8f9da28146107cb578063fca7820b146107df578063fcb64147146107fe575f5ffd5b8063c5ebeaec146106a1578063d5c6d3bd146106c0578063db006a75146106df578063dd62ed3e146106fe578063e597461914610742578063e9c714f214610755575f5ffd5b8063ae9d70b01161010f578063ae9d70b0146105dd578063b2a02ff1146105f1578063b71d1a0c14610610578063bd6d894d1461062f578063c37f68e214610643578063c423fe2914610682575f5ffd5b806395dd91931461054457806399d8c1b414610563578063a6afed9514610582578063a9059cbb14610596578063aa5af0fd146105b5578063aae40a2a146105ca575f5ffd5b806347bd3718116101f75780636c540baf116101b15780636c540baf1461049f57806370a08231146104b457806373acee98146104e8578063852a12e3146104fc5780638f840ddd1461051b57806395d89b4114610530575f5ffd5b806347bd3718146104225780634e4d9fea146104375780635a890c0e1461043f578063601a0bf1146104535780636752e7021461047257806369ab32501461048c575f5ffd5b8063182df0f511610248578063182df0f51461035a57806323b872dd1461036e578063267822471461038d578063313ce567146103c45780633af9e669146103ef5780633b1d21a21461040e575f5ffd5b806306fdde03146102a2578063095ea7b3146102cc5780631249c58b146102fb578063173b99041461030357806317bfdfbc1461032657806318160ddd14610345575f5ffd5b3661029e5761029c34610806565b005b5f5ffd5b3480156102ad575f5ffd5b506102b661085b565b6040516102c39190612e45565b60405180910390f35b3480156102d7575f5ffd5b506102eb6102e6366004612e8e565b6108e7565b60405190151581526020016102c3565b61029c610956565b34801561030e575f5ffd5b5061031860085481565b6040519081526020016102c3565b348015610331575f5ffd5b50610318610340366004612eb8565b610961565b348015610350575f5ffd5b50610318600d5481565b348015610365575f5ffd5b506103186109b1565b348015610379575f5ffd5b506102eb610388366004612ed3565b6109bf565b348015610398575f5ffd5b506004546103ac906001600160a01b031681565b6040516001600160a01b0390911681526020016102c3565b3480156103cf575f5ffd5b506003546103dd9060ff1681565b60405160ff90911681526020016102c3565b3480156103fa575f5ffd5b50610318610409366004612eb8565b610a0c565b348015610419575f5ffd5b50610318610a50565b34801561042d575f5ffd5b50610318600b5481565b61029c610a59565b34801561044a575f5ffd5b506102eb600181565b34801561045e575f5ffd5b5061031861046d366004612f11565b610a62565b34801561047d575f5ffd5b50610318666379da05b6000081565b348015610497575f5ffd5b506103185f81565b3480156104aa575f5ffd5b5061031860095481565b3480156104bf575f5ffd5b506103186104ce366004612eb8565b6001600160a01b03165f908152600e602052604090205490565b3480156104f3575f5ffd5b50610318610a9f565b348015610507575f5ffd5b50610318610516366004612f11565b610ae6565b348015610526575f5ffd5b50610318600c5481565b34801561053b575f5ffd5b506102b6610af7565b34801561054f575f5ffd5b5061031861055e366004612eb8565b610b04565b34801561056e575f5ffd5b5061029c61057d366004612fc7565b610b0e565b34801561058d575f5ffd5b50610318610d59565b3480156105a1575f5ffd5b506102eb6105b0366004612e8e565b610f39565b3480156105c0575f5ffd5b50610318600a5481565b61029c6105d8366004613071565b610f85565b3480156105e8575f5ffd5b50610318610f94565b3480156105fc575f5ffd5b5061031861060b366004612ed3565b611029565b34801561061b575f5ffd5b5061031861062a366004612eb8565b611075565b34801561063a575f5ffd5b5061031861110d565b34801561064e575f5ffd5b5061066261065d366004612eb8565b61115a565b6040805194855260208501939093529183015260608201526080016102c3565b34801561068d575f5ffd5b506005546103ac906001600160a01b031681565b3480156106ac575f5ffd5b506103186106bb366004612f11565b61119a565b3480156106cb575f5ffd5b506103186106da366004612eb8565b6111a4565b3480156106ea575f5ffd5b506103186106f9366004612f11565b6112e8565b348015610709575f5ffd5b50610318610718366004613071565b6001600160a01b039182165f908152600f6020908152604080832093909416825291909152205490565b61029c610750366004612eb8565b6112f2565b348015610760575f5ffd5b506103186112ff565b348015610774575f5ffd5b50610318610783366004612eb8565b611404565b348015610793575f5ffd5b506006546103ac906001600160a01b031681565b3480156107b2575f5ffd5b506003546103ac9061010090046001600160a01b031681565b3480156107d6575f5ffd5b50610318611417565b3480156107ea575f5ffd5b506103186107f9366004612f11565b611469565b6103186114a6565b5f5460ff166108305760405162461bcd60e51b8152600401610827906130a8565b60405180910390fd5b5f805460ff19169055610841610d59565b5061084c33826114b0565b505f805460ff19166001179055565b60018054610868906130cc565b80601f0160208091040260200160405190810160405280929190818152602001828054610894906130cc565b80156108df5780601f106108b6576101008083540402835291602001916108df565b820191905f5260205f20905b8154815290600101906020018083116108c257829003601f168201915b505050505081565b335f818152600f602090815260408083206001600160a01b03871680855292528083208590555191929182907f8c5be1e5ebec7d5bd14f71427d1e84f3dd0314c0f7b2291e5b200ac8c7c3b925906109429087815260200190565b60405180910390a360019150505b92915050565b61095f34610806565b565b5f805460ff166109835760405162461bcd60e51b8152600401610827906130a8565b5f805460ff19169055610994610d59565b5061099e82610b04565b90505f805460ff19166001179055919050565b5f6109ba61165c565b905090565b5f805460ff166109e15760405162461bcd60e51b8152600401610827906130a8565b5f805460ff191681556109f6338686866116c0565b1490505f805460ff191660011790559392505050565b5f5f6040518060200160405280610a2161110d565b90526001600160a01b0384165f908152600e6020526040902054909150610a499082906118d7565b9392505050565b5f6109ba6118f6565b61095f34611901565b5f805460ff16610a845760405162461bcd60e51b8152600401610827906130a8565b5f805460ff19169055610a95610d59565b5061099e8261194f565b5f805460ff16610ac15760405162461bcd60e51b8152600401610827906130a8565b5f805460ff19169055610ad2610d59565b5050600b545f805460ff1916600117905590565b5f610af082611a69565b505f919050565b60028054610868906130cc565b5f61095082611aa7565b60035461010090046001600160a01b03163314610b795760405162461bcd60e51b8152602060048201526024808201527f6f6e6c792061646d696e206d617920696e697469616c697a6520746865206d616044820152631c9ad95d60e21b6064820152608401610827565b600954158015610b895750600a54155b610be15760405162461bcd60e51b815260206004820152602360248201527f6d61726b6574206d6179206f6e6c7920626520696e697469616c697a6564206f6044820152626e636560e81b6064820152608401610827565b600784905583610c4c5760405162461bcd60e51b815260206004820152603060248201527f696e697469616c2065786368616e67652072617465206d75737420626520677260448201526f32b0ba32b9103a3430b7103d32b9379760811b6064820152608401610827565b5f610c56876111a4565b90508015610ca65760405162461bcd60e51b815260206004820152601d60248201527f73657474696e672070657269646f7474726f6c6c6572206661696c65640000006044820152606401610827565b43600955670de0b6b3a7640000600a55610cbf86611af0565b90508015610d1a5760405162461bcd60e51b815260206004820152602260248201527f73657474696e6720696e7465726573742072617465206d6f64656c206661696c604482015261195960f21b6064820152608401610827565b6001610d268582613149565b506002610d338482613149565b50506003805460ff90921660ff199283161790555f805490911660011790555050505050565b6009545f904390818103610d6f575f9250505090565b5f610d786118f6565b600b54600c54600a546006546040516315f2405360e01b81526004810186905260248101859052604481018490529495509293919290915f916001600160a01b0316906315f2405390606401602060405180830381865afa158015610ddf573d5f5f3e3d5ffd5b505050506040513d601f19601f82011682018060405250810190610e039190613204565b905065048c27395000811115610e5b5760405162461bcd60e51b815260206004820152601c60248201527f626f72726f772072617465206973206162737572646c792068696768000000006044820152606401610827565b5f610e66878961322f565b90505f610e8160405180602001604052808581525083611c61565b90505f610e8e82886118d7565b90505f610e9b8883613242565b90505f610eb96040518060200160405280600854815250848a611c90565b90505f610ec785898a611c90565b60098e9055600a819055600b849055600c839055604080518d815260208101879052908101829052606081018590529091507f4dec04e750ca11537cabcd8a9eab06494de08da3735bc8871cd41250e190bc049060800160405180910390a15f9d505050505050505050505050505090565b5f805460ff16610f5b5760405162461bcd60e51b8152600401610827906130a8565b5f805460ff19168155610f70338086866116c0565b1490505f805460ff1916600117905592915050565b610f90823483611cb0565b5050565b6006545f906001600160a01b031663b8168816610faf6118f6565b600b54600c546008546040516001600160e01b031960e087901b16815260048101949094526024840192909252604483015260648201526084015b602060405180830381865afa158015611005573d5f5f3e3d5ffd5b505050506040513d601f19601f820116820180604052508101906109ba9190613204565b5f805460ff1661104b5760405162461bcd60e51b8152600401610827906130a8565b5f805460ff1916905561106033858585611d87565b505f5f805460ff191660011790559392505050565b6003545f9061010090046001600160a01b031633146110a757604051635cb56c2b60e01b815260040160405180910390fd5b600480546001600160a01b038481166001600160a01b031983168117909355604080519190921680825260208201939093527fca4f2f25d0898edd99413412fb94012f9e54ec8142f9b093e7720646a95b16a991015b60405180910390a1505f92915050565b5f805460ff1661112f5760405162461bcd60e51b8152600401610827906130a8565b5f805460ff19169055611140610d59565b506111496109b1565b90505f805460ff1916600117905590565b6001600160a01b0381165f908152600e6020526040812054819081908190819061118387611aa7565b61118b61165c565b93509350935093509193509193565b5f610af082611ff1565b6003545f9061010090046001600160a01b031633146111d657604051634c2fa00360e01b815260040160405180910390fd5b6005546040805163fa707af960e01b815290516001600160a01b039283169285169163fa707af99160048083019260209291908290030181865afa158015611220573d5f5f3e3d5ffd5b505050506040513d601f19601f820116820180604052508101906112449190613255565b6112905760405162461bcd60e51b815260206004820152601c60248201527f6d61726b6572206d6574686f642072657475726e65642066616c7365000000006044820152606401610827565b600580546001600160a01b0319166001600160a01b0385811691821790925560408051928416835260208301919091527ff911792cf103798503b6dab0992e023d45661865683c550a919b8c9ad07dbf7f91016110fd565b5f610af08261202e565b6112fc813461206c565b50565b6004545f906001600160a01b031633141580611319575033155b1561133757604051631ba24f2960e21b815260040160405180910390fd5b60038054600480546001600160a01b03808216610100818102610100600160a81b0319871617968790556001600160a01b031990931690935560408051948390048216808652929095041660208401529290917ff9ffabca9c8276e99321725bcb43fb076a6c66a54b7f21c4e8146d8519b417dc910160405180910390a1600454604080516001600160a01b03808516825290921660208301527fca4f2f25d0898edd99413412fb94012f9e54ec8142f9b093e7720646a95b16a9910160405180910390a15f9250505090565b5f61140d610d59565b5061095082611af0565b6006545f906001600160a01b03166315f240536114326118f6565b600b54600c546040516001600160e01b031960e086901b168152600481019390935260248301919091526044820152606401610fea565b5f805460ff1661148b5760405162461bcd60e51b8152600401610827906130a8565b5f805460ff1916905561149c610d59565b5061099e826120bb565b5f6109ba34612176565b600554604051634ef4c3e160e01b81525f916001600160a01b031690634ef4c3e1906114e490309087908790600401613274565b6020604051808303815f875af1158015611500573d5f5f3e3d5ffd5b505050506040513d601f19601f820116820180604052508101906115249190613204565b90508015611548576040516303171a8760e61b815260048101829052602401610827565b436009541461156a576040516338d8859760e01b815260040160405180910390fd5b5f604051806020016040528061157e61165c565b905290505f61158d85856121c9565b90505f61159a828461225a565b905080600d546115aa9190613242565b600d556001600160a01b0386165f908152600e60205260409020546115d0908290613242565b6001600160a01b0387165f908152600e60205260409081902091909155517f4c209b5fc8ad50758f13e2e1088ba56a560dff690a1c6fef26394f4c03821c4f9061161f90889085908590613298565b60405180910390a16040518181526001600160a01b0387169030905f5160206133125f395f51905f529060200160405180910390a3505050505050565b600d545f9080820361167057505060075490565b5f6116796118f6565b90505f600c54600b548361168d9190613242565b611697919061322f565b90505f836116ad670de0b6b3a7640000846132b9565b6116b791906132d0565b95945050505050565b6005546040516317b9b84b60e31b81523060048201526001600160a01b0385811660248301528481166044830152606482018490525f92839291169063bdcdc258906084016020604051808303815f875af1158015611721573d5f5f3e3d5ffd5b505050506040513d601f19601f820116820180604052508101906117459190613204565b9050801561176957604051630c93cb5b60e01b815260048101829052602401610827565b836001600160a01b0316856001600160a01b03160361179b57604051638cd22d1960e01b815260040160405180910390fd5b5f6001600160a01b03808716908816036117b757505f196117de565b506001600160a01b038086165f908152600f60209081526040808320938a16835292905220545b5f6117e9858361322f565b6001600160a01b0388165f908152600e60205260408120549192509061181090879061322f565b6001600160a01b0388165f908152600e602052604081205491925090611837908890613242565b6001600160a01b03808b165f908152600e6020526040808220869055918b1681522081905590505f19841461188e576001600160a01b03808a165f908152600f60209081526040808320938e168352929052208390555b876001600160a01b0316896001600160a01b03165f5160206133125f395f51905f52896040516118c091815260200190565b60405180910390a3505f9998505050505050505050565b5f5f6118e38484611c61565b90506118ee81612277565b949350505050565b5f6109ba344761322f565b5f5460ff166119225760405162461bcd60e51b8152600401610827906130a8565b5f805460ff19169055611933610d59565b5061193f33338361228e565b50505f805460ff19166001179055565b6003545f90819061010090046001600160a01b0316331461198357604051630f7e5e6d60e41b815260040160405180910390fd5b43600954146119a557604051630dff50cb60e41b815260040160405180910390fd5b826119ae6118f6565b10156119cd57604051633345e99960e01b815260040160405180910390fd5b600c548311156119f0576040516378d2980560e11b815260040160405180910390fd5b82600c546119fe919061322f565b600c819055600354909150611a219061010090046001600160a01b03168461242c565b7f3bad0c59cf2f06e7314077049f48a93578cd16f5ef92329f1dab1420a99c177e600360019054906101000a90046001600160a01b031684836040516110fd93929190613298565b5f5460ff16611a8a5760405162461bcd60e51b8152600401610827906130a8565b5f805460ff19169055611a9b610d59565b5061084c335f83612464565b6001600160a01b0381165f90815260106020526040812080548203611ace57505f92915050565b600a5481545f91611ade916132b9565b90508160010154816118ee91906132d0565b6003545f90819061010090046001600160a01b03163314611b245760405163407fded560e01b815260040160405180910390fd5b4360095414611b4657604051630be2a5cb60e11b815260040160405180910390fd5b60065f9054906101000a90046001600160a01b03169050826001600160a01b0316632191f92a6040518163ffffffff1660e01b8152600401602060405180830381865afa158015611b99573d5f5f3e3d5ffd5b505050506040513d601f19601f82011682018060405250810190611bbd9190613255565b611c095760405162461bcd60e51b815260206004820152601c60248201527f6d61726b6572206d6574686f642072657475726e65642066616c7365000000006044820152606401610827565b600680546001600160a01b0319166001600160a01b0385811691821790925560408051928416835260208301919091527fedffc32e068c7c95dfd4bdfd5c4d939a084d6b11c4199eac8436ed234d72f92691016110fd565b60408051602081019091525f81526040518060200160405280611c87855f015185612733565b90529392505050565b5f5f611c9c8585611c61565b90506116b7611caa82612277565b8461273e565b5f5460ff16611cd15760405162461bcd60e51b8152600401610827906130a8565b5f805460ff19169055611ce2610d59565b505f816001600160a01b031663a6afed956040518163ffffffff1660e01b81526004016020604051808303815f875af1158015611d21573d5f5f3e3d5ffd5b505050506040513d601f19601f82011682018060405250810190611d459190613204565b90508015611d6957604051633eea49b760e11b815260048101829052602401610827565b611d7533858585612749565b50505f805460ff191660011790555050565b60055460405163d02f735160e01b81523060048201526001600160a01b03868116602483015285811660448301528481166064830152608482018490525f92169063d02f73519060a4016020604051808303815f875af1158015611ded573d5f5f3e3d5ffd5b505050506040513d601f19601f82011682018060405250810190611e119190613204565b90508015611e35576040516305a647b960e31b815260048101829052602401610827565b836001600160a01b0316836001600160a01b031603611e6757604051633a94626760e11b815260040160405180910390fd5b5f611e87836040518060200160405280666379da05b60000815250612bf0565b90505f611e94828561322f565b90505f6040518060200160405280611eaa61165c565b905290505f611eb982856118d7565b90505f81600c54611eca9190613242565b600c819055600d54909150611ee090869061322f565b600d556001600160a01b0388165f908152600e6020526040902054611f0690889061322f565b6001600160a01b03808a165f908152600e602052604080822093909355908b1681522054611f35908590613242565b6001600160a01b03808b165f818152600e602052604090819020939093559151908a16905f5160206133125f395f51905f5290611f759088815260200190565b60405180910390a360405185815230906001600160a01b038a16905f5160206133125f395f51905f529060200160405180910390a37fa91e67c5ea634cd43a12c5a482724b03de01e85ca68702a53d0c2f45cb7c1dc5308383604051611fdd93929190613298565b60405180910390a150505050505050505050565b5f5460ff166120125760405162461bcd60e51b8152600401610827906130a8565b5f805460ff19169055612023610d59565b5061084c3382612c11565b5f5460ff1661204f5760405162461bcd60e51b8152600401610827906130a8565b5f805460ff19169055612060610d59565b5061084c33825f612464565b5f5460ff1661208d5760405162461bcd60e51b8152600401610827906130a8565b5f805460ff1916905561209e610d59565b506120aa33838361228e565b50505f805460ff1916600117905550565b6003545f9061010090046001600160a01b031633146120ed57604051631205b57b60e11b815260040160405180910390fd5b436009541461210f57604051637dfca6b760e11b815260040160405180910390fd5b670de0b6b3a76400008211156121385760405163717220f360e11b815260040160405180910390fd5b600880549083905560408051828152602081018590527faaa68312e2ea9d50e16af5068410ab56e1a1fd06037b1a35664812c30f82146091016110fd565b5f805460ff166121985760405162461bcd60e51b8152600401610827906130a8565b5f805460ff191690556121a9610d59565b506121b382612da8565b50505f90505f805460ff19166001179055919050565b5f336001600160a01b038416146122145760405162461bcd60e51b815260206004820152600f60248201526e0e6cadcc8cae440dad2e6dac2e8c6d608b1b6044820152606401610827565b8134146122545760405162461bcd60e51b815260206004820152600e60248201526d0ecc2d8eaca40dad2e6dac2e8c6d60931b6044820152606401610827565b50919050565b5f610a4961227084670de0b6b3a7640000612733565b8351612e3a565b80515f9061095090670de0b6b3a7640000906132d0565b600554604051631200453160e11b81523060048201526001600160a01b0385811660248301528481166044830152606482018490525f9283929116906324008a62906084016020604051808303815f875af11580156122ef573d5f5f3e3d5ffd5b505050506040513d601f19601f820116820180604052508101906123139190613204565b90508015612337576040516335a6a70b60e21b815260048101829052602401610827565b43600954146123595760405163c9021e2f60e01b815260040160405180910390fd5b5f61236385611aa7565b90505f5f1985146123745784612376565b815b90505f61238388836121c9565b90505f612390828561322f565b90505f82600b546123a1919061322f565b6001600160a01b038a81165f81815260106020908152604091829020878155600a54600190910155600b8590558151938f168452830191909152810185905260608101849052608081018290529091507f1a2a22cb034d26d1854bdc6666a5b91fe25efbbb5dcad3b0355478d6f5c362a19060a00160405180910390a1509098975050505050505050565b6040516001600160a01b0383169082156108fc029083905f818181858888f1935050505015801561245f573d5f5f3e3d5ffd5b505050565b81158061246f575080155b6124d85760405162461bcd60e51b815260206004820152603460248201527f6f6e65206f662072656465656d546f6b656e73496e206f722072656465656d416044820152736d6f756e74496e206d757374206265207a65726f60601b6064820152608401610827565b5f60405180602001604052806124ec61165c565b905290505f80841561250c5784915061250583866118d7565b905061251c565b612516848461225a565b91508390505b60055460405163eabe7d9160e01b81525f916001600160a01b03169063eabe7d91906125509030908b908890600401613274565b6020604051808303815f875af115801561256c573d5f5f3e3d5ffd5b505050506040513d601f19601f820116820180604052508101906125909190613204565b905080156125b457604051635bd5f7ab60e11b815260048101829052602401610827565b43600954146125d6576040516397b5cfcd60e01b815260040160405180910390fd5b816125df6118f6565b10156125fe576040516391240a1b60e01b815260040160405180910390fd5b82600d5461260c919061322f565b600d556001600160a01b0387165f908152600e602052604090205461263290849061322f565b6001600160a01b0388165f908152600e6020526040902055612654878361242c565b60405183815230906001600160a01b038916905f5160206133125f395f51905f529060200160405180910390a37fe5b754fb1abb7f01b499791d0b820ae3b6af3424ac1c59768edb53f4ec31a9298783856040516126b493929190613298565b60405180910390a16005546040516351dff98960e01b81523060048201526001600160a01b0389811660248301526044820185905260648201869052909116906351dff989906084015f604051808303815f87803b158015612714575f5ffd5b505af1158015612726573d5f5f3e3d5ffd5b5050505050505050505050565b5f610a4982846132b9565b5f610a498284613242565b600554604051632fe3f38f60e11b81523060048201526001600160a01b03838116602483015286811660448301528581166064830152608482018590525f921690635fc7e71e9060a4016020604051808303815f875af11580156127af573d5f5f3e3d5ffd5b505050506040513d601f19601f820116820180604052508101906127d39190613204565b905080156127f757604051632d33e4f360e21b815260048101829052602401610827565b4360095414612819576040516380965b1b60e01b815260040160405180910390fd5b43826001600160a01b0316636c540baf6040518163ffffffff1660e01b8152600401602060405180830381865afa158015612856573d5f5f3e3d5ffd5b505050506040513d601f19601f8201168201806040525081019061287a9190613204565b1461289857604051631046f38d60e31b815260040160405180910390fd5b846001600160a01b0316846001600160a01b0316036128ca57604051631bd1a62160e21b815260040160405180910390fd5b825f036128ea5760405163d29da7ef60e01b815260040160405180910390fd5b5f19830361290b57604051635982c5bb60e11b815260040160405180910390fd5b5f61291786868661228e565b60055460405163c488847b60e01b81529192505f9182916001600160a01b03169063c488847b9061295090309089908890600401613274565b6040805180830381865afa15801561296a573d5f5f3e3d5ffd5b505050506040513d601f19601f8201168201806040525081019061298e91906132ef565b915091505f82146129fd5760405162461bcd60e51b815260206004820152603360248201527f4c49515549444154455f434f4d5054524f4c4c45525f43414c43554c4154455f604482015272105353d5539517d4d152569157d19052531151606a1b6064820152608401610827565b6040516370a0823160e01b81526001600160a01b0388811660048301528291908716906370a0823190602401602060405180830381865afa158015612a44573d5f5f3e3d5ffd5b505050506040513d601f19601f82011682018060405250810190612a689190613204565b1015612ab65760405162461bcd60e51b815260206004820152601860248201527f4c49515549444154455f5345495a455f544f4f5f4d55434800000000000000006044820152606401610827565b306001600160a01b03861603612ad757612ad230898984611d87565b612b8d565b60405163b2a02ff160e01b81525f906001600160a01b0387169063b2a02ff190612b09908c908c908790600401613274565b6020604051808303815f875af1158015612b25573d5f5f3e3d5ffd5b505050506040513d601f19601f82011682018060405250810190612b499190613204565b14612b8d5760405162461bcd60e51b81526020600482015260146024820152731d1bdad95b881cd95a5e9d5c994819985a5b195960621b6044820152606401610827565b604080516001600160a01b038a811682528981166020830152818301869052871660608201526080810183905290517f298637f684da70674f26509b10f07ec2fbc77a335ab1e7d6215a4b2484d8bb529181900360a00190a15050505050505050565b5f670de0b6b3a7640000612c0784845f0151612733565b610a4991906132d0565b60055460405163368f515360e21b81525f916001600160a01b03169063da3d454c90612c4590309087908790600401613274565b6020604051808303815f875af1158015612c61573d5f5f3e3d5ffd5b505050506040513d601f19601f82011682018060405250810190612c859190613204565b90508015612ca957604051635684deff60e11b815260048101829052602401610827565b4360095414612ccb57604051630e8d8c6160e21b815260040160405180910390fd5b81612cd46118f6565b1015612cf3576040516348c2588160e01b815260040160405180910390fd5b5f612cfd84611aa7565b90505f612d0a8483613242565b90505f84600b54612d1b9190613242565b6001600160a01b0387165f908152601060205260409020838155600a54600190910155600b8190559050612d4f868661242c565b604080516001600160a01b038816815260208101879052908101839052606081018290527f13ed6866d4e1ee6da46f845c46d7e54120883d75c5ea9a2dacc1c4ca8984ab809060800160405180910390a1505050505050565b5f8080804360095414612dd1576040516338acf79960e01b815260048101829052602401610827565b612ddb33866121c9565b905080600c54612deb9190613242565b915081600c819055507fa91e67c5ea634cd43a12c5a482724b03de01e85ca68702a53d0c2f45cb7c1dc5338284604051612e2793929190613298565b60405180910390a15f9590945092505050565b5f610a4982846132d0565b602081525f82518060208401528060208501604085015e5f604082850101526040601f19601f83011684010191505092915050565b6001600160a01b03811681146112fc575f5ffd5b5f5f60408385031215612e9f575f5ffd5b8235612eaa81612e7a565b946020939093013593505050565b5f60208284031215612ec8575f5ffd5b8135610a4981612e7a565b5f5f5f60608486031215612ee5575f5ffd5b8335612ef081612e7a565b92506020840135612f0081612e7a565b929592945050506040919091013590565b5f60208284031215612f21575f5ffd5b5035919050565b634e487b7160e01b5f52604160045260245ffd5b5f82601f830112612f4b575f5ffd5b813567ffffffffffffffff811115612f6557612f65612f28565b604051601f8201601f19908116603f0116810167ffffffffffffffff81118282101715612f9457612f94612f28565b604052818152838201602001851015612fab575f5ffd5b816020850160208301375f918101602001919091529392505050565b5f5f5f5f5f5f60c08789031215612fdc575f5ffd5b8635612fe781612e7a565b95506020870135612ff781612e7a565b945060408701359350606087013567ffffffffffffffff811115613019575f5ffd5b61302589828a01612f3c565b935050608087013567ffffffffffffffff811115613041575f5ffd5b61304d89828a01612f3c565b92505060a087013560ff81168114613063575f5ffd5b809150509295509295509295565b5f5f60408385031215613082575f5ffd5b823561308d81612e7a565b9150602083013561309d81612e7a565b809150509250929050565b6020808252600a90820152691c994b595b9d195c995960b21b604082015260600190565b600181811c908216806130e057607f821691505b60208210810361225457634e487b7160e01b5f52602260045260245ffd5b601f82111561245f57805f5260205f20601f840160051c810160208510156131235750805b601f840160051c820191505b81811015613142575f815560010161312f565b5050505050565b815167ffffffffffffffff81111561316357613163612f28565b6131778161317184546130cc565b846130fe565b6020601f8211600181146131a9575f83156131925750848201515b5f19600385901b1c1916600184901b178455613142565b5f84815260208120601f198516915b828110156131d857878501518255602094850194600190920191016131b8565b50848210156131f557868401515f19600387901b60f8161c191681555b50505050600190811b01905550565b5f60208284031215613214575f5ffd5b5051919050565b634e487b7160e01b5f52601160045260245ffd5b818103818111156109505761095061321b565b808201808211156109505761095061321b565b5f60208284031215613265575f5ffd5b81518015158114610a49575f5ffd5b6001600160a01b039384168152919092166020820152604081019190915260600190565b6001600160a01b039390931683526020830191909152604082015260600190565b80820281158282048414176109505761095061321b565b5f826132ea57634e487b7160e01b5f52601260045260245ffd5b500490565b5f5f60408385031215613300575f5ffd5b50508051602090910151909290915056feddf252ad1be2c89b69c2b068fc378daa952ba7f163c4a11628f55a4df523b3efa264697066735822122036458f8228efaa7bb43ed5d6edb3f533f5769215bcf8a806417ec042a24103fb64736f6c634300081b0033","linkReferences":{}},"methodIdentifiers":{"NO_ERROR()":"69ab3250","_acceptAdmin()":"e9c714f2","_addReserves()":"fcb64147","_reduceReserves(uint256)":"601a0bf1","_setInterestRateModel(address)":"f2b3abbd","_setPendingAdmin(address)":"b71d1a0c","_setPeridottroller(address)":"d5c6d3bd","_setReserveFactor(uint256)":"fca7820b","accrualBlockNumber()":"6c540baf","accrueInterest()":"a6afed95","admin()":"f851a440","allowance(address,address)":"dd62ed3e","approve(address,uint256)":"095ea7b3","balanceOf(address)":"70a08231","balanceOfUnderlying(address)":"3af9e669","borrow(uint256)":"c5ebeaec","borrowBalanceCurrent(address)":"17bfdfbc","borrowBalanceStored(address)":"95dd9193","borrowIndex()":"aa5af0fd","borrowRatePerBlock()":"f8f9da28","decimals()":"313ce567","exchangeRateCurrent()":"bd6d894d","exchangeRateStored()":"182df0f5","getAccountSnapshot(address)":"c37f68e2","getCash()":"3b1d21a2","initialize(address,address,uint256,string,string,uint8)":"99d8c1b4","interestRateModel()":"f3fdb15a","isPToken()":"5a890c0e","liquidateBorrow(address,address)":"aae40a2a","mint()":"1249c58b","name()":"06fdde03","pendingAdmin()":"26782247","peridottroller()":"c423fe29","protocolSeizeShareMantissa()":"6752e702","redeem(uint256)":"db006a75","redeemUnderlying(uint256)":"852a12e3","repayBorrow()":"4e4d9fea","repayBorrowBehalf(address)":"e5974619","reserveFactorMantissa()":"173b9904","seize(address,address,uint256)":"b2a02ff1","supplyRatePerBlock()":"ae9d70b0","symbol()":"95d89b41","totalBorrows()":"47bd3718","totalBorrowsCurrent()":"73acee98","totalReserves()":"8f840ddd","totalSupply()":"18160ddd","transfer(address,uint256)":"a9059cbb","transferFrom(address,address,uint256)":"23b872dd"},"id":18}