{"abi":[{"type":"constructor","inputs":[{"name":"initialImplementation","type":"address","internalType":"address"},{"name":"initialAdmin","type":"address","internalType":"address"}],"stateMutability":"nonpayable"},{"type":"fallback","stateMutability":"payable"},{"type":"function","name":"admin","inputs":[],"outputs":[{"name":"","type":"address","internalType":"address"}],"stateMutability":"view"},{"type":"function","name":"changeAdmin","inputs":[{"name":"newAdmin","type":"address","internalType":"address"}],"outputs":[],"stateMutability":"nonpayable"},{"type":"function","name":"implementation","inputs":[],"outputs":[{"name":"","type":"address","internalType":"address"}],"stateMutability":"view"},{"type":"function","name":"upgradeTo","inputs":[{"name":"newImplementation","type":"address","internalType":"address"}],"outputs":[],"stateMutability":"nonpayable"},{"type":"event","name":"AdminChanged","inputs":[{"name":"previousAdmin","type":"address","indexed":false,"internalType":"address"},{"name":"newAdmin","type":"address","indexed":false,"internalType":"address"}],"anonymous":false},{"type":"event","name":"Upgraded","inputs":[{"name":"implementation","type":"address","indexed":true,"internalType":"address"}],"anonymous":false}],"bytecode":{"object":"0x608060405234801561000f575f5ffd5b5060405161074d38038061074d83398101604081905261002e91610222565b6001600160a01b0382166100af5760405162461bcd60e51b815260206004820152603360248201527f4549503139363750726f78793a20696d706c656d656e746174696f6e2063616e60448201527f6e6f74206265207a65726f20616464726573730000000000000000000000000060648201526084015b60405180910390fd5b5f826001600160a01b03163b1161011f5760405162461bcd60e51b815260206004820152602e60248201527f4549503139363750726f78793a20696d706c656d656e746174696f6e2069732060448201526d1b9bdd08184818dbdb9d1c9858dd60921b60648201526084016100a6565b610128826101c3565b6001600160a01b0381166101915760405162461bcd60e51b815260206004820152602a60248201527f4549503139363750726f78793a2061646d696e2063616e6e6f74206265207a65604482015269726f206164647265737360b01b60648201526084016100a6565b6101bc81807fb53127684a568b3173ae13b9f8a6016e243e63b6e8ee1178d6a717850b5d61036101e6565b5050610253565b807f360894a13ba1a3210667c828492db98dca3e2076cc3735a920a3ca505d382bbc5b80546001600160a01b0319166001600160a01b039290921691909117905550565b80516001600160a01b038116811461021d575f5ffd5b919050565b5f5f60408385031215610233575f5ffd5b61023c83610207565b915061024a60208401610207565b90509250929050565b6104ed806102605f395ff3fe60806040526004361061003e575f3560e01c80633659cfe6146100485780635c60da1b146100675780638f28397014610097578063f851a440146100b6575b6100466100ca565b005b348015610053575f5ffd5b50610046610062366004610445565b6100dc565b348015610072575f5ffd5b5061007b61024c565b6040516001600160a01b03909116815260200160405180910390f35b3480156100a2575f5ffd5b506100466100b1366004610445565b61025a565b3480156100c1575f5ffd5b5061007b61035a565b6100da6100d5610363565b610395565b565b6100e46103b3565b6001600160a01b0316336001600160a01b03161461011d5760405162461bcd60e51b815260040161011490610472565b60405180910390fd5b6001600160a01b0381166101995760405162461bcd60e51b815260206004820152603760248201527f4549503139363750726f78793a206e657720696d706c656d656e746174696f6e60448201527f2063616e6e6f74206265207a65726f20616464726573730000000000000000006064820152608401610114565b5f816001600160a01b03163b1161020d5760405162461bcd60e51b815260206004820152603260248201527f4549503139363750726f78793a206e657720696d706c656d656e746174696f6e604482015271081a5cc81b9bdd08184818dbdb9d1c9858dd60721b6064820152608401610114565b610216816103da565b6040516001600160a01b038216907fbc7cd75a20ee27fd9adebab32041f755214dbc6bffa90cc0225b39da2e5c2d3b905f90a250565b5f610255610363565b905090565b6102626103b3565b6001600160a01b0316336001600160a01b0316146102925760405162461bcd60e51b815260040161011490610472565b6001600160a01b0381166102ff5760405162461bcd60e51b815260206004820152602e60248201527f4549503139363750726f78793a206e65772061646d696e2063616e6e6f74206260448201526d65207a65726f206164647265737360901b6064820152608401610114565b5f6103086103b3565b90506103138261041e565b604080516001600160a01b038084168252841660208201527f7e644d79422f17c01e4894b5f4f588d331ebfa28653d42ae832dc59e38c9798f910160405180910390a15050565b5f6102556103b3565b5f7f360894a13ba1a3210667c828492db98dca3e2076cc3735a920a3ca505d382bbc5b546001600160a01b0316919050565b365f5f375f5f365f845af43d5f5f3e8080156103af573d5ff35b3d5ffd5b5f7fb53127684a568b3173ae13b9f8a6016e243e63b6e8ee1178d6a717850b5d6103610386565b807f360894a13ba1a3210667c828492db98dca3e2076cc3735a920a3ca505d382bbc5b80546001600160a01b0319166001600160a01b039290921691909117905550565b807fb53127684a568b3173ae13b9f8a6016e243e63b6e8ee1178d6a717850b5d61036103fd565b5f60208284031215610455575f5ffd5b81356001600160a01b038116811461046b575f5ffd5b9392505050565b60208082526025908201527f4549503139363750726f78793a2063616c6c6572206973206e6f74207468652060408201526430b236b4b760d91b60608201526080019056fea2646970667358221220af0a1fc189fa61e4de8d9a635dd86584cf17df13b8d0d416d6d3e1dfddbff3d164736f6c634300081b0033","linkReferences":{}},"methodIdentifiers":{"admin()":"f851a440","changeAdmin(address)":"8f283970","implementation()":"5c60da1b","upgradeTo(address)":"3659cfe6"},"id":35}