{"abi":[{"type":"constructor","inputs":[{"name":"_wormhole","type":"address","internalType":"address"},{"name":"_relayer","type":"address","internalType":"address"},{"name":"_tokenBridge","type":"address","internalType":"address"},{"name":"_hubChainId","type":"uint16","internalType":"uint16"},{"name":"_hubAddress","type":"address","internalType":"address"}],"stateMutability":"nonpayable"},{"type":"function","name":"borrow","inputs":[{"name":"token","type":"address","internalType":"address"},{"name":"amount","type":"uint256","internalType":"uint256"}],"outputs":[],"stateMutability":"payable"},{"type":"function","name":"deposit","inputs":[{"name":"token","type":"address","internalType":"address"},{"name":"amount","type":"uint256","internalType":"uint256"}],"outputs":[],"stateMutability":"payable"},{"type":"function","name":"hubAddress","inputs":[],"outputs":[{"name":"","type":"address","internalType":"address"}],"stateMutability":"view"},{"type":"function","name":"hubChainId","inputs":[],"outputs":[{"name":"","type":"uint16","internalType":"uint16"}],"stateMutability":"view"},{"type":"function","name":"initialize","inputs":[{"name":"initialOwner","type":"address","internalType":"address"}],"outputs":[],"stateMutability":"nonpayable"},{"type":"function","name":"owner","inputs":[],"outputs":[{"name":"","type":"address","internalType":"address"}],"stateMutability":"view"},{"type":"function","name":"processedMessages","inputs":[{"name":"","type":"bytes32","internalType":"bytes32"}],"outputs":[{"name":"","type":"bool","internalType":"bool"}],"stateMutability":"view"},{"type":"function","name":"receiveWormholeMessages","inputs":[{"name":"payload","type":"bytes","internalType":"bytes"},{"name":"additionalVaas","type":"bytes[]","internalType":"bytes[]"},{"name":"sourceAddress","type":"bytes32","internalType":"bytes32"},{"name":"sourceChain","type":"uint16","internalType":"uint16"},{"name":"deliveryHash","type":"bytes32","internalType":"bytes32"}],"outputs":[],"stateMutability":"payable"},{"type":"function","name":"relayer","inputs":[],"outputs":[{"name":"","type":"address","internalType":"contract IWormholeRelayerSend"}],"stateMutability":"view"},{"type":"function","name":"renounceOwnership","inputs":[],"outputs":[],"stateMutability":"nonpayable"},{"type":"function","name":"repay","inputs":[{"name":"token","type":"address","internalType":"address"},{"name":"amount","type":"uint256","internalType":"uint256"}],"outputs":[],"stateMutability":"payable"},{"type":"function","name":"tokenBridge","inputs":[],"outputs":[{"name":"","type":"address","internalType":"contract ITokenBridge"}],"stateMutability":"view"},{"type":"function","name":"transferOwnership","inputs":[{"name":"newOwner","type":"address","internalType":"address"}],"outputs":[],"stateMutability":"nonpayable"},{"type":"function","name":"withdraw","inputs":[{"name":"token","type":"address","internalType":"address"},{"name":"amount","type":"uint256","internalType":"uint256"}],"outputs":[],"stateMutability":"payable"},{"type":"function","name":"wormhole","inputs":[],"outputs":[{"name":"","type":"address","internalType":"contract IWormhole"}],"stateMutability":"view"},{"type":"event","name":"AssetReceived","inputs":[{"name":"user","type":"address","indexed":true,"internalType":"address"},{"name":"token","type":"address","indexed":true,"internalType":"address"},{"name":"amount","type":"uint256","indexed":false,"internalType":"uint256"}],"anonymous":false},{"type":"event","name":"BorrowInitiated","inputs":[{"name":"user","type":"address","indexed":true,"internalType":"address"},{"name":"token","type":"address","indexed":true,"internalType":"address"},{"name":"amount","type":"uint256","indexed":false,"internalType":"uint256"},{"name":"sequence","type":"uint64","indexed":false,"internalType":"uint64"}],"anonymous":false},{"type":"event","name":"DeliveryStatus","inputs":[{"name":"status","type":"uint8","indexed":false,"internalType":"uint8"},{"name":"deliveryHash","type":"bytes32","indexed":false,"internalType":"bytes32"}],"anonymous":false},{"type":"event","name":"DepositInitiated","inputs":[{"name":"user","type":"address","indexed":true,"internalType":"address"},{"name":"token","type":"address","indexed":true,"internalType":"address"},{"name":"amount","type":"uint256","indexed":false,"internalType":"uint256"},{"name":"sequence","type":"uint64","indexed":false,"internalType":"uint64"}],"anonymous":false},{"type":"event","name":"Initialized","inputs":[{"name":"version","type":"uint64","indexed":false,"internalType":"uint64"}],"anonymous":false},{"type":"event","name":"OwnershipTransferred","inputs":[{"name":"previousOwner","type":"address","indexed":true,"internalType":"address"},{"name":"newOwner","type":"address","indexed":true,"internalType":"address"}],"anonymous":false},{"type":"event","name":"RepayInitiated","inputs":[{"name":"user","type":"address","indexed":true,"internalType":"address"},{"name":"token","type":"address","indexed":true,"internalType":"address"},{"name":"amount","type":"uint256","indexed":false,"internalType":"uint256"},{"name":"sequence","type":"uint64","indexed":false,"internalType":"uint64"}],"anonymous":false},{"type":"event","name":"WithdrawInitiated","inputs":[{"name":"user","type":"address","indexed":true,"internalType":"address"},{"name":"token","type":"address","indexed":true,"internalType":"address"},{"name":"amount","type":"uint256","indexed":false,"internalType":"uint256"},{"name":"sequence","type":"uint64","indexed":false,"internalType":"uint64"}],"anonymous":false},{"type":"error","name":"InsufficientValue","inputs":[]},{"type":"error","name":"InvalidAddress","inputs":[{"name":"param","type":"string","internalType":"string"}]},{"type":"error","name":"InvalidAmount","inputs":[]},{"type":"error","name":"InvalidInitialization","inputs":[]},{"type":"error","name":"MessageProcessingFailed","inputs":[]},{"type":"error","name":"NotInitializing","inputs":[]},{"type":"error","name":"OnlyRelayer","inputs":[]},{"type":"error","name":"OwnableInvalidOwner","inputs":[{"name":"owner","type":"address","internalType":"address"}]},{"type":"error","name":"OwnableUnauthorizedAccount","inputs":[{"name":"account","type":"address","internalType":"address"}]},{"type":"error","name":"ReentrancyGuardReentrantCall","inputs":[]},{"type":"error","name":"SafeERC20FailedOperation","inputs":[{"name":"token","type":"address","internalType":"address"}]},{"type":"error","name":"TokenBridgeTransferFailed","inputs":[]}],"bytecode":{"object":"0x610120604052348015610010575f5ffd5b5060405161222838038061222883398101604081905261002f9161018c565b60015f556001600160a01b03851661007a57604051630b0f5aa160e11b8152602060048201526008602482015267776f726d686f6c6560c01b60448201526064015b60405180910390fd5b6001600160a01b0384166100bb57604051630b0f5aa160e11b81526020600482015260076024820152663932b630bcb2b960c91b6044820152606401610071565b6001600160a01b03831661010157604051630b0f5aa160e11b815260206004820152600c60248201526b746f6b656e2062726964676560a01b6044820152606401610071565b6001600160a01b03811661014657604051630b0f5aa160e11b815260206004820152600b60248201526a687562206164647265737360a81b6044820152606401610071565b6001600160a01b0394851660805292841660a05290831660c05261ffff1660e05216610100526101f5565b80516001600160a01b0381168114610187575f5ffd5b919050565b5f5f5f5f5f60a086880312156101a0575f5ffd5b6101a986610171565b94506101b760208701610171565b93506101c560408701610171565b9250606086015161ffff811681146101db575f5ffd5b91506101e960808701610171565b90509295509295909350565b60805160a05160c05160e05161010051611f086103205f395f8181610322015281816105da015281816106cf01528181610a5001528181610b4501528181610d84015261146a01525f81816102580152818161037e015281816105b6015281816106ae015281816107f401528181610a2c01528181610b2401528181610c6101528181610d6301528181611347015261144901525f81816102bd01528181610507015281816105840152818161097d015281816109fa01528181610fb80152610fe401525f818161015b015281816103b70152818161067e0152818161082d01528181610af401528181610ca401528181610d3301528181610e7b0152818161138a015261141901525f81816101ab0152818161042d015281816108a30152610ef70152611f085ff3fe6080604052600436106100e4575f3560e01c806388ba16ab11610087578063c6328a4611610057578063c6328a46146102ac578063f2fde38b146102df578063f3fef3a3146102fe578063f69b1b2914610311575f5ffd5b806388ba16ab146101cd5780638da5cb5b1461020b578063929f584014610247578063c4d66de81461028d575f5ffd5b8063529dca32116100c2578063529dca3214610123578063715018a6146101365780638406c0791461014a57806384acd1bb1461019a575f5ffd5b806322867d78146100e857806347e7ef24146100fd5780634b8a352914610110575b5f5ffd5b6100fb6100f63660046117d7565b610344565b005b6100fb61010b3660046117d7565b6107ba565b6100fb61011e3660046117d7565b610c19565b6100fb610131366004611949565b610e68565b348015610141575f5ffd5b506100fb6111b3565b348015610155575f5ffd5b5061017d7f000000000000000000000000000000000000000000000000000000000000000081565b6040516001600160a01b0390911681526020015b60405180910390f35b3480156101a5575f5ffd5b5061017d7f000000000000000000000000000000000000000000000000000000000000000081565b3480156101d8575f5ffd5b506101fb6101e7366004611a42565b60016020525f908152604090205460ff1681565b6040519015158152602001610191565b348015610216575f5ffd5b507f9016d09d72d40fdae2fd8ceac6b6234c7706214fd39c1cd1e609a0528c199300546001600160a01b031661017d565b348015610252575f5ffd5b5061027a7f000000000000000000000000000000000000000000000000000000000000000081565b60405161ffff9091168152602001610191565b348015610298575f5ffd5b506100fb6102a7366004611a59565b6111c6565b3480156102b7575f5ffd5b5061017d7f000000000000000000000000000000000000000000000000000000000000000081565b3480156102ea575f5ffd5b506100fb6102f9366004611a59565b6112bd565b6100fb61030c3660046117d7565b6112ff565b34801561031c575f5ffd5b5061017d7f000000000000000000000000000000000000000000000000000000000000000081565b61034c61153e565b805f0361036c5760405163162908e360e11b815260040160405180910390fd5b60405163c23ee3c360e01b815261ffff7f00000000000000000000000000000000000000000000000000000000000000001660048201525f60248201819052620f42406044830152907f00000000000000000000000000000000000000000000000000000000000000006001600160a01b03169063c23ee3c3906064016040805180830381865afa158015610403573d5f5f3e3d5ffd5b505050506040513d601f19601f820116820180604052508101906104279190611a7b565b5090505f7f00000000000000000000000000000000000000000000000000000000000000006001600160a01b0316631a90a2196040518163ffffffff1660e01b8152600401602060405180830381865afa158015610487573d5f5f3e3d5ffd5b505050506040513d601f19601f820116820180604052508101906104ab9190611a9d565b90505f6104b88284611ab4565b9050803410156104db5760405163044044a560e21b815260040160405180910390fd5b6104f06001600160a01b038616333087611566565b60405163095ea7b360e01b81526001600160a01b037f0000000000000000000000000000000000000000000000000000000000000000811660048301526024820186905286169063095ea7b3906044016020604051808303815f875af115801561055c573d5f5f3e3d5ffd5b505050506040513d601f19601f820116820180604052508101906105809190611ae2565b505f7f00000000000000000000000000000000000000000000000000000000000000006001600160a01b0316630f5287b08488887f00000000000000000000000000000000000000000000000000000000000000006106057f00000000000000000000000000000000000000000000000000000000000000006001600160a01b031690565b5f5f6040518863ffffffff1660e01b815260040161062896959493929190611afb565b60206040518083038185885af1158015610644573d5f5f3e3d5ffd5b50505050506040513d601f19601f820116820180604052508101906106699190611b4e565b90505f61067960033389896115c6565b90505f7f00000000000000000000000000000000000000000000000000000000000000006001600160a01b0316638fecdd02877f00000000000000000000000000000000000000000000000000000000000000007f0000000000000000000000000000000000000000000000000000000000000000865f620f42406040518763ffffffff1660e01b8152600401610714959493929190611b95565b60206040518083038185885af1158015610730573d5f5f3e3d5ffd5b50505050506040513d601f19601f820116820180604052508101906107559190611b4e565b604080518981526001600160401b03831660208201529192506001600160a01b038a169133917ff6a1523a59e6e1bcb95e4578eaa88a8bba692d63f28f76c000e6d7228bb0902c91015b60405180910390a35050505050506107b660015f55565b5050565b6107c261153e565b805f036107e25760405163162908e360e11b815260040160405180910390fd5b60405163c23ee3c360e01b815261ffff7f00000000000000000000000000000000000000000000000000000000000000001660048201525f60248201819052620f42406044830152907f00000000000000000000000000000000000000000000000000000000000000006001600160a01b03169063c23ee3c3906064016040805180830381865afa158015610879573d5f5f3e3d5ffd5b505050506040513d601f19601f8201168201806040525081019061089d9190611a7b565b5090505f7f00000000000000000000000000000000000000000000000000000000000000006001600160a01b0316631a90a2196040518163ffffffff1660e01b8152600401602060405180830381865afa1580156108fd573d5f5f3e3d5ffd5b505050506040513d601f19601f820116820180604052508101906109219190611a9d565b90505f61092e8284611ab4565b9050803410156109515760405163044044a560e21b815260040160405180910390fd5b6109666001600160a01b038616333087611566565b60405163095ea7b360e01b81526001600160a01b037f0000000000000000000000000000000000000000000000000000000000000000811660048301526024820186905286169063095ea7b3906044016020604051808303815f875af11580156109d2573d5f5f3e3d5ffd5b505050506040513d601f19601f820116820180604052508101906109f69190611ae2565b505f7f00000000000000000000000000000000000000000000000000000000000000006001600160a01b0316630f5287b08488887f0000000000000000000000000000000000000000000000000000000000000000610a7b7f00000000000000000000000000000000000000000000000000000000000000006001600160a01b031690565b5f5f6040518863ffffffff1660e01b8152600401610a9e96959493929190611afb565b60206040518083038185885af1158015610aba573d5f5f3e3d5ffd5b50505050506040513d601f19601f82011682018060405250810190610adf9190611b4e565b90505f610aef60013389896115c6565b90505f7f00000000000000000000000000000000000000000000000000000000000000006001600160a01b0316638fecdd02877f00000000000000000000000000000000000000000000000000000000000000007f0000000000000000000000000000000000000000000000000000000000000000865f620f42406040518763ffffffff1660e01b8152600401610b8a959493929190611b95565b60206040518083038185885af1158015610ba6573d5f5f3e3d5ffd5b50505050506040513d601f19601f82011682018060405250810190610bcb9190611b4e565b604080518981526001600160401b03831660208201529192506001600160a01b038a169133917f84b54474426a4e1dcaa0bee72f1db57343a42b85688027f0a42b322e7cd88c13910161079f565b610c2161153e565b805f03610c415760405163162908e360e11b815260040160405180910390fd5b5f610c4f60023385856115c6565b60405163c23ee3c360e01b815261ffff7f00000000000000000000000000000000000000000000000000000000000000001660048201525f60248201819052620f424060448301529192506001600160a01b037f0000000000000000000000000000000000000000000000000000000000000000169063c23ee3c3906064016040805180830381865afa158015610ce8573d5f5f3e3d5ffd5b505050506040513d601f19601f82011682018060405250810190610d0c9190611a7b565b50905080341015610d305760405163044044a560e21b815260040160405180910390fd5b5f7f00000000000000000000000000000000000000000000000000000000000000006001600160a01b0316638fecdd02837f00000000000000000000000000000000000000000000000000000000000000007f0000000000000000000000000000000000000000000000000000000000000000875f620f42406040518763ffffffff1660e01b8152600401610dc9959493929190611b95565b60206040518083038185885af1158015610de5573d5f5f3e3d5ffd5b50505050506040513d601f19601f82011682018060405250810190610e0a9190611b4e565b604080518681526001600160401b03831660208201529192506001600160a01b0387169133917fbe63a4145688c2cd84e1de6dd448a72dd766c5950b434d9cc27140b88d10e39991015b60405180910390a35050506107b660015f55565b610e7061153e565b336001600160a01b037f00000000000000000000000000000000000000000000000000000000000000001614610eb9576040516308af1bb760e31b815260040160405180910390fd5b5f8181526001602052604090205460ff166111a3575f8181526001602081905260408220805460ff191690911790555b84518110156110d0575f5f5f7f00000000000000000000000000000000000000000000000000000000000000006001600160a01b031663c0fd8bde898681518110610f3657610f36611bd6565b60200260200101516040518263ffffffff1660e01b8152600401610f5a9190611bea565b5f60405180830381865afa158015610f74573d5f5f3e3d5ffd5b505050506040513d5f823e601f3d908101601f19168201604052610f9b9190810190611d25565b92509250925081610fae575050506110c8565b6001600160a01b037f0000000000000000000000000000000000000000000000000000000000000000168360800151036110c4577f00000000000000000000000000000000000000000000000000000000000000006001600160a01b031663c687851989868151811061102357611023611bd6565b60200260200101516040518263ffffffff1660e01b81526004016110479190611bea565b5f604051808303815f87803b15801561105e575f5ffd5b505af192505050801561106f575060015b61108c57604051632728491760e01b815260040160405180910390fd5b6040515f8082529033907f322d0c4befd4c2dd440740b711488a1638fd7d8eeb25f9dacede84083db428c99060200160405180910390a35b5050505b600101610ee9565b50845115611169575f5f5f5f888060200190518101906110f09190611e85565b929650909450925090506001600160a01b0383161580159061111157505f81115b1561116457816001600160a01b0316836001600160a01b03167f322d0c4befd4c2dd440740b711488a1638fd7d8eeb25f9dacede84083db428c98360405161115b91815260200190565b60405180910390a35b505050505b604080515f8152602081018390527fff499f595506d2eb98e44c258f4ee40ceb57fc61f69f0695d8f2996a00fa8006910160405180910390a15b6111ac60015f55565b5050505050565b6111bb61160b565b6111c45f611666565b565b5f6111cf6116d6565b805490915060ff600160401b82041615906001600160401b03165f811580156111f55750825b90505f826001600160401b031660011480156112105750303b155b90508115801561121e575080155b1561123c5760405163f92ee8a960e01b815260040160405180910390fd5b845467ffffffffffffffff19166001178555831561126657845460ff60401b1916600160401b1785555b61126f86611700565b83156112b557845460ff60401b19168555604051600181527fc7f505b2f371ae2175ee4913f4499e1f2633a7b5936321eed1cdaeb6115181d29060200160405180910390a15b505050505050565b6112c561160b565b6001600160a01b0381166112f357604051631e4fbdf760e01b81525f60048201526024015b60405180910390fd5b6112fc81611666565b50565b61130761153e565b805f036113275760405163162908e360e11b815260040160405180910390fd5b5f61133560043385856115c6565b60405163c23ee3c360e01b815261ffff7f00000000000000000000000000000000000000000000000000000000000000001660048201525f60248201819052620f424060448301529192506001600160a01b037f0000000000000000000000000000000000000000000000000000000000000000169063c23ee3c3906064016040805180830381865afa1580156113ce573d5f5f3e3d5ffd5b505050506040513d601f19601f820116820180604052508101906113f29190611a7b565b509050803410156114165760405163044044a560e21b815260040160405180910390fd5b5f7f00000000000000000000000000000000000000000000000000000000000000006001600160a01b0316638fecdd02837f00000000000000000000000000000000000000000000000000000000000000007f0000000000000000000000000000000000000000000000000000000000000000875f620f42406040518763ffffffff1660e01b81526004016114af959493929190611b95565b60206040518083038185885af11580156114cb573d5f5f3e3d5ffd5b50505050506040513d601f19601f820116820180604052508101906114f09190611b4e565b604080518681526001600160401b03831660208201529192506001600160a01b0387169133917ffed49a6d93196ac436367d09819757f9472ab7c6e00260832ba35d5094602a719101610e54565b60025f540361156057604051633ee5aeb560e01b815260040160405180910390fd5b60025f55565b604080516001600160a01b0385811660248301528416604482015260648082018490528251808303909101815260849091019091526020810180516001600160e01b03166323b872dd60e01b1790526115c0908590611711565b50505050565b6040805160ff9590951660208601526001600160a01b03938416858201529190921660608401526080808401929092528051808403909201825260a090920190915290565b3361163d7f9016d09d72d40fdae2fd8ceac6b6234c7706214fd39c1cd1e609a0528c199300546001600160a01b031690565b6001600160a01b0316146111c45760405163118cdaa760e01b81523360048201526024016112ea565b7f9016d09d72d40fdae2fd8ceac6b6234c7706214fd39c1cd1e609a0528c19930080546001600160a01b031981166001600160a01b03848116918217845560405192169182907f8be0079c531659141344cd1fd0a4f28419497f9722a3daafe3b4186f6b6457e0905f90a3505050565b5f807ff0c57e16840df040f15088dc2f81fe391c3923bec73e23a9662efc9c229c6a005b92915050565b61170861177d565b6112fc816117a2565b5f5f60205f8451602086015f885af180611730576040513d5f823e3d81fd5b50505f513d91508115611747578060011415611754565b6001600160a01b0384163b155b156115c057604051635274afe760e01b81526001600160a01b03851660048201526024016112ea565b6117856117aa565b6111c457604051631afcd79f60e31b815260040160405180910390fd5b6112c561177d565b5f6117b36116d6565b54600160401b900460ff16919050565b6001600160a01b03811681146112fc575f5ffd5b5f5f604083850312156117e8575f5ffd5b82356117f3816117c3565b946020939093013593505050565b634e487b7160e01b5f52604160045260245ffd5b604051608081016001600160401b038111828210171561183757611837611801565b60405290565b60405161016081016001600160401b038111828210171561183757611837611801565b604051601f8201601f191681016001600160401b038111828210171561188857611888611801565b604052919050565b5f6001600160401b038211156118a8576118a8611801565b50601f01601f191660200190565b5f82601f8301126118c5575f5ffd5b81356118d86118d382611890565b611860565b8181528460208386010111156118ec575f5ffd5b816020850160208301375f918101602001919091529392505050565b5f6001600160401b0382111561192057611920611801565b5060051b60200190565b61ffff811681146112fc575f5ffd5b80356119448161192a565b919050565b5f5f5f5f5f60a0868803121561195d575f5ffd5b85356001600160401b03811115611972575f5ffd5b61197e888289016118b6565b95505060208601356001600160401b03811115611999575f5ffd5b8601601f810188136119a9575f5ffd5b80356119b76118d382611908565b8082825260208201915060208360051b85010192508a8311156119d8575f5ffd5b602084015b83811015611a185780356001600160401b038111156119fa575f5ffd5b611a098d6020838901016118b6565b845250602092830192016119dd565b50965050505060408601359250611a3160608701611939565b949793965091946080013592915050565b5f60208284031215611a52575f5ffd5b5035919050565b5f60208284031215611a69575f5ffd5b8135611a74816117c3565b9392505050565b5f5f60408385031215611a8c575f5ffd5b505080516020909101519092909150565b5f60208284031215611aad575f5ffd5b5051919050565b808201808211156116fa57634e487b7160e01b5f52601160045260245ffd5b80518015158114611944575f5ffd5b5f60208284031215611af2575f5ffd5b611a7482611ad3565b6001600160a01b03969096168652602086019490945261ffff9290921660408501526060840152608083015263ffffffff1660a082015260c00190565b80516001600160401b0381168114611944575f5ffd5b5f60208284031215611b5e575f5ffd5b611a7482611b38565b5f81518084528060208401602086015e5f602082860101526020601f19601f83011685010191505092915050565b61ffff861681526001600160a01b038516602082015260a0604082018190525f90611bc290830186611b67565b606083019490945250608001529392505050565b634e487b7160e01b5f52603260045260245ffd5b602081525f611a746020830184611b67565b805160ff81168114611944575f5ffd5b805163ffffffff81168114611944575f5ffd5b80516119448161192a565b5f82601f830112611c39575f5ffd5b8151602083015f611c4c6118d384611890565b9050828152858383011115611c5f575f5ffd5b8282602083015e5f92810160200192909252509392505050565b5f82601f830112611c88575f5ffd5b8151611c966118d382611908565b8082825260208201915060208360071b860101925085831115611cb7575f5ffd5b602085015b83811015611d1b5760808188031215611cd3575f5ffd5b611cdb611815565b8151815260208083015190820152611cf560408301611bfc565b6040820152611d0660608301611bfc565b60608201528352602090920191608001611cbc565b5095945050505050565b5f5f5f60608486031215611d37575f5ffd5b83516001600160401b03811115611d4c575f5ffd5b84016101608187031215611d5e575f5ffd5b611d6661183d565b611d6f82611bfc565b8152611d7d60208301611c0c565b6020820152611d8e60408301611c0c565b6040820152611d9f60608301611c1f565b606082015260808281015190820152611dba60a08301611b38565b60a0820152611dcb60c08301611bfc565b60c082015260e08201516001600160401b03811115611de8575f5ffd5b611df488828501611c2a565b60e083015250611e076101008301611c0c565b6101008201526101208201516001600160401b03811115611e26575f5ffd5b611e3288828501611c79565b6101208301525061014091820151918101919091529250611e5560208501611ad3565b915060408401516001600160401b03811115611e6f575f5ffd5b611e7b86828701611c2a565b9150509250925092565b5f5f5f5f60808587031215611e98575f5ffd5b611ea185611bfc565b93506020850151611eb1816117c3565b6040860151909350611ec2816117c3565b606095909501519396929550505056fea2646970667358221220adc9f46f899cf6b5b44c3312c324d9b1115dc97c25f2383f8d47cc65fbac642c64736f6c634300081b0033","linkReferences":{}},"methodIdentifiers":{"borrow(address,uint256)":"4b8a3529","deposit(address,uint256)":"47e7ef24","hubAddress()":"f69b1b29","hubChainId()":"929f5840","initialize(address)":"c4d66de8","owner()":"8da5cb5b","processedMessages(bytes32)":"88ba16ab","receiveWormholeMessages(bytes,bytes[],bytes32,uint16,bytes32)":"529dca32","relayer()":"8406c079","renounceOwnership()":"715018a6","repay(address,uint256)":"22867d78","tokenBridge()":"c6328a46","transferOwnership(address)":"f2fde38b","withdraw(address,uint256)":"f3fef3a3","wormhole()":"84acd1bb"},"id":33}