{"abi":[{"type":"function","name":"accrualBlockNumber","inputs":[],"outputs":[{"name":"","type":"uint256","internalType":"uint256"}],"stateMutability":"view"},{"type":"function","name":"admin","inputs":[],"outputs":[{"name":"","type":"address","internalType":"address payable"}],"stateMutability":"view"},{"type":"function","name":"borrowIndex","inputs":[],"outputs":[{"name":"","type":"uint256","internalType":"uint256"}],"stateMutability":"view"},{"type":"function","name":"decimals","inputs":[],"outputs":[{"name":"","type":"uint8","internalType":"uint8"}],"stateMutability":"view"},{"type":"function","name":"interestRateModel","inputs":[],"outputs":[{"name":"","type":"address","internalType":"contract InterestRateModel"}],"stateMutability":"view"},{"type":"function","name":"name","inputs":[],"outputs":[{"name":"","type":"string","internalType":"string"}],"stateMutability":"view"},{"type":"function","name":"pendingAdmin","inputs":[],"outputs":[{"name":"","type":"address","internalType":"address payable"}],"stateMutability":"view"},{"type":"function","name":"peridottroller","inputs":[],"outputs":[{"name":"","type":"address","internalType":"contract PeridottrollerInterface"}],"stateMutability":"view"},{"type":"function","name":"protocolSeizeShareMantissa","inputs":[],"outputs":[{"name":"","type":"uint256","internalType":"uint256"}],"stateMutability":"view"},{"type":"function","name":"reserveFactorMantissa","inputs":[],"outputs":[{"name":"","type":"uint256","internalType":"uint256"}],"stateMutability":"view"},{"type":"function","name":"symbol","inputs":[],"outputs":[{"name":"","type":"string","internalType":"string"}],"stateMutability":"view"},{"type":"function","name":"totalBorrows","inputs":[],"outputs":[{"name":"","type":"uint256","internalType":"uint256"}],"stateMutability":"view"},{"type":"function","name":"totalReserves","inputs":[],"outputs":[{"name":"","type":"uint256","internalType":"uint256"}],"stateMutability":"view"},{"type":"function","name":"totalSupply","inputs":[],"outputs":[{"name":"","type":"uint256","internalType":"uint256"}],"stateMutability":"view"}],"bytecode":{"object":"0x6080604052348015600e575f5ffd5b506103258061001c5f395ff3fe608060405234801561000f575f5ffd5b50600436106100e5575f3560e01c80636c540baf11610088578063aa5af0fd11610063578063aa5af0fd146101a2578063c423fe29146101ab578063f3fdb15a146101be578063f851a440146101d1575f5ffd5b80636c540baf146101885780638f840ddd1461019157806395d89b411461019a575f5ffd5b806326782247116100c35780632678224714610127578063313ce5671461015257806347bd3718146101715780636752e7021461017a575f5ffd5b806306fdde03146100e9578063173b99041461010757806318160ddd1461011e575b5f5ffd5b6100f16101e9565b6040516100fe9190610282565b60405180910390f35b61011060085481565b6040519081526020016100fe565b610110600d5481565b60045461013a906001600160a01b031681565b6040516001600160a01b0390911681526020016100fe565b60035461015f9060ff1681565b60405160ff90911681526020016100fe565b610110600b5481565b610110666379da05b6000081565b61011060095481565b610110600c5481565b6100f1610275565b610110600a5481565b60055461013a906001600160a01b031681565b60065461013a906001600160a01b031681565b60035461013a9061010090046001600160a01b031681565b600180546101f6906102b7565b80601f0160208091040260200160405190810160405280929190818152602001828054610222906102b7565b801561026d5780601f106102445761010080835404028352916020019161026d565b820191905f5260205f20905b81548152906001019060200180831161025057829003601f168201915b505050505081565b600280546101f6906102b7565b602081525f82518060208401528060208501604085015e5f604082850101526040601f19601f83011684010191505092915050565b600181811c908216806102cb57607f821691505b6020821081036102e957634e487b7160e01b5f52602260045260245ffd5b5091905056fea2646970667358221220215b20bead137c645337a7bed744f52d9328085cfc3925a131e1c903e79f4e5864736f6c634300081b0033","linkReferences":{}},"methodIdentifiers":{"accrualBlockNumber()":"6c540baf","admin()":"f851a440","borrowIndex()":"aa5af0fd","decimals()":"313ce567","interestRateModel()":"f3fdb15a","name()":"06fdde03","pendingAdmin()":"26782247","peridottroller()":"c423fe29","protocolSeizeShareMantissa()":"6752e702","reserveFactorMantissa()":"173b9904","symbol()":"95d89b41","totalBorrows()":"47bd3718","totalReserves()":"8f840ddd","totalSupply()":"18160ddd"},"id":20}