{"abi":[{"type":"constructor","inputs":[{"name":"_validTimePeriod","type":"uint256","internalType":"uint256"},{"name":"_singleUpdateFeeInWei","type":"uint256","internalType":"uint256"}],"stateMutability":"nonpayable"},{"type":"function","name":"createPriceFeedUpdateData","inputs":[{"name":"id","type":"bytes32","internalType":"bytes32"},{"name":"price","type":"int64","internalType":"int64"},{"name":"conf","type":"uint64","internalType":"uint64"},{"name":"expo","type":"int32","internalType":"int32"},{"name":"emaPrice","type":"int64","internalType":"int64"},{"name":"emaConf","type":"uint64","internalType":"uint64"},{"name":"publishTime","type":"uint64","internalType":"uint64"},{"name":"prevPublishTime","type":"uint64","internalType":"uint64"}],"outputs":[{"name":"priceFeedData","type":"bytes","internalType":"bytes"}],"stateMutability":"pure"},{"type":"function","name":"getEmaPrice","inputs":[{"name":"id","type":"bytes32","internalType":"bytes32"}],"outputs":[{"name":"price","type":"tuple","internalType":"struct PythStructs.Price","components":[{"name":"price","type":"int64","internalType":"int64"},{"name":"conf","type":"uint64","internalType":"uint64"},{"name":"expo","type":"int32","internalType":"int32"},{"name":"publishTime","type":"uint256","internalType":"uint256"}]}],"stateMutability":"view"},{"type":"function","name":"getEmaPriceNoOlderThan","inputs":[{"name":"id","type":"bytes32","internalType":"bytes32"},{"name":"age","type":"uint256","internalType":"uint256"}],"outputs":[{"name":"price","type":"tuple","internalType":"struct PythStructs.Price","components":[{"name":"price","type":"int64","internalType":"int64"},{"name":"conf","type":"uint64","internalType":"uint64"},{"name":"expo","type":"int32","internalType":"int32"},{"name":"publishTime","type":"uint256","internalType":"uint256"}]}],"stateMutability":"view"},{"type":"function","name":"getEmaPriceUnsafe","inputs":[{"name":"id","type":"bytes32","internalType":"bytes32"}],"outputs":[{"name":"price","type":"tuple","internalType":"struct PythStructs.Price","components":[{"name":"price","type":"int64","internalType":"int64"},{"name":"conf","type":"uint64","internalType":"uint64"},{"name":"expo","type":"int32","internalType":"int32"},{"name":"publishTime","type":"uint256","internalType":"uint256"}]}],"stateMutability":"view"},{"type":"function","name":"getPrice","inputs":[{"name":"id","type":"bytes32","internalType":"bytes32"}],"outputs":[{"name":"price","type":"tuple","internalType":"struct PythStructs.Price","components":[{"name":"price","type":"int64","internalType":"int64"},{"name":"conf","type":"uint64","internalType":"uint64"},{"name":"expo","type":"int32","internalType":"int32"},{"name":"publishTime","type":"uint256","internalType":"uint256"}]}],"stateMutability":"view"},{"type":"function","name":"getPriceNoOlderThan","inputs":[{"name":"id","type":"bytes32","internalType":"bytes32"},{"name":"age","type":"uint256","internalType":"uint256"}],"outputs":[{"name":"price","type":"tuple","internalType":"struct PythStructs.Price","components":[{"name":"price","type":"int64","internalType":"int64"},{"name":"conf","type":"uint64","internalType":"uint64"},{"name":"expo","type":"int32","internalType":"int32"},{"name":"publishTime","type":"uint256","internalType":"uint256"}]}],"stateMutability":"view"},{"type":"function","name":"getPriceUnsafe","inputs":[{"name":"id","type":"bytes32","internalType":"bytes32"}],"outputs":[{"name":"price","type":"tuple","internalType":"struct PythStructs.Price","components":[{"name":"price","type":"int64","internalType":"int64"},{"name":"conf","type":"uint64","internalType":"uint64"},{"name":"expo","type":"int32","internalType":"int32"},{"name":"publishTime","type":"uint256","internalType":"uint256"}]}],"stateMutability":"view"},{"type":"function","name":"getUpdateFee","inputs":[{"name":"updateData","type":"bytes[]","internalType":"bytes[]"}],"outputs":[{"name":"feeAmount","type":"uint256","internalType":"uint256"}],"stateMutability":"view"},{"type":"function","name":"getValidTimePeriod","inputs":[],"outputs":[{"name":"","type":"uint256","internalType":"uint256"}],"stateMutability":"view"},{"type":"function","name":"parsePriceFeedUpdates","inputs":[{"name":"updateData","type":"bytes[]","internalType":"bytes[]"},{"name":"priceIds","type":"bytes32[]","internalType":"bytes32[]"},{"name":"minPublishTime","type":"uint64","internalType":"uint64"},{"name":"maxPublishTime","type":"uint64","internalType":"uint64"}],"outputs":[{"name":"feeds","type":"tuple[]","internalType":"struct PythStructs.PriceFeed[]","components":[{"name":"id","type":"bytes32","internalType":"bytes32"},{"name":"price","type":"tuple","internalType":"struct PythStructs.Price","components":[{"name":"price","type":"int64","internalType":"int64"},{"name":"conf","type":"uint64","internalType":"uint64"},{"name":"expo","type":"int32","internalType":"int32"},{"name":"publishTime","type":"uint256","internalType":"uint256"}]},{"name":"emaPrice","type":"tuple","internalType":"struct PythStructs.Price","components":[{"name":"price","type":"int64","internalType":"int64"},{"name":"conf","type":"uint64","internalType":"uint64"},{"name":"expo","type":"int32","internalType":"int32"},{"name":"publishTime","type":"uint256","internalType":"uint256"}]}]}],"stateMutability":"payable"},{"type":"function","name":"parsePriceFeedUpdatesUnique","inputs":[{"name":"updateData","type":"bytes[]","internalType":"bytes[]"},{"name":"priceIds","type":"bytes32[]","internalType":"bytes32[]"},{"name":"minPublishTime","type":"uint64","internalType":"uint64"},{"name":"maxPublishTime","type":"uint64","internalType":"uint64"}],"outputs":[{"name":"feeds","type":"tuple[]","internalType":"struct PythStructs.PriceFeed[]","components":[{"name":"id","type":"bytes32","internalType":"bytes32"},{"name":"price","type":"tuple","internalType":"struct PythStructs.Price","components":[{"name":"price","type":"int64","internalType":"int64"},{"name":"conf","type":"uint64","internalType":"uint64"},{"name":"expo","type":"int32","internalType":"int32"},{"name":"publishTime","type":"uint256","internalType":"uint256"}]},{"name":"emaPrice","type":"tuple","internalType":"struct PythStructs.Price","components":[{"name":"price","type":"int64","internalType":"int64"},{"name":"conf","type":"uint64","internalType":"uint64"},{"name":"expo","type":"int32","internalType":"int32"},{"name":"publishTime","type":"uint256","internalType":"uint256"}]}]}],"stateMutability":"payable"},{"type":"function","name":"priceFeedExists","inputs":[{"name":"id","type":"bytes32","internalType":"bytes32"}],"outputs":[{"name":"","type":"bool","internalType":"bool"}],"stateMutability":"view"},{"type":"function","name":"queryPriceFeed","inputs":[{"name":"id","type":"bytes32","internalType":"bytes32"}],"outputs":[{"name":"priceFeed","type":"tuple","internalType":"struct PythStructs.PriceFeed","components":[{"name":"id","type":"bytes32","internalType":"bytes32"},{"name":"price","type":"tuple","internalType":"struct PythStructs.Price","components":[{"name":"price","type":"int64","internalType":"int64"},{"name":"conf","type":"uint64","internalType":"uint64"},{"name":"expo","type":"int32","internalType":"int32"},{"name":"publishTime","type":"uint256","internalType":"uint256"}]},{"name":"emaPrice","type":"tuple","internalType":"struct PythStructs.Price","components":[{"name":"price","type":"int64","internalType":"int64"},{"name":"conf","type":"uint64","internalType":"uint64"},{"name":"expo","type":"int32","internalType":"int32"},{"name":"publishTime","type":"uint256","internalType":"uint256"}]}]}],"stateMutability":"view"},{"type":"function","name":"updatePriceFeeds","inputs":[{"name":"updateData","type":"bytes[]","internalType":"bytes[]"}],"outputs":[],"stateMutability":"payable"},{"type":"function","name":"updatePriceFeedsIfNecessary","inputs":[{"name":"updateData","type":"bytes[]","internalType":"bytes[]"},{"name":"priceIds","type":"bytes32[]","internalType":"bytes32[]"},{"name":"publishTimes","type":"uint64[]","internalType":"uint64[]"}],"outputs":[],"stateMutability":"payable"},{"type":"event","name":"PriceFeedUpdate","inputs":[{"name":"id","type":"bytes32","indexed":true,"internalType":"bytes32"},{"name":"publishTime","type":"uint64","indexed":false,"internalType":"uint64"},{"name":"price","type":"int64","indexed":false,"internalType":"int64"},{"name":"conf","type":"uint64","indexed":false,"internalType":"uint64"}],"anonymous":false},{"type":"error","name":"InsufficientFee","inputs":[]},{"type":"error","name":"InvalidArgument","inputs":[]},{"type":"error","name":"NoFreshUpdate","inputs":[]},{"type":"error","name":"PriceFeedNotFound","inputs":[]},{"type":"error","name":"PriceFeedNotFoundWithinRange","inputs":[]},{"type":"error","name":"StalePrice","inputs":[]}],"bytecode":{"object":"0x6080604052348015600e575f5ffd5b50604051611487380380611487833981016040819052602b916035565b6001556002556056565b5f5f604083850312156045575f5ffd5b505080516020909101519092909150565b611424806100635f395ff3fe6080604052600436106100e4575f3560e01c8063b5dcc91111610087578063d47eed4511610057578063d47eed4514610269578063d9b81c3c14610296578063e18910a3146102c2578063ef9e5e28146102d6575f5ffd5b8063b5dcc911146101cc578063b5ec0261146101eb578063b9256d2814610228578063caaf43f11461023d575f5ffd5b80639474f45b116100c25780639474f45b1461015c57806396834ad31461017b578063a4ae35e01461019a578063accca7f9146101b9575f5ffd5b806331d98b3f146100e85780634716e9c51461011d578063711a2e281461013d575b5f5ffd5b3480156100f3575f5ffd5b50610107610102366004610e12565b6102e9565b6040516101149190610e5e565b60405180910390f35b61013061012b366004610ece565b61031f565b6040516101149190610f89565b348015610148575f5ffd5b50610107610157366004610fd7565b61033b565b348015610167575f5ffd5b50610107610176366004610e12565b610397565b348015610186575f5ffd5b50610107610195366004610e12565b6103ce565b3480156101a5575f5ffd5b506101076101b4366004610fd7565b610405565b6101306101c7366004610ece565b610431565b3480156101d7575f5ffd5b506101076101e6366004610e12565b610443565b3480156101f6575f5ffd5b50610218610205366004610e12565b5f90815260208190526040902054151590565b6040519015158152602001610114565b61023b610236366004610ff7565b610473565b005b348015610248575f5ffd5b5061025c610257366004610e12565b61056d565b6040516101149190611093565b348015610274575f5ffd5b506102886102833660046110a2565b610644565b604051908152602001610114565b3480156102a1575f5ffd5b506102b56102b0366004611102565b61065b565b604051610114919061118d565b3480156102cd575f5ffd5b50600254610288565b61023b6102e43660046110a2565b6106fd565b604080516080810182525f808252602082018190529181018290526060810191909152610319826101b460025490565b92915050565b60606103308787878787875f610962565b979650505050505050565b604080516080810182525f80825260208201819052918101829052606081019190915261036783610397565b905081610378428360600151610d8b565b111561031957604051630cd5fa0760e11b815260040160405180910390fd5b604080516080810182525f8082526020820181905291810182905260608101829052906103c38361056d565b604001519392505050565b604080516080810182525f8082526020820181905291810182905260608101829052906103fa8361056d565b602001519392505050565b604080516080810182525f808252602082018190529181018290526060810191909152610367836103ce565b60606103308787878787876001610962565b604080516080810182525f8082526020820181905291810182905260608101919091526103198261015760025490565b8281146104935760405163a9cb9e0d60e01b815260040160405180910390fd5b5f5b8381101561054b576104cc8585838181106104b2576104b26111c2565b905060200201355f90815260208190526040902054151590565b158061052e57508282828181106104e5576104e56111c2565b90506020020160208101906104fa91906111d6565b6001600160401b0316610524868684818110610518576105186111c2565b9050602002013561056d565b6020015160600151105b156105435761053d87876106fd565b50610565565b600101610495565b50604051636f162bfd60e11b815260040160405180910390fd5b505050505050565b610575610daf565b5f8281526020819052604081205490036105a257604051630295d7cd60e31b815260040160405180910390fd5b505f9081526020818152604091829020825160608082018552825482528451608080820187526001850154600781810b84526001600160401b03600160401b8084048216868b0152600160801b93849004600390810b878d015260028a015487890152888b01969096528a519485018b52858901549283900b855282041697830197909752909504900b84860152600490920154918301919091529182015290565b6001545f90610654908390611203565b9392505050565b6060610665610daf565b8981526020808201805160078c810b90915281516001600160401b03808d1691850191909152825160038c900b6040918201819052935189831660609182018190528288018051958e900b9095528451938c16938701939093528351820194909452915190920191909152516106df91839186910161121a565b60405160208183030381529060405291505098975050505050505050565b5f6107088383610644565b90508034101561072a5760405162976f7560e21b815260040160405180910390fd5b5f5b8281101561095c575f848483818110610747576107476111c2565b90506020028101906107599190611240565b810190610766919061138c565b80515f908152602081815260409091206002015490820151606001519192509081101561095257815f5f845f015181526020019081526020015f205f820151815f01556020820151816001015f820151815f015f6101000a8154816001600160401b03021916908360070b6001600160401b031602179055506020820151815f0160086101000a8154816001600160401b0302191690836001600160401b031602179055506040820151815f0160106101000a81548163ffffffff021916908360030b63ffffffff1602179055506060820151816001015550506040820151816003015f820151815f015f6101000a8154816001600160401b03021916908360070b6001600160401b031602179055506020820151815f0160086101000a8154816001600160401b0302191690836001600160401b031602179055506040820151815f0160106101000a81548163ffffffff021916908360030b63ffffffff160217905550606082015181600101555050905050815f01517fd06a6b7f4918494b3719217d1802786c1f5112a6c1d88fe2cfec00b4584f6aec83602001516060015184602001515f0151856020015160200151604051610949939291906001600160401b03938416815260079290920b6020830152909116604082015260600190565b60405180910390a25b505060010161072c565b50505050565b60605f61096f8989610644565b9050803410156109915760405162976f7560e21b815260040160405180910390fd5b856001600160401b038111156109a9576109a9611282565b6040519080825280602002602001820160405280156109e257816020015b6109cf610daf565b8152602001906001900390816109c75790505b5091505f5b86811015610d7e575f5b89811015610d21575f8b8b83818110610a0c57610a0c6111c2565b9050602002810190610a1e9190611240565b810190610a2b91906113a7565b868581518110610a3d57610a3d6111c2565b6020026020010181935082905250505f858481518110610a5f57610a5f6111c2565b602002602001015160200151606001519050805f5f888781518110610a8657610a866111c2565b60200260200101515f015181526020019081526020015f20600101600101541015610c6757858481518110610abd57610abd6111c2565b60200260200101515f5f888781518110610ad957610ad96111c2565b6020908102919091018101515182528181019290925260409081015f208351815583830151805160018301805483870151848701516001600160401b039485166fffffffffffffffffffffffffffffffff1993841617600160401b92861683021763ffffffff60801b19908116600160801b63ffffffff93841681029190911790955560609687015160028901559988015180516003890180549b8301519a8301519188169b9095169a909a179890951690910296909617909716959094169093029390931790935501516004909101558551869085908110610bbe57610bbe6111c2565b60200260200101515f01517fd06a6b7f4918494b3719217d1802786c1f5112a6c1d88fe2cfec00b4584f6aec82888781518110610bfd57610bfd6111c2565b6020026020010151602001515f0151898881518110610c1e57610c1e6111c2565b60200260200101516020015160200151604051610c5e939291906001600160401b03938416815260079290920b6020830152909116604082015260600190565b60405180910390a25b8a8a85818110610c7957610c796111c2565b90506020020135868581518110610c9257610c926111c2565b60200260200101515f015103610d175780896001600160401b031611158015610cc45750876001600160401b03168111155b8015610ce95750861580610ce95750886001600160401b0316826001600160401b0316105b15610cf5575050610d21565b5f5f1b868581518110610d0a57610d0a6111c2565b6020908102919091010151525b50506001016109f1565b50878782818110610d3457610d346111c2565b90506020020135838281518110610d4d57610d4d6111c2565b60200260200101515f015114610d76576040516345805f5d60e01b815260040160405180910390fd5b6001016109e7565b5050979650505050505050565b5f81831115610da557610d9e82846113db565b9050610319565b610d9e83836113db565b60405180606001604052805f8152602001610de9604080516080810182525f80825260208201819052918101829052606081019190915290565b8152604080516080810182525f8082526020828101829052928201819052606082015291015290565b5f60208284031215610e22575f5ffd5b5035919050565b805160070b82526001600160401b036020820151166020830152604081015160030b6040830152606081015160608301525050565b608081016103198284610e29565b5f5f83601f840112610e7c575f5ffd5b5081356001600160401b03811115610e92575f5ffd5b6020830191508360208260051b8501011115610eac575f5ffd5b9250929050565b80356001600160401b0381168114610ec9575f5ffd5b919050565b5f5f5f5f5f5f60808789031215610ee3575f5ffd5b86356001600160401b03811115610ef8575f5ffd5b610f0489828a01610e6c565b90975095505060208701356001600160401b03811115610f22575f5ffd5b610f2e89828a01610e6c565b9095509350610f41905060408801610eb3565b9150610f4f60608801610eb3565b90509295509295509295565b805182526020810151610f716020840182610e29565b506040810151610f8460a0840182610e29565b505050565b602080825282518282018190525f918401906040840190835b81811015610fcc57610fb5838551610f5b565b602093909301926101209290920191600101610fa2565b509095945050505050565b5f5f60408385031215610fe8575f5ffd5b50508035926020909101359150565b5f5f5f5f5f5f6060878903121561100c575f5ffd5b86356001600160401b03811115611021575f5ffd5b61102d89828a01610e6c565b90975095505060208701356001600160401b0381111561104b575f5ffd5b61105789828a01610e6c565b90955093505060408701356001600160401b03811115611075575f5ffd5b61108189828a01610e6c565b979a9699509497509295939492505050565b61012081016103198284610f5b565b5f5f602083850312156110b3575f5ffd5b82356001600160401b038111156110c8575f5ffd5b6110d485828601610e6c565b90969095509350505050565b8035600781900b8114610ec9575f5ffd5b8035600381900b8114610ec9575f5ffd5b5f5f5f5f5f5f5f5f610100898b03121561111a575f5ffd5b8835975061112a60208a016110e0565b965061113860408a01610eb3565b955061114660608a016110f1565b945061115460808a016110e0565b935061116260a08a01610eb3565b925061117060c08a01610eb3565b915061117e60e08a01610eb3565b90509295985092959890939650565b602081525f82518060208401528060208501604085015e5f604082850101526040601f19601f83011684010191505092915050565b634e487b7160e01b5f52603260045260245ffd5b5f602082840312156111e6575f5ffd5b61065482610eb3565b634e487b7160e01b5f52601160045260245ffd5b8082028115828204841417610319576103196111ef565b61014081016112298285610f5b565b6001600160401b0383166101208301529392505050565b5f5f8335601e19843603018112611255575f5ffd5b8301803591506001600160401b0382111561126e575f5ffd5b602001915036819003821315610eac575f5ffd5b634e487b7160e01b5f52604160045260245ffd5b5f608082840312156112a6575f5ffd5b604051608081016001600160401b03811182821017156112d457634e487b7160e01b5f52604160045260245ffd5b6040529050806112e3836110e0565b81526112f160208401610eb3565b6020820152611302604084016110f1565b6040820152606092830135920191909152919050565b5f6101208284031215611329575f5ffd5b604051606081016001600160401b038111828210171561135757634e487b7160e01b5f52604160045260245ffd5b6040528235815290508061136e8460208501611296565b60208201526113808460a08501611296565b60408201525092915050565b5f610120828403121561139d575f5ffd5b6106548383611318565b5f5f61014083850312156113b9575f5ffd5b6113c38484611318565b91506113d26101208401610eb3565b90509250929050565b81810381811115610319576103196111ef56fea26469706673582212200ebd38501e673af573f31380d6bc204a8926b6e4d85015d6f409c6a6ecbff2aa64736f6c634300081b0033","linkReferences":{}},"methodIdentifiers":{"createPriceFeedUpdateData(bytes32,int64,uint64,int32,int64,uint64,uint64,uint64)":"d9b81c3c","getEmaPrice(bytes32)":"b5dcc911","getEmaPriceNoOlderThan(bytes32,uint256)":"711a2e28","getEmaPriceUnsafe(bytes32)":"9474f45b","getPrice(bytes32)":"31d98b3f","getPriceNoOlderThan(bytes32,uint256)":"a4ae35e0","getPriceUnsafe(bytes32)":"96834ad3","getUpdateFee(bytes[])":"d47eed45","getValidTimePeriod()":"e18910a3","parsePriceFeedUpdates(bytes[],bytes32[],uint64,uint64)":"4716e9c5","parsePriceFeedUpdatesUnique(bytes[],bytes32[],uint64,uint64)":"accca7f9","priceFeedExists(bytes32)":"b5ec0261","queryPriceFeed(bytes32)":"caaf43f1","updatePriceFeeds(bytes[])":"ef9e5e28","updatePriceFeedsIfNecessary(bytes[],bytes32[],uint64[])":"b9256d28"},"id":115}