{"abi":[{"type":"constructor","inputs":[{"name":"timelock_","type":"address","internalType":"address"},{"name":"peridot_","type":"address","internalType":"address"},{"name":"guardian_","type":"address","internalType":"address"}],"stateMutability":"nonpayable"},{"type":"function","name":"BALLOT_TYPEHASH","inputs":[],"outputs":[{"name":"","type":"bytes32","internalType":"bytes32"}],"stateMutability":"view"},{"type":"function","name":"DOMAIN_TYPEHASH","inputs":[],"outputs":[{"name":"","type":"bytes32","internalType":"bytes32"}],"stateMutability":"view"},{"type":"function","name":"__abdicate","inputs":[],"outputs":[],"stateMutability":"nonpayable"},{"type":"function","name":"__acceptAdmin","inputs":[],"outputs":[],"stateMutability":"nonpayable"},{"type":"function","name":"__executeSetTimelockPendingAdmin","inputs":[{"name":"newPendingAdmin","type":"address","internalType":"address"},{"name":"eta","type":"uint256","internalType":"uint256"}],"outputs":[],"stateMutability":"nonpayable"},{"type":"function","name":"__queueSetTimelockPendingAdmin","inputs":[{"name":"newPendingAdmin","type":"address","internalType":"address"},{"name":"eta","type":"uint256","internalType":"uint256"}],"outputs":[],"stateMutability":"nonpayable"},{"type":"function","name":"cancel","inputs":[{"name":"proposalId","type":"uint256","internalType":"uint256"}],"outputs":[],"stateMutability":"nonpayable"},{"type":"function","name":"castVote","inputs":[{"name":"proposalId","type":"uint256","internalType":"uint256"},{"name":"support","type":"bool","internalType":"bool"}],"outputs":[],"stateMutability":"nonpayable"},{"type":"function","name":"castVoteBySig","inputs":[{"name":"proposalId","type":"uint256","internalType":"uint256"},{"name":"support","type":"bool","internalType":"bool"},{"name":"v","type":"uint8","internalType":"uint8"},{"name":"r","type":"bytes32","internalType":"bytes32"},{"name":"s","type":"bytes32","internalType":"bytes32"}],"outputs":[],"stateMutability":"nonpayable"},{"type":"function","name":"execute","inputs":[{"name":"proposalId","type":"uint256","internalType":"uint256"}],"outputs":[],"stateMutability":"payable"},{"type":"function","name":"getActions","inputs":[{"name":"proposalId","type":"uint256","internalType":"uint256"}],"outputs":[{"name":"targets","type":"address[]","internalType":"address[]"},{"name":"values","type":"uint256[]","internalType":"uint256[]"},{"name":"signatures","type":"string[]","internalType":"string[]"},{"name":"calldatas","type":"bytes[]","internalType":"bytes[]"}],"stateMutability":"view"},{"type":"function","name":"getReceipt","inputs":[{"name":"proposalId","type":"uint256","internalType":"uint256"},{"name":"voter","type":"address","internalType":"address"}],"outputs":[{"name":"","type":"tuple","internalType":"struct GovernorAlpha.Receipt","components":[{"name":"hasVoted","type":"bool","internalType":"bool"},{"name":"support","type":"bool","internalType":"bool"},{"name":"votes","type":"uint96","internalType":"uint96"}]}],"stateMutability":"view"},{"type":"function","name":"guardian","inputs":[],"outputs":[{"name":"","type":"address","internalType":"address"}],"stateMutability":"view"},{"type":"function","name":"latestProposalIds","inputs":[{"name":"","type":"address","internalType":"address"}],"outputs":[{"name":"","type":"uint256","internalType":"uint256"}],"stateMutability":"view"},{"type":"function","name":"name","inputs":[],"outputs":[{"name":"","type":"string","internalType":"string"}],"stateMutability":"view"},{"type":"function","name":"peridot","inputs":[],"outputs":[{"name":"","type":"address","internalType":"contract PeridotInterface"}],"stateMutability":"view"},{"type":"function","name":"proposalCount","inputs":[],"outputs":[{"name":"","type":"uint256","internalType":"uint256"}],"stateMutability":"view"},{"type":"function","name":"proposalMaxOperations","inputs":[],"outputs":[{"name":"","type":"uint256","internalType":"uint256"}],"stateMutability":"pure"},{"type":"function","name":"proposalThreshold","inputs":[],"outputs":[{"name":"","type":"uint256","internalType":"uint256"}],"stateMutability":"pure"},{"type":"function","name":"proposals","inputs":[{"name":"","type":"uint256","internalType":"uint256"}],"outputs":[{"name":"id","type":"uint256","internalType":"uint256"},{"name":"proposer","type":"address","internalType":"address"},{"name":"eta","type":"uint256","internalType":"uint256"},{"name":"startBlock","type":"uint256","internalType":"uint256"},{"name":"endBlock","type":"uint256","internalType":"uint256"},{"name":"forVotes","type":"uint256","internalType":"uint256"},{"name":"againstVotes","type":"uint256","internalType":"uint256"},{"name":"canceled","type":"bool","internalType":"bool"},{"name":"executed","type":"bool","internalType":"bool"}],"stateMutability":"view"},{"type":"function","name":"propose","inputs":[{"name":"targets","type":"address[]","internalType":"address[]"},{"name":"values","type":"uint256[]","internalType":"uint256[]"},{"name":"signatures","type":"string[]","internalType":"string[]"},{"name":"calldatas","type":"bytes[]","internalType":"bytes[]"},{"name":"description","type":"string","internalType":"string"}],"outputs":[{"name":"","type":"uint256","internalType":"uint256"}],"stateMutability":"nonpayable"},{"type":"function","name":"queue","inputs":[{"name":"proposalId","type":"uint256","internalType":"uint256"}],"outputs":[],"stateMutability":"nonpayable"},{"type":"function","name":"quorumVotes","inputs":[],"outputs":[{"name":"","type":"uint256","internalType":"uint256"}],"stateMutability":"pure"},{"type":"function","name":"state","inputs":[{"name":"proposalId","type":"uint256","internalType":"uint256"}],"outputs":[{"name":"","type":"uint8","internalType":"enum GovernorAlpha.ProposalState"}],"stateMutability":"view"},{"type":"function","name":"timelock","inputs":[],"outputs":[{"name":"","type":"address","internalType":"contract TimelockInterface"}],"stateMutability":"view"},{"type":"function","name":"votingDelay","inputs":[],"outputs":[{"name":"","type":"uint256","internalType":"uint256"}],"stateMutability":"pure"},{"type":"function","name":"votingPeriod","inputs":[],"outputs":[{"name":"","type":"uint256","internalType":"uint256"}],"stateMutability":"pure"},{"type":"event","name":"ProposalCanceled","inputs":[{"name":"id","type":"uint256","indexed":false,"internalType":"uint256"}],"anonymous":false},{"type":"event","name":"ProposalCreated","inputs":[{"name":"id","type":"uint256","indexed":false,"internalType":"uint256"},{"name":"proposer","type":"address","indexed":false,"internalType":"address"},{"name":"targets","type":"address[]","indexed":false,"internalType":"address[]"},{"name":"values","type":"uint256[]","indexed":false,"internalType":"uint256[]"},{"name":"signatures","type":"string[]","indexed":false,"internalType":"string[]"},{"name":"calldatas","type":"bytes[]","indexed":false,"internalType":"bytes[]"},{"name":"startBlock","type":"uint256","indexed":false,"internalType":"uint256"},{"name":"endBlock","type":"uint256","indexed":false,"internalType":"uint256"},{"name":"description","type":"string","indexed":false,"internalType":"string"}],"anonymous":false},{"type":"event","name":"ProposalExecuted","inputs":[{"name":"id","type":"uint256","indexed":false,"internalType":"uint256"}],"anonymous":false},{"type":"event","name":"ProposalQueued","inputs":[{"name":"id","type":"uint256","indexed":false,"internalType":"uint256"},{"name":"eta","type":"uint256","indexed":false,"internalType":"uint256"}],"anonymous":false},{"type":"event","name":"VoteCast","inputs":[{"name":"voter","type":"address","indexed":false,"internalType":"address"},{"name":"proposalId","type":"uint256","indexed":false,"internalType":"uint256"},{"name":"support","type":"bool","indexed":false,"internalType":"bool"},{"name":"votes","type":"uint256","indexed":false,"internalType":"uint256"}],"anonymous":false}],"bytecode":{"object":"0x6080604052348015600e575f5ffd5b506040516130f73803806130f7833981016040819052602b916085565b5f80546001600160a01b039485166001600160a01b03199182161790915560018054938516938216939093179092556002805491909316911617905560be565b80516001600160a01b03811681146080575f5ffd5b919050565b5f5f5f606084860312156096575f5ffd5b609d84606b565b925060a960208501606b565b915060b560408501606b565b90509250925092565b61302c806100cb5f395ff3fe608060405260043610610195575f3560e01c80634634c61f116100e7578063d33219b411610087578063ddf0b00911610062578063ddf0b00914610550578063deaaa7cc1461056f578063e23a9a52146105a2578063fe0d94c1146105f0575f5ffd5b8063d33219b4146104fe578063da35c6641461051c578063da95691a14610531575f5ffd5b806391500671116100c25780639150067114610490578063b58131b0146104af578063b5fa14a2146104cb578063b9a61961146104ea575f5ffd5b80634634c61f1461044a578063760fbc13146104695780637bdbe4d01461047d575f5ffd5b806321f43e42116101525780633932abb11161012d5780633932abb1146103b55780633e4f49e6146103c857806340e58ee5146103f4578063452a932014610413575f5ffd5b806321f43e421461034b57806324bc1a641461036a578063328dd98214610386575f5ffd5b8063013cf08b1461019957806302a251a31461026057806306fdde031461027e57806315373e3d146102cc57806317977c61146102ed57806320606b7014610318575b5f5ffd5b3480156101a4575f5ffd5b5061020b6101b3366004612524565b60046020525f90815260409020805460018201546002830154600784015460088501546009860154600a870154600b9097015495966001600160a01b0390951695939492939192909160ff8082169161010090041689565b60408051998a526001600160a01b0390981660208a0152968801959095526060870193909352608086019190915260a085015260c0840152151560e08301521515610100820152610120015b60405180910390f35b34801561026b575f5ffd5b506143805b604051908152602001610257565b348015610289575f5ffd5b506102bf6040518060400160405280601681526020017550657269646f7420476f7665726e6f7220416c70686160501b81525081565b6040516102579190612569565b3480156102d7575f5ffd5b506102eb6102e6366004612588565b610603565b005b3480156102f8575f5ffd5b506102706103073660046125d1565b60056020525f908152604090205481565b348015610323575f5ffd5b506102707f8cad95687ba82c2ce50e74f7b754645e5117c3a5bec8151c0726d5857980a86681565b348015610356575f5ffd5b506102eb6103653660046125ea565b610612565b348015610375575f5ffd5b506954b40b1f852bda000000610270565b348015610391575f5ffd5b506103a56103a0366004612524565b610746565b60405161025794939291906126df565b3480156103c0575f5ffd5b506001610270565b3480156103d3575f5ffd5b506103e76103e2366004612524565b6109c6565b604051610257919061274a565b3480156103ff575f5ffd5b506102eb61040e366004612524565b610b76565b34801561041e575f5ffd5b50600254610432906001600160a01b031681565b6040516001600160a01b039091168152602001610257565b348015610455575f5ffd5b506102eb610464366004612770565b610e80565b348015610474575f5ffd5b506102eb611093565b348015610488575f5ffd5b50600a610270565b34801561049b575f5ffd5b506102eb6104aa3660046125ea565b61111e565b3480156104ba575f5ffd5b5069152d02c7e14af6800000610270565b3480156104d6575f5ffd5b50600154610432906001600160a01b031681565b3480156104f5575f5ffd5b506102eb611244565b348015610509575f5ffd5b505f54610432906001600160a01b031681565b348015610527575f5ffd5b5061027060035481565b34801561053c575f5ffd5b5061027061054b366004612a83565b61131b565b34801561055b575f5ffd5b506102eb61056a366004612524565b611920565b34801561057a575f5ffd5b506102707f8e25870c07e0b0b3884c78da52790939a455c275406c44ae8b434b692fb916ee81565b3480156105ad575f5ffd5b506105c16105bc366004612b66565b611c06565b60408051825115158152602080840151151590820152918101516001600160601b031690820152606001610257565b6102eb6105fe366004612524565b611c7f565b61060e338383611eaa565b5050565b6002546001600160a01b031633146106ac5760405162461bcd60e51b815260206004820152604c60248201527f476f7665726e6f72416c7068613a3a5f5f6578656375746553657454696d656c60448201527f6f636b50656e64696e6741646d696e3a2073656e646572206d7573742062652060648201526b33b7bb1033bab0b93234b0b760a11b608482015260a4015b60405180910390fd5b5f8054604080516001600160a01b03868116602083015290921692630825f38f92849201604051602081830303815290604052856040518563ffffffff1660e01b81526004016106ff9493929190612b90565b5f604051808303815f875af115801561071a573d5f5f3e3d5ffd5b505050506040513d5f823e601f3d908101601f191682016040526107419190810190612bfb565b505050565b6060806060805f60045f8781526020019081526020015f20905080600301816004018260050183600601838054806020026020016040519081016040528092919081815260200182805480156107c357602002820191905f5260205f20905b81546001600160a01b031681526001909101906020018083116107a5575b505050505093508280548060200260200160405190810160405280929190818152602001828054801561081357602002820191905f5260205f20905b8154815260200190600101908083116107ff575b5050505050925081805480602002602001604051908101604052809291908181526020015f905b828210156108e2578382905f5260205f2001805461085790612c70565b80601f016020809104026020016040519081016040528092919081815260200182805461088390612c70565b80156108ce5780601f106108a5576101008083540402835291602001916108ce565b820191905f5260205f20905b8154815290600101906020018083116108b157829003601f168201915b50505050508152602001906001019061083a565b50505050915080805480602002602001604051908101604052809291908181526020015f905b828210156109b0578382905f5260205f2001805461092590612c70565b80601f016020809104026020016040519081016040528092919081815260200182805461095190612c70565b801561099c5780601f106109735761010080835404028352916020019161099c565b820191905f5260205f20905b81548152906001019060200180831161097f57829003601f168201915b505050505081526020019060010190610908565b5050505090509450945094509450509193509193565b5f81600354101580156109d857505f82115b610a365760405162461bcd60e51b815260206004820152602960248201527f476f7665726e6f72416c7068613a3a73746174653a20696e76616c69642070726044820152681bdc1bdcd85b081a5960ba1b60648201526084016106a3565b5f828152600460205260409020600b81015460ff1615610a595750600292915050565b80600701544311610a6c57505f92915050565b80600801544311610a805750600192915050565b80600a01548160090154111580610aa457506954b40b1f852bda0000008160090154105b15610ab25750600392915050565b80600201545f03610ac65750600492915050565b600b810154610100900460ff1615610ae15750600792915050565b60028101545f54604080516360d143f160e11b81529051610b5893926001600160a01b03169163c1a287e29160048083019260209291908290030181865afa158015610b2f573d5f5f3e3d5ffd5b505050506040513d601f19601f82011682018060405250810190610b539190612ca2565b612116565b4210610b675750600692915050565b50600592915050565b50919050565b5f610b80826109c6565b90506007816007811115610b9657610b96612736565b03610c025760405162461bcd60e51b815260206004820152603660248201527f476f7665726e6f72416c7068613a3a63616e63656c3a2063616e6e6f742063616044820152751b98d95b08195e1958dd5d1959081c1c9bdc1bdcd85b60521b60648201526084016106a3565b5f8281526004602052604090206002546001600160a01b0316331480610ccc5750600180548282015469152d02c7e14af6800000926001600160a01b039283169263782d6fe1921690610c5690439061216f565b6040516001600160e01b031960e085901b1681526001600160a01b0390921660048301526024820152604401602060405180830381865afa158015610c9d573d5f5f3e3d5ffd5b505050506040513d601f19601f82011682018060405250810190610cc19190612cb9565b6001600160601b0316105b610d305760405162461bcd60e51b815260206004820152602f60248201527f476f7665726e6f72416c7068613a3a63616e63656c3a2070726f706f7365722060448201526e18589bdd99481d1a1c995cda1bdb19608a1b60648201526084016106a3565b600b8101805460ff191660011790555f5b6003820154811015610e46575f546003830180546001600160a01b039092169163591fcdfe919084908110610d7857610d78612cdf565b5f918252602090912001546004850180546001600160a01b039092169185908110610da557610da5612cdf565b905f5260205f200154856005018581548110610dc357610dc3612cdf565b905f5260205f2001866006018681548110610de057610de0612cdf565b905f5260205f200187600201546040518663ffffffff1660e01b8152600401610e0d959493929190612d72565b5f604051808303815f87803b158015610e24575f5ffd5b505af1158015610e36573d5f5f3e3d5ffd5b505060019092019150610d419050565b506040518381527f789cf55be980739dad1d0699b93b58e806b51c9d96619bfa8fe0a28abaa7b30c906020015b60405180910390a1505050565b604080518082018252601681527550657269646f7420476f7665726e6f7220416c70686160501b60209182015281517f8cad95687ba82c2ce50e74f7b754645e5117c3a5bec8151c0726d5857980a866818301527f9b36a7642ac144a50f4d12f8b38c3fc9c5719242d8131b9a29200be5175a66aa81840152466060820152306080808301919091528351808303909101815260a0820184528051908301207f8e25870c07e0b0b3884c78da52790939a455c275406c44ae8b434b692fb916ee60c083015260e08201899052871515610100808401919091528451808403909101815261012083019094528351939092019290922061190160f01b6101408401526101428301829052610162830181905290915f906101820160408051601f1981840301815282825280516020918201205f80855291840180845281905260ff8a169284019290925260608301889052608083018790529092509060019060a0016020604051602081039080840390855afa158015611001573d5f5f3e3d5ffd5b5050604051601f1901519150506001600160a01b03811661107c5760405162461bcd60e51b815260206004820152602f60248201527f476f7665726e6f72416c7068613a3a63617374566f746542795369673a20696e60448201526e76616c6964207369676e617475726560881b60648201526084016106a3565b611087818a8a611eaa565b505050505b5050505050565b6002546001600160a01b0316331461110c5760405162461bcd60e51b815260206004820152603660248201527f476f7665726e6f72416c7068613a3a5f5f61626469636174653a2073656e6465604482015275391036bab9ba1031329033b7bb1033bab0b93234b0b760511b60648201526084016106a3565b600280546001600160a01b0319169055565b6002546001600160a01b031633146111b15760405162461bcd60e51b815260206004820152604a60248201527f476f7665726e6f72416c7068613a3a5f5f717565756553657454696d656c6f6360448201527f6b50656e64696e6741646d696e3a2073656e646572206d75737420626520676f6064820152693b1033bab0b93234b0b760b11b608482015260a4016106a3565b5f8054604080516001600160a01b03868116602083015290921692633a66f90192849201604051602081830303815290604052856040518563ffffffff1660e01b81526004016112049493929190612b90565b6020604051808303815f875af1158015611220573d5f5f3e3d5ffd5b505050506040513d601f19601f820116820180604052508101906107419190612ca2565b6002546001600160a01b031633146112c45760405162461bcd60e51b815260206004820152603960248201527f476f7665726e6f72416c7068613a3a5f5f61636365707441646d696e3a20736560448201527f6e646572206d75737420626520676f7620677561726469616e0000000000000060648201526084016106a3565b5f805460408051630e18b68160e01b815290516001600160a01b0390921692630e18b6819260048084019382900301818387803b158015611303575f5ffd5b505af1158015611315573d5f5f3e3d5ffd5b50505050565b5f69152d02c7e14af6800000600180546001600160a01b03169063782d6fe190339061134890439061216f565b6040516001600160e01b031960e085901b1681526001600160a01b0390921660048301526024820152604401602060405180830381865afa15801561138f573d5f5f3e3d5ffd5b505050506040513d601f19601f820116820180604052508101906113b39190612cb9565b6001600160601b03161161142f5760405162461bcd60e51b815260206004820152603f60248201527f476f7665726e6f72416c7068613a3a70726f706f73653a2070726f706f73657260448201527f20766f7465732062656c6f772070726f706f73616c207468726573686f6c640060648201526084016106a3565b84518651148015611441575083518651145b801561144e575082518651145b6114ce5760405162461bcd60e51b8152602060048201526044602482018190527f476f7665726e6f72416c7068613a3a70726f706f73653a2070726f706f73616c908201527f2066756e6374696f6e20696e666f726d6174696f6e206172697479206d69736d6064820152630c2e8c6d60e31b608482015260a4016106a3565b85515f036115335760405162461bcd60e51b815260206004820152602c60248201527f476f7665726e6f72416c7068613a3a70726f706f73653a206d7573742070726f60448201526b7669646520616374696f6e7360a01b60648201526084016106a3565b600a865111156115965760405162461bcd60e51b815260206004820152602860248201527f476f7665726e6f72416c7068613a3a70726f706f73653a20746f6f206d616e7960448201526720616374696f6e7360c01b60648201526084016106a3565b335f908152600560205260409020548015611712575f6115b5826109c6565b905060018160078111156115cb576115cb612736565b036116645760405162461bcd60e51b815260206004820152605860248201527f476f7665726e6f72416c7068613a3a70726f706f73653a206f6e65206c69766560448201527f2070726f706f73616c207065722070726f706f7365722c20666f756e6420616e60648201527f20616c7265616479206163746976652070726f706f73616c0000000000000000608482015260a4016106a3565b5f81600781111561167757611677612736565b036117105760405162461bcd60e51b815260206004820152605960248201527f476f7665726e6f72416c7068613a3a70726f706f73653a206f6e65206c69766560448201527f2070726f706f73616c207065722070726f706f7365722c20666f756e6420616e60648201527f20616c72656164792070656e64696e672070726f706f73616c00000000000000608482015260a4016106a3565b505b5f61171e436001612116565b90505f61172d82614380612116565b600380549192505f61173e83612dd1565b90915550506003545f8181526004602052604090208054156117b65760405162461bcd60e51b815260206004820152602b60248201527f476f7665726e6f72416c7068613a3a70726f706f73653a2050726f706f73616c60448201526a24a21031b7b63639b4b7b760a91b60648201526084016106a3565b8181556001810180546001600160a01b031916331790555f60028201558a516117e890600383019060208e0190612362565b5089516117fe90600483019060208d01906123c5565b50885161181490600583019060208c01906123fe565b50875161182a90600683019060208b019061244e565b508381600701819055508281600801819055505f81600901819055505f81600a01819055505f81600b015f6101000a81548160ff0219169083151502179055505f81600b0160016101000a81548160ff021916908315150217905550805f015460055f836001015f9054906101000a90046001600160a01b03166001600160a01b03166001600160a01b031681526020019081526020015f20819055507f7d84a6263ae0d98d3329bd7b46bb4e8d6f98cd35a7adb45c274c8b7fd5ebd5e0815f0154338d8d8d8d8a8a8f60405161190999989796959493929190612de9565b60405180910390a1549a9950505050505050505050565b600461192b826109c6565b600781111561193c5761193c612736565b146119bd5760405162461bcd60e51b8152602060048201526044602482018190527f476f7665726e6f72416c7068613a3a71756575653a2070726f706f73616c2063908201527f616e206f6e6c79206265207175657565642069662069742069732073756363656064820152631959195960e21b608482015260a4016106a3565b5f81815260046020818152604080842084548251630d48571f60e31b81529251919594611a149442946001600160a01b0390931693636a42b8f89380840193908290030181865afa158015610b2f573d5f5f3e3d5ffd5b90505f5b6003830154811015611bc857611bc0836003018281548110611a3c57611a3c612cdf565b5f918252602090912001546004850180546001600160a01b039092169184908110611a6957611a69612cdf565b905f5260205f200154856005018481548110611a8757611a87612cdf565b905f5260205f20018054611a9a90612c70565b80601f0160208091040260200160405190810160405280929190818152602001828054611ac690612c70565b8015611b115780601f10611ae857610100808354040283529160200191611b11565b820191905f5260205f20905b815481529060010190602001808311611af457829003601f168201915b5050505050866006018581548110611b2b57611b2b612cdf565b905f5260205f20018054611b3e90612c70565b80601f0160208091040260200160405190810160405280929190818152602001828054611b6a90612c70565b8015611bb55780601f10611b8c57610100808354040283529160200191611bb5565b820191905f5260205f20905b815481529060010190602001808311611b9857829003601f168201915b5050505050866121c2565b600101611a18565b506002820181905560408051848152602081018390527f9a2e42fd6722813d69113e7d0079d3d940171428df7373df9c7f7617cfda28929101610e73565b60408051606080820183525f8083526020808401829052928401819052858152600483528381206001600160a01b0386168252600c018352839020835191820184525460ff80821615158352610100820416151592820192909252620100009091046001600160601b0316918101919091525b92915050565b6005611c8a826109c6565b6007811115611c9b57611c9b612736565b14611d1c5760405162461bcd60e51b815260206004820152604560248201527f476f7665726e6f72416c7068613a3a657865637574653a2070726f706f73616c60448201527f2063616e206f6e6c7920626520657865637574656420696620697420697320716064820152641d595d595960da1b608482015260a4016106a3565b5f818152600460205260408120600b8101805461ff001916610100179055905b6003820154811015611e72575f546004830180546001600160a01b0390921691630825f38f919084908110611d7357611d73612cdf565b905f5260205f200154846003018481548110611d9157611d91612cdf565b5f918252602090912001546004860180546001600160a01b039092169186908110611dbe57611dbe612cdf565b905f5260205f200154866005018681548110611ddc57611ddc612cdf565b905f5260205f2001876006018781548110611df957611df9612cdf565b905f5260205f200188600201546040518763ffffffff1660e01b8152600401611e26959493929190612d72565b5f6040518083038185885af1158015611e41573d5f5f3e3d5ffd5b50505050506040513d5f823e601f3d908101601f19168201604052611e699190810190612bfb565b50600101611d3c565b506040518281527f712ae1383f79ac853f8d882153778e0260ef8f03b504e2866e0593e04d2b291f9060200160405180910390a15050565b6001611eb5836109c6565b6007811115611ec657611ec6612736565b14611f265760405162461bcd60e51b815260206004820152602a60248201527f476f7665726e6f72416c7068613a3a5f63617374566f74653a20766f74696e67604482015269081a5cc818db1bdcd95960b21b60648201526084016106a3565b5f8281526004602090815260408083206001600160a01b0387168452600c8101909252909120805460ff1615611fb45760405162461bcd60e51b815260206004820152602d60248201527f476f7665726e6f72416c7068613a3a5f63617374566f74653a20766f7465722060448201526c185b1c9958591e481d9bdd1959609a1b60648201526084016106a3565b600154600783015460405163782d6fe160e01b81525f926001600160a01b03169163782d6fe191611ffd918a916004016001600160a01b03929092168252602082015260400190565b602060405180830381865afa158015612018573d5f5f3e3d5ffd5b505050506040513d601f19601f8201168201806040525081019061203c9190612cb9565b905083156120655761205b8360090154826001600160601b0316612116565b6009840155612082565b61207c83600a0154826001600160601b0316612116565b600a8401555b81546001600160601b0382166201000081026dffffffffffffffffffffffff000019871515610100810261ffff199095169490941760011716178455604080516001600160a01b038a168152602081018990529081019290925260608201527f877856338e13f63d0c36822ff0ef736b80934cd90574a3a5bc9262c39d217c469060800160405180910390a1505050505050565b5f806121228385612e7e565b9050838110156121685760405162461bcd60e51b81526020600482015260116024820152706164646974696f6e206f766572666c6f7760781b60448201526064016106a3565b9392505050565b5f828211156121b85760405162461bcd60e51b81526020600482015260156024820152747375627472616374696f6e20756e646572666c6f7760581b60448201526064016106a3565b6121688284612e91565b5f546040516001600160a01b039091169063f2b06537906121ef9088908890889088908890602001612ea4565b604051602081830303815290604052805190602001206040518263ffffffff1660e01b815260040161222391815260200190565b602060405180830381865afa15801561223e573d5f5f3e3d5ffd5b505050506040513d601f19601f820116820180604052508101906122629190612edc565b156122e35760405162461bcd60e51b8152602060048201526044602482018190527f476f7665726e6f72416c7068613a3a5f71756575654f725265766572743a2070908201527f726f706f73616c20616374696f6e20616c7265616479207175657565642061746064820152632065746160e01b608482015260a4016106a3565b5f54604051633a66f90160e01b81526001600160a01b0390911690633a66f9019061231a9088908890889088908890600401612ea4565b6020604051808303815f875af1158015612336573d5f5f3e3d5ffd5b505050506040513d601f19601f8201168201806040525081019061235a9190612ca2565b505050505050565b828054828255905f5260205f209081019282156123b5579160200282015b828111156123b557825182546001600160a01b0319166001600160a01b03909116178255602090920191600190910190612380565b506123c192915061249e565b5090565b828054828255905f5260205f209081019282156123b5579160200282015b828111156123b55782518255916020019190600101906123e3565b828054828255905f5260205f20908101928215612442579160200282015b8281111561244257825182906124329082612f3b565b509160200191906001019061241c565b506123c19291506124b2565b828054828255905f5260205f20908101928215612492579160200282015b8281111561249257825182906124829082612f3b565b509160200191906001019061246c565b506123c19291506124ce565b5b808211156123c1575f815560010161249f565b808211156123c1575f6124c582826124ea565b506001016124b2565b808211156123c1575f6124e182826124ea565b506001016124ce565b5080546124f690612c70565b5f825580601f10612505575050565b601f0160209004905f5260205f2090810190612521919061249e565b50565b5f60208284031215612534575f5ffd5b5035919050565b5f81518084528060208401602086015e5f602082860101526020601f19601f83011685010191505092915050565b602081525f612168602083018461253b565b8015158114612521575f5ffd5b5f5f60408385031215612599575f5ffd5b8235915060208301356125ab8161257b565b809150509250929050565b80356001600160a01b03811681146125cc575f5ffd5b919050565b5f602082840312156125e1575f5ffd5b612168826125b6565b5f5f604083850312156125fb575f5ffd5b612604836125b6565b946020939093013593505050565b5f8151808452602084019350602083015f5b8281101561264b5781516001600160a01b0316865260209586019590910190600101612624565b5093949350505050565b5f8151808452602084019350602083015f5b8281101561264b578151865260209586019590910190600101612667565b5f82825180855260208501945060208160051b830101602085015f5b838110156126d357601f198584030188526126bd83835161253b565b60209889019890935091909101906001016126a1565b50909695505050505050565b608081525f6126f16080830187612612565b82810360208401526127038187612655565b905082810360408401526127178186612685565b9050828103606084015261272b8185612685565b979650505050505050565b634e487b7160e01b5f52602160045260245ffd5b602081016008831061276a57634e487b7160e01b5f52602160045260245ffd5b91905290565b5f5f5f5f5f60a08688031215612784575f5ffd5b8535945060208601356127968161257b565b9350604086013560ff811681146127ab575f5ffd5b94979396509394606081013594506080013592915050565b634e487b7160e01b5f52604160045260245ffd5b604051601f8201601f1916810167ffffffffffffffff81118282101715612800576128006127c3565b604052919050565b5f67ffffffffffffffff821115612821576128216127c3565b5060051b60200190565b5f82601f83011261283a575f5ffd5b813561284d61284882612808565b6127d7565b8082825260208201915060208360051b86010192508583111561286e575f5ffd5b602085015b8381101561289257612884816125b6565b835260209283019201612873565b5095945050505050565b5f82601f8301126128ab575f5ffd5b81356128b961284882612808565b8082825260208201915060208360051b8601019250858311156128da575f5ffd5b602085015b838110156128925780358352602092830192016128df565b5f67ffffffffffffffff821115612910576129106127c3565b50601f01601f191660200190565b5f61292b612848846128f7565b905082815283838301111561293e575f5ffd5b828260208301375f602084830101529392505050565b5f82601f830112612963575f5ffd5b6121688383356020850161291e565b5f82601f830112612981575f5ffd5b813561298f61284882612808565b8082825260208201915060208360051b8601019250858311156129b0575f5ffd5b602085015b8381101561289257803567ffffffffffffffff8111156129d3575f5ffd5b6129e2886020838a0101612954565b845250602092830192016129b5565b5f82601f830112612a00575f5ffd5b8135612a0e61284882612808565b8082825260208201915060208360051b860101925085831115612a2f575f5ffd5b602085015b8381101561289257803567ffffffffffffffff811115612a52575f5ffd5b8601603f81018813612a62575f5ffd5b612a748860208301356040840161291e565b84525060209283019201612a34565b5f5f5f5f5f60a08688031215612a97575f5ffd5b853567ffffffffffffffff811115612aad575f5ffd5b612ab98882890161282b565b955050602086013567ffffffffffffffff811115612ad5575f5ffd5b612ae18882890161289c565b945050604086013567ffffffffffffffff811115612afd575f5ffd5b612b0988828901612972565b935050606086013567ffffffffffffffff811115612b25575f5ffd5b612b31888289016129f1565b925050608086013567ffffffffffffffff811115612b4d575f5ffd5b612b5988828901612954565b9150509295509295909350565b5f5f60408385031215612b77575f5ffd5b82359150612b87602084016125b6565b90509250929050565b60018060a01b038516815283602082015260a06040820152601860a08201527f73657450656e64696e6741646d696e286164647265737329000000000000000060c082015260e060608201525f612bea60e083018561253b565b905082608083015295945050505050565b5f60208284031215612c0b575f5ffd5b815167ffffffffffffffff811115612c21575f5ffd5b8201601f81018413612c31575f5ffd5b8051612c3f612848826128f7565b818152856020838501011115612c53575f5ffd5b8160208401602083015e5f91810160200191909152949350505050565b600181811c90821680612c8457607f821691505b602082108103610b7057634e487b7160e01b5f52602260045260245ffd5b5f60208284031215612cb2575f5ffd5b5051919050565b5f60208284031215612cc9575f5ffd5b81516001600160601b0381168114612168575f5ffd5b634e487b7160e01b5f52603260045260245ffd5b5f8154612cff81612c70565b808552600182168015612d195760018114612d3557612d69565b60ff1983166020870152602082151560051b8701019350612d69565b845f5260205f205f5b83811015612d605781546020828a010152600182019150602081019050612d3e565b87016020019450505b50505092915050565b60018060a01b038616815284602082015260a060408201525f612d9860a0830186612cf3565b8281036060840152612daa8186612cf3565b9150508260808301529695505050505050565b634e487b7160e01b5f52601160045260245ffd5b5f60018201612de257612de2612dbd565b5060010190565b8981526001600160a01b0389166020820152610120604082018190525f90612e139083018a612612565b8281036060840152612e25818a612655565b90508281036080840152612e398189612685565b905082810360a0840152612e4d8188612685565b90508560c08401528460e0840152828103610100840152612e6e818561253b565b9c9b505050505050505050505050565b80820180821115611c7957611c79612dbd565b81810381811115611c7957611c79612dbd565b60018060a01b038616815284602082015260a060408201525f612eca60a083018661253b565b8281036060840152612daa818661253b565b5f60208284031215612eec575f5ffd5b81516121688161257b565b601f82111561074157805f5260205f20601f840160051c81016020851015612f1c5750805b601f840160051c820191505b8181101561108c575f8155600101612f28565b815167ffffffffffffffff811115612f5557612f556127c3565b612f6981612f638454612c70565b84612ef7565b6020601f821160018114612f9b575f8315612f845750848201515b5f19600385901b1c1916600184901b17845561108c565b5f84815260208120601f198516915b82811015612fca5787850151825560209485019460019092019101612faa565b5084821015612fe757868401515f19600387901b60f8161c191681555b50505050600190811b0190555056fea2646970667358221220595adea96ee462ff70a1702e1f4e443836754589c41b2478ad2897f309c8031a64736f6c634300081b0033","linkReferences":{}},"methodIdentifiers":{"BALLOT_TYPEHASH()":"deaaa7cc","DOMAIN_TYPEHASH()":"20606b70","__abdicate()":"760fbc13","__acceptAdmin()":"b9a61961","__executeSetTimelockPendingAdmin(address,uint256)":"21f43e42","__queueSetTimelockPendingAdmin(address,uint256)":"91500671","cancel(uint256)":"40e58ee5","castVote(uint256,bool)":"15373e3d","castVoteBySig(uint256,bool,uint8,bytes32,bytes32)":"4634c61f","execute(uint256)":"fe0d94c1","getActions(uint256)":"328dd982","getReceipt(uint256,address)":"e23a9a52","guardian()":"452a9320","latestProposalIds(address)":"17977c61","name()":"06fdde03","peridot()":"b5fa14a2","proposalCount()":"da35c664","proposalMaxOperations()":"7bdbe4d0","proposalThreshold()":"b58131b0","proposals(uint256)":"013cf08b","propose(address[],uint256[],string[],bytes[],string)":"da95691a","queue(uint256)":"ddf0b009","quorumVotes()":"24bc1a64","state(uint256)":"3e4f49e6","timelock()":"d33219b4","votingDelay()":"3932abb1","votingPeriod()":"02a251a3"},"id":5}