{"abi":[{"type":"function","name":"getAccountLimits","inputs":[{"name":"peridottroller","type":"address","internalType":"contract PeridottrollerLensInterface"},{"name":"account","type":"address","internalType":"address"}],"outputs":[{"name":"","type":"tuple","internalType":"struct PeridotLens.AccountLimits","components":[{"name":"markets","type":"address[]","internalType":"contract PToken[]"},{"name":"liquidity","type":"uint256","internalType":"uint256"},{"name":"shortfall","type":"uint256","internalType":"uint256"}]}],"stateMutability":"nonpayable"},{"type":"function","name":"getGovBravoProposals","inputs":[{"name":"governor","type":"address","internalType":"contract GovernorBravoInterface"},{"name":"proposalIds","type":"uint256[]","internalType":"uint256[]"}],"outputs":[{"name":"","type":"tuple[]","internalType":"struct PeridotLens.GovBravoProposal[]","components":[{"name":"proposalId","type":"uint256","internalType":"uint256"},{"name":"proposer","type":"address","internalType":"address"},{"name":"eta","type":"uint256","internalType":"uint256"},{"name":"targets","type":"address[]","internalType":"address[]"},{"name":"values","type":"uint256[]","internalType":"uint256[]"},{"name":"signatures","type":"string[]","internalType":"string[]"},{"name":"calldatas","type":"bytes[]","internalType":"bytes[]"},{"name":"startBlock","type":"uint256","internalType":"uint256"},{"name":"endBlock","type":"uint256","internalType":"uint256"},{"name":"forVotes","type":"uint256","internalType":"uint256"},{"name":"againstVotes","type":"uint256","internalType":"uint256"},{"name":"abstainVotes","type":"uint256","internalType":"uint256"},{"name":"canceled","type":"bool","internalType":"bool"},{"name":"executed","type":"bool","internalType":"bool"}]}],"stateMutability":"view"},{"type":"function","name":"getGovBravoReceipts","inputs":[{"name":"governor","type":"address","internalType":"contract GovernorBravoInterface"},{"name":"voter","type":"address","internalType":"address"},{"name":"proposalIds","type":"uint256[]","internalType":"uint256[]"}],"outputs":[{"name":"","type":"tuple[]","internalType":"struct PeridotLens.GovBravoReceipt[]","components":[{"name":"proposalId","type":"uint256","internalType":"uint256"},{"name":"hasVoted","type":"bool","internalType":"bool"},{"name":"support","type":"uint8","internalType":"uint8"},{"name":"votes","type":"uint96","internalType":"uint96"}]}],"stateMutability":"view"},{"type":"function","name":"getGovProposals","inputs":[{"name":"governor","type":"address","internalType":"contract GovernorAlpha"},{"name":"proposalIds","type":"uint256[]","internalType":"uint256[]"}],"outputs":[{"name":"","type":"tuple[]","internalType":"struct PeridotLens.GovProposal[]","components":[{"name":"proposalId","type":"uint256","internalType":"uint256"},{"name":"proposer","type":"address","internalType":"address"},{"name":"eta","type":"uint256","internalType":"uint256"},{"name":"targets","type":"address[]","internalType":"address[]"},{"name":"values","type":"uint256[]","internalType":"uint256[]"},{"name":"signatures","type":"string[]","internalType":"string[]"},{"name":"calldatas","type":"bytes[]","internalType":"bytes[]"},{"name":"startBlock","type":"uint256","internalType":"uint256"},{"name":"endBlock","type":"uint256","internalType":"uint256"},{"name":"forVotes","type":"uint256","internalType":"uint256"},{"name":"againstVotes","type":"uint256","internalType":"uint256"},{"name":"canceled","type":"bool","internalType":"bool"},{"name":"executed","type":"bool","internalType":"bool"}]}],"stateMutability":"view"},{"type":"function","name":"getGovReceipts","inputs":[{"name":"governor","type":"address","internalType":"contract GovernorAlpha"},{"name":"voter","type":"address","internalType":"address"},{"name":"proposalIds","type":"uint256[]","internalType":"uint256[]"}],"outputs":[{"name":"","type":"tuple[]","internalType":"struct PeridotLens.GovReceipt[]","components":[{"name":"proposalId","type":"uint256","internalType":"uint256"},{"name":"hasVoted","type":"bool","internalType":"bool"},{"name":"support","type":"bool","internalType":"bool"},{"name":"votes","type":"uint96","internalType":"uint96"}]}],"stateMutability":"view"},{"type":"function","name":"getPeridotBalanceMetadata","inputs":[{"name":"peridot","type":"address","internalType":"contract Peridot"},{"name":"account","type":"address","internalType":"address"}],"outputs":[{"name":"","type":"tuple","internalType":"struct PeridotLens.PeridotBalanceMetadata","components":[{"name":"balance","type":"uint256","internalType":"uint256"},{"name":"votes","type":"uint256","internalType":"uint256"},{"name":"delegate","type":"address","internalType":"address"}]}],"stateMutability":"view"},{"type":"function","name":"getPeridotBalanceMetadataExt","inputs":[{"name":"peridot","type":"address","internalType":"contract Peridot"},{"name":"peridottroller","type":"address","internalType":"contract PeridottrollerLensInterface"},{"name":"account","type":"address","internalType":"address"}],"outputs":[{"name":"","type":"tuple","internalType":"struct PeridotLens.PeridotBalanceMetadataExt","components":[{"name":"balance","type":"uint256","internalType":"uint256"},{"name":"votes","type":"uint256","internalType":"uint256"},{"name":"delegate","type":"address","internalType":"address"},{"name":"allocated","type":"uint256","internalType":"uint256"}]}],"stateMutability":"nonpayable"},{"type":"function","name":"getPeridotVotes","inputs":[{"name":"peridot","type":"address","internalType":"contract Peridot"},{"name":"account","type":"address","internalType":"address"},{"name":"blockNumbers","type":"uint32[]","internalType":"uint32[]"}],"outputs":[{"name":"","type":"tuple[]","internalType":"struct PeridotLens.PeridotVotes[]","components":[{"name":"blockNumber","type":"uint256","internalType":"uint256"},{"name":"votes","type":"uint256","internalType":"uint256"}]}],"stateMutability":"view"},{"type":"function","name":"pTokenBalances","inputs":[{"name":"pToken","type":"address","internalType":"contract PToken"},{"name":"account","type":"address","internalType":"address payable"}],"outputs":[{"name":"","type":"tuple","internalType":"struct PeridotLens.PTokenBalances","components":[{"name":"pToken","type":"address","internalType":"address"},{"name":"balanceOf","type":"uint256","internalType":"uint256"},{"name":"borrowBalanceCurrent","type":"uint256","internalType":"uint256"},{"name":"balanceOfUnderlying","type":"uint256","internalType":"uint256"},{"name":"tokenBalance","type":"uint256","internalType":"uint256"},{"name":"tokenAllowance","type":"uint256","internalType":"uint256"}]}],"stateMutability":"nonpayable"},{"type":"function","name":"pTokenBalancesAll","inputs":[{"name":"pTokens","type":"address[]","internalType":"contract PToken[]"},{"name":"account","type":"address","internalType":"address payable"}],"outputs":[{"name":"","type":"tuple[]","internalType":"struct PeridotLens.PTokenBalances[]","components":[{"name":"pToken","type":"address","internalType":"address"},{"name":"balanceOf","type":"uint256","internalType":"uint256"},{"name":"borrowBalanceCurrent","type":"uint256","internalType":"uint256"},{"name":"balanceOfUnderlying","type":"uint256","internalType":"uint256"},{"name":"tokenBalance","type":"uint256","internalType":"uint256"},{"name":"tokenAllowance","type":"uint256","internalType":"uint256"}]}],"stateMutability":"nonpayable"},{"type":"function","name":"pTokenMetadata","inputs":[{"name":"pToken","type":"address","internalType":"contract PToken"}],"outputs":[{"name":"","type":"tuple","internalType":"struct PeridotLens.PTokenMetadata","components":[{"name":"pToken","type":"address","internalType":"address"},{"name":"exchangeRateCurrent","type":"uint256","internalType":"uint256"},{"name":"supplyRatePerBlock","type":"uint256","internalType":"uint256"},{"name":"borrowRatePerBlock","type":"uint256","internalType":"uint256"},{"name":"reserveFactorMantissa","type":"uint256","internalType":"uint256"},{"name":"totalBorrows","type":"uint256","internalType":"uint256"},{"name":"totalReserves","type":"uint256","internalType":"uint256"},{"name":"totalSupply","type":"uint256","internalType":"uint256"},{"name":"totalCash","type":"uint256","internalType":"uint256"},{"name":"isListed","type":"bool","internalType":"bool"},{"name":"collateralFactorMantissa","type":"uint256","internalType":"uint256"},{"name":"underlyingAssetAddress","type":"address","internalType":"address"},{"name":"pTokenDecimals","type":"uint256","internalType":"uint256"},{"name":"underlyingDecimals","type":"uint256","internalType":"uint256"},{"name":"peridotSupplySpeed","type":"uint256","internalType":"uint256"},{"name":"peridotBorrowSpeed","type":"uint256","internalType":"uint256"},{"name":"borrowCap","type":"uint256","internalType":"uint256"}]}],"stateMutability":"nonpayable"},{"type":"function","name":"pTokenMetadataAll","inputs":[{"name":"pTokens","type":"address[]","internalType":"contract PToken[]"}],"outputs":[{"name":"","type":"tuple[]","internalType":"struct PeridotLens.PTokenMetadata[]","components":[{"name":"pToken","type":"address","internalType":"address"},{"name":"exchangeRateCurrent","type":"uint256","internalType":"uint256"},{"name":"supplyRatePerBlock","type":"uint256","internalType":"uint256"},{"name":"borrowRatePerBlock","type":"uint256","internalType":"uint256"},{"name":"reserveFactorMantissa","type":"uint256","internalType":"uint256"},{"name":"totalBorrows","type":"uint256","internalType":"uint256"},{"name":"totalReserves","type":"uint256","internalType":"uint256"},{"name":"totalSupply","type":"uint256","internalType":"uint256"},{"name":"totalCash","type":"uint256","internalType":"uint256"},{"name":"isListed","type":"bool","internalType":"bool"},{"name":"collateralFactorMantissa","type":"uint256","internalType":"uint256"},{"name":"underlyingAssetAddress","type":"address","internalType":"address"},{"name":"pTokenDecimals","type":"uint256","internalType":"uint256"},{"name":"underlyingDecimals","type":"uint256","internalType":"uint256"},{"name":"peridotSupplySpeed","type":"uint256","internalType":"uint256"},{"name":"peridotBorrowSpeed","type":"uint256","internalType":"uint256"},{"name":"borrowCap","type":"uint256","internalType":"uint256"}]}],"stateMutability":"nonpayable"},{"type":"function","name":"pTokenUnderlyingPrice","inputs":[{"name":"pToken","type":"address","internalType":"contract PToken"}],"outputs":[{"name":"","type":"tuple","internalType":"struct PeridotLens.PTokenUnderlyingPrice","components":[{"name":"pToken","type":"address","internalType":"address"},{"name":"underlyingPrice","type":"uint256","internalType":"uint256"}]}],"stateMutability":"nonpayable"},{"type":"function","name":"pTokenUnderlyingPriceAll","inputs":[{"name":"pTokens","type":"address[]","internalType":"contract PToken[]"}],"outputs":[{"name":"","type":"tuple[]","internalType":"struct PeridotLens.PTokenUnderlyingPrice[]","components":[{"name":"pToken","type":"address","internalType":"address"},{"name":"underlyingPrice","type":"uint256","internalType":"uint256"}]}],"stateMutability":"nonpayable"}],"bytecode":{"object":"0x6080604052348015600e575f5ffd5b506138748061001c5f395ff3fe608060405234801561000f575f5ffd5b50600436106100e5575f3560e01c80639699486911610088578063d882139611610063578063d882139614610261578063def0ab0c14610281578063e1c25304146102a1578063f321f3ba146102c1575f5ffd5b80639699486914610201578063995ed99f14610221578063bb8fb2d214610241575f5ffd5b80635ed5ab08116100c35780635ed5ab08146101525780636c7109fc146101a157806375d80e90146101c15780637dd8f6d9146101e1575f5ffd5b80630632c18a146100e957806343c811cc1461011257806357e9ccaf14610132575b5f5ffd5b6100fc6100f7366004612645565b6102ff565b60405161010991906126bc565b60405180910390f35b6101256101203660046127db565b61067c565b6040516101099190612838565b6101456101403660046128ae565b610815565b60405161010991906129ae565b6101656101603660046129bd565b610f34565b604051610109919081518152602080830151908201526040808301516001600160a01b0316908201526060918201519181019190915260800190565b6101b46101af366004612a45565b611280565b6040516101099190612a83565b6101d46101cf366004612ac6565b61133a565b6040516101099190612c11565b6101f46101ef366004612645565b61156f565b6040516101099190612d67565b61021461020f366004612ac6565b61169e565b6040516101099190612dd8565b61023461022f3660046127db565b6118c7565b6040516101099190612f16565b61025461024f366004612f80565b611a55565b6040516101099190612fc7565b61027461026f366004612a45565b611b0c565b6040516101099190613009565b61029461028f3660046128ae565b611bc8565b604051610109919061305e565b6102b46102af36600461307e565b611d29565b60405161010991906130de565b6102d46102cf366004612645565b611eab565b604080518251815260208084015190820152918101516001600160a01b031690820152606001610109565b61030761256e565b6040516370a0823160e01b81526001600160a01b0383811660048301525f91908516906370a0823190602401602060405180830381865afa15801561034e573d5f5f3e3d5ffd5b505050506040513d601f19601f820116820180604052508101906103729190613121565b6040516305eff7ef60e21b81526001600160a01b0385811660048301529192505f918616906317bfdfbc906024016020604051808303815f875af11580156103bc573d5f5f3e3d5ffd5b505050506040513d601f19601f820116820180604052508101906103e09190613121565b604051633af9e66960e01b81526001600160a01b0386811660048301529192505f91871690633af9e669906024016020604051808303815f875af115801561042a573d5f5f3e3d5ffd5b505050506040513d601f19601f8201168201806040525081019061044e9190613121565b90505f5f6104d9886001600160a01b03166395d89b416040518163ffffffff1660e01b81526004015f60405180830381865afa158015610490573d5f5f3e3d5ffd5b505050506040513d5f823e601f3d908101601f191682016040526104b791908101906131ae565b604051806040016040528060048152602001630c68aa8960e31b815250612043565b156104f35750506001600160a01b0385168031903161063d565b5f8890505f816001600160a01b0316636f307dc36040518163ffffffff1660e01b8152600401602060405180830381865afa158015610534573d5f5f3e3d5ffd5b505050506040513d601f19601f8201168201806040525081019061055891906131f7565b6040516370a0823160e01b81526001600160a01b038b81166004830152919250908216906370a0823190602401602060405180830381865afa1580156105a0573d5f5f3e3d5ffd5b505050506040513d601f19601f820116820180604052508101906105c49190613121565b604051636eb1769f60e11b81526001600160a01b038b811660048301528c811660248301529195509082169063dd62ed3e90604401602060405180830381865afa158015610614573d5f5f3e3d5ffd5b505050506040513d601f19601f820116820180604052508101906106389190613121565b925050505b6040805160c0810182526001600160a01b038a16815260208101969096528501939093526060840191909152608083015260a082015290505b92915050565b80516060905f816001600160401b0381111561069a5761069a6126ca565b6040519080825280602002602001820160405280156106ea57816020015b604080516080810182525f8082526020808301829052928201819052606082015282525f199092019101816106b85790505b5090505f5b8281101561080b575f876001600160a01b031663e23a9a5287848151811061071957610719613212565b6020026020010151896040518363ffffffff1660e01b81526004016107519291909182526001600160a01b0316602082015260400190565b606060405180830381865afa15801561076c573d5f5f3e3d5ffd5b505050506040513d601f19601f82011682018060405250810190610790919061325b565b905060405180608001604052808784815181106107af576107af613212565b60200260200101518152602001825f015115158152602001826020015160ff16815260200182604001516001600160601b03168152508383815181106107f7576107f7613212565b6020908102919091010152506001016106ef565b5095945050505050565b61081d6125a7565b5f826001600160a01b031663bd6d894d6040518163ffffffff1660e01b81526004016020604051808303815f875af115801561085b573d5f5f3e3d5ffd5b505050506040513d601f19601f8201168201806040525081019061087f9190613121565b90505f836001600160a01b031663c423fe296040518163ffffffff1660e01b8152600401602060405180830381865afa1580156108be573d5f5f3e3d5ffd5b505050506040513d601f19601f820116820180604052508101906108e291906131f7565b604051638e8f294b60e01b81526001600160a01b0386811660048301529192505f91829190841690638e8f294b906024016040805180830381865afa15801561092d573d5f5f3e3d5ffd5b505050506040513d601f19601f8201168201806040525081019061095191906132a9565b915091505f5f610995886001600160a01b03166395d89b416040518163ffffffff1660e01b81526004015f60405180830381865afa158015610490573d5f5f3e3d5ffd5b156109a557505f90506012610ad1565b5f889050806001600160a01b0316636f307dc36040518163ffffffff1660e01b8152600401602060405180830381865afa1580156109e5573d5f5f3e3d5ffd5b505050506040513d601f19601f82011682018060405250810190610a0991906131f7565b9250806001600160a01b0316636f307dc36040518163ffffffff1660e01b8152600401602060405180830381865afa158015610a47573d5f5f3e3d5ffd5b505050506040513d601f19601f82011682018060405250810190610a6b91906131f7565b6001600160a01b031663313ce5676040518163ffffffff1660e01b8152600401602060405180830381865afa158015610aa6573d5f5f3e3d5ffd5b505050506040513d601f19601f82011682018060405250810190610aca91906132d3565b60ff169150505b5f5f610add878b61209b565b604080516001600160a01b038e811660208301529395509193505f9283928392918c169163252c221960e11b910160408051601f1981840301815290829052610b299291602001613303565b60408051601f1981840301815290829052610b439161331e565b5f604051808303815f865af19150503d805f8114610b7c576040519150601f19603f3d011682016040523d82523d5f602084013e610b81565b606091505b50915091508115610ba35780806020019051810190610ba09190613121565b92505b6040518061022001604052808e6001600160a01b031681526020018c81526020018e6001600160a01b031663ae9d70b06040518163ffffffff1660e01b8152600401602060405180830381865afa158015610c00573d5f5f3e3d5ffd5b505050506040513d601f19601f82011682018060405250810190610c249190613121565b81526020018e6001600160a01b031663f8f9da286040518163ffffffff1660e01b8152600401602060405180830381865afa158015610c65573d5f5f3e3d5ffd5b505050506040513d601f19601f82011682018060405250810190610c899190613121565b81526020018e6001600160a01b031663173b99046040518163ffffffff1660e01b8152600401602060405180830381865afa158015610cca573d5f5f3e3d5ffd5b505050506040513d601f19601f82011682018060405250810190610cee9190613121565b81526020018e6001600160a01b03166347bd37186040518163ffffffff1660e01b8152600401602060405180830381865afa158015610d2f573d5f5f3e3d5ffd5b505050506040513d601f19601f82011682018060405250810190610d539190613121565b81526020018e6001600160a01b0316638f840ddd6040518163ffffffff1660e01b8152600401602060405180830381865afa158015610d94573d5f5f3e3d5ffd5b505050506040513d601f19601f82011682018060405250810190610db89190613121565b81526020018e6001600160a01b03166318160ddd6040518163ffffffff1660e01b8152600401602060405180830381865afa158015610df9573d5f5f3e3d5ffd5b505050506040513d601f19601f82011682018060405250810190610e1d9190613121565b81526020018e6001600160a01b0316633b1d21a26040518163ffffffff1660e01b8152600401602060405180830381865afa158015610e5e573d5f5f3e3d5ffd5b505050506040513d601f19601f82011682018060405250810190610e829190613121565b81526020018a15158152602001898152602001886001600160a01b031681526020018e6001600160a01b031663313ce5676040518163ffffffff1660e01b8152600401602060405180830381865afa158015610ee0573d5f5f3e3d5ffd5b505050506040513d601f19601f82011682018060405250810190610f0491906132d3565b60ff168152602001878152602001868152602001858152602001848152509b505050505050505050505050919050565b610f6460405180608001604052805f81526020015f81526020015f6001600160a01b031681526020015f81525090565b6040516370a0823160e01b81526001600160a01b0383811660048301525f91908616906370a0823190602401602060405180830381865afa158015610fab573d5f5f3e3d5ffd5b505050506040513d601f19601f82011682018060405250810190610fcf9190613121565b604051633637692560e01b81526001600160a01b038581166004830152919250908516906336376925906024015f604051808303815f87803b158015611013575f5ffd5b505af1158015611025573d5f5f3e3d5ffd5b50506040516370a0823160e01b81526001600160a01b0386811660048301525f9350881691506370a0823190602401602060405180830381865afa15801561106f573d5f5f3e3d5ffd5b505050506040513d601f19601f820116820180604052508101906110939190613121565b60405163d002d98960e01b81526001600160a01b0386811660048301529192505f9187169063d002d98990602401602060405180830381865afa1580156110dc573d5f5f3e3d5ffd5b505050506040513d601f19601f820116820180604052508101906111009190613121565b90505f6111378284604051806040016040528060118152602001701cdd5b481c195c9a591bdd081d1bdd185b607a1b815250612303565b90505f61116a82866040518060400160405280600d81526020016c1cdd5888185b1b1bd8d85d1959609a1b81525061233c565b60408051608081018252878152905163b4b5ea5760e01b81526001600160a01b038a8116600483015292935090916020830191908c169063b4b5ea5790602401602060405180830381865afa1580156111c5573d5f5f3e3d5ffd5b505050506040513d601f19601f820116820180604052508101906111e99190613329565b6001600160601b03168152604051632c3e6f0f60e11b81526001600160a01b038a811660048301526020909201918c169063587cde1e90602401602060405180830381865afa15801561123e573d5f5f3e3d5ffd5b505050506040513d601f19601f8201168201806040525081019061126291906131f7565b6001600160a01b031681526020019190915298975050505050505050565b6060815f816001600160401b0381111561129c5761129c6126ca565b6040519080825280602002602001820160405280156112d557816020015b6112c26125a7565b8152602001906001900390816112ba5790505b5090505f5b828110156113315761130c8686838181106112f7576112f7613212565b905060200201602081019061014091906128ae565b82828151811061131e5761131e613212565b60209081029190910101526001016112da565b50949350505050565b60605f826001600160401b03811115611355576113556126ca565b6040519080825280602002602001820160405280156113fb57816020015b6113e8604051806101c001604052805f81526020015f6001600160a01b031681526020015f8152602001606081526020016060815260200160608152602001606081526020015f81526020015f81526020015f81526020015f81526020015f81526020015f151581526020015f151581525090565b8152602001906001900390816113735790505b5090505f5b83811015611331575f5f5f5f896001600160a01b031663328dd9828a8a8881811061142d5761142d613212565b905060200201356040518263ffffffff1660e01b815260040161145291815260200190565b5f60405180830381865afa15801561146c573d5f5f3e3d5ffd5b505050506040513d5f823e601f3d908101601f1916820160405261149391908101906134ac565b9350935093509350604051806101c001604052805f81526020015f6001600160a01b031681526020015f81526020018581526020018481526020018381526020018281526020015f81526020015f81526020015f81526020015f81526020015f81526020015f151581526020015f151581525086868151811061151857611518613212565b602002602001018190525061155f86868151811061153857611538613212565b60200260200101518b8b8b8981811061155357611553613212565b90506020020135612374565b5050600190920191506114009050565b6115916040518060600160405280606081526020015f81526020015f81525090565b604051635ec88c7960e01b81526001600160a01b0383811660048301525f918291829190871690635ec88c7990602401606060405180830381865afa1580156115dc573d5f5f3e3d5ffd5b505050506040513d601f19601f8201168201806040525081019061160091906135c3565b925092509250825f14611611575f5ffd5b604080516060810191829052632aff3bff60e21b9091526001600160a01b0386811660648301528190881663abfceffc608483015f60405180830381865afa15801561165f573d5f5f3e3d5ffd5b505050506040513d5f823e601f3d908101601f1916820160405261168691908101906135ee565b81526020810193909352604090920152949350505050565b60605f826001600160401b038111156116b9576116b96126ca565b60405190808252806020026020018201604052801561175957816020015b611746604051806101a001604052805f81526020015f6001600160a01b031681526020015f8152602001606081526020016060815260200160608152602001606081526020015f81526020015f81526020015f81526020015f81526020015f151581526020015f151581525090565b8152602001906001900390816116d75790505b5090505f5b83811015611331575f5f5f5f896001600160a01b031663328dd9828a8a8881811061178b5761178b613212565b905060200201356040518263ffffffff1660e01b81526004016117b091815260200190565b5f60405180830381865afa1580156117ca573d5f5f3e3d5ffd5b505050506040513d5f823e601f3d908101601f191682016040526117f191908101906134ac565b9350935093509350604051806101a001604052805f81526020015f6001600160a01b031681526020015f81526020018581526020018481526020018381526020018281526020015f81526020015f81526020015f81526020015f81526020015f151581526020015f151581525086868151811061187057611870613212565b60200260200101819052506118b786868151811061189057611890613212565b60200260200101518b8b8b898181106118ab576118ab613212565b9050602002013561245c565b50506001909201915061175e9050565b80516060905f816001600160401b038111156118e5576118e56126ca565b60405190808252806020026020018201604052801561193557816020015b604080516080810182525f8082526020808301829052928201819052606082015282525f199092019101816119035790505b5090505f5b8281101561080b575f876001600160a01b031663e23a9a5287848151811061196457611964613212565b6020026020010151896040518363ffffffff1660e01b815260040161199c9291909182526001600160a01b0316602082015260400190565b606060405180830381865afa1580156119b7573d5f5f3e3d5ffd5b505050506040513d601f19601f820116820180604052508101906119db9190613687565b905060405180608001604052808784815181106119fa576119fa613212565b60200260200101518152602001825f01511515815260200182602001511515815260200182604001516001600160601b0316815250838381518110611a4157611a41613212565b60209081029190910101525060010161193a565b6060825f816001600160401b03811115611a7157611a716126ca565b604051908082528060200260200182016040528015611aaa57816020015b611a9761256e565b815260200190600190039081611a8f5790505b5090505f5b8281101561080b57611ae7878783818110611acc57611acc613212565b9050602002016020810190611ae191906128ae565b866102ff565b828281518110611af957611af9613212565b6020908102919091010152600101611aaf565b6060815f816001600160401b03811115611b2857611b286126ca565b604051908082528060200260200182016040528015611b6c57816020015b604080518082019091525f8082526020820152815260200190600190039081611b465790505b5090505f5b8281101561133157611ba3868683818110611b8e57611b8e613212565b905060200201602081019061028f91906128ae565b828281518110611bb557611bb5613212565b6020908102919091010152600101611b71565b604080518082019091525f80825260208201525f826001600160a01b031663c423fe296040518163ffffffff1660e01b8152600401602060405180830381865afa158015611c18573d5f5f3e3d5ffd5b505050506040513d601f19601f82011682018060405250810190611c3c91906131f7565b90505f816001600160a01b0316637dc0d1d06040518163ffffffff1660e01b8152600401602060405180830381865afa158015611c7b573d5f5f3e3d5ffd5b505050506040513d601f19601f82011682018060405250810190611c9f91906131f7565b6040805180820182526001600160a01b03808816808352925163fc57d4df60e01b815260048101939093529293509160208301919084169063fc57d4df90602401602060405180830381865afa158015611cfb573d5f5f3e3d5ffd5b505050506040513d601f19601f82011682018060405250810190611d1f9190613121565b9052949350505050565b60605f826001600160401b03811115611d4457611d446126ca565b604051908082528060200260200182016040528015611d8857816020015b604080518082019091525f8082526020820152815260200190600190039081611d625790505b5090505f5b8381101561080b576040518060400160405280868684818110611db257611db2613212565b9050602002016020810190611dc791906136b8565b63ffffffff168152602001886001600160a01b031663782d6fe189898987818110611df457611df4613212565b9050602002016020810190611e0991906136b8565b6040516001600160e01b031960e085901b1681526001600160a01b03909216600483015263ffffffff166024820152604401602060405180830381865afa158015611e56573d5f5f3e3d5ffd5b505050506040513d601f19601f82011682018060405250810190611e7a9190613329565b6001600160601b0316815250828281518110611e9857611e98613212565b6020908102919091010152600101611d8d565b611ed560405180606001604052805f81526020015f81526020015f6001600160a01b031681525090565b6040805160608101918290526370a0823160e01b9091526001600160a01b038381166064830152819085166370a0823160848301602060405180830381865afa158015611f24573d5f5f3e3d5ffd5b505050506040513d601f19601f82011682018060405250810190611f489190613121565b815260405163b4b5ea5760e01b81526001600160a01b03858116600483015260209092019186169063b4b5ea5790602401602060405180830381865afa158015611f94573d5f5f3e3d5ffd5b505050506040513d601f19601f82011682018060405250810190611fb89190613329565b6001600160601b03168152604051632c3e6f0f60e11b81526001600160a01b03858116600483015260209092019186169063587cde1e90602401602060405180830381865afa15801561200d573d5f5f3e3d5ffd5b505050506040513d601f19601f8201168201806040525081019061203191906131f7565b6001600160a01b031690529392505050565b5f81604051602001612055919061331e565b604051602081830303815290604052805190602001208360405160200161207c919061331e565b6040516020818303038152906040528051906020012014905092915050565b604080516001600160a01b0383811660208301525f92839283928392839291891691630938c63d60e01b910160408051601f19818403018152908290526120e59291602001613303565b60408051601f19818403018152908290526120ff9161331e565b5f604051808303815f865af19150503d805f8114612138576040519150601f19603f3d011682016040523d82523d5f602084013e61213d565b606091505b5091509150811561215f578080602001905181019061215c9190613121565b92505b604080516001600160a01b0388811660208301525f92839283928c169163c6a0175960e01b910160408051601f19818403018152908290526121a49291602001613303565b60408051601f19818403018152908290526121be9161331e565b5f604051808303815f865af19150503d805f81146121f7576040519150601f19603f3d011682016040523d82523d5f602084013e6121fc565b606091505b5091509150811561221e578080602001905181019061221b9190613121565b92505b841580612229575081155b156122f257604080516001600160a01b038b811660208301525f928392918e169163794595f560e01b910160408051601f19818403018152908290526122729291602001613303565b60408051601f198184030181529082905261228c9161331e565b5f604051808303815f865af19150503d805f81146122c5576040519150601f19603f3d011682016040523d82523d5f602084013e6122ca565b606091505b509150915081156122ef57808060200190518101906122e99190613121565b94508497505b50505b5093955093505050505b9250929050565b5f8061230f84866136ef565b905082858210156113315760405162461bcd60e51b81526004016123339190613702565b60405180910390fd5b5f818484111561235f5760405162461bcd60e51b81526004016123339190613702565b505f61236b8486613714565b95945050505050565b60405163013cf08b60e01b8152600481018290525f906001600160a01b0384169063013cf08b9060240161014060405180830381865afa1580156123ba573d5f5f3e3d5ffd5b505050506040513d601f19601f820116820180604052508101906123de9190613727565b918452506020808201516001600160a01b03169084015260408082015190840152606081015160e08085019190915260808201516101008086019190915260a08301516101208087019190915260c0840151610140870152918301516101608601528201511515610180850152015115156101a09092019190915250565b5f5f5f5f5f5f5f5f896001600160a01b031663013cf08b8a6040518263ffffffff1660e01b815260040161249291815260200190565b61012060405180830381865afa1580156124ae573d5f5f3e3d5ffd5b505050506040513d601f19601f820116820180604052508101906124d291906137c0565b9850985098509850985098509850985050888b5f018181525050878b602001906001600160a01b031690816001600160a01b031681525050868b6040018181525050858b60e0018181525050848b610100018181525050838b610120018181525050828b610140018181525050818b610160019015159081151581525050808b6101800190151590811515815250505050505050505050505050565b6040518060c001604052805f6001600160a01b031681526020015f81526020015f81526020015f81526020015f81526020015f81525090565b6040518061022001604052805f6001600160a01b031681526020015f81526020015f81526020015f81526020015f81526020015f81526020015f81526020015f81526020015f81526020015f151581526020015f81526020015f6001600160a01b031681526020015f81526020015f81526020015f81526020015f81526020015f81525090565b6001600160a01b0381168114612642575f5ffd5b50565b5f5f60408385031215612656575f5ffd5b82356126618161262e565b915060208301356126718161262e565b809150509250929050565b80516001600160a01b031682526020808201519083015260408082015190830152606080820151908301526080808201519083015260a090810151910152565b60c08101610676828461267c565b634e487b7160e01b5f52604160045260245ffd5b604051606081016001600160401b0381118282101715612700576127006126ca565b60405290565b60405161014081016001600160401b0381118282101715612700576127006126ca565b604051601f8201601f191681016001600160401b0381118282101715612751576127516126ca565b604052919050565b5f6001600160401b03821115612771576127716126ca565b5060051b60200190565b5f82601f83011261278a575f5ffd5b813561279d61279882612759565b612729565b8082825260208201915060208360051b8601019250858311156127be575f5ffd5b602085015b8381101561080b5780358352602092830192016127c3565b5f5f5f606084860312156127ed575f5ffd5b83356127f88161262e565b925060208401356128088161262e565b915060408401356001600160401b03811115612822575f5ffd5b61282e8682870161277b565b9150509250925092565b602080825282518282018190525f918401906040840190835b818110156128a35783518051845260208101511515602085015260ff60408201511660408501526001600160601b03606082015116606085015250608083019250602084019350600181019050612851565b509095945050505050565b5f602082840312156128be575f5ffd5b81356128c98161262e565b9392505050565b80516001600160a01b031682526020810151602083015260408101516040830152606081015160608301526080810151608083015260a081015160a083015260c081015160c083015260e081015160e083015261010081015161010083015261012081015161294461012084018215159052565b5061014081015161014083015261016081015161296d6101608401826001600160a01b03169052565b506101808101516101808301526101a08101516101a08301526101c08101516101c08301526101e08101516101e08301526102008101516102008301525050565b610220810161067682846128d0565b5f5f5f606084860312156129cf575f5ffd5b83356129da8161262e565b925060208401356129ea8161262e565b915060408401356129fa8161262e565b809150509250925092565b5f5f83601f840112612a15575f5ffd5b5081356001600160401b03811115612a2b575f5ffd5b6020830191508360208260051b85010111156122fc575f5ffd5b5f5f60208385031215612a56575f5ffd5b82356001600160401b03811115612a6b575f5ffd5b612a7785828601612a05565b90969095509350505050565b602080825282518282018190525f918401906040840190835b818110156128a357612aaf8385516128d0565b602093909301926102209290920191600101612a9c565b5f5f5f60408486031215612ad8575f5ffd5b8335612ae38161262e565b925060208401356001600160401b03811115612afd575f5ffd5b612b0986828701612a05565b9497909650939450505050565b5f8151808452602084019350602083015f5b82811015612b4f5781516001600160a01b0316865260209586019590910190600101612b28565b5093949350505050565b5f8151808452602084019350602083015f5b82811015612b4f578151865260209586019590910190600101612b6b565b5f81518084528060208401602086015e5f602082860101526020601f19601f83011685010191505092915050565b5f82825180855260208501945060208160051b830101602085015f5b83811015612c0557601f19858403018852612bef838351612b89565b6020988901989093509190910190600101612bd3565b50909695505050505050565b5f602082016020835280845180835260408501915060408160051b8601019250602086015f5b82811015612d5b57603f198786030184528151805186526020810151612c6860208801826001600160a01b03169052565b506040810151604087015260608101516101c06060880152612c8e6101c0880182612b16565b905060808201518782036080890152612ca78282612b59565b91505060a082015187820360a0890152612cc18282612bb7565b91505060c082015187820360c0890152612cdb8282612bb7565b91505060e082015160e0880152610100820151610100880152610120820151610120880152610140820151610140880152610160820151610160880152610180820151612d2d61018089018215159052565b506101a08201519150612d456101a088018315159052565b9550506020938401939190910190600101612c37565b50929695505050505050565b602080825282516060838301528051608084018190525f929190910190829060a08501905b80831015612db75783516001600160a01b031682526020938401936001939093019290910190612d8c565b50602086015160408601526040860151606086015280935050505092915050565b5f602082016020835280845180835260408501915060408160051b8601019250602086015f5b82811015612d5b57603f198786030184528151805186526020810151612e2f60208801826001600160a01b03169052565b506040810151604087015260608101516101a06060880152612e556101a0880182612b16565b905060808201518782036080890152612e6e8282612b59565b91505060a082015187820360a0890152612e888282612bb7565b91505060c082015187820360c0890152612ea28282612bb7565b91505060e082015160e0880152610100820151610100880152610120820151610120880152610140820151610140880152610160820151612ee861016089018215159052565b506101808201519150612f0061018088018315159052565b9550506020938401939190910190600101612dfe565b602080825282518282018190525f918401906040840190835b818110156128a3578351805184526020810151151560208501526040810151151560408501526001600160601b03606082015116606085015250608083019250602084019350600181019050612f2f565b5f5f5f60408486031215612f92575f5ffd5b83356001600160401b03811115612fa7575f5ffd5b612fb386828701612a05565b90945092505060208401356129fa8161262e565b602080825282518282018190525f918401906040840190835b818110156128a357612ff383855161267c565b6020939093019260c09290920191600101612fe0565b602080825282518282018190525f918401906040840190835b818110156128a35761304883855180516001600160a01b03168252602090810151910152565b6020939093019260409290920191600101613022565b81516001600160a01b031681526020808301519082015260408101610676565b5f5f5f5f60608587031215613091575f5ffd5b843561309c8161262e565b935060208501356130ac8161262e565b925060408501356001600160401b038111156130c6575f5ffd5b6130d287828801612a05565b95989497509550505050565b602080825282518282018190525f918401906040840190835b818110156128a35783518051845260209081015181850152909301926040909201916001016130f7565b5f60208284031215613131575f5ffd5b5051919050565b5f5f6001600160401b03841115613151576131516126ca565b50601f8301601f191660200161316681612729565b91505082815283838301111561317a575f5ffd5b8282602083015e5f602084830101529392505050565b5f82601f83011261319f575f5ffd5b6128c983835160208501613138565b5f602082840312156131be575f5ffd5b81516001600160401b038111156131d3575f5ffd5b6131df84828501613190565b949350505050565b80516131f28161262e565b919050565b5f60208284031215613207575f5ffd5b81516128c98161262e565b634e487b7160e01b5f52603260045260245ffd5b805180151581146131f2575f5ffd5b805160ff811681146131f2575f5ffd5b80516001600160601b03811681146131f2575f5ffd5b5f606082840312801561326c575f5ffd5b506132756126de565b61327e83613226565b815261328c60208401613235565b602082015261329d60408401613245565b60408201529392505050565b5f5f604083850312156132ba575f5ffd5b6132c383613226565b6020939093015192949293505050565b5f602082840312156132e3575f5ffd5b6128c982613235565b5f81518060208401855e5f93019283525090919050565b6001600160e01b0319831681525f6131df60048301846132ec565b5f6128c982846132ec565b5f60208284031215613339575f5ffd5b6128c982613245565b5f82601f830112613351575f5ffd5b815161335f61279882612759565b8082825260208201915060208360051b860101925085831115613380575f5ffd5b602085015b8381101561080b578051835260209283019201613385565b5f82601f8301126133ac575f5ffd5b81516133ba61279882612759565b8082825260208201915060208360051b8601019250858311156133db575f5ffd5b602085015b8381101561080b5780516001600160401b038111156133fd575f5ffd5b61340c886020838a0101613190565b845250602092830192016133e0565b5f82601f83011261342a575f5ffd5b815161343861279882612759565b8082825260208201915060208360051b860101925085831115613459575f5ffd5b602085015b8381101561080b5780516001600160401b0381111561347b575f5ffd5b8601603f8101881361348b575f5ffd5b61349d88602083015160408401613138565b8452506020928301920161345e565b5f5f5f5f608085870312156134bf575f5ffd5b84516001600160401b038111156134d4575f5ffd5b8501601f810187136134e4575f5ffd5b80516134f261279882612759565b8082825260208201915060208360051b850101925089831115613513575f5ffd5b6020840193505b8284101561353e57835161352d8161262e565b82526020938401939091019061351a565b8097505050505060208501516001600160401b0381111561355d575f5ffd5b61356987828801613342565b93505060408501516001600160401b03811115613584575f5ffd5b6135908782880161339d565b92505060608501516001600160401b038111156135ab575f5ffd5b6135b78782880161341b565b91505092959194509250565b5f5f5f606084860312156135d5575f5ffd5b5050815160208301516040909301519094929350919050565b5f602082840312156135fe575f5ffd5b81516001600160401b03811115613613575f5ffd5b8201601f81018413613623575f5ffd5b805161363161279882612759565b8082825260208201915060208360051b850101925086831115613652575f5ffd5b6020840193505b8284101561367d57835161366c8161262e565b825260209384019390910190613659565b9695505050505050565b5f6060828403128015613698575f5ffd5b506136a16126de565b6136aa83613226565b815261328c60208401613226565b5f602082840312156136c8575f5ffd5b813563ffffffff811681146128c9575f5ffd5b634e487b7160e01b5f52601160045260245ffd5b80820180821115610676576106766136db565b602081525f6128c96020830184612b89565b81810381811115610676576106766136db565b5f610140828403128015613739575f5ffd5b50613742612706565b82518152613752602084016131e7565b602082015260408381015190820152606080840151908201526080808401519082015260a0808401519082015260c0808401519082015260e080840151908201526137a06101008401613226565b6101008201526137b36101208401613226565b6101208201529392505050565b5f5f5f5f5f5f5f5f5f6101208a8c0312156137d9575f5ffd5b895160208b01519099506137ec8161262e565b60408b015160608c015160808d015160a08e015160c08f0151949c50929a5090985096509450925061382060e08b01613226565b915061382f6101008b01613226565b9050929598509295985092959856fea2646970667358221220978e8a8d724f73b5e95c6da224dbe783e4096754423fb85ee6fe1281812bc29464736f6c634300081b0033","linkReferences":{}},"methodIdentifiers":{"getAccountLimits(address,address)":"7dd8f6d9","getGovBravoProposals(address,uint256[])":"75d80e90","getGovBravoReceipts(address,address,uint256[])":"43c811cc","getGovProposals(address,uint256[])":"96994869","getGovReceipts(address,address,uint256[])":"995ed99f","getPeridotBalanceMetadata(address,address)":"f321f3ba","getPeridotBalanceMetadataExt(address,address,address)":"5ed5ab08","getPeridotVotes(address,address,uint32[])":"e1c25304","pTokenBalances(address,address)":"0632c18a","pTokenBalancesAll(address[],address)":"bb8fb2d2","pTokenMetadata(address)":"57e9ccaf","pTokenMetadataAll(address[])":"6c7109fc","pTokenUnderlyingPrice(address)":"def0ab0c","pTokenUnderlyingPriceAll(address[])":"d8821396"},"id":10}