{"abi":[{"type":"constructor","inputs":[{"name":"baseRatePerYear","type":"uint256","internalType":"uint256"},{"name":"multiplierPerYear","type":"uint256","internalType":"uint256"},{"name":"jumpMultiplierPerYear","type":"uint256","internalType":"uint256"},{"name":"kink_","type":"uint256","internalType":"uint256"},{"name":"owner_","type":"address","internalType":"address"}],"stateMutability":"nonpayable"},{"type":"function","name":"baseRatePerBlock","inputs":[],"outputs":[{"name":"","type":"uint256","internalType":"uint256"}],"stateMutability":"view"},{"type":"function","name":"blocksPerYear","inputs":[],"outputs":[{"name":"","type":"uint256","internalType":"uint256"}],"stateMutability":"view"},{"type":"function","name":"getBorrowRate","inputs":[{"name":"cash","type":"uint256","internalType":"uint256"},{"name":"borrows","type":"uint256","internalType":"uint256"},{"name":"reserves","type":"uint256","internalType":"uint256"}],"outputs":[{"name":"","type":"uint256","internalType":"uint256"}],"stateMutability":"view"},{"type":"function","name":"getSupplyRate","inputs":[{"name":"cash","type":"uint256","internalType":"uint256"},{"name":"borrows","type":"uint256","internalType":"uint256"},{"name":"reserves","type":"uint256","internalType":"uint256"},{"name":"reserveFactorMantissa","type":"uint256","internalType":"uint256"}],"outputs":[{"name":"","type":"uint256","internalType":"uint256"}],"stateMutability":"view"},{"type":"function","name":"isInterestRateModel","inputs":[],"outputs":[{"name":"","type":"bool","internalType":"bool"}],"stateMutability":"view"},{"type":"function","name":"jumpMultiplierPerBlock","inputs":[],"outputs":[{"name":"","type":"uint256","internalType":"uint256"}],"stateMutability":"view"},{"type":"function","name":"kink","inputs":[],"outputs":[{"name":"","type":"uint256","internalType":"uint256"}],"stateMutability":"view"},{"type":"function","name":"multiplierPerBlock","inputs":[],"outputs":[{"name":"","type":"uint256","internalType":"uint256"}],"stateMutability":"view"},{"type":"function","name":"owner","inputs":[],"outputs":[{"name":"","type":"address","internalType":"address"}],"stateMutability":"view"},{"type":"function","name":"updateJumpRateModel","inputs":[{"name":"baseRatePerYear","type":"uint256","internalType":"uint256"},{"name":"multiplierPerYear","type":"uint256","internalType":"uint256"},{"name":"jumpMultiplierPerYear","type":"uint256","internalType":"uint256"},{"name":"kink_","type":"uint256","internalType":"uint256"}],"outputs":[],"stateMutability":"nonpayable"},{"type":"function","name":"utilizationRate","inputs":[{"name":"cash","type":"uint256","internalType":"uint256"},{"name":"borrows","type":"uint256","internalType":"uint256"},{"name":"reserves","type":"uint256","internalType":"uint256"}],"outputs":[{"name":"","type":"uint256","internalType":"uint256"}],"stateMutability":"pure"},{"type":"event","name":"NewInterestParams","inputs":[{"name":"baseRatePerBlock","type":"uint256","indexed":false,"internalType":"uint256"},{"name":"multiplierPerBlock","type":"uint256","indexed":false,"internalType":"uint256"},{"name":"jumpMultiplierPerBlock","type":"uint256","indexed":false,"internalType":"uint256"},{"name":"kink","type":"uint256","indexed":false,"internalType":"uint256"}],"anonymous":false}],"bytecode":{"object":"0x608060405234801561000f575f5ffd5b506040516106f73803806106f783398101604081905261002e91610110565b5f80546001600160a01b0319166001600160a01b038316179055848484848461005985858585610068565b505050505050505050506101ae565b6100756220148085610166565b6002556100858162201480610185565b610097670de0b6b3a764000085610185565b6100a19190610166565b6001556100b16220148083610166565b60038190556004829055600254600154604080519283526020830191909152810191909152606081018290527f6960ab234c7ef4b0c9197100f5393cfcde7c453ac910a27bd2000aa1dd4c068d9060800160405180910390a150505050565b5f5f5f5f5f60a08688031215610124575f5ffd5b855160208701516040880151606089015160808a0151939850919650945092506001600160a01b0381168114610158575f5ffd5b809150509295509295909350565b5f8261018057634e487b7160e01b5f52601260045260245ffd5b500490565b80820281158282048414176101a857634e487b7160e01b5f52601160045260245ffd5b92915050565b61053c806101bb5f395ff3fe608060405234801561000f575f5ffd5b50600436106100a6575f3560e01c80638da5cb5b1161006e5780638da5cb5b14610119578063a385fb9614610143578063b81688161461014d578063b9f9850a14610160578063f14039de14610169578063fd2da33914610172575f5ffd5b806315f24053146100aa5780632037f3e7146100d05780632191f92a146100e55780636e71e2d8146100fd5780638726bb8914610110575b5f5ffd5b6100bd6100b8366004610438565b61017b565b6040519081526020015b60405180910390f35b6100e36100de366004610461565b610191565b005b6100ed600181565b60405190151581526020016100c7565b6100bd61010b366004610438565b61020f565b6100bd60015481565b5f5461012b906001600160a01b031681565b6040516001600160a01b0390911681526020016100c7565b6100bd6220148081565b6100bd61015b366004610461565b61024f565b6100bd60035481565b6100bd60025481565b6100bd60045481565b5f6101878484846102c8565b90505b9392505050565b5f546001600160a01b031633146101fd5760405162461bcd60e51b815260206004820152602660248201527f6f6e6c7920746865206f776e6572206d61792063616c6c20746869732066756e60448201526531ba34b7b71760d11b606482015260840160405180910390fd5b61020984848484610390565b50505050565b5f825f0361021e57505f61018a565b8161022984866104a4565b61023391906104bd565b610245670de0b6b3a7640000856104d0565b61018791906104e7565b5f8061026383670de0b6b3a76400006104bd565b90505f6102718787876102c8565b90505f670de0b6b3a764000061028784846104d0565b61029191906104e7565b9050670de0b6b3a7640000816102a88a8a8a61020f565b6102b291906104d0565b6102bc91906104e7565b98975050505050505050565b5f5f6102d585858561020f565b9050600454811161031657600254670de0b6b3a7640000600154836102fa91906104d0565b61030491906104e7565b61030e91906104a4565b91505061018a565b5f600254670de0b6b3a764000060015460045461033391906104d0565b61033d91906104e7565b61034791906104a4565b90505f6004548361035891906104bd565b905081670de0b6b3a76400006003548361037291906104d0565b61037c91906104e7565b61038691906104a4565b935050505061018a565b61039d62201480856104e7565b6002556103ad81622014806104d0565b6103bf670de0b6b3a7640000856104d0565b6103c991906104e7565b6001556103d962201480836104e7565b60038190556004829055600254600154604080519283526020830191909152810191909152606081018290527f6960ab234c7ef4b0c9197100f5393cfcde7c453ac910a27bd2000aa1dd4c068d9060800160405180910390a150505050565b5f5f5f6060848603121561044a575f5ffd5b505081359360208301359350604090920135919050565b5f5f5f5f60808587031215610474575f5ffd5b5050823594602084013594506040840135936060013592509050565b634e487b7160e01b5f52601160045260245ffd5b808201808211156104b7576104b7610490565b92915050565b818103818111156104b7576104b7610490565b80820281158282048414176104b7576104b7610490565b5f8261050157634e487b7160e01b5f52601260045260245ffd5b50049056fea2646970667358221220658b63882512b96a820cbc7a47a7123165fa4075d29f6b5fb06ec07adc2b0e5c64736f6c634300081b0033","linkReferences":{}},"methodIdentifiers":{"baseRatePerBlock()":"f14039de","blocksPerYear()":"a385fb96","getBorrowRate(uint256,uint256,uint256)":"15f24053","getSupplyRate(uint256,uint256,uint256,uint256)":"b8168816","isInterestRateModel()":"2191f92a","jumpMultiplierPerBlock()":"b9f9850a","kink()":"fd2da339","multiplierPerBlock()":"8726bb89","owner()":"8da5cb5b","updateJumpRateModel(uint256,uint256,uint256,uint256)":"2037f3e7","utilizationRate(uint256,uint256,uint256)":"6e71e2d8"},"id":9}