{"abi":[{"type":"constructor","inputs":[],"stateMutability":"nonpayable"},{"type":"fallback","stateMutability":"payable"},{"type":"function","name":"_acceptAdmin","inputs":[],"outputs":[{"name":"","type":"uint256","internalType":"uint256"}],"stateMutability":"nonpayable"},{"type":"function","name":"_acceptImplementation","inputs":[],"outputs":[{"name":"","type":"uint256","internalType":"uint256"}],"stateMutability":"nonpayable"},{"type":"function","name":"_setPendingAdmin","inputs":[{"name":"newPendingAdmin","type":"address","internalType":"address"}],"outputs":[{"name":"","type":"uint256","internalType":"uint256"}],"stateMutability":"nonpayable"},{"type":"function","name":"_setPendingImplementation","inputs":[{"name":"newPendingImplementation","type":"address","internalType":"address"}],"outputs":[{"name":"","type":"uint256","internalType":"uint256"}],"stateMutability":"nonpayable"},{"type":"function","name":"admin","inputs":[],"outputs":[{"name":"","type":"address","internalType":"address"}],"stateMutability":"view"},{"type":"function","name":"pendingAdmin","inputs":[],"outputs":[{"name":"","type":"address","internalType":"address"}],"stateMutability":"view"},{"type":"function","name":"pendingPeridottrollerImplementation","inputs":[],"outputs":[{"name":"","type":"address","internalType":"address"}],"stateMutability":"view"},{"type":"function","name":"peridottrollerImplementation","inputs":[],"outputs":[{"name":"","type":"address","internalType":"address"}],"stateMutability":"view"},{"type":"event","name":"Failure","inputs":[{"name":"error","type":"uint256","indexed":false,"internalType":"uint256"},{"name":"info","type":"uint256","indexed":false,"internalType":"uint256"},{"name":"detail","type":"uint256","indexed":false,"internalType":"uint256"}],"anonymous":false},{"type":"event","name":"NewAdmin","inputs":[{"name":"oldAdmin","type":"address","indexed":false,"internalType":"address"},{"name":"newAdmin","type":"address","indexed":false,"internalType":"address"}],"anonymous":false},{"type":"event","name":"NewImplementation","inputs":[{"name":"oldImplementation","type":"address","indexed":false,"internalType":"address"},{"name":"newImplementation","type":"address","indexed":false,"internalType":"address"}],"anonymous":false},{"type":"event","name":"NewPendingAdmin","inputs":[{"name":"oldPendingAdmin","type":"address","indexed":false,"internalType":"address"},{"name":"newPendingAdmin","type":"address","indexed":false,"internalType":"address"}],"anonymous":false},{"type":"event","name":"NewPendingImplementation","inputs":[{"name":"oldPendingImplementation","type":"address","indexed":false,"internalType":"address"},{"name":"newPendingImplementation","type":"address","indexed":false,"internalType":"address"}],"anonymous":false}],"bytecode":{"object":"0x6080604052348015600e575f5ffd5b505f80546001600160a01b031916331790556105c08061002d5f395ff3fe60806040526004361061007a575f3560e01c8063c1e803341161004d578063c1e8033414610197578063e992a041146101ab578063e9c714f2146101ca578063f851a440146101de5761007a565b806318f1408d146100f0578063267822471461012c5780637c8f3a671461014b578063b71d1a0c1461016a575b6002546040515f916001600160a01b0316906100999083903690610541565b5f60405180830381855af49150503d805f81146100d1576040519150601f19603f3d011682016040523d82523d5f602084013e6100d6565b606091505b505090506040513d5f823e8180156100ec573d82f35b3d82fd5b3480156100fb575f5ffd5b5060025461010f906001600160a01b031681565b6040516001600160a01b0390911681526020015b60405180910390f35b348015610137575f5ffd5b5060015461010f906001600160a01b031681565b348015610156575f5ffd5b5060035461010f906001600160a01b031681565b348015610175575f5ffd5b50610189610184366004610550565b6101fc565b604051908152602001610123565b3480156101a2575f5ffd5b50610189610287565b3480156101b6575f5ffd5b506101896101c5366004610550565b61037b565b3480156101d5575f5ffd5b506101896103f3565b3480156101e9575f5ffd5b505f5461010f906001600160a01b031681565b5f80546001600160a01b031633146102205761021a6001600e6104ca565b92915050565b600180546001600160a01b038481166001600160a01b031983168117909355604080519190921680825260208201939093527fca4f2f25d0898edd99413412fb94012f9e54ec8142f9b093e7720646a95b16a991015b60405180910390a15f5b9392505050565b6003545f906001600160a01b0316331415806102ac57506003546001600160a01b0316155b156102c1576102bc6001806104ca565b905090565b60028054600380546001600160a01b038082166001600160a01b031980861682179096559490911690915560408051919092168082526020820184905292917fd604de94d45953f9138079ec1b82d533cb2160c906d1076d1f7ed54befbca97a910160405180910390a1600354604080516001600160a01b03808516825290921660208301527fe945ccee5d701fc83f9b8aa8ca94ea4219ec1fcbd4f4cab4f0ea57c5c3e1d81591015b60405180910390a15f9250505090565b5f80546001600160a01b031633146103995761021a6001600f6104ca565b600380546001600160a01b038481166001600160a01b031983168117909355604080519190921680825260208201939093527fe945ccee5d701fc83f9b8aa8ca94ea4219ec1fcbd4f4cab4f0ea57c5c3e1d8159101610276565b6001545f906001600160a01b03163314158061040d575033155b1561041d576102bc60015f6104ca565b5f8054600180546001600160a01b038082166001600160a01b031980861682179096559490911690915560408051919092168082526020820184905292917ff9ffabca9c8276e99321725bcb43fb076a6c66a54b7f21c4e8146d8519b417dc910160405180910390a1600154604080516001600160a01b03808516825290921660208301527fca4f2f25d0898edd99413412fb94012f9e54ec8142f9b093e7720646a95b16a9910161036b565b5f7f45b96fe442630264581b197e84bbada861235052c5a1aadfff9ea4e40a969aa08360118111156104fe576104fe610576565b83601381111561051057610510610576565b6040805192835260208301919091525f9082015260600160405180910390a182601181111561028057610280610576565b818382375f9101908152919050565b5f60208284031215610560575f5ffd5b81356001600160a01b0381168114610280575f5ffd5b634e487b7160e01b5f52602160045260245ffdfea264697066735822122020d1cccd1d87a92dde5a0ae7e7fe246323aee56faea93d27995e943160f78a1b64736f6c634300081b0033","linkReferences":{}},"methodIdentifiers":{"_acceptAdmin()":"e9c714f2","_acceptImplementation()":"c1e80334","_setPendingAdmin(address)":"b71d1a0c","_setPendingImplementation(address)":"e992a041","admin()":"f851a440","pendingAdmin()":"26782247","pendingPeridottrollerImplementation()":"7c8f3a67","peridottrollerImplementation()":"18f1408d"},"id":30}