{"abi":[{"type":"constructor","inputs":[{"name":"_logic","type":"address","internalType":"address"}],"stateMutability":"nonpayable"},{"type":"fallback","stateMutability":"payable"},{"type":"function","name":"addAdmin","inputs":[{"name":"newAdmin","type":"address","internalType":"address"}],"outputs":[],"stateMutability":"nonpayable"},{"type":"function","name":"admin","inputs":[],"outputs":[{"name":"","type":"address","internalType":"address"}],"stateMutability":"view"},{"type":"function","name":"upgradeTo","inputs":[{"name":"newImplementation","type":"address","internalType":"address"}],"outputs":[],"stateMutability":"nonpayable"}],"bytecode":{"object":"0x608060405234801561000f575f5ffd5b5060405161049738038061049783398101604081905261002e9161015c565b6001600160a01b0381166100975760405162461bcd60e51b815260206004820152602560248201527f4c6f67696320636f6e747261637420616464726573732063616e6e6f74206265604482015264207a65726f60d81b60648201526084015b60405180910390fd5b6100a0816100b7565b505f80546001600160a01b03191633179055610189565b6001600160a01b03811661011b5760405162461bcd60e51b815260206004820152602560248201527f496d706c656d656e746174696f6e2063616e6e6f74206265207a65726f206164604482015264647265737360d81b606482015260840161008e565b7f360894a13ba1a3210667c828492db98dca3e2076cc3735a920a3ca505d382bbc80546001600160a01b0319166001600160a01b0392909216919091179055565b5f6020828403121561016c575f5ffd5b81516001600160a01b0381168114610182575f5ffd5b9392505050565b610301806101965f395ff3fe608060405260043610610033575f3560e01c80633659cfe61461003d578063704802751461005c578063f851a4401461007b575b61003b6100b5565b005b348015610048575f5ffd5b5061003b61005736600461029e565b6100f0565b348015610067575f5ffd5b5061003b61007636600461029e565b610164565b348015610086575f5ffd5b505f54610099906001600160a01b031681565b6040516001600160a01b03909116815260200160405180910390f35b6100ee6100e97f360894a13ba1a3210667c828492db98dca3e2076cc3735a920a3ca505d382bbc546001600160a01b031690565b6101db565b565b5f546001600160a01b031633146101585760405162461bcd60e51b815260206004820152602160248201527f4f6e6c792061646d696e2063616e2063616c6c20746869732066756e6374696f6044820152603760f91b60648201526084015b60405180910390fd5b610161816101f9565b50565b6001600160a01b0381166101ba5760405162461bcd60e51b815260206004820152601c60248201527f41646d696e2063616e6e6f74206265207a65726f206164647265737300000000604482015260640161014f565b5f80546001600160a01b0319166001600160a01b0392909216919091179055565b365f5f375f5f365f845af43d5f5f3e8080156101f5573d5ff35b3d5ffd5b6001600160a01b03811661025d5760405162461bcd60e51b815260206004820152602560248201527f496d706c656d656e746174696f6e2063616e6e6f74206265207a65726f206164604482015264647265737360d81b606482015260840161014f565b7f360894a13ba1a3210667c828492db98dca3e2076cc3735a920a3ca505d382bbc80546001600160a01b0319166001600160a01b0392909216919091179055565b5f602082840312156102ae575f5ffd5b81356001600160a01b03811681146102c4575f5ffd5b939250505056fea264697066735822122029995dbbed5cd7112d2b42cd9a22ff7e57a65c4f9a68de8ccb4f929e341f513564736f6c634300081b0033","linkReferences":{}},"methodIdentifiers":{"addAdmin(address)":"70480275","admin()":"f851a440","upgradeTo(address)":"3659cfe6"},"id":26}