{"abi":[{"type":"constructor","inputs":[{"name":"initialOwner","type":"address","internalType":"address"}],"stateMutability":"nonpayable"},{"type":"function","name":"DOMAIN_SEPARATOR","inputs":[],"outputs":[{"name":"","type":"bytes32","internalType":"bytes32"}],"stateMutability":"view"},{"type":"function","name":"allowance","inputs":[{"name":"owner","type":"address","internalType":"address"},{"name":"spender","type":"address","internalType":"address"}],"outputs":[{"name":"","type":"uint256","internalType":"uint256"}],"stateMutability":"view"},{"type":"function","name":"approve","inputs":[{"name":"spender","type":"address","internalType":"address"},{"name":"value","type":"uint256","internalType":"uint256"}],"outputs":[{"name":"","type":"bool","internalType":"bool"}],"stateMutability":"nonpayable"},{"type":"function","name":"balanceOf","inputs":[{"name":"account","type":"address","internalType":"address"}],"outputs":[{"name":"","type":"uint256","internalType":"uint256"}],"stateMutability":"view"},{"type":"function","name":"burn","inputs":[{"name":"value","type":"uint256","internalType":"uint256"}],"outputs":[],"stateMutability":"nonpayable"},{"type":"function","name":"burnFrom","inputs":[{"name":"account","type":"address","internalType":"address"},{"name":"value","type":"uint256","internalType":"uint256"}],"outputs":[],"stateMutability":"nonpayable"},{"type":"function","name":"decimals","inputs":[],"outputs":[{"name":"","type":"uint8","internalType":"uint8"}],"stateMutability":"view"},{"type":"function","name":"eip712Domain","inputs":[],"outputs":[{"name":"fields","type":"bytes1","internalType":"bytes1"},{"name":"name","type":"string","internalType":"string"},{"name":"version","type":"string","internalType":"string"},{"name":"chainId","type":"uint256","internalType":"uint256"},{"name":"verifyingContract","type":"address","internalType":"address"},{"name":"salt","type":"bytes32","internalType":"bytes32"},{"name":"extensions","type":"uint256[]","internalType":"uint256[]"}],"stateMutability":"view"},{"type":"function","name":"mint","inputs":[{"name":"to","type":"address","internalType":"address"},{"name":"amount","type":"uint256","internalType":"uint256"}],"outputs":[],"stateMutability":"nonpayable"},{"type":"function","name":"name","inputs":[],"outputs":[{"name":"","type":"string","internalType":"string"}],"stateMutability":"view"},{"type":"function","name":"nonces","inputs":[{"name":"owner","type":"address","internalType":"address"}],"outputs":[{"name":"","type":"uint256","internalType":"uint256"}],"stateMutability":"view"},{"type":"function","name":"owner","inputs":[],"outputs":[{"name":"","type":"address","internalType":"address"}],"stateMutability":"view"},{"type":"function","name":"permit","inputs":[{"name":"owner","type":"address","internalType":"address"},{"name":"spender","type":"address","internalType":"address"},{"name":"value","type":"uint256","internalType":"uint256"},{"name":"deadline","type":"uint256","internalType":"uint256"},{"name":"v","type":"uint8","internalType":"uint8"},{"name":"r","type":"bytes32","internalType":"bytes32"},{"name":"s","type":"bytes32","internalType":"bytes32"}],"outputs":[],"stateMutability":"nonpayable"},{"type":"function","name":"renounceOwnership","inputs":[],"outputs":[],"stateMutability":"nonpayable"},{"type":"function","name":"symbol","inputs":[],"outputs":[{"name":"","type":"string","internalType":"string"}],"stateMutability":"view"},{"type":"function","name":"totalSupply","inputs":[],"outputs":[{"name":"","type":"uint256","internalType":"uint256"}],"stateMutability":"view"},{"type":"function","name":"transfer","inputs":[{"name":"to","type":"address","internalType":"address"},{"name":"value","type":"uint256","internalType":"uint256"}],"outputs":[{"name":"","type":"bool","internalType":"bool"}],"stateMutability":"nonpayable"},{"type":"function","name":"transferFrom","inputs":[{"name":"from","type":"address","internalType":"address"},{"name":"to","type":"address","internalType":"address"},{"name":"value","type":"uint256","internalType":"uint256"}],"outputs":[{"name":"","type":"bool","internalType":"bool"}],"stateMutability":"nonpayable"},{"type":"function","name":"transferOwnership","inputs":[{"name":"newOwner","type":"address","internalType":"address"}],"outputs":[],"stateMutability":"nonpayable"},{"type":"event","name":"Approval","inputs":[{"name":"owner","type":"address","indexed":true,"internalType":"address"},{"name":"spender","type":"address","indexed":true,"internalType":"address"},{"name":"value","type":"uint256","indexed":false,"internalType":"uint256"}],"anonymous":false},{"type":"event","name":"EIP712DomainChanged","inputs":[],"anonymous":false},{"type":"event","name":"OwnershipTransferred","inputs":[{"name":"previousOwner","type":"address","indexed":true,"internalType":"address"},{"name":"newOwner","type":"address","indexed":true,"internalType":"address"}],"anonymous":false},{"type":"event","name":"Transfer","inputs":[{"name":"from","type":"address","indexed":true,"internalType":"address"},{"name":"to","type":"address","indexed":true,"internalType":"address"},{"name":"value","type":"uint256","indexed":false,"internalType":"uint256"}],"anonymous":false},{"type":"error","name":"ECDSAInvalidSignature","inputs":[]},{"type":"error","name":"ECDSAInvalidSignatureLength","inputs":[{"name":"length","type":"uint256","internalType":"uint256"}]},{"type":"error","name":"ECDSAInvalidSignatureS","inputs":[{"name":"s","type":"bytes32","internalType":"bytes32"}]},{"type":"error","name":"ERC20InsufficientAllowance","inputs":[{"name":"spender","type":"address","internalType":"address"},{"name":"allowance","type":"uint256","internalType":"uint256"},{"name":"needed","type":"uint256","internalType":"uint256"}]},{"type":"error","name":"ERC20InsufficientBalance","inputs":[{"name":"sender","type":"address","internalType":"address"},{"name":"balance","type":"uint256","internalType":"uint256"},{"name":"needed","type":"uint256","internalType":"uint256"}]},{"type":"error","name":"ERC20InvalidApprover","inputs":[{"name":"approver","type":"address","internalType":"address"}]},{"type":"error","name":"ERC20InvalidReceiver","inputs":[{"name":"receiver","type":"address","internalType":"address"}]},{"type":"error","name":"ERC20InvalidSender","inputs":[{"name":"sender","type":"address","internalType":"address"}]},{"type":"error","name":"ERC20InvalidSpender","inputs":[{"name":"spender","type":"address","internalType":"address"}]},{"type":"error","name":"ERC2612ExpiredSignature","inputs":[{"name":"deadline","type":"uint256","internalType":"uint256"}]},{"type":"error","name":"ERC2612InvalidSigner","inputs":[{"name":"signer","type":"address","internalType":"address"},{"name":"owner","type":"address","internalType":"address"}]},{"type":"error","name":"InvalidAccountNonce","inputs":[{"name":"account","type":"address","internalType":"address"},{"name":"currentNonce","type":"uint256","internalType":"uint256"}]},{"type":"error","name":"InvalidShortString","inputs":[]},{"type":"error","name":"OwnableInvalidOwner","inputs":[{"name":"owner","type":"address","internalType":"address"}]},{"type":"error","name":"OwnableUnauthorizedAccount","inputs":[{"name":"account","type":"address","internalType":"address"}]},{"type":"error","name":"StringTooLong","inputs":[{"name":"str","type":"string","internalType":"string"}]}],"bytecode":{"object":"0x610160604052348015610010575f5ffd5b5060405161156f38038061156f83398101604081905261002f91610276565b604051806040016040528060048152602001631554d11560e21b81525080604051806040016040528060018152602001603160f81b815250836040518060400160405280600a8152602001692aa9a2102a32ba3432b960b11b815250604051806040016040528060048152602001631554d11560e21b81525081600390816100b7919061033b565b5060046100c4828261033b565b5050506001600160a01b0381166100f557604051631e4fbdf760e01b81525f60048201526024015b60405180910390fd5b6100fe816101b6565b5061010a826006610207565b61012052610119816007610207565b61014052815160208084019190912060e052815190820120610100524660a0526101a560e05161010051604080517f8b73c3c69bb8fe3d512ecc4cf759cc79239f7b179b0ffacaa9a75d522b39400f60208201529081019290925260608201524660808201523060a08201525f9060c00160405160208183030381529060405280519060200120905090565b60805250503060c0525061044d9050565b600580546001600160a01b038381166001600160a01b0319831681179093556040519116919082907f8be0079c531659141344cd1fd0a4f28419497f9722a3daafe3b4186f6b6457e0905f90a35050565b5f6020835110156102225761021b83610239565b9050610233565b8161022d848261033b565b5060ff90505b92915050565b5f5f829050601f81511115610263578260405163305a27a960e01b81526004016100ec91906103f5565b805161026e8261042a565b179392505050565b5f60208284031215610286575f5ffd5b81516001600160a01b038116811461029c575f5ffd5b9392505050565b634e487b7160e01b5f52604160045260245ffd5b600181811c908216806102cb57607f821691505b6020821081036102e957634e487b7160e01b5f52602260045260245ffd5b50919050565b601f82111561033657805f5260205f20601f840160051c810160208510156103145750805b601f840160051c820191505b81811015610333575f8155600101610320565b50505b505050565b81516001600160401b03811115610354576103546102a3565b6103688161036284546102b7565b846102ef565b6020601f82116001811461039a575f83156103835750848201515b5f19600385901b1c1916600184901b178455610333565b5f84815260208120601f198516915b828110156103c957878501518255602094850194600190920191016103a9565b50848210156103e657868401515f19600387901b60f8161c191681555b50505050600190811b01905550565b602081525f82518060208401528060208501604085015e5f604082850101526040601f19601f83011684010191505092915050565b805160208083015191908110156102e9575f1960209190910360031b1b16919050565b60805160a05160c05160e0516101005161012051610140516110d161049e5f395f61090501525f6108d801525f61079b01525f61077301525f6106ce01525f6106f801525f61072201526110d15ff3fe608060405234801561000f575f5ffd5b506004361061011c575f3560e01c8063715018a6116100a957806395d89b411161006e57806395d89b4114610251578063a9059cbb14610259578063d505accf1461026c578063dd62ed3e1461027f578063f2fde38b146102b7575f5ffd5b8063715018a6146101ed57806379cc6790146101f55780637ecebe001461020857806384b0196e1461021b5780638da5cb5b14610236575f5ffd5b8063313ce567116100ef578063313ce567146101865780633644e5151461019557806340c10f191461019d57806342966c68146101b257806370a08231146101c5575f5ffd5b806306fdde0314610120578063095ea7b31461013e57806318160ddd1461016157806323b872dd14610173575b5f5ffd5b6101286102ca565b6040516101359190610e36565b60405180910390f35b61015161014c366004610e6a565b61035a565b6040519015158152602001610135565b6002545b604051908152602001610135565b610151610181366004610e92565b610373565b60405160128152602001610135565b610165610396565b6101b06101ab366004610e6a565b6103a4565b005b6101b06101c0366004610ecc565b6103b2565b6101656101d3366004610ee3565b6001600160a01b03165f9081526020819052604090205490565b6101b06103bf565b6101b0610203366004610e6a565b6103d2565b610165610216366004610ee3565b6103e7565b610223610404565b6040516101359796959493929190610efc565b6005546040516001600160a01b039091168152602001610135565b610128610446565b610151610267366004610e6a565b610455565b6101b061027a366004610f92565b610462565b61016561028d366004610fff565b6001600160a01b039182165f90815260016020908152604080832093909416825291909152205490565b6101b06102c5366004610ee3565b61059d565b6060600380546102d990611030565b80601f016020809104026020016040519081016040528092919081815260200182805461030590611030565b80156103505780601f1061032757610100808354040283529160200191610350565b820191905f5260205f20905b81548152906001019060200180831161033357829003601f168201915b5050505050905090565b5f336103678185856105d7565b60019150505b92915050565b5f336103808582856105e9565b61038b858585610665565b506001949350505050565b5f61039f6106c2565b905090565b6103ae82826107eb565b5050565b6103bc338261081f565b50565b6103c7610853565b6103d05f610880565b565b6103dd8233836105e9565b6103ae828261081f565b6001600160a01b0381165f9081526008602052604081205461036d565b5f6060805f5f5f60606104156108d1565b61041d6108fe565b604080515f80825260208201909252600f60f81b9b939a50919850469750309650945092509050565b6060600480546102d990611030565b5f33610367818585610665565b8342111561048b5760405163313c898160e11b8152600481018590526024015b60405180910390fd5b5f7f6e71edae12b1b97f4d1f60370fef10105fa2faae0126114a169c64845d6126c98888886104d68c6001600160a01b03165f90815260086020526040902080546001810190915590565b6040805160208101969096526001600160a01b0394851690860152929091166060840152608083015260a082015260c0810186905260e0016040516020818303038152906040528051906020012090505f6105308261092b565b90505f61053f82878787610957565b9050896001600160a01b0316816001600160a01b031614610586576040516325c0072360e11b81526001600160a01b0380831660048301528b166024820152604401610482565b6105918a8a8a6105d7565b50505050505050505050565b6105a5610853565b6001600160a01b0381166105ce57604051631e4fbdf760e01b81525f6004820152602401610482565b6103bc81610880565b6105e48383836001610983565b505050565b6001600160a01b038381165f908152600160209081526040808320938616835292905220545f1981101561065f578181101561065157604051637dc7a0d960e11b81526001600160a01b03841660048201526024810182905260448101839052606401610482565b61065f84848484035f610983565b50505050565b6001600160a01b03831661068e57604051634b637e8f60e11b81525f6004820152602401610482565b6001600160a01b0382166106b75760405163ec442f0560e01b81525f6004820152602401610482565b6105e4838383610a55565b5f306001600160a01b037f00000000000000000000000000000000000000000000000000000000000000001614801561071a57507f000000000000000000000000000000000000000000000000000000000000000046145b1561074457507f000000000000000000000000000000000000000000000000000000000000000090565b61039f604080517f8b73c3c69bb8fe3d512ecc4cf759cc79239f7b179b0ffacaa9a75d522b39400f60208201527f0000000000000000000000000000000000000000000000000000000000000000918101919091527f000000000000000000000000000000000000000000000000000000000000000060608201524660808201523060a08201525f9060c00160405160208183030381529060405280519060200120905090565b6001600160a01b0382166108145760405163ec442f0560e01b81525f6004820152602401610482565b6103ae5f8383610a55565b6001600160a01b03821661084857604051634b637e8f60e11b81525f6004820152602401610482565b6103ae825f83610a55565b6005546001600160a01b031633146103d05760405163118cdaa760e01b8152336004820152602401610482565b600580546001600160a01b038381166001600160a01b0319831681179093556040519116919082907f8be0079c531659141344cd1fd0a4f28419497f9722a3daafe3b4186f6b6457e0905f90a35050565b606061039f7f00000000000000000000000000000000000000000000000000000000000000006006610b7b565b606061039f7f00000000000000000000000000000000000000000000000000000000000000006007610b7b565b5f61036d6109376106c2565b8360405161190160f01b8152600281019290925260228201526042902090565b5f5f5f5f61096788888888610c24565b9250925092506109778282610cec565b50909695505050505050565b6001600160a01b0384166109ac5760405163e602df0560e01b81525f6004820152602401610482565b6001600160a01b0383166109d557604051634a1406b160e11b81525f6004820152602401610482565b6001600160a01b038085165f908152600160209081526040808320938716835292905220829055801561065f57826001600160a01b0316846001600160a01b03167f8c5be1e5ebec7d5bd14f71427d1e84f3dd0314c0f7b2291e5b200ac8c7c3b92584604051610a4791815260200190565b60405180910390a350505050565b6001600160a01b038316610a7f578060025f828254610a749190611068565b90915550610aef9050565b6001600160a01b0383165f9081526020819052604090205481811015610ad15760405163391434e360e21b81526001600160a01b03851660048201526024810182905260448101839052606401610482565b6001600160a01b0384165f9081526020819052604090209082900390555b6001600160a01b038216610b0b57600280548290039055610b29565b6001600160a01b0382165f9081526020819052604090208054820190555b816001600160a01b0316836001600160a01b03167fddf252ad1be2c89b69c2b068fc378daa952ba7f163c4a11628f55a4df523b3ef83604051610b6e91815260200190565b60405180910390a3505050565b606060ff8314610b9557610b8e83610da4565b905061036d565b818054610ba190611030565b80601f0160208091040260200160405190810160405280929190818152602001828054610bcd90611030565b8015610c185780601f10610bef57610100808354040283529160200191610c18565b820191905f5260205f20905b815481529060010190602001808311610bfb57829003601f168201915b5050505050905061036d565b5f80807f7fffffffffffffffffffffffffffffff5d576e7357a4501ddfe92f46681b20a0841115610c5d57505f91506003905082610ce2565b604080515f808252602082018084528a905260ff891692820192909252606081018790526080810186905260019060a0016020604051602081039080840390855afa158015610cae573d5f5f3e3d5ffd5b5050604051601f1901519150506001600160a01b038116610cd957505f925060019150829050610ce2565b92505f91508190505b9450945094915050565b5f826003811115610cff57610cff611087565b03610d08575050565b6001826003811115610d1c57610d1c611087565b03610d3a5760405163f645eedf60e01b815260040160405180910390fd5b6002826003811115610d4e57610d4e611087565b03610d6f5760405163fce698f760e01b815260048101829052602401610482565b6003826003811115610d8357610d83611087565b036103ae576040516335e2f38360e21b815260048101829052602401610482565b60605f610db083610de1565b6040805160208082528183019092529192505f91906020820181803683375050509182525060208101929092525090565b5f60ff8216601f81111561036d57604051632cd44ac360e21b815260040160405180910390fd5b5f81518084528060208401602086015e5f602082860101526020601f19601f83011685010191505092915050565b602081525f610e486020830184610e08565b9392505050565b80356001600160a01b0381168114610e65575f5ffd5b919050565b5f5f60408385031215610e7b575f5ffd5b610e8483610e4f565b946020939093013593505050565b5f5f5f60608486031215610ea4575f5ffd5b610ead84610e4f565b9250610ebb60208501610e4f565b929592945050506040919091013590565b5f60208284031215610edc575f5ffd5b5035919050565b5f60208284031215610ef3575f5ffd5b610e4882610e4f565b60ff60f81b8816815260e060208201525f610f1a60e0830189610e08565b8281036040840152610f2c8189610e08565b606084018890526001600160a01b038716608085015260a0840186905283810360c0850152845180825260208087019350909101905f5b81811015610f81578351835260209384019390920191600101610f63565b50909b9a5050505050505050505050565b5f5f5f5f5f5f5f60e0888a031215610fa8575f5ffd5b610fb188610e4f565b9650610fbf60208901610e4f565b95506040880135945060608801359350608088013560ff81168114610fe2575f5ffd5b9699959850939692959460a0840135945060c09093013592915050565b5f5f60408385031215611010575f5ffd5b61101983610e4f565b915061102760208401610e4f565b90509250929050565b600181811c9082168061104457607f821691505b60208210810361106257634e487b7160e01b5f52602260045260245ffd5b50919050565b8082018082111561036d57634e487b7160e01b5f52601160045260245ffd5b634e487b7160e01b5f52602160045260245ffdfea2646970667358221220406aff6e3f51c5e70c2c28c2fd3f0a7d0ef41a4bd7f55f5598884c2101a66ced64736f6c634300081b0033","linkReferences":{}},"methodIdentifiers":{"DOMAIN_SEPARATOR()":"3644e515","allowance(address,address)":"dd62ed3e","approve(address,uint256)":"095ea7b3","balanceOf(address)":"70a08231","burn(uint256)":"42966c68","burnFrom(address,uint256)":"79cc6790","decimals()":"313ce567","eip712Domain()":"84b0196e","mint(address,uint256)":"40c10f19","name()":"06fdde03","nonces(address)":"7ecebe00","owner()":"8da5cb5b","permit(address,address,uint256,uint256,uint8,bytes32,bytes32)":"d505accf","renounceOwnership()":"715018a6","symbol()":"95d89b41","totalSupply()":"18160ddd","transfer(address,uint256)":"a9059cbb","transferFrom(address,address,uint256)":"23b872dd","transferOwnership(address)":"f2fde38b"},"id":12}