{"abi":[{"type":"constructor","inputs":[{"name":"underlying_","type":"address","internalType":"address"},{"name":"peridottroller_","type":"address","internalType":"contract PeridottrollerInterface"},{"name":"interestRateModel_","type":"address","internalType":"contract InterestRateModel"},{"name":"initialExchangeRateMantissa_","type":"uint256","internalType":"uint256"},{"name":"name_","type":"string","internalType":"string"},{"name":"symbol_","type":"string","internalType":"string"},{"name":"decimals_","type":"uint8","internalType":"uint8"},{"name":"admin_","type":"address","internalType":"address payable"},{"name":"implementation_","type":"address","internalType":"address"},{"name":"becomeImplementationData","type":"bytes","internalType":"bytes"}],"stateMutability":"nonpayable"},{"type":"fallback","stateMutability":"payable"},{"type":"function","name":"_acceptAdmin","inputs":[],"outputs":[{"name":"","type":"uint256","internalType":"uint256"}],"stateMutability":"nonpayable"},{"type":"function","name":"_addReserves","inputs":[{"name":"addAmount","type":"uint256","internalType":"uint256"}],"outputs":[{"name":"","type":"uint256","internalType":"uint256"}],"stateMutability":"nonpayable"},{"type":"function","name":"_reduceReserves","inputs":[{"name":"reduceAmount","type":"uint256","internalType":"uint256"}],"outputs":[{"name":"","type":"uint256","internalType":"uint256"}],"stateMutability":"nonpayable"},{"type":"function","name":"_setImplementation","inputs":[{"name":"implementation_","type":"address","internalType":"address"},{"name":"allowResign","type":"bool","internalType":"bool"},{"name":"becomeImplementationData","type":"bytes","internalType":"bytes"}],"outputs":[],"stateMutability":"nonpayable"},{"type":"function","name":"_setInterestRateModel","inputs":[{"name":"newInterestRateModel","type":"address","internalType":"contract InterestRateModel"}],"outputs":[{"name":"","type":"uint256","internalType":"uint256"}],"stateMutability":"nonpayable"},{"type":"function","name":"_setPendingAdmin","inputs":[{"name":"newPendingAdmin","type":"address","internalType":"address payable"}],"outputs":[{"name":"","type":"uint256","internalType":"uint256"}],"stateMutability":"nonpayable"},{"type":"function","name":"_setPeridottroller","inputs":[{"name":"newPeridottroller","type":"address","internalType":"contract PeridottrollerInterface"}],"outputs":[{"name":"","type":"uint256","internalType":"uint256"}],"stateMutability":"nonpayable"},{"type":"function","name":"_setReserveFactor","inputs":[{"name":"newReserveFactorMantissa","type":"uint256","internalType":"uint256"}],"outputs":[{"name":"","type":"uint256","internalType":"uint256"}],"stateMutability":"nonpayable"},{"type":"function","name":"accrualBlockNumber","inputs":[],"outputs":[{"name":"","type":"uint256","internalType":"uint256"}],"stateMutability":"view"},{"type":"function","name":"accrueInterest","inputs":[],"outputs":[{"name":"","type":"uint256","internalType":"uint256"}],"stateMutability":"nonpayable"},{"type":"function","name":"admin","inputs":[],"outputs":[{"name":"","type":"address","internalType":"address payable"}],"stateMutability":"view"},{"type":"function","name":"allowance","inputs":[{"name":"owner","type":"address","internalType":"address"},{"name":"spender","type":"address","internalType":"address"}],"outputs":[{"name":"","type":"uint256","internalType":"uint256"}],"stateMutability":"view"},{"type":"function","name":"approve","inputs":[{"name":"spender","type":"address","internalType":"address"},{"name":"amount","type":"uint256","internalType":"uint256"}],"outputs":[{"name":"","type":"bool","internalType":"bool"}],"stateMutability":"nonpayable"},{"type":"function","name":"balanceOf","inputs":[{"name":"owner","type":"address","internalType":"address"}],"outputs":[{"name":"","type":"uint256","internalType":"uint256"}],"stateMutability":"view"},{"type":"function","name":"balanceOfUnderlying","inputs":[{"name":"owner","type":"address","internalType":"address"}],"outputs":[{"name":"","type":"uint256","internalType":"uint256"}],"stateMutability":"nonpayable"},{"type":"function","name":"borrow","inputs":[{"name":"borrowAmount","type":"uint256","internalType":"uint256"}],"outputs":[{"name":"","type":"uint256","internalType":"uint256"}],"stateMutability":"nonpayable"},{"type":"function","name":"borrowBalanceCurrent","inputs":[{"name":"account","type":"address","internalType":"address"}],"outputs":[{"name":"","type":"uint256","internalType":"uint256"}],"stateMutability":"nonpayable"},{"type":"function","name":"borrowBalanceStored","inputs":[{"name":"account","type":"address","internalType":"address"}],"outputs":[{"name":"","type":"uint256","internalType":"uint256"}],"stateMutability":"view"},{"type":"function","name":"borrowIndex","inputs":[],"outputs":[{"name":"","type":"uint256","internalType":"uint256"}],"stateMutability":"view"},{"type":"function","name":"borrowRatePerBlock","inputs":[],"outputs":[{"name":"","type":"uint256","internalType":"uint256"}],"stateMutability":"view"},{"type":"function","name":"decimals","inputs":[],"outputs":[{"name":"","type":"uint8","internalType":"uint8"}],"stateMutability":"view"},{"type":"function","name":"delegateToImplementation","inputs":[{"name":"data","type":"bytes","internalType":"bytes"}],"outputs":[{"name":"","type":"bytes","internalType":"bytes"}],"stateMutability":"nonpayable"},{"type":"function","name":"delegateToViewImplementation","inputs":[{"name":"data","type":"bytes","internalType":"bytes"}],"outputs":[{"name":"","type":"bytes","internalType":"bytes"}],"stateMutability":"view"},{"type":"function","name":"exchangeRateCurrent","inputs":[],"outputs":[{"name":"","type":"uint256","internalType":"uint256"}],"stateMutability":"nonpayable"},{"type":"function","name":"exchangeRateStored","inputs":[],"outputs":[{"name":"","type":"uint256","internalType":"uint256"}],"stateMutability":"view"},{"type":"function","name":"getAccountSnapshot","inputs":[{"name":"account","type":"address","internalType":"address"}],"outputs":[{"name":"","type":"uint256","internalType":"uint256"},{"name":"","type":"uint256","internalType":"uint256"},{"name":"","type":"uint256","internalType":"uint256"},{"name":"","type":"uint256","internalType":"uint256"}],"stateMutability":"view"},{"type":"function","name":"getCash","inputs":[],"outputs":[{"name":"","type":"uint256","internalType":"uint256"}],"stateMutability":"view"},{"type":"function","name":"implementation","inputs":[],"outputs":[{"name":"","type":"address","internalType":"address"}],"stateMutability":"view"},{"type":"function","name":"interestRateModel","inputs":[],"outputs":[{"name":"","type":"address","internalType":"contract InterestRateModel"}],"stateMutability":"view"},{"type":"function","name":"isPToken","inputs":[],"outputs":[{"name":"","type":"bool","internalType":"bool"}],"stateMutability":"view"},{"type":"function","name":"liquidateBorrow","inputs":[{"name":"borrower","type":"address","internalType":"address"},{"name":"repayAmount","type":"uint256","internalType":"uint256"},{"name":"pTokenCollateral","type":"address","internalType":"contract PTokenInterface"}],"outputs":[{"name":"","type":"uint256","internalType":"uint256"}],"stateMutability":"nonpayable"},{"type":"function","name":"mint","inputs":[{"name":"mintAmount","type":"uint256","internalType":"uint256"}],"outputs":[{"name":"","type":"uint256","internalType":"uint256"}],"stateMutability":"nonpayable"},{"type":"function","name":"name","inputs":[],"outputs":[{"name":"","type":"string","internalType":"string"}],"stateMutability":"view"},{"type":"function","name":"pendingAdmin","inputs":[],"outputs":[{"name":"","type":"address","internalType":"address payable"}],"stateMutability":"view"},{"type":"function","name":"peridottroller","inputs":[],"outputs":[{"name":"","type":"address","internalType":"contract PeridottrollerInterface"}],"stateMutability":"view"},{"type":"function","name":"protocolSeizeShareMantissa","inputs":[],"outputs":[{"name":"","type":"uint256","internalType":"uint256"}],"stateMutability":"view"},{"type":"function","name":"redeem","inputs":[{"name":"redeemTokens","type":"uint256","internalType":"uint256"}],"outputs":[{"name":"","type":"uint256","internalType":"uint256"}],"stateMutability":"nonpayable"},{"type":"function","name":"redeemUnderlying","inputs":[{"name":"redeemAmount","type":"uint256","internalType":"uint256"}],"outputs":[{"name":"","type":"uint256","internalType":"uint256"}],"stateMutability":"nonpayable"},{"type":"function","name":"repayBorrow","inputs":[{"name":"repayAmount","type":"uint256","internalType":"uint256"}],"outputs":[{"name":"","type":"uint256","internalType":"uint256"}],"stateMutability":"nonpayable"},{"type":"function","name":"repayBorrowBehalf","inputs":[{"name":"borrower","type":"address","internalType":"address"},{"name":"repayAmount","type":"uint256","internalType":"uint256"}],"outputs":[{"name":"","type":"uint256","internalType":"uint256"}],"stateMutability":"nonpayable"},{"type":"function","name":"reserveFactorMantissa","inputs":[],"outputs":[{"name":"","type":"uint256","internalType":"uint256"}],"stateMutability":"view"},{"type":"function","name":"seize","inputs":[{"name":"liquidator","type":"address","internalType":"address"},{"name":"borrower","type":"address","internalType":"address"},{"name":"seizeTokens","type":"uint256","internalType":"uint256"}],"outputs":[{"name":"","type":"uint256","internalType":"uint256"}],"stateMutability":"nonpayable"},{"type":"function","name":"supplyRatePerBlock","inputs":[],"outputs":[{"name":"","type":"uint256","internalType":"uint256"}],"stateMutability":"view"},{"type":"function","name":"sweepToken","inputs":[{"name":"token","type":"address","internalType":"contract EIP20NonStandardInterface"}],"outputs":[],"stateMutability":"nonpayable"},{"type":"function","name":"symbol","inputs":[],"outputs":[{"name":"","type":"string","internalType":"string"}],"stateMutability":"view"},{"type":"function","name":"totalBorrows","inputs":[],"outputs":[{"name":"","type":"uint256","internalType":"uint256"}],"stateMutability":"view"},{"type":"function","name":"totalBorrowsCurrent","inputs":[],"outputs":[{"name":"","type":"uint256","internalType":"uint256"}],"stateMutability":"nonpayable"},{"type":"function","name":"totalReserves","inputs":[],"outputs":[{"name":"","type":"uint256","internalType":"uint256"}],"stateMutability":"view"},{"type":"function","name":"totalSupply","inputs":[],"outputs":[{"name":"","type":"uint256","internalType":"uint256"}],"stateMutability":"view"},{"type":"function","name":"transfer","inputs":[{"name":"dst","type":"address","internalType":"address"},{"name":"amount","type":"uint256","internalType":"uint256"}],"outputs":[{"name":"","type":"bool","internalType":"bool"}],"stateMutability":"nonpayable"},{"type":"function","name":"transferFrom","inputs":[{"name":"src","type":"address","internalType":"address"},{"name":"dst","type":"address","internalType":"address"},{"name":"amount","type":"uint256","internalType":"uint256"}],"outputs":[{"name":"","type":"bool","internalType":"bool"}],"stateMutability":"nonpayable"},{"type":"function","name":"underlying","inputs":[],"outputs":[{"name":"","type":"address","internalType":"address"}],"stateMutability":"view"},{"type":"event","name":"AccrueInterest","inputs":[{"name":"cashPrior","type":"uint256","indexed":false,"internalType":"uint256"},{"name":"interestAccumulated","type":"uint256","indexed":false,"internalType":"uint256"},{"name":"borrowIndex","type":"uint256","indexed":false,"internalType":"uint256"},{"name":"totalBorrows","type":"uint256","indexed":false,"internalType":"uint256"}],"anonymous":false},{"type":"event","name":"Approval","inputs":[{"name":"owner","type":"address","indexed":true,"internalType":"address"},{"name":"spender","type":"address","indexed":true,"internalType":"address"},{"name":"amount","type":"uint256","indexed":false,"internalType":"uint256"}],"anonymous":false},{"type":"event","name":"Borrow","inputs":[{"name":"borrower","type":"address","indexed":false,"internalType":"address"},{"name":"borrowAmount","type":"uint256","indexed":false,"internalType":"uint256"},{"name":"accountBorrows","type":"uint256","indexed":false,"internalType":"uint256"},{"name":"totalBorrows","type":"uint256","indexed":false,"internalType":"uint256"}],"anonymous":false},{"type":"event","name":"LiquidateBorrow","inputs":[{"name":"liquidator","type":"address","indexed":false,"internalType":"address"},{"name":"borrower","type":"address","indexed":false,"internalType":"address"},{"name":"repayAmount","type":"uint256","indexed":false,"internalType":"uint256"},{"name":"pTokenCollateral","type":"address","indexed":false,"internalType":"address"},{"name":"seizeTokens","type":"uint256","indexed":false,"internalType":"uint256"}],"anonymous":false},{"type":"event","name":"Mint","inputs":[{"name":"minter","type":"address","indexed":false,"internalType":"address"},{"name":"mintAmount","type":"uint256","indexed":false,"internalType":"uint256"},{"name":"mintTokens","type":"uint256","indexed":false,"internalType":"uint256"}],"anonymous":false},{"type":"event","name":"NewAdmin","inputs":[{"name":"oldAdmin","type":"address","indexed":false,"internalType":"address"},{"name":"newAdmin","type":"address","indexed":false,"internalType":"address"}],"anonymous":false},{"type":"event","name":"NewImplementation","inputs":[{"name":"oldImplementation","type":"address","indexed":false,"internalType":"address"},{"name":"newImplementation","type":"address","indexed":false,"internalType":"address"}],"anonymous":false},{"type":"event","name":"NewMarketInterestRateModel","inputs":[{"name":"oldInterestRateModel","type":"address","indexed":false,"internalType":"contract InterestRateModel"},{"name":"newInterestRateModel","type":"address","indexed":false,"internalType":"contract InterestRateModel"}],"anonymous":false},{"type":"event","name":"NewPendingAdmin","inputs":[{"name":"oldPendingAdmin","type":"address","indexed":false,"internalType":"address"},{"name":"newPendingAdmin","type":"address","indexed":false,"internalType":"address"}],"anonymous":false},{"type":"event","name":"NewPeridottroller","inputs":[{"name":"oldPeridottroller","type":"address","indexed":false,"internalType":"contract PeridottrollerInterface"},{"name":"newPeridottroller","type":"address","indexed":false,"internalType":"contract PeridottrollerInterface"}],"anonymous":false},{"type":"event","name":"NewReserveFactor","inputs":[{"name":"oldReserveFactorMantissa","type":"uint256","indexed":false,"internalType":"uint256"},{"name":"newReserveFactorMantissa","type":"uint256","indexed":false,"internalType":"uint256"}],"anonymous":false},{"type":"event","name":"Redeem","inputs":[{"name":"redeemer","type":"address","indexed":false,"internalType":"address"},{"name":"redeemAmount","type":"uint256","indexed":false,"internalType":"uint256"},{"name":"redeemTokens","type":"uint256","indexed":false,"internalType":"uint256"}],"anonymous":false},{"type":"event","name":"RepayBorrow","inputs":[{"name":"payer","type":"address","indexed":false,"internalType":"address"},{"name":"borrower","type":"address","indexed":false,"internalType":"address"},{"name":"repayAmount","type":"uint256","indexed":false,"internalType":"uint256"},{"name":"accountBorrows","type":"uint256","indexed":false,"internalType":"uint256"},{"name":"totalBorrows","type":"uint256","indexed":false,"internalType":"uint256"}],"anonymous":false},{"type":"event","name":"ReservesAdded","inputs":[{"name":"benefactor","type":"address","indexed":false,"internalType":"address"},{"name":"addAmount","type":"uint256","indexed":false,"internalType":"uint256"},{"name":"newTotalReserves","type":"uint256","indexed":false,"internalType":"uint256"}],"anonymous":false},{"type":"event","name":"ReservesReduced","inputs":[{"name":"admin","type":"address","indexed":false,"internalType":"address"},{"name":"reduceAmount","type":"uint256","indexed":false,"internalType":"uint256"},{"name":"newTotalReserves","type":"uint256","indexed":false,"internalType":"uint256"}],"anonymous":false},{"type":"event","name":"Transfer","inputs":[{"name":"from","type":"address","indexed":true,"internalType":"address"},{"name":"to","type":"address","indexed":true,"internalType":"address"},{"name":"amount","type":"uint256","indexed":false,"internalType":"uint256"}],"anonymous":false}],"bytecode":{"object":"0x608060405234801561000f575f5ffd5b506040516120c23803806120c283398101604081905261002e916103bb565b60038054610100600160a81b031916336101000217905560405161009b908390610068908d908d908d908d908d908d908d906024016104e5565b60408051601f198184030181529190526020810180516001600160e01b03908116631a31d46560e01b179091526100dc16565b506100a7825f8361014f565b5050600380546001600160a01b0390921661010002610100600160a81b03199092169190911790555061057895505050505050565b60605f5f846001600160a01b0316846040516100f89190610549565b5f60405180830381855af49150503d805f8114610130576040519150601f19603f3d011682016040523d82523d5f602084013e610135565b606091505b50909250905081610147573d60208201fd5b949350505050565b60035461010090046001600160a01b031633146101d85760405162461bcd60e51b815260206004820152603960248201527f50457263323044656c656761746f723a3a5f736574496d706c656d656e74617460448201527f696f6e3a2043616c6c6572206d7573742062652061646d696e00000000000000606482015260840160405180910390fd5b8115610217576040805160048152602481019091526020810180516001600160e01b0390811663153ab50560e01b1790915261021591906102ce16565b505b601280546001600160a01b038581166001600160a01b03198316179092556040519116906102809061024d90849060240161055f565b60408051601f198184030181529190526020810180516001600160e01b03908116630adccee560e31b179091526102ce16565b50601254604080516001600160a01b03808516825290921660208301527fd604de94d45953f9138079ec1b82d533cb2160c906d1076d1f7ed54befbca97a910160405180910390a150505050565b6012546060906102e7906001600160a01b0316836100dc565b92915050565b80516001600160a01b0381168114610303575f5ffd5b919050565b634e487b7160e01b5f52604160045260245ffd5b5f82601f83011261032b575f5ffd5b8151602083015f806001600160401b0384111561034a5761034a610308565b50604051601f19601f85018116603f011681018181106001600160401b038211171561037857610378610308565b60405283815290508082840187101561038f575f5ffd5b8383602083015e5f602085830101528094505050505092915050565b805160ff81168114610303575f5ffd5b5f5f5f5f5f5f5f5f5f5f6101408b8d0312156103d5575f5ffd5b6103de8b6102ed565b99506103ec60208c016102ed565b98506103fa60408c016102ed565b60608c015160808d015191995097506001600160401b0381111561041c575f5ffd5b6104288d828e0161031c565b60a08d015190975090506001600160401b03811115610445575f5ffd5b6104518d828e0161031c565b95505061046060c08c016103ab565b935061046e60e08c016102ed565b925061047d6101008c016102ed565b6101208c01519092506001600160401b03811115610499575f5ffd5b6104a58d828e0161031c565b9150509295989b9194979a5092959850565b5f81518084528060208401602086015e5f602082860101526020601f19601f83011685010191505092915050565b6001600160a01b0388811682528781166020830152861660408201526060810185905260e0608082018190525f9061051f908301866104b7565b82810360a084015261053181866104b7565b91505060ff831660c083015298975050505050505050565b5f82518060208501845e5f920191825250919050565b602081525f61057160208301846104b7565b9392505050565b611b3d806105855f395ff3fe6080604052600436106102fe575f3560e01c806373acee981161018f578063c37f68e2116100db578063e9c714f211610094578063f5e3c4621161006e578063f5e3c46214610988578063f851a440146109a7578063f8f9da28146109cb578063fca7820b146109df576102fe565b8063e9c714f214610936578063f2b3abbd1461094a578063f3fdb15a14610969576102fe565b8063c37f68e21461085c578063c423fe291461089b578063c5ebeaec146108ba578063d5c6d3bd146108d9578063db006a75146108f8578063dd62ed3e14610917576102fe565b8063a6afed9511610148578063ae9d70b011610122578063ae9d70b0146107f6578063b2a02ff11461080a578063b71d1a0c14610829578063bd6d894d14610848576102fe565b8063a6afed95146107ae578063a9059cbb146107c2578063aa5af0fd146107e1576102fe565b806373acee9814610714578063852a12e3146107285780638f840ddd1461074757806395d89b411461075c57806395dd919314610770578063a0712d681461078f576102fe565b80633af9e6691161024e5780635a890c0e116102075780636752e702116101e15780636752e702146106a75780636c540baf146106c15780636f307dc3146106d657806370a08231146106f5576102fe565b80635a890c0e146106555780635c60da1b14610669578063601a0bf114610688576102fe565b80633af9e669146105b05780633b1d21a2146105cf5780633e941010146105e35780634487152f1461060257806347bd371814610621578063555bcc4014610636576102fe565b806318160ddd116102bb57806323b872dd1161029557806323b872dd146105105780632608f8181461052f578063267822471461054e578063313ce56714610585576102fe565b806318160ddd146104c8578063182df0f5146104dd5780631be19560146104f1576102fe565b806306fdde03146103ef5780630933c1ed14610419578063095ea7b3146104385780630e75270214610467578063173b99041461049457806317bfdfbc146104a9575b34156103775760405162461bcd60e51b815260206004820152603760248201527f50457263323044656c656761746f723a66616c6c6261636b3a2063616e6e6f7460448201527f2073656e642076616c756520746f2066616c6c6261636b00000000000000000060648201526084015b60405180910390fd5b6012546040515f916001600160a01b031690610396908390369061170e565b5f60405180830381855af49150503d805f81146103ce576040519150601f19603f3d011682016040523d82523d5f602084013e6103d3565b606091505b505090506040513d5f823e8180156103e9573d82f35b3d82fd5b005b3480156103fa575f5ffd5b506104036109fe565b604051610410919061174b565b60405180910390f35b348015610424575f5ffd5b5061040361043336600461181b565b610a8a565b348015610443575f5ffd5b50610457610452366004611864565b610aa9565b6040519015158152602001610410565b348015610472575f5ffd5b5061048661048136600461188e565b610b1a565b604051908152602001610410565b34801561049f575f5ffd5b5061048660085481565b3480156104b4575f5ffd5b506104866104c33660046118a5565b610b7e565b3480156104d3575f5ffd5b50610486600d5481565b3480156104e8575f5ffd5b50610486610bca565b3480156104fc575f5ffd5b506103ed61050b3660046118a5565b610c1c565b34801561051b575f5ffd5b5061045761052a3660046118c0565b610c67565b34801561053a575f5ffd5b50610486610549366004611864565b610ce1565b348015610559575f5ffd5b5060045461056d906001600160a01b031681565b6040516001600160a01b039091168152602001610410565b348015610590575f5ffd5b5060035461059e9060ff1681565b60405160ff9091168152602001610410565b3480156105bb575f5ffd5b506104866105ca3660046118a5565b610d4a565b3480156105da575f5ffd5b50610486610d96565b3480156105ee575f5ffd5b506104866105fd36600461188e565b610dcc565b34801561060d575f5ffd5b5061040361061c36600461181b565b610e13565b34801561062c575f5ffd5b50610486600b5481565b348015610641575f5ffd5b506103ed61065036600461190b565b610eca565b348015610660575f5ffd5b50610457600181565b348015610674575f5ffd5b5060125461056d906001600160a01b031681565b348015610693575f5ffd5b506104866106a236600461188e565b61103c565b3480156106b2575f5ffd5b50610486666379da05b6000081565b3480156106cc575f5ffd5b5061048660095481565b3480156106e1575f5ffd5b5060115461056d906001600160a01b031681565b348015610700575f5ffd5b5061048661070f3660046118a5565b611083565b34801561071f575f5ffd5b506104866110cf565b348015610733575f5ffd5b5061048661074236600461188e565b611105565b348015610752575f5ffd5b50610486600c5481565b348015610767575f5ffd5b5061040361114c565b34801561077b575f5ffd5b5061048661078a3660046118a5565b611159565b34801561079a575f5ffd5b506104866107a936600461188e565b6111a5565b3480156107b9575f5ffd5b506104866111ec565b3480156107cd575f5ffd5b506104576107dc366004611864565b611222565b3480156107ec575f5ffd5b50610486600a5481565b348015610801575f5ffd5b50610486611275565b348015610815575f5ffd5b506104866108243660046118c0565b6112ab565b348015610834575f5ffd5b506104866108433660046118a5565b61131c565b348015610853575f5ffd5b50610486611368565b348015610867575f5ffd5b5061087b6108763660046118a5565b61139e565b604080519485526020850193909352918301526060820152608001610410565b3480156108a6575f5ffd5b5060055461056d906001600160a01b031681565b3480156108c5575f5ffd5b506104866108d436600461188e565b61141b565b3480156108e4575f5ffd5b506104866108f33660046118a5565b611462565b348015610903575f5ffd5b5061048661091236600461188e565b6114ae565b348015610922575f5ffd5b50610486610931366004611969565b6114f5565b348015610941575f5ffd5b50610486611549565b348015610955575f5ffd5b506104866109643660046118a5565b61157f565b348015610974575f5ffd5b5060065461056d906001600160a01b031681565b348015610993575f5ffd5b506104866109a23660046119a0565b6115cb565b3480156109b2575f5ffd5b5060035461056d9061010090046001600160a01b031681565b3480156109d6575f5ffd5b50610486611626565b3480156109ea575f5ffd5b506104866109f936600461188e565b61165c565b60018054610a0b906119df565b80601f0160208091040260200160405190810160405280929190818152602001828054610a37906119df565b8015610a825780601f10610a5957610100808354040283529160200191610a82565b820191905f5260205f20905b815481529060010190602001808311610a6557829003601f168201915b505050505081565b601254606090610aa3906001600160a01b0316836116a3565b92915050565b6040516001600160a01b0383166024820152604481018290525f908190610afc9060640160408051601f198184030181529190526020810180516001600160e01b031663095ea7b360e01b179052610a8a565b905080806020019051810190610b129190611a17565b949350505050565b5f5f610b6183604051602401610b3291815260200190565b60408051601f198184030181529190526020810180516001600160e01b031663073a938160e11b179052610a8a565b905080806020019051810190610b779190611a32565b9392505050565b6040516001600160a01b03821660248201525f908190610b619060440160408051601f198184030181529190526020810180516001600160e01b03166305eff7ef60e21b179052610a8a565b6040805160048152602481019091526020810180516001600160e01b031663182df0f560e01b1790525f908190610c0090610e13565b905080806020019051810190610c169190611a32565b91505090565b6040516001600160a01b0382166024820152610c639060440160408051601f198184030181529190526020810180516001600160e01b031662df0cab60e51b179052610a8a565b5050565b6040516001600160a01b03808516602483015283166044820152606481018290525f908190610cc29060840160408051601f198184030181529190526020810180516001600160e01b03166323b872dd60e01b179052610a8a565b905080806020019051810190610cd89190611a17565b95945050505050565b6040516001600160a01b0383166024820152604481018290525f908190610d349060640160408051601f198184030181529190526020810180516001600160e01b03166304c11f0360e31b179052610a8a565b905080806020019051810190610b129190611a32565b6040516001600160a01b03821660248201525f908190610b619060440160408051601f198184030181529190526020810180516001600160e01b0316633af9e66960e01b179052610a8a565b6040805160048152602481019091526020810180516001600160e01b0316631d8e90d160e11b1790525f908190610c0090610e13565b5f5f610b6183604051602401610de491815260200190565b60408051601f198184030181529190526020810180516001600160e01b03166303e9410160e41b179052610a8a565b60605f5f306001600160a01b031684604051602401610e32919061174b565b60408051601f198184030181529181526020820180516001600160e01b0316630933c1ed60e01b17905251610e679190611a49565b5f60405180830381855afa9150503d805f8114610e9f576040519150601f19603f3d011682016040523d82523d5f602084013e610ea4565b606091505b50909250905081610eb6573d60208201fd5b80806020019051810190610b129190611a5f565b60035461010090046001600160a01b03163314610f4f5760405162461bcd60e51b815260206004820152603960248201527f50457263323044656c656761746f723a3a5f736574496d706c656d656e74617460448201527f696f6e3a2043616c6c6572206d7573742062652061646d696e00000000000000606482015260840161036e565b8115610f89576040805160048152602481019091526020810180516001600160e01b031663153ab50560e01b179052610f8790610a8a565b505b601280546001600160a01b038581166001600160a01b0319831617909255604051911690610fee90610fbf90849060240161174b565b60408051601f198184030181529190526020810180516001600160e01b0316630adccee560e31b179052610a8a565b50601254604080516001600160a01b03808516825290921660208301527fd604de94d45953f9138079ec1b82d533cb2160c906d1076d1f7ed54befbca97a910160405180910390a150505050565b5f5f610b618360405160240161105491815260200190565b60408051601f198184030181529190526020810180516001600160e01b031663601a0bf160e01b179052610a8a565b6040516001600160a01b03821660248201525f908190610b619060440160408051601f198184030181529190526020810180516001600160e01b03166370a0823160e01b179052610e13565b6040805160048152602481019091526020810180516001600160e01b0316630e759dd360e31b1790525f908190610c0090610a8a565b5f5f610b618360405160240161111d91815260200190565b60408051601f198184030181529190526020810180516001600160e01b031663852a12e360e01b179052610a8a565b60028054610a0b906119df565b6040516001600160a01b03821660248201525f908190610b619060440160408051601f198184030181529190526020810180516001600160e01b03166395dd919360e01b179052610e13565b5f5f610b61836040516024016111bd91815260200190565b60408051601f198184030181529190526020810180516001600160e01b031663140e25ad60e31b179052610a8a565b6040805160048152602481019091526020810180516001600160e01b031663a6afed9560e01b1790525f908190610c0090610a8a565b6040516001600160a01b0383166024820152604481018290525f908190610afc9060640160408051601f198184030181529190526020810180516001600160e01b031663a9059cbb60e01b179052610a8a565b6040805160048152602481019091526020810180516001600160e01b0316630ae9d70b60e41b1790525f908190610c0090610e13565b6040516001600160a01b03808516602483015283166044820152606481018290525f9081906113069060840160408051601f198184030181529190526020810180516001600160e01b031663b2a02ff160e01b179052610a8a565b905080806020019051810190610cd89190611a32565b6040516001600160a01b03821660248201525f908190610b619060440160408051601f198184030181529190526020810180516001600160e01b0316632dc7468360e21b179052610a8a565b6040805160048152602481019091526020810180516001600160e01b031663bd6d894d60e01b1790525f908190610c0090610a8a565b5f5f5f5f5f6113f5866040516024016113c691906001600160a01b0391909116815260200190565b60408051601f198184030181529190526020810180516001600160e01b03166361bfb47160e11b179052610e13565b90508080602001905181019061140b9190611ad4565b9450945094509450509193509193565b5f5f610b618360405160240161143391815260200190565b60408051601f198184030181529190526020810180516001600160e01b031663317afabb60e21b179052610a8a565b6040516001600160a01b03821660248201525f908190610b619060440160408051601f198184030181529190526020810180516001600160e01b031663d5c6d3bd60e01b179052610a8a565b5f5f610b61836040516024016114c691815260200190565b60408051601f198184030181529190526020810180516001600160e01b031663db006a7560e01b179052610a8a565b6040516001600160a01b038084166024830152821660448201525f908190610d349060640160408051601f198184030181529190526020810180516001600160e01b0316636eb1769f60e11b179052610e13565b6040805160048152602481019091526020810180516001600160e01b03166374e38a7960e11b1790525f908190610c0090610a8a565b6040516001600160a01b03821660248201525f908190610b619060440160408051601f198184030181529190526020810180516001600160e01b031663f2b3abbd60e01b179052610a8a565b6040516001600160a01b03808516602483015260448201849052821660648201525f9081906113069060840160408051601f198184030181529190526020810180516001600160e01b0316637af1e23160e11b179052610a8a565b6040805160048152602481019091526020810180516001600160e01b0316631f1f3b4560e31b1790525f908190610c0090610e13565b5f5f610b618360405160240161167491815260200190565b60408051601f198184030181529190526020810180516001600160e01b031663fca7820b60e01b179052610a8a565b60605f5f846001600160a01b0316846040516116bf9190611a49565b5f60405180830381855af49150503d805f81146116f7576040519150601f19603f3d011682016040523d82523d5f602084013e6116fc565b606091505b50909250905081610b12573d60208201fd5b818382375f9101908152919050565b5f81518084528060208401602086015e5f602082860101526020601f19601f83011685010191505092915050565b602081525f610b77602083018461171d565b634e487b7160e01b5f52604160045260245ffd5b604051601f8201601f1916810167ffffffffffffffff8111828210171561179a5761179a61175d565b604052919050565b5f67ffffffffffffffff8211156117bb576117bb61175d565b50601f01601f191660200190565b5f82601f8301126117d8575f5ffd5b81356117eb6117e6826117a2565b611771565b8181528460208386010111156117ff575f5ffd5b816020850160208301375f918101602001919091529392505050565b5f6020828403121561182b575f5ffd5b813567ffffffffffffffff811115611841575f5ffd5b610b12848285016117c9565b6001600160a01b0381168114611861575f5ffd5b50565b5f5f60408385031215611875575f5ffd5b82356118808161184d565b946020939093013593505050565b5f6020828403121561189e575f5ffd5b5035919050565b5f602082840312156118b5575f5ffd5b8135610b778161184d565b5f5f5f606084860312156118d2575f5ffd5b83356118dd8161184d565b925060208401356118ed8161184d565b929592945050506040919091013590565b8015158114611861575f5ffd5b5f5f5f6060848603121561191d575f5ffd5b83356119288161184d565b92506020840135611938816118fe565b9150604084013567ffffffffffffffff811115611953575f5ffd5b61195f868287016117c9565b9150509250925092565b5f5f6040838503121561197a575f5ffd5b82356119858161184d565b915060208301356119958161184d565b809150509250929050565b5f5f5f606084860312156119b2575f5ffd5b83356119bd8161184d565b92506020840135915060408401356119d48161184d565b809150509250925092565b600181811c908216806119f357607f821691505b602082108103611a1157634e487b7160e01b5f52602260045260245ffd5b50919050565b5f60208284031215611a27575f5ffd5b8151610b77816118fe565b5f60208284031215611a42575f5ffd5b5051919050565b5f82518060208501845e5f920191825250919050565b5f60208284031215611a6f575f5ffd5b815167ffffffffffffffff811115611a85575f5ffd5b8201601f81018413611a95575f5ffd5b8051611aa36117e6826117a2565b818152856020838501011115611ab7575f5ffd5b8160208401602083015e5f91810160200191909152949350505050565b5f5f5f5f60808587031215611ae7575f5ffd5b50508251602084015160408501516060909501519196909550909250905056fea2646970667358221220a2c1a832c38481428d8bba336fea41618fb3f305699e191c8f6cbe57f4523a6664736f6c634300081b0033","linkReferences":{}},"methodIdentifiers":{"_acceptAdmin()":"e9c714f2","_addReserves(uint256)":"3e941010","_reduceReserves(uint256)":"601a0bf1","_setImplementation(address,bool,bytes)":"555bcc40","_setInterestRateModel(address)":"f2b3abbd","_setPendingAdmin(address)":"b71d1a0c","_setPeridottroller(address)":"d5c6d3bd","_setReserveFactor(uint256)":"fca7820b","accrualBlockNumber()":"6c540baf","accrueInterest()":"a6afed95","admin()":"f851a440","allowance(address,address)":"dd62ed3e","approve(address,uint256)":"095ea7b3","balanceOf(address)":"70a08231","balanceOfUnderlying(address)":"3af9e669","borrow(uint256)":"c5ebeaec","borrowBalanceCurrent(address)":"17bfdfbc","borrowBalanceStored(address)":"95dd9193","borrowIndex()":"aa5af0fd","borrowRatePerBlock()":"f8f9da28","decimals()":"313ce567","delegateToImplementation(bytes)":"0933c1ed","delegateToViewImplementation(bytes)":"4487152f","exchangeRateCurrent()":"bd6d894d","exchangeRateStored()":"182df0f5","getAccountSnapshot(address)":"c37f68e2","getCash()":"3b1d21a2","implementation()":"5c60da1b","interestRateModel()":"f3fdb15a","isPToken()":"5a890c0e","liquidateBorrow(address,uint256,address)":"f5e3c462","mint(uint256)":"a0712d68","name()":"06fdde03","pendingAdmin()":"26782247","peridottroller()":"c423fe29","protocolSeizeShareMantissa()":"6752e702","redeem(uint256)":"db006a75","redeemUnderlying(uint256)":"852a12e3","repayBorrow(uint256)":"0e752702","repayBorrowBehalf(address,uint256)":"2608f818","reserveFactorMantissa()":"173b9904","seize(address,address,uint256)":"b2a02ff1","supplyRatePerBlock()":"ae9d70b0","sweepToken(address)":"1be19560","symbol()":"95d89b41","totalBorrows()":"47bd3718","totalBorrowsCurrent()":"73acee98","totalReserves()":"8f840ddd","totalSupply()":"18160ddd","transfer(address,uint256)":"a9059cbb","transferFrom(address,address,uint256)":"23b872dd","underlying()":"6f307dc3"},"id":16}