{"abi":[{"type":"constructor","inputs":[{"name":"_feedsAggregator","type":"address","internalType":"address"}],"stateMutability":"nonpayable"},{"type":"function","name":"fetchLatestAnswer","inputs":[],"outputs":[{"name":"","type":"uint256","internalType":"uint256"}],"stateMutability":"view"},{"type":"function","name":"fetchLatestRoundData","inputs":[],"outputs":[{"name":"","type":"uint80","internalType":"uint80"},{"name":"","type":"uint256","internalType":"uint256"},{"name":"","type":"uint256","internalType":"uint256"},{"name":"","type":"uint256","internalType":"uint256"},{"name":"","type":"uint80","internalType":"uint80"}],"stateMutability":"view"},{"type":"function","name":"getDecimals","inputs":[],"outputs":[{"name":"","type":"uint8","internalType":"uint8"}],"stateMutability":"view"},{"type":"function","name":"getDescription","inputs":[],"outputs":[{"name":"","type":"string","internalType":"string"}],"stateMutability":"view"}],"bytecode":{"object":"0x6080604052348015600e575f5ffd5b50604051610520380380610520833981016040819052602b91604e565b5f80546001600160a01b0319166001600160a01b03929092169190911790556079565b5f60208284031215605d575f5ffd5b81516001600160a01b03811681146072575f5ffd5b9392505050565b61049a806100865f395ff3fe608060405234801561000f575f5ffd5b506004361061004a575f3560e01c80631a0925411461004e578063527616b81461006c578063a1951c24146100ab578063f0141d84146100c1575b5f5ffd5b6100566100db565b60405161006391906102be565b60405180910390f35b61007461014d565b6040805169ffffffffffffffffffff968716815260208101959095528401929092526060830152909116608082015260a001610063565b6100b36101d6565b604051908152602001610063565b6100c961024a565b60405160ff9091168152602001610063565b5f805460408051633942720b60e11b815290516060936001600160a01b0390931692637284e41692600480820193918290030181865afa158015610121573d5f5f3e3d5ffd5b505050506040513d5f823e601f3d908101601f191682016040526101489190810190610307565b905090565b5f5f5f5f5f5f5f9054906101000a90046001600160a01b03166001600160a01b031663feaf968c6040518163ffffffff1660e01b815260040160a060405180830381865afa1580156101a1573d5f5f3e3d5ffd5b505050506040513d601f19601f820116820180604052508101906101c591906103d8565b945094509450945094509091929394565b5f5f5f9054906101000a90046001600160a01b03166001600160a01b03166350d25bcd6040518163ffffffff1660e01b8152600401602060405180830381865afa158015610226573d5f5f3e3d5ffd5b505050506040513d601f19601f820116820180604052508101906101489190610426565b5f5f5f9054906101000a90046001600160a01b03166001600160a01b031663313ce5676040518163ffffffff1660e01b8152600401602060405180830381865afa15801561029a573d5f5f3e3d5ffd5b505050506040513d601f19601f82011682018060405250810190610148919061043d565b602081525f82518060208401528060208501604085015e5f604082850101526040601f19601f83011684010191505092915050565b634e487b7160e01b5f52604160045260245ffd5b5f60208284031215610317575f5ffd5b815167ffffffffffffffff81111561032d575f5ffd5b8201601f8101841361033d575f5ffd5b805167ffffffffffffffff811115610357576103576102f3565b604051601f8201601f19908116603f0116810167ffffffffffffffff81118282101715610386576103866102f3565b60405281815282820160200186101561039d575f5ffd5b8160208401602083015e5f91810160200191909152949350505050565b805169ffffffffffffffffffff811681146103d3575f5ffd5b919050565b5f5f5f5f5f60a086880312156103ec575f5ffd5b6103f5866103ba565b6020870151604088015160608901519297509095509350915061041a608087016103ba565b90509295509295909350565b5f60208284031215610436575f5ffd5b5051919050565b5f6020828403121561044d575f5ffd5b815160ff8116811461045d575f5ffd5b939250505056fea264697066735822122020c4cca3fbde5d22aed5a6995e8f7a0834cf38d4f7c5013673ad242bb0011add64736f6c634300081b0033","linkReferences":{}},"methodIdentifiers":{"fetchLatestAnswer()":"a1951c24","fetchLatestRoundData()":"527616b8","getDecimals()":"f0141d84","getDescription()":"1a092541"},"id":4}