{"abi":[{"type":"constructor","inputs":[{"name":"_defaultStaleThreshold","type":"uint256","internalType":"uint256"}],"stateMutability":"nonpayable"},{"type":"function","name":"_getFeedsPrice","inputs":[{"name":"feedsAccessAddress","type":"address","internalType":"address"},{"name":"asset","type":"address","internalType":"address"}],"outputs":[{"name":"","type":"uint256","internalType":"uint256"}],"stateMutability":"view"},{"type":"function","name":"admin","inputs":[{"name":"","type":"address","internalType":"address"}],"outputs":[{"name":"","type":"bool","internalType":"bool"}],"stateMutability":"view"},{"type":"function","name":"assetPrices","inputs":[{"name":"asset","type":"address","internalType":"address"}],"outputs":[{"name":"","type":"uint256","internalType":"uint256"}],"stateMutability":"view"},{"type":"function","name":"assetToFeedsAccess","inputs":[{"name":"","type":"address","internalType":"address"}],"outputs":[{"name":"","type":"address","internalType":"address"}],"stateMutability":"view"},{"type":"function","name":"defaultStaleThreshold","inputs":[],"outputs":[{"name":"","type":"uint256","internalType":"uint256"}],"stateMutability":"view"},{"type":"function","name":"deployFeedsAccess","inputs":[{"name":"feedAggregator","type":"address","internalType":"address"}],"outputs":[{"name":"","type":"address","internalType":"address"}],"stateMutability":"nonpayable"},{"type":"function","name":"feedsStaleThreshold","inputs":[{"name":"","type":"address","internalType":"address"}],"outputs":[{"name":"","type":"uint256","internalType":"uint256"}],"stateMutability":"view"},{"type":"function","name":"getOwner","inputs":[],"outputs":[{"name":"","type":"address","internalType":"address"}],"stateMutability":"view"},{"type":"function","name":"getUnderlyingPrice","inputs":[{"name":"pToken","type":"address","internalType":"contract PToken"}],"outputs":[{"name":"","type":"uint256","internalType":"uint256"}],"stateMutability":"view"},{"type":"function","name":"isPriceOracle","inputs":[],"outputs":[{"name":"","type":"bool","internalType":"bool"}],"stateMutability":"view"},{"type":"function","name":"lastValidFeedsPriceMantissa","inputs":[{"name":"","type":"address","internalType":"address"}],"outputs":[{"name":"","type":"uint256","internalType":"uint256"}],"stateMutability":"view"},{"type":"function","name":"registerFeed","inputs":[{"name":"asset","type":"address","internalType":"address"},{"name":"feedsAccessAddress","type":"address","internalType":"address"}],"outputs":[],"stateMutability":"nonpayable"},{"type":"function","name":"removeAdmin","inputs":[{"name":"_admin","type":"address","internalType":"address"}],"outputs":[],"stateMutability":"nonpayable"},{"type":"function","name":"setAdmin","inputs":[{"name":"_newAdmin","type":"address","internalType":"address"}],"outputs":[],"stateMutability":"nonpayable"},{"type":"function","name":"setAssetStaleThreshold","inputs":[{"name":"asset","type":"address","internalType":"address"},{"name":"threshold","type":"uint256","internalType":"uint256"}],"outputs":[],"stateMutability":"nonpayable"},{"type":"function","name":"setDefaultStaleThreshold","inputs":[{"name":"threshold","type":"uint256","internalType":"uint256"}],"outputs":[],"stateMutability":"nonpayable"},{"type":"function","name":"setDirectPrice","inputs":[{"name":"asset","type":"address","internalType":"address"},{"name":"price","type":"uint256","internalType":"uint256"}],"outputs":[],"stateMutability":"nonpayable"},{"type":"function","name":"setOwner","inputs":[{"name":"_newOwner","type":"address","internalType":"address"}],"outputs":[],"stateMutability":"nonpayable"},{"type":"function","name":"setUnderlyingPrice","inputs":[{"name":"pToken","type":"address","internalType":"contract PToken"},{"name":"underlyingPriceMantissa","type":"uint256","internalType":"uint256"}],"outputs":[],"stateMutability":"nonpayable"},{"type":"function","name":"updateCachedPrice","inputs":[{"name":"asset","type":"address","internalType":"address"}],"outputs":[],"stateMutability":"nonpayable"},{"type":"event","name":"FeedRegistered","inputs":[{"name":"asset","type":"address","indexed":false,"internalType":"address"},{"name":"feedsAccess","type":"address","indexed":false,"internalType":"address"}],"anonymous":false},{"type":"event","name":"LastFeedsPriceUpdated","inputs":[{"name":"asset","type":"address","indexed":true,"internalType":"address"},{"name":"priceMantissa","type":"uint256","indexed":false,"internalType":"uint256"}],"anonymous":false},{"type":"event","name":"PricePosted","inputs":[{"name":"asset","type":"address","indexed":false,"internalType":"address"},{"name":"previousPriceMantissa","type":"uint256","indexed":false,"internalType":"uint256"},{"name":"requestedPriceMantissa","type":"uint256","indexed":false,"internalType":"uint256"},{"name":"newPriceMantissa","type":"uint256","indexed":false,"internalType":"uint256"}],"anonymous":false},{"type":"event","name":"StaleThresholdUpdated","inputs":[{"name":"asset","type":"address","indexed":true,"internalType":"address"},{"name":"newThreshold","type":"uint256","indexed":false,"internalType":"uint256"}],"anonymous":false}],"bytecode":{"object":"0x6080604052348015600e575f5ffd5b506040516118d73803806118d7833981016040819052602b916062565b600580546001600160a01b031916339081179091555f908152600160208190526040909120805460ff191690911790556006556078565b5f602082840312156071575f5ffd5b5051919050565b611852806100855f395ff3fe608060405234801561000f575f5ffd5b5060043610610127575f3560e01c8063704b6c02116100a9578063c28bf6631161006e578063c28bf6631461029c578063c37fac87146102bb578063dc577474146102c4578063ebe48d8f146102e3578063fc57d4df146102f6575f5ffd5b8063704b6c021461023f578063751c7dae146102525780637842c0a214610265578063893d20e814610278578063b48fecee14610289575f5ffd5b806331c1946c116100ef57806331c1946c1461018c5780633744406a146101b25780635e9a523c146101f257806363a846f81461020557806366331bba14610237575f5ffd5b806309a8acb01461012b578063127ffda01461014057806313af4035146101535780631785f53c146101665780632d27423614610179575b5f5ffd5b61013e610139366004610eea565b610309565b005b61013e61014e366004610eea565b6103b7565b61013e610161366004610f14565b610468565b61013e610174366004610f14565b6104b4565b61013e610187366004610f2f565b6104fe565b61019f61019a366004610f46565b61052d565b6040519081526020015b60405180910390f35b6101da6101c0366004610f14565b60026020525f90815260409020546001600160a01b031681565b6040516001600160a01b0390911681526020016101a9565b61019f610200366004610f14565b610785565b610227610213366004610f14565b60016020525f908152604090205460ff1681565b60405190151581526020016101a9565b610227600181565b61013e61024d366004610f14565b6108ba565b61013e610260366004610f46565b61090a565b6101da610273366004610f14565b6109a2565b6005546001600160a01b03166101da565b61013e610297366004610eea565b610a67565b61019f6102aa366004610f14565b60046020525f908152604090205481565b61019f60065481565b61019f6102d2366004610f14565b60036020525f908152604090205481565b61013e6102f1366004610f14565b610aed565b61019f610304366004610f14565b610c62565b335f9081526001602052604090205460ff166103405760405162461bcd60e51b815260040161033790610f7d565b60405180910390fd5b6001600160a01b0382165f8181526020818152604091829020548251938452908301528101829052606081018290527fdd71a1d19fcba687442a1d5c58578f1e409af71a79d10fd95a4d66efd8fa9ae79060800160405180910390a16001600160a01b039091165f90815260208190526040902055565b335f9081526001602052604090205460ff166103e55760405162461bcd60e51b815260040161033790610f7d565b5f6103ef83610d5e565b6001600160a01b0381165f8181526020818152604091829020548251938452908301528101849052606081018490529091507fdd71a1d19fcba687442a1d5c58578f1e409af71a79d10fd95a4d66efd8fa9ae79060800160405180910390a16001600160a01b03165f9081526020819052604090205550565b6005546001600160a01b031633146104925760405162461bcd60e51b815260040161033790610fbe565b600580546001600160a01b0319166001600160a01b0392909216919091179055565b6005546001600160a01b031633146104de5760405162461bcd60e51b815260040161033790610fbe565b6001600160a01b03165f908152600160205260409020805460ff19169055565b6005546001600160a01b031633146105285760405162461bcd60e51b815260040161033790610fbe565b600655565b5f3330146105765760405162461bcd60e51b8152602060048201526016602482015275496e7465726e616c2066756e6374696f6e206f6e6c7960501b6044820152606401610337565b5f8390505f5f5f5f5f856001600160a01b031663527616b86040518163ffffffff1660e01b815260040160a060405180830381865afa1580156105bb573d5f5f3e3d5ffd5b505050506040513d601f19601f820116820180604052508101906105df9190611018565b6001600160a01b038d165f90815260036020526040812054959a509398509196509450925081900361061057506006545b8061061b844261107a565b111561065f5760405162461bcd60e51b815260206004820152601360248201527250726963652066656564206973207374616c6560681b6044820152606401610337565b5f85116106ae5760405162461bcd60e51b815260206004820152601760248201527f496e76616c69642070726963652066726f6d20666565640000000000000000006044820152606401610337565b5f876001600160a01b031663f0141d846040518163ffffffff1660e01b8152600401602060405180830381865afa1580156106eb573d5f5f3e3d5ffd5b505050506040513d601f19601f8201168201806040525081019061070f919061108d565b905085601260ff83161015610745576107298260126110ad565b61073490600a6111a9565b61073e90826111b7565b9050610774565b60128260ff1611156107745761075c6012836110ad565b61076790600a6111a9565b61077190826111ce565b90505b985050505050505050505b92915050565b6001600160a01b038082165f90815260026020526040812054909116801561084d57604051630c70651b60e21b81526001600160a01b0380831660048301528416602482015230906331c1946c90604401602060405180830381865afa92505050801561080f575060408051601f3d908101601f1916820190925261080c918101906111ed565b60015b61083e576001600160a01b0383165f908152600460205260409020548015610838579392505050565b5061084d565b801561084b579392505050565b505b6001600160a01b0383165f908152602081905260409020548015610872579392505050565b60405162461bcd60e51b815260206004820152601860248201527f4e6f2076616c696420707269636520617661696c61626c6500000000000000006044820152606401610337565b6005546001600160a01b031633146108e45760405162461bcd60e51b815260040161033790610fbe565b6001600160a01b03165f908152600160208190526040909120805460ff19169091179055565b335f9081526001602052604090205460ff166109385760405162461bcd60e51b815260040161033790610f7d565b6001600160a01b038281165f8181526002602090815260409182902080546001600160a01b031916948616948517905581519283528201929092527f73d979fd03c9000f253d6f57d67ddf5ed50ad2a67bc62c09b2feb7769f81131b910160405180910390a15050565b335f9081526001602052604081205460ff166109d05760405162461bcd60e51b815260040161033790610f7d565b6001600160a01b038216610a265760405162461bcd60e51b815260206004820152601f60248201527f496e76616c696420666565642061676772656761746f722061646472657373006044820152606401610337565b5f82604051610a3490610ec6565b6001600160a01b039091168152602001604051809103905ff080158015610a5d573d5f5f3e3d5ffd5b509150505b919050565b335f9081526001602052604090205460ff16610a955760405162461bcd60e51b815260040161033790610f7d565b6001600160a01b0382165f8181526003602052604090819020839055517f99cffe576c70fdb30c6e4a145c47bf04080b1a0a108463238ff220a619694b1f90610ae19084815260200190565b60405180910390a25050565b6001600160a01b038082165f908152600260205260409020541680610b545760405162461bcd60e51b815260206004820152601c60248201527f4e6f2066656564207265676973746572656420666f72206173736574000000006044820152606401610337565b604051630c70651b60e21b81526001600160a01b0380831660048301528316602482015230906331c1946c90604401602060405180830381865afa925050508015610bbc575060408051601f3d908101601f19168201909252610bb9918101906111ed565b60015b610c085760405162461bcd60e51b815260206004820152601d60248201527f4661696c656420746f20757064617465206361636865642070726963650000006044820152606401610337565b6001600160a01b0383165f8181526004602090815260409182902080549085905591518481529192917fd2fe1b1b3d24b9d01f018e0ad7d70ff297a9dab637afa44aea0ca4af5d1e6462910160405180910390a250505050565b5f5f610c6d83610d5e565b6001600160a01b038082165f90815260026020526040902054919250168015610d3857604051630c70651b60e21b81526001600160a01b0380831660048301528316602482015230906331c1946c90604401602060405180830381865afa925050508015610cf8575060408051601f3d908101601f19168201909252610cf5918101906111ed565b60015b610d28576001600160a01b0382165f908152600460205260409020548015610d2257949350505050565b50610d38565b8015610d3657949350505050565b505b6001600160a01b0382165f90815260208190526040902054801561087257949350505050565b5f5f610de7836001600160a01b03166395d89b416040518163ffffffff1660e01b81526004015f60405180830381865afa158015610d9e573d5f5f3e3d5ffd5b505050506040513d5f823e601f3d908101601f19168201604052610dc59190810190611218565b604051806040016040528060048152602001630e08aa8960e31b815250610e6e565b15610e07575073eeeeeeeeeeeeeeeeeeeeeeeeeeeeeeeeeeeeeeee61077f565b826001600160a01b0316636f307dc36040518163ffffffff1660e01b8152600401602060405180830381865afa158015610e43573d5f5f3e3d5ffd5b505050506040513d601f19601f82011682018060405250810190610e6791906112cb565b9392505050565b5f81604051602001610e8091906112e6565b6040516020818303038152906040528051906020012083604051602001610ea791906112e6565b6040516020818303038152906040528051906020012014905092915050565b610520806112fd83390190565b6001600160a01b0381168114610ee7575f5ffd5b50565b5f5f60408385031215610efb575f5ffd5b8235610f0681610ed3565b946020939093013593505050565b5f60208284031215610f24575f5ffd5b8135610e6781610ed3565b5f60208284031215610f3f575f5ffd5b5035919050565b5f5f60408385031215610f57575f5ffd5b8235610f6281610ed3565b91506020830135610f7281610ed3565b809150509250929050565b60208082526021908201527f4f6e6c792061646d696e2063616e2063616c6c20746869732066756e6374696f6040820152603760f91b606082015260800190565b60208082526021908201527f4f6e6c79206f776e65722063616e2063616c6c20746869732066756e6374696f6040820152603760f91b606082015260800190565b805169ffffffffffffffffffff81168114610a62575f5ffd5b5f5f5f5f5f60a0868803121561102c575f5ffd5b61103586610fff565b6020870151604088015160608901519297509095509350915061105a60808701610fff565b90509295509295909350565b634e487b7160e01b5f52601160045260245ffd5b8181038181111561077f5761077f611066565b5f6020828403121561109d575f5ffd5b815160ff81168114610e67575f5ffd5b60ff828116828216039081111561077f5761077f611066565b6001815b6001841115611101578085048111156110e5576110e5611066565b60018416156110f357908102905b60019390931c9280026110ca565b935093915050565b5f826111175750600161077f565b8161112357505f61077f565b816001811461113957600281146111435761115f565b600191505061077f565b60ff84111561115457611154611066565b50506001821b61077f565b5060208310610133831016604e8410600b8410161715611182575081810a61077f565b61118e5f1984846110c6565b805f19048211156111a1576111a1611066565b029392505050565b5f610e6760ff841683611109565b808202811582820484141761077f5761077f611066565b5f826111e857634e487b7160e01b5f52601260045260245ffd5b500490565b5f602082840312156111fd575f5ffd5b5051919050565b634e487b7160e01b5f52604160045260245ffd5b5f60208284031215611228575f5ffd5b815167ffffffffffffffff81111561123e575f5ffd5b8201601f8101841361124e575f5ffd5b805167ffffffffffffffff81111561126857611268611204565b604051601f8201601f19908116603f0116810167ffffffffffffffff8111828210171561129757611297611204565b6040528181528282016020018610156112ae575f5ffd5b8160208401602083015e5f91810160200191909152949350505050565b5f602082840312156112db575f5ffd5b8151610e6781610ed3565b5f82518060208501845e5f92019182525091905056fe6080604052348015600e575f5ffd5b50604051610520380380610520833981016040819052602b91604e565b5f80546001600160a01b0319166001600160a01b03929092169190911790556079565b5f60208284031215605d575f5ffd5b81516001600160a01b03811681146072575f5ffd5b9392505050565b61049a806100865f395ff3fe608060405234801561000f575f5ffd5b506004361061004a575f3560e01c80631a0925411461004e578063527616b81461006c578063a1951c24146100ab578063f0141d84146100c1575b5f5ffd5b6100566100db565b60405161006391906102be565b60405180910390f35b61007461014d565b6040805169ffffffffffffffffffff968716815260208101959095528401929092526060830152909116608082015260a001610063565b6100b36101d6565b604051908152602001610063565b6100c961024a565b60405160ff9091168152602001610063565b5f805460408051633942720b60e11b815290516060936001600160a01b0390931692637284e41692600480820193918290030181865afa158015610121573d5f5f3e3d5ffd5b505050506040513d5f823e601f3d908101601f191682016040526101489190810190610307565b905090565b5f5f5f5f5f5f5f9054906101000a90046001600160a01b03166001600160a01b031663feaf968c6040518163ffffffff1660e01b815260040160a060405180830381865afa1580156101a1573d5f5f3e3d5ffd5b505050506040513d601f19601f820116820180604052508101906101c591906103d8565b945094509450945094509091929394565b5f5f5f9054906101000a90046001600160a01b03166001600160a01b03166350d25bcd6040518163ffffffff1660e01b8152600401602060405180830381865afa158015610226573d5f5f3e3d5ffd5b505050506040513d601f19601f820116820180604052508101906101489190610426565b5f5f5f9054906101000a90046001600160a01b03166001600160a01b031663313ce5676040518163ffffffff1660e01b8152600401602060405180830381865afa15801561029a573d5f5f3e3d5ffd5b505050506040513d601f19601f82011682018060405250810190610148919061043d565b602081525f82518060208401528060208501604085015e5f604082850101526040601f19601f83011684010191505092915050565b634e487b7160e01b5f52604160045260245ffd5b5f60208284031215610317575f5ffd5b815167ffffffffffffffff81111561032d575f5ffd5b8201601f8101841361033d575f5ffd5b805167ffffffffffffffff811115610357576103576102f3565b604051601f8201601f19908116603f0116810167ffffffffffffffff81118282101715610386576103866102f3565b60405281815282820160200186101561039d575f5ffd5b8160208401602083015e5f91810160200191909152949350505050565b805169ffffffffffffffffffff811681146103d3575f5ffd5b919050565b5f5f5f5f5f60a086880312156103ec575f5ffd5b6103f5866103ba565b6020870151604088015160608901519297509095509350915061041a608087016103ba565b90509295509295909350565b5f60208284031215610436575f5ffd5b5051919050565b5f6020828403121561044d575f5ffd5b815160ff8116811461045d575f5ffd5b939250505056fea264697066735822122020c4cca3fbde5d22aed5a6995e8f7a0834cf38d4f7c5013673ad242bb0011add64736f6c634300081b0033a26469706673582212203125a6bdcd3ecf195450ee366845dfff097f90f301cabaf3da3deb38cc0b095564736f6c634300081b0033","linkReferences":{}},"methodIdentifiers":{"_getFeedsPrice(address,address)":"31c1946c","admin(address)":"63a846f8","assetPrices(address)":"5e9a523c","assetToFeedsAccess(address)":"3744406a","defaultStaleThreshold()":"c37fac87","deployFeedsAccess(address)":"7842c0a2","feedsStaleThreshold(address)":"dc577474","getOwner()":"893d20e8","getUnderlyingPrice(address)":"fc57d4df","isPriceOracle()":"66331bba","lastValidFeedsPriceMantissa(address)":"c28bf663","registerFeed(address,address)":"751c7dae","removeAdmin(address)":"1785f53c","setAdmin(address)":"704b6c02","setAssetStaleThreshold(address,uint256)":"b48fecee","setDefaultStaleThreshold(uint256)":"2d274236","setDirectPrice(address,uint256)":"09a8acb0","setOwner(address)":"13af4035","setUnderlyingPrice(address,uint256)":"127ffda0","updateCachedPrice(address)":"ebe48d8f"},"id":4}