{"abi":[{"type":"constructor","inputs":[{"name":"_pythContract","type":"address","internalType":"address"},{"name":"_staleThreshold","type":"uint256","internalType":"uint256"}],"stateMutability":"nonpayable"},{"type":"function","name":"admin","inputs":[{"name":"","type":"address","internalType":"address"}],"outputs":[{"name":"","type":"bool","internalType":"bool"}],"stateMutability":"view"},{"type":"function","name":"assetPrices","inputs":[{"name":"asset","type":"address","internalType":"address"}],"outputs":[{"name":"","type":"uint256","internalType":"uint256"}],"stateMutability":"view"},{"type":"function","name":"assetToPythId","inputs":[{"name":"","type":"address","internalType":"address"}],"outputs":[{"name":"","type":"bytes32","internalType":"bytes32"}],"stateMutability":"view"},{"type":"function","name":"getUnderlyingPrice","inputs":[{"name":"pToken","type":"address","internalType":"contract PToken"}],"outputs":[{"name":"","type":"uint256","internalType":"uint256"}],"stateMutability":"view"},{"type":"function","name":"isPriceOracle","inputs":[],"outputs":[{"name":"","type":"bool","internalType":"bool"}],"stateMutability":"view"},{"type":"function","name":"lastValidPythPriceMantissa","inputs":[{"name":"","type":"bytes32","internalType":"bytes32"}],"outputs":[{"name":"","type":"uint256","internalType":"uint256"}],"stateMutability":"view"},{"type":"function","name":"pyth","inputs":[],"outputs":[{"name":"","type":"address","internalType":"contract IPyth"}],"stateMutability":"view"},{"type":"function","name":"pythPriceStaleThreshold","inputs":[],"outputs":[{"name":"","type":"uint256","internalType":"uint256"}],"stateMutability":"view"},{"type":"function","name":"registerPythFeed","inputs":[{"name":"asset","type":"address","internalType":"address"},{"name":"priceId","type":"bytes32","internalType":"bytes32"}],"outputs":[],"stateMutability":"nonpayable"},{"type":"function","name":"removeAdmin","inputs":[{"name":"_admin","type":"address","internalType":"address"}],"outputs":[],"stateMutability":"nonpayable"},{"type":"function","name":"setAdmin","inputs":[{"name":"_newAdmin","type":"address","internalType":"address"}],"outputs":[],"stateMutability":"nonpayable"},{"type":"function","name":"setDirectPrice","inputs":[{"name":"asset","type":"address","internalType":"address"},{"name":"price","type":"uint256","internalType":"uint256"}],"outputs":[],"stateMutability":"nonpayable"},{"type":"function","name":"setOwner","inputs":[{"name":"_newOwner","type":"address","internalType":"address"}],"outputs":[],"stateMutability":"nonpayable"},{"type":"function","name":"setPythStaleThreshold","inputs":[{"name":"_newThreshold","type":"uint256","internalType":"uint256"}],"outputs":[],"stateMutability":"nonpayable"},{"type":"function","name":"setUnderlyingPrice","inputs":[{"name":"pToken","type":"address","internalType":"contract PToken"},{"name":"underlyingPriceMantissa","type":"uint256","internalType":"uint256"}],"outputs":[],"stateMutability":"nonpayable"},{"type":"function","name":"updatePythPrices","inputs":[{"name":"priceUpdateData","type":"bytes[]","internalType":"bytes[]"}],"outputs":[],"stateMutability":"payable"},{"type":"event","name":"LastPythPriceUpdated","inputs":[{"name":"priceId","type":"bytes32","indexed":true,"internalType":"bytes32"},{"name":"priceMantissa","type":"uint256","indexed":false,"internalType":"uint256"}],"anonymous":false},{"type":"event","name":"PricePosted","inputs":[{"name":"asset","type":"address","indexed":false,"internalType":"address"},{"name":"previousPriceMantissa","type":"uint256","indexed":false,"internalType":"uint256"},{"name":"requestedPriceMantissa","type":"uint256","indexed":false,"internalType":"uint256"},{"name":"newPriceMantissa","type":"uint256","indexed":false,"internalType":"uint256"}],"anonymous":false},{"type":"event","name":"PythFeedRegistered","inputs":[{"name":"asset","type":"address","indexed":false,"internalType":"address"},{"name":"priceId","type":"bytes32","indexed":false,"internalType":"bytes32"}],"anonymous":false}],"bytecode":{"object":"0x6080604052348015600e575f5ffd5b5060405161127f38038061127f833981016040819052602b91607e565b60048054336001600160a01b031991821681179092555f918252600160208190526040909220805460ff1916909217909155600580549091166001600160a01b03939093169290921790915560065560b3565b5f5f60408385031215608e575f5ffd5b82516001600160a01b038116811460a3575f5ffd5b6020939093015192949293505050565b6111bf806100c05f395ff3fe6080604052600436106100ef575f3560e01c806366331bba11610087578063aa066c9911610057578063aa066c9914610292578063d1b0d9f2146102b1578063f98d06f0146102d0578063fc57d4df14610307575f5ffd5b806366331bba1461021f578063704b6c02146102335780639a3cc26b14610252578063a19529c01461027d575f5ffd5b8063369e171f116100c2578063369e171f1461017157806355b75728146101845780635e9a523c146101c257806363a846f8146101e1575f5ffd5b806309a8acb0146100f3578063127ffda01461011457806313af4035146101335780631785f53c14610152575b5f5ffd5b3480156100fe575f5ffd5b5061011261010d366004610c46565b610326565b005b34801561011f575f5ffd5b5061011261012e366004610c46565b6103d4565b34801561013e575f5ffd5b5061011261014d366004610c70565b610485565b34801561015d575f5ffd5b5061011261016c366004610c70565b6104d1565b61011261017f366004610c92565b61051b565b34801561018f575f5ffd5b506101af61019e366004610c70565b60026020525f908152604090205481565b6040519081526020015b60405180910390f35b3480156101cd575f5ffd5b506101af6101dc366004610c70565b610682565b3480156101ec575f5ffd5b5061020f6101fb366004610c70565b60016020525f908152604090205460ff1681565b60405190151581526020016101b9565b34801561022a575f5ffd5b5061020f600181565b34801561023e575f5ffd5b5061011261024d366004610c70565b610818565b34801561025d575f5ffd5b506101af61026c366004610d03565b60036020525f908152604090205481565b348015610288575f5ffd5b506101af60065481565b34801561029d575f5ffd5b506101126102ac366004610c46565b610868565b3480156102bc575f5ffd5b506101126102cb366004610d03565b6108ed565b3480156102db575f5ffd5b506005546102ef906001600160a01b031681565b6040516001600160a01b0390911681526020016101b9565b348015610312575f5ffd5b506101af610321366004610c70565b61091c565b335f9081526001602052604090205460ff1661035d5760405162461bcd60e51b815260040161035490610d1a565b60405180910390fd5b6001600160a01b0382165f8181526020818152604091829020548251938452908301528101829052606081018290527fdd71a1d19fcba687442a1d5c58578f1e409af71a79d10fd95a4d66efd8fa9ae79060800160405180910390a16001600160a01b039091165f90815260208190526040902055565b335f9081526001602052604090205460ff166104025760405162461bcd60e51b815260040161035490610d1a565b5f61040c83610ac5565b6001600160a01b0381165f8181526020818152604091829020548251938452908301528101849052606081018490529091507fdd71a1d19fcba687442a1d5c58578f1e409af71a79d10fd95a4d66efd8fa9ae79060800160405180910390a16001600160a01b03165f9081526020819052604090205550565b6004546001600160a01b031633146104af5760405162461bcd60e51b815260040161035490610d5b565b600480546001600160a01b0319166001600160a01b0392909216919091179055565b6004546001600160a01b031633146104fb5760405162461bcd60e51b815260040161035490610d5b565b6001600160a01b03165f908152600160205260409020805460ff19169055565b60055460405163d47eed4560e01b81525f916001600160a01b03169063d47eed459061054d9086908690600401610dc4565b602060405180830381865afa158015610568573d5f5f3e3d5ffd5b505050506040513d601f19601f8201168201806040525081019061058c9190610e63565b9050803410156105de5760405162461bcd60e51b815260206004820181905260248201527f496e73756666696369656e742066656520666f722050797468207570646174656044820152606401610354565b600554604051631df3cbc560e31b81526001600160a01b039091169063ef9e5e289083906106129087908790600401610dc4565b5f604051808303818588803b158015610629575f5ffd5b505af115801561063b573d5f5f3e3d5ffd5b50505050508034111561067d57336108fc6106568334610e8e565b6040518115909202915f818181858888f1935050505015801561067b573d5f5f3e3d5ffd5b505b505050565b6001600160a01b0381165f9081526002602052604081205480156107fc576005546040516396834ad360e01b8152600481018390526001600160a01b03909116906396834ad390602401608060405180830381865afa925050508015610705575060408051601f3d908101601f1916820190925261070291810190610f0f565b60015b61072a575f818152600360205260409020548015610724579392505050565b506107fc565b600654606082015161073c9042610e8e565b116107dd575f5f826040015160030b121561076957816040015160030b61076290610f86565b905061076c565b505f5b815167ffffffffffffffff1660128210156107a85761078c826012610e8e565b61079790600a611083565b6107a1908261108e565b90506107d4565b60128211156107d4576107bc601283610e8e565b6107c790600a611083565b6107d190826110a5565b90505b95945050505050565b5f8281526003602052604090205480156107f957949350505050565b50505b50506001600160a01b03165f9081526020819052604090205490565b6004546001600160a01b031633146108425760405162461bcd60e51b815260040161035490610d5b565b6001600160a01b03165f908152600160208190526040909120805460ff19169091179055565b335f9081526001602052604090205460ff166108965760405162461bcd60e51b815260040161035490610d1a565b6001600160a01b0382165f81815260026020908152604091829020849055815192835282018390527f8725af56b2affe6131e7845f6b64d851d31d09d844b39c7feaabf30c90a030cc910160405180910390a15050565b6004546001600160a01b031633146109175760405162461bcd60e51b815260040161035490610d5b565b600655565b5f5f61092783610ac5565b6001600160a01b0381165f908152600260205260409020549091508015610aa7576005546040516396834ad360e01b8152600481018390526001600160a01b03909116906396834ad390602401608060405180830381865afa9250505080156109ad575060408051601f3d908101601f191682019092526109aa91810190610f0f565b60015b6109d3575f8181526003602052604090205480156109cd57949350505050565b50610aa7565b60065460608201516109e59042610e8e565b11610a87575f5f826040015160030b1215610a1257816040015160030b610a0b90610f86565b9050610a15565b505f5b815167ffffffffffffffff166012821015610a5157610a35826012610e8e565b610a4090600a611083565b610a4a908261108e565b9050610a7d565b6012821115610a7d57610a65601283610e8e565b610a7090600a611083565b610a7a90826110a5565b90505b9695505050505050565b5f828152600360205260409020548015610aa45795945050505050565b50505b506001600160a01b03165f9081526020819052604090205492915050565b5f5f610b4e836001600160a01b03166395d89b416040518163ffffffff1660e01b81526004015f60405180830381865afa158015610b05573d5f5f3e3d5ffd5b505050506040513d5f823e601f3d908101601f19168201604052610b2c91908101906110c4565b604051806040016040528060048152602001630e08aa8960e31b815250610bd7565b15610b6e575073eeeeeeeeeeeeeeeeeeeeeeeeeeeeeeeeeeeeeeee610bd1565b826001600160a01b0316636f307dc36040518163ffffffff1660e01b8152600401602060405180830381865afa158015610baa573d5f5f3e3d5ffd5b505050506040513d601f19601f82011682018060405250810190610bce9190611158565b90505b92915050565b5f81604051602001610be99190611173565b6040516020818303038152906040528051906020012083604051602001610c109190611173565b6040516020818303038152906040528051906020012014905092915050565b6001600160a01b0381168114610c43575f5ffd5b50565b5f5f60408385031215610c57575f5ffd5b8235610c6281610c2f565b946020939093013593505050565b5f60208284031215610c80575f5ffd5b8135610c8b81610c2f565b9392505050565b5f5f60208385031215610ca3575f5ffd5b823567ffffffffffffffff811115610cb9575f5ffd5b8301601f81018513610cc9575f5ffd5b803567ffffffffffffffff811115610cdf575f5ffd5b8560208260051b8401011115610cf3575f5ffd5b6020919091019590945092505050565b5f60208284031215610d13575f5ffd5b5035919050565b60208082526021908201527f4f6e6c792061646d696e2063616e2063616c6c20746869732066756e6374696f6040820152603760f91b606082015260800190565b60208082526021908201527f4f6e6c79206f776e65722063616e2063616c6c20746869732066756e6374696f6040820152603760f91b606082015260800190565b81835281816020850137505f828201602090810191909152601f909101601f19169091010190565b602080825281018290525f6040600584901b830181019083018583601e1936839003015b87821015610e5657868503603f190184528235818112610e06575f5ffd5b890160208101903567ffffffffffffffff811115610e22575f5ffd5b803603821315610e30575f5ffd5b610e3b878284610d9c565b96505050602083019250602084019350600182019150610de8565b5092979650505050505050565b5f60208284031215610e73575f5ffd5b5051919050565b634e487b7160e01b5f52601160045260245ffd5b81810381811115610bd157610bd1610e7a565b634e487b7160e01b5f52604160045260245ffd5b6040516080810167ffffffffffffffff81118282101715610ed857610ed8610ea1565b60405290565b604051601f8201601f1916810167ffffffffffffffff81118282101715610f0757610f07610ea1565b604052919050565b5f6080828403128015610f20575f5ffd5b50610f29610eb5565b82518060070b8114610f39575f5ffd5b8152602083015167ffffffffffffffff81168114610f55575f5ffd5b60208201526040830151600381900b8114610f6e575f5ffd5b60408201526060928301519281019290925250919050565b5f600160ff1b8201610f9a57610f9a610e7a565b505f0390565b6001815b6001841115610fdb57808504811115610fbf57610fbf610e7a565b6001841615610fcd57908102905b60019390931c928002610fa4565b935093915050565b5f82610ff157506001610bd1565b81610ffd57505f610bd1565b8160018114611013576002811461101d57611039565b6001915050610bd1565b60ff84111561102e5761102e610e7a565b50506001821b610bd1565b5060208310610133831016604e8410600b841016171561105c575081810a610bd1565b6110685f198484610fa0565b805f190482111561107b5761107b610e7a565b029392505050565b5f610c8b8383610fe3565b8082028115828204841417610bd157610bd1610e7a565b5f826110bf57634e487b7160e01b5f52601260045260245ffd5b500490565b5f602082840312156110d4575f5ffd5b815167ffffffffffffffff8111156110ea575f5ffd5b8201601f810184136110fa575f5ffd5b805167ffffffffffffffff81111561111457611114610ea1565b611127601f8201601f1916602001610ede565b81815285602083850101111561113b575f5ffd5b8160208401602083015e5f91810160200191909152949350505050565b5f60208284031215611168575f5ffd5b8151610c8b81610c2f565b5f82518060208501845e5f92019182525091905056fea264697066735822122033192393554db7b553fa9b93879b50daca857810531150534506be594019d89164736f6c634300081b0033","linkReferences":{}},"methodIdentifiers":{"admin(address)":"63a846f8","assetPrices(address)":"5e9a523c","assetToPythId(address)":"55b75728","getUnderlyingPrice(address)":"fc57d4df","isPriceOracle()":"66331bba","lastValidPythPriceMantissa(bytes32)":"9a3cc26b","pyth()":"f98d06f0","pythPriceStaleThreshold()":"a19529c0","registerPythFeed(address,bytes32)":"aa066c99","removeAdmin(address)":"1785f53c","setAdmin(address)":"704b6c02","setDirectPrice(address,uint256)":"09a8acb0","setOwner(address)":"13af4035","setPythStaleThreshold(uint256)":"d1b0d9f2","setUnderlyingPrice(address,uint256)":"127ffda0","updatePythPrices(bytes[])":"369e171f"},"id":29}